{
	"contracts/CryptoLinkTransfer.sol": {
		"CryptoLinkTransfer": {
			"abi": [
				{
					"inputs": [
						{
							"internalType": "bytes32",
							"name": "linkId",
							"type": "bytes32"
						}
					],
					"name": "claimLink",
					"outputs": [],
					"stateMutability": "nonpayable",
					"type": "function"
				},
				{
					"inputs": [
						{
							"internalType": "uint256",
							"name": "expirationTime",
							"type": "uint256"
						}
					],
					"name": "createLink",
					"outputs": [
						{
							"internalType": "bytes32",
							"name": "",
							"type": "bytes32"
						}
					],
					"stateMutability": "payable",
					"type": "function"
				},
				{
					"inputs": [
						{
							"internalType": "address",
							"name": "sender",
							"type": "address"
						}
					],
					"name": "getSenderLinks",
					"outputs": [
						{
							"internalType": "bytes32[]",
							"name": "",
							"type": "bytes32[]"
						}
					],
					"stateMutability": "view",
					"type": "function"
				},
				{
					"inputs": [
						{
							"internalType": "bytes32",
							"name": "",
							"type": "bytes32"
						}
					],
					"name": "links",
					"outputs": [
						{
							"internalType": "address",
							"name": "sender",
							"type": "address"
						},
						{
							"internalType": "uint256",
							"name": "amount",
							"type": "uint256"
						},
						{
							"internalType": "uint256",
							"name": "expirationTime",
							"type": "uint256"
						},
						{
							"internalType": "bool",
							"name": "claimed",
							"type": "bool"
						}
					],
					"stateMutability": "view",
					"type": "function"
				},
				{
					"inputs": [
						{
							"internalType": "address",
							"name": "",
							"type": "address"
						}
					],
					"name": "nonces",
					"outputs": [
						{
							"internalType": "uint256",
							"name": "",
							"type": "uint256"
						}
					],
					"stateMutability": "view",
					"type": "function"
				},
				{
					"inputs": [
						{
							"internalType": "bytes32",
							"name": "linkId",
							"type": "bytes32"
						}
					],
					"name": "reclaimLink",
					"outputs": [],
					"stateMutability": "nonpayable",
					"type": "function"
				},
				{
					"inputs": [
						{
							"internalType": "address",
							"name": "",
							"type": "address"
						},
						{
							"internalType": "uint256",
							"name": "",
							"type": "uint256"
						}
					],
					"name": "senderLinks",
					"outputs": [
						{
							"internalType": "bytes32",
							"name": "",
							"type": "bytes32"
						}
					],
					"stateMutability": "view",
					"type": "function"
				}
			],
			"devdoc": {
				"kind": "dev",
				"methods": {},
				"version": 1
			},
			"userdoc": {
				"kind": "user",
				"methods": {},
				"version": 1
			},
			"storageLayout": {
				"storage": [
					{
						"astId": 15,
						"contract": "contracts/CryptoLinkTransfer.sol:CryptoLinkTransfer",
						"label": "links",
						"offset": 0,
						"slot": "0",
						"type": "t_mapping(t_bytes32,t_struct(Link)10_storage)"
					},
					{
						"astId": 19,
						"contract": "contracts/CryptoLinkTransfer.sol:CryptoLinkTransfer",
						"label": "nonces",
						"offset": 0,
						"slot": "1",
						"type": "t_mapping(t_address,t_uint256)"
					},
					{
						"astId": 24,
						"contract": "contracts/CryptoLinkTransfer.sol:CryptoLinkTransfer",
						"label": "senderLinks",
						"offset": 0,
						"slot": "2",
						"type": "t_mapping(t_address,t_array(t_bytes32)dyn_storage)"
					}
				],
				"types": {
					"t_address": {
						"encoding": "inplace",
						"label": "address",
						"numberOfBytes": "20"
					},
					"t_array(t_bytes32)dyn_storage": {
						"base": "t_bytes32",
						"encoding": "dynamic_array",
						"label": "bytes32[]",
						"numberOfBytes": "32"
					},
					"t_bool": {
						"encoding": "inplace",
						"label": "bool",
						"numberOfBytes": "1"
					},
					"t_bytes32": {
						"encoding": "inplace",
						"label": "bytes32",
						"numberOfBytes": "32"
					},
					"t_mapping(t_address,t_array(t_bytes32)dyn_storage)": {
						"encoding": "mapping",
						"key": "t_address",
						"label": "mapping(address => bytes32[])",
						"numberOfBytes": "32",
						"value": "t_array(t_bytes32)dyn_storage"
					},
					"t_mapping(t_address,t_uint256)": {
						"encoding": "mapping",
						"key": "t_address",
						"label": "mapping(address => uint256)",
						"numberOfBytes": "32",
						"value": "t_uint256"
					},
					"t_mapping(t_bytes32,t_struct(Link)10_storage)": {
						"encoding": "mapping",
						"key": "t_bytes32",
						"label": "mapping(bytes32 => struct CryptoLinkTransfer.Link)",
						"numberOfBytes": "32",
						"value": "t_struct(Link)10_storage"
					},
					"t_struct(Link)10_storage": {
						"encoding": "inplace",
						"label": "struct CryptoLinkTransfer.Link",
						"members": [
							{
								"astId": 3,
								"contract": "contracts/CryptoLinkTransfer.sol:CryptoLinkTransfer",
								"label": "sender",
								"offset": 0,
								"slot": "0",
								"type": "t_address"
							},
							{
								"astId": 5,
								"contract": "contracts/CryptoLinkTransfer.sol:CryptoLinkTransfer",
								"label": "amount",
								"offset": 0,
								"slot": "1",
								"type": "t_uint256"
							},
							{
								"astId": 7,
								"contract": "contracts/CryptoLinkTransfer.sol:CryptoLinkTransfer",
								"label": "expirationTime",
								"offset": 0,
								"slot": "2",
								"type": "t_uint256"
							},
							{
								"astId": 9,
								"contract": "contracts/CryptoLinkTransfer.sol:CryptoLinkTransfer",
								"label": "claimed",
								"offset": 0,
								"slot": "3",
								"type": "t_bool"
							}
						],
						"numberOfBytes": "128"
					},
					"t_uint256": {
						"encoding": "inplace",
						"label": "uint256",
						"numberOfBytes": "32"
					}
				}
			},
			"evm": {
				"assembly": "// RO data = 0/0 bytes\n// RW data = 0/66624 bytes\n// Stack size = 16384 bytes\n\n// Instructions = 7066\n// Code size = 23138 bytes\n\n      : @0 (gas: 4)\n     0: a2 = a0\n     2: a3 = a0 >> 16\n     5: a0 = 0x0\n     7: jump @7 if a3 != 0\n      : @1 (gas: 2)\n    10: a3 = 0x10000\n    15: jump @7 if a3 <u a1\n      : @2 (gas: 4)\n    18: i64 a1 = a1 + a2\n    21: a0 = a1 + 0x1f\n    24: a0 = a0 & 0xffffffe0\n    27: jump @4 if a0 <=u 65536\n      : @3 (gas: 2)\n    33: a0 = 0x0\n    35: ret\n      : @4 (gas: 2)\n    37: a1 = i32 [0x20000]\n    42: jump @6 if a1 >=u a0\n      : @5 (gas: 5)\n    45: u32 [0x20000] = a0\n    50: a1 = a0\n    52: a0 = 0x20020\n    57: i64 a0 = a0 + a1\n    60: ret\n      : @6 (gas: 3)\n    62: a0 = 0x20020\n    67: i64 a0 = a0 + a1\n    70: ret\n      : @7 (gas: 1)\n    72: ret\n      : @8 (gas: 10)\n    74: i64 sp = i64 sp - i64 32\n    77: u64 [sp + 24] = ra\n    80: u64 [sp + 16] = s0\n    83: u64 [sp + 8] = s1\n    86: i64 s0 = i64 sp + 0x20\n    89: sp = sp & 0xffffffe0\n    92: s1 = a0 & 0x1\n    95: a0 = 0x0\n    97: a1 = 0x0\n    99: ra = 2, jump @0\n      : @9 [@dyn 1] (gas: 7)\n   103: u64 [0x20010] = a0\n   108: u32 [sp + 0] = 1024\n   112: a0 = 0x30020\n   117: a0 = a0 + 0x0\n   119: a1 = sp + 0x0\n   121: ecalli 4 // 'input'\n   123: fallthrough\n      : @10 (gas: 6)\n   124: a0 = u32 [sp]\n   126: u64 [0x30438] = 0\n   131: u64 [0x30430] = 0\n   136: u64 [0x30428] = 0\n   141: u64 [0x30420] = a0\n   146: jump @12 if s1 == 0\n      : @11 (gas: 1)\n   149: ra = 4, jump @13\n      : @12 [@dyn 2] (gas: 1)\n   153: ra = 6, jump @31\n      : @13 [@dyn 3] (gas: 10)\n   158: i64 sp = i64 sp - i64 64\n   161: u64 [sp + 56] = ra\n   164: u64 [sp + 48] = s0\n   167: u64 [sp + 40] = s1\n   170: i64 s0 = i64 sp + 0x40\n   173: sp = sp & 0xffffffe0\n   176: s1 = sp\n   178: a0 = 0x40\n   181: a1 = 0x20\n   184: ra = 8, jump @0\n      : @14 [@dyn 4] (gas: 1)\n   189: jump @29 if a0 == 0\n      : @15 (gas: 18)\n   193: a1 = 0x20010\n   198: u64 [0x20060] = 0\n   203: u64 [0x20058] = 0\n   208: u64 [0x20050] = 0\n   213: a0 = 0x8000000000000000\n   223: u64 [s1 + 16] = a1\n   226: u64 [0x20068] = a0\n   231: i64 a0 = i64 sp - i64 32\n   234: a0 = a0 & 0xffffffe0\n   237: u64 [s1 + 24] = a0\n   240: sp = a0\n   242: u64 [a0 + 24] = 0\n   245: u64 [a0 + 16] = 0\n   248: u64 [a0 + 8] = 0\n   251: u64 [a0 + 0] = 0\n   253: a0 = a0 + 0x0\n   255: ecalli 11 // 'value_transferred'\n   257: fallthrough\n      : @16 (gas: 9)\n   258: a3 = u64 [s1 + 24]\n   261: a0 = u64 [a3 + 16]\n   264: a1 = u64 [a3 + 24]\n   267: a2 = u64 [a3 + 8]\n   270: a3 = u64 [a3]\n   272: a1 = a1 | a2\n   275: a0 = a0 | a3\n   278: a0 = a0 | a1\n   281: jump @27 if a0 != 0\n      : @17 (gas: 3)\n   284: a0 = 0x40\n   287: a1 = 0x20\n   290: ra = 10, jump @0\n      : @18 [@dyn 5] (gas: 1)\n   295: jump @29 if a0 == 0\n      : @19 (gas: 17)\n   298: a3 = u64 [s1 + 16]\n   301: a0 = u64 [a3 + 72]\n   304: a1 = u64 [a3 + 88]\n   307: a2 = u64 [a3 + 64]\n   310: a3 = u64 [a3 + 80]\n   313: a4 = reverse a0\n   315: a0 = reverse a1\n   317: a1 = reverse a2\n   319: a2 = reverse a3\n   321: a1 = a1 | a2\n   324: a2 = a0 | a4\n   327: a2 = a2 | a1\n   330: a2 = a2 >>64 32\n   333: a1 = a1 | a4\n   336: a1 = a1 <<64 32\n   339: a1 = a1 | a2\n   342: jump @29 if a1 != 0\n      : @20 (gas: 3)\n   345: a0 = a0 + 0x0\n   347: u64 [s1 + 24] = a0\n   350: ra = 12, jump @0\n      : @21 [@dyn 6] (gas: 1)\n   355: jump @29 if a0 == 0\n      : @22 (gas: 2)\n   358: a1 = i32 [0x20018]\n   363: jump @24 if a1 == 0\n      : @23 (gas: 4)\n   366: a0 = 0x30440\n   371: a0 = a0 + 0x0\n   373: ecalli 9 // 'set_immutable_data'\n   375: fallthrough\n      : @24 (gas: 3)\n   376: a0 = u64 [s1 + 24]\n   379: a1 = 0x0\n   381: ra = 14, jump @0\n      : @25 [@dyn 7] (gas: 1)\n   386: jump @29 if a0 == 0\n      : @26 (gas: 7)\n   389: a0 = u64 [s1 + 16]\n   392: a1 = u64 [s1 + 24]\n   395: a1 = a1 + a0\n   398: a0 = 0x0\n   400: a2 = 0x0\n   402: ecalli 8 // 'seal_return'\n   404: fallthrough\n      : @27 (gas: 3)\n   405: a0 = 0x0\n   407: a1 = 0x0\n   409: ra = 16, jump @0\n      : @28 [@dyn 8] (gas: 1)\n   414: jump @30 if a0 != 0\n      : @29 (gas: 1)\n   417: trap\n      : @30 (gas: 6)\n   418: a1 = i32 [s1 + 16]\n   421: a0 = 0x1\n   424: a2 = 0x0\n   426: ra = 0x12\n   429: ecalli 8 // 'seal_return'\n   431: fallthrough\n      : @31 [@dyn 9] (gas: 9)\n   432: i64 sp = i64 sp - i64 1120\n   436: u64 [sp + 1112] = ra\n   440: u64 [sp + 1104] = s0\n   444: u64 [sp + 1096] = s1\n   448: i64 s0 = i64 sp + 0x460\n   452: sp = sp & 0xffffffe0\n   455: a0 = 0x40\n   458: a1 = 0x20\n   461: ra = 20, jump @0\n      : @32 [@dyn 10] (gas: 1)\n   466: jump @34 if a0 != 0\n      : @33 (gas: 1)\n   469: jump @125\n      : @34 (gas: 21)\n   472: a3 = 0x20010\n   477: u64 [0x20060] = 0\n   482: u64 [0x20058] = 0\n   487: u64 [0x20050] = 0\n   492: a1 = 0x30420\n   497: a0 = u64 [0x30438]\n   502: t2 = u64 [0x30430]\n   507: t0 = u64 [0x30420]\n   512: a2 = u64 [0x30428]\n   517: a4 = a0 >u 0x0\n   519: a5 = t2 >u 0x0\n   521: a5 = a4 if a0 != 0\n   524: a4 = a2 >u 0x0\n   526: s1 = t0 <u 0x4\n   529: s1 = s1 ^ 0x1\n   532: s1 = a4 if a2 != 0\n   535: a4 = t2 | a0\n   538: s1 = a5 if a4 != 0\n   541: a4 = 0x8000000000000000\n   551: u64 [0x20068] = a4\n   556: jump @82 if s1 == 0\n      : @35 (gas: 7)\n   560: t1 = 0x30020\n   565: a4 = u64 [0x30020]\n   570: a4 = reverse a4\n   572: a4 = a4 >>a64 32\n   575: a5 = 0xf8559865\n   581: u64 [sp + 344] = a3\n   585: jump @60 if a5 >=s a4\n      : @36 (gas: 3)\n   589: a5 = 0x7a644000\n   595: s1 = 0x7a643aef\n   601: jump @73 if s1 <s a4\n      : @37 (gas: 2)\n   605: a5 = 0xf8559866\n   611: jump @98 if a4 == a5\n      : @38 (gas: 2)\n   615: u64 [sp + 472] = t1\n   619: jump @82 if a4 != 1724986204\n      : @39 (gas: 8)\n   627: s1 = 0x30420\n   632: u64 [sp + 1048] = 0\n   636: u64 [sp + 1040] = 0\n   640: u64 [sp + 1032] = 0\n   644: u64 [sp + 1024] = 0\n   648: a0 = sp + 0x400\n   652: ecalli 11 // 'value_transferred'\n   654: fallthrough\n      : @40 (gas: 8)\n   655: a0 = u64 [sp + 1040]\n   659: a1 = u64 [sp + 1048]\n   663: a2 = u64 [sp + 1032]\n   667: a3 = u64 [sp + 1024]\n   671: a1 = a1 | a2\n   674: a0 = a0 | a3\n   677: a0 = a0 | a1\n   680: jump @42 if a0 == 0\n      : @41 (gas: 1)\n   683: jump @123\n      : @42 (gas: 27)\n   686: a0 = u64 [0x30420]\n   691: a1 = u64 [0x30438]\n   696: a2 = u64 [0x30428]\n   701: a3 = u64 [0x30430]\n   706: i64 a4 = i64 a0 - i64 4\n   709: a0 = a4 <u a0\n   712: i64 a5 = a2 + a0\n   715: i64 a5 = i64 a5 - i64 1\n   718: s1 = a5 ^ a2\n   721: a2 = a5 <u a2\n   724: a2 = a0 if s1 == 0\n   727: i64 a0 = i64 a3 - i64 1\n   730: i64 a2 = a2 + a0\n   733: a0 = a2 <u a0\n   736: a3 = a3 <u 0x1\n   739: i64 a1 = i64 a1 - i64 a3\n   742: i64 a0 = a0 + a1\n   745: a1 = a0 >s 0\n   747: a3 = a2 >u 0x0\n   749: a3 = a1 if a0 != 0\n   752: a0 = a0 | a2\n   755: a1 = a5 >u 0x0\n   757: a2 = a4 <u 0x20\n   760: a2 = a2 ^ 0x1\n   763: a2 = a1 if a5 != 0\n   766: a2 = a3 if a0 != 0\n   769: jump @44 if a2 != 0\n      : @43 (gas: 1)\n   772: jump @123\n      : @44 (gas: 13)\n   775: a4 = u64 [sp + 472]\n   779: a0 = u64 [a4 + 4]\n   782: a1 = u64 [a4 + 12]\n   785: a2 = reverse a0\n   787: a0 = reverse a1\n   789: a1 = 0x100000000\n   799: a1 = a1 ^ a0\n   802: a1 = a1 | a2\n   805: a3 = a0 >>64 32\n   808: a3 = a3 <u 0x1\n   811: a3 = 0 if a2 != 0\n   813: a3 = 0 if a1 == 0\n   815: jump @46 if a3 != 0\n      : @45 (gas: 1)\n   818: jump @123\n      : @46 (gas: 10)\n   821: a1 = u64 [a4 + 20]\n   824: a3 = u64 [a4 + 28]\n   827: t2 = reverse a1\n   829: a5 = reverse a3\n   831: u64 [sp] = a0\n   833: i64 a0 = i64 sp + 0x200\n   837: a1 = 0x2\n   840: u64 [sp + 8] = a2\n   843: a4 = 0x0\n   845: ra = 22, jump @217\n      : @47 [@dyn 11] (gas: 10)\n   850: a0 = u64 [sp + 536]\n   854: u64 [sp + 472] = a0\n   858: s1 = u64 [sp + 528]\n   862: a0 = u64 [sp + 520]\n   866: u64 [sp + 464] = a0\n   870: a0 = u64 [sp + 512]\n   874: u64 [sp + 456] = a0\n   878: a0 = 0x40\n   881: a1 = 0x20\n   884: ra = 24, jump @0\n      : @48 [@dyn 12] (gas: 1)\n   889: jump @50 if a0 != 0\n      : @49 (gas: 1)\n   892: jump @125\n      : @50 (gas: 36)\n   895: a3 = u64 [sp + 344]\n   899: a0 = u64 [a3 + 72]\n   902: a1 = u64 [a3 + 64]\n   905: a2 = u64 [a3 + 80]\n   908: a3 = u64 [a3 + 88]\n   911: a0 = reverse a0\n   913: u64 [sp + 280] = a0\n   917: a0 = reverse a1\n   919: u64 [sp + 296] = a0\n   923: a0 = reverse a2\n   925: u64 [sp + 272] = a0\n   929: a1 = reverse a3\n   931: u64 [sp + 288] = a1\n   935: u64 [sp + 448] = s1\n   939: u64 [sp + 912] = s1\n   943: a1 = u64 [sp + 464]\n   947: u64 [sp + 904] = a1\n   951: a1 = u64 [sp + 456]\n   955: u64 [sp + 896] = a1\n   959: a0 = u64 [sp + 472]\n   963: u64 [sp + 920] = a0\n   967: u64 [sp + 1080] = 0\n   971: u64 [sp + 1072] = 0\n   975: u64 [sp + 1064] = 0\n   979: u64 [sp + 1056] = 0\n   983: u64 [sp + 976] = 0\n   987: u64 [sp + 984] = 0\n   991: u64 [sp + 968] = 0\n   995: u64 [sp + 960] = 256\n  1001: a1 = sp + 0x380\n  1005: a3 = sp + 0x420\n  1009: a4 = sp + 0x3c0\n  1013: a2 = 0xffffffff\n  1016: a0 = 0x0\n  1018: ecalli 2 // 'get_storage'\n  1020: fallthrough\n      : @51 (gas: 12)\n  1021: s1 = u64 [sp + 288]\n  1025: a1 = u64 [sp + 272]\n  1029: a2 = u64 [sp + 280]\n  1033: a0 = u64 [sp + 296]\n  1037: a0 = a0 | a1\n  1040: a1 = s1 | a2\n  1043: a1 = a1 | a0\n  1046: a1 = a1 >>64 32\n  1049: a0 = a0 | a2\n  1052: a0 = a0 <<64 32\n  1055: a0 = a0 | a1\n  1058: jump @53 if a0 == 0\n      : @52 (gas: 1)\n  1061: jump @125\n      : @53 (gas: 12)\n  1064: a0 = u64 [sp + 1080]\n  1068: u64 [sp + 312] = a0\n  1072: a0 = u64 [sp + 1072]\n  1076: u64 [sp + 336] = a0\n  1080: a0 = u64 [sp + 1064]\n  1084: u64 [sp + 328] = a0\n  1088: a0 = u64 [sp + 1056]\n  1092: u64 [sp + 320] = a0\n  1096: s1 = s1 + 0x0\n  1098: a1 = 0x20\n  1101: a0 = s1\n  1103: ra = 26, jump @0\n      : @54 [@dyn 13] (gas: 1)\n  1108: jump @56 if a0 != 0\n      : @55 (gas: 1)\n  1111: jump @125\n      : @56 (gas: 78)\n  1114: a0 = u64 [sp + 344]\n  1118: u64 [sp + 264] = s1\n  1122: i64 a2 = a0 + s1\n  1125: a0 = u64 [sp + 320]\n  1129: a0 = reverse a0\n  1131: a1 = a0 >>64 56\n  1134: u8 [a2 + 31] = a1\n  1137: a1 = a0 >>64 48\n  1140: u8 [a2 + 30] = a1\n  1143: a1 = a0 >>64 40\n  1146: u8 [a2 + 29] = a1\n  1149: a1 = a0 >>64 32\n  1152: u8 [a2 + 28] = a1\n  1155: a1 = a0 >>64 24\n  1158: u8 [a2 + 27] = a1\n  1161: a1 = a0 >>64 16\n  1164: u8 [a2 + 26] = a1\n  1167: a1 = u64 [sp + 328]\n  1171: a1 = reverse a1\n  1173: u8 [a2 + 24] = a0\n  1176: a0 = a0 >>64 8\n  1179: u8 [a2 + 25] = a0\n  1182: a0 = a1 >>64 56\n  1185: u8 [a2 + 23] = a0\n  1188: a0 = a1 >>64 48\n  1191: u8 [a2 + 22] = a0\n  1194: a0 = a1 >>64 40\n  1197: u8 [a2 + 21] = a0\n  1200: a0 = a1 >>64 32\n  1203: u8 [a2 + 20] = a0\n  1206: a0 = a1 >>64 24\n  1209: u8 [a2 + 19] = a0\n  1212: a0 = a1 >>64 16\n  1215: u8 [a2 + 18] = a0\n  1218: a0 = u64 [sp + 336]\n  1222: a0 = reverse a0\n  1224: u8 [a2 + 16] = a1\n  1227: a1 = a1 >>64 8\n  1230: u8 [a2 + 17] = a1\n  1233: a1 = a0 >>64 56\n  1236: u8 [a2 + 15] = a1\n  1239: a1 = a0 >>64 48\n  1242: u8 [a2 + 14] = a1\n  1245: a1 = a0 >>64 40\n  1248: u8 [a2 + 13] = a1\n  1251: a1 = a0 >>64 32\n  1254: u8 [a2 + 12] = a1\n  1257: a1 = a0 >>64 24\n  1260: u8 [a2 + 11] = a1\n  1263: a1 = a0 >>64 16\n  1266: u8 [a2 + 10] = a1\n  1269: s1 = u64 [sp + 312]\n  1273: a1 = reverse s1\n  1275: u8 [a2 + 8] = a0\n  1278: a0 = a0 >>64 8\n  1281: u8 [a2 + 9] = a0\n  1284: a0 = a1 >>64 56\n  1287: u8 [a2 + 7] = a0\n  1290: a0 = a1 >>64 48\n  1293: u8 [a2 + 6] = a0\n  1296: a0 = a1 >>64 40\n  1299: u8 [a2 + 5] = a0\n  1302: a0 = a1 >>64 32\n  1305: u8 [a2 + 4] = a0\n  1308: a0 = a1 >>64 24\n  1311: u8 [a2 + 3] = a0\n  1314: a0 = a1 >>64 16\n  1317: u8 [a2 + 2] = a0\n  1320: u8 [a2] = a1\n  1322: a1 = a1 >>64 8\n  1325: u64 [sp + 256] = a2\n  1329: u8 [a2 + 1] = a1\n  1332: i64 a0 = i64 sp + 0x1e0\n  1336: a1 = u64 [sp + 456]\n  1340: a2 = u64 [sp + 464]\n  1344: a3 = u64 [sp + 448]\n  1348: a4 = u64 [sp + 472]\n  1352: ra = 28, jump @225\n      : @57 [@dyn 14] (gas: 22)\n  1357: a1 = u64 [sp + 288]\n  1361: i64 a0 = i64 a1 + 0x20\n  1364: u64 [sp + 456] = a0\n  1368: a2 = a0 <u a1\n  1371: a1 = u64 [sp + 272]\n  1375: i64 a0 = a1 + a2\n  1378: u64 [sp + 464] = a0\n  1382: a3 = a0 <u a1\n  1385: a3 = a2 if a2 == 0\n  1388: ra = u64 [sp + 280]\n  1392: i64 a2 = ra + a3\n  1395: a0 = u64 [sp + 320]\n  1399: a3 = u64 [sp + 336]\n  1403: a3 = a3 | a0\n  1406: a4 = u64 [sp + 328]\n  1410: a4 = a4 | s1\n  1413: a4 = a4 | a3\n  1416: a3 = a2 <u ra\n  1419: a0 = u64 [sp + 296]\n  1423: i64 s1 = a0 + a3\n  1426: u64 [sp + 440] = s1\n  1430: jump @59 if a4 == 0\n      : @58 (gas: 1)\n  1433: jump @179\n      : @59 (gas: 2)\n  1436: a1 = u64 [sp + 464]\n  1440: jump @185\n      : @60 (gas: 3)\n  1443: s1 = 0x30420\n  1448: u64 [sp + 472] = t1\n  1452: jump @83 if a4 == 2860959683\n      : @61 (gas: 1)\n  1460: jump @120 if a4 == 3002911871\n      : @62 (gas: 1)\n  1468: jump @82 if a4 != 3108628904\n      : @63 (gas: 7)\n  1476: u64 [sp + 856] = 0\n  1480: u64 [sp + 848] = 0\n  1484: u64 [sp + 840] = 0\n  1488: u64 [sp + 832] = 0\n  1492: a0 = sp + 0x340\n  1496: ecalli 11 // 'value_transferred'\n  1498: fallthrough\n      : @64 (gas: 8)\n  1499: a0 = u64 [sp + 848]\n  1503: a1 = u64 [sp + 856]\n  1507: a2 = u64 [sp + 840]\n  1511: a3 = u64 [sp + 832]\n  1515: a1 = a1 | a2\n  1518: a0 = a0 | a3\n  1521: a0 = a0 | a1\n  1524: jump @123 if a0 != 0\n      : @65 (gas: 27)\n  1528: a0 = u64 [0x30420]\n  1533: a1 = u64 [0x30438]\n  1538: a2 = u64 [0x30428]\n  1543: a3 = u64 [0x30430]\n  1548: i64 a4 = i64 a0 - i64 4\n  1551: a0 = a4 <u a0\n  1554: i64 a5 = a2 + a0\n  1557: i64 a5 = i64 a5 - i64 1\n  1560: s1 = a5 ^ a2\n  1563: a2 = a5 <u a2\n  1566: a2 = a0 if s1 == 0\n  1569: i64 a0 = i64 a3 - i64 1\n  1572: i64 a2 = a2 + a0\n  1575: a0 = a2 <u a0\n  1578: a3 = a3 <u 0x1\n  1581: i64 a1 = i64 a1 - i64 a3\n  1584: i64 a0 = a0 + a1\n  1587: a1 = a0 >s 0\n  1589: a3 = a2 >u 0x0\n  1591: a3 = a1 if a0 != 0\n  1594: a0 = a0 | a2\n  1597: a1 = a5 >u 0x0\n  1599: a2 = a4 <u 0x20\n  1602: a2 = a2 ^ 0x1\n  1605: a2 = a1 if a5 != 0\n  1608: a2 = a3 if a0 != 0\n  1611: jump @123 if a2 == 0\n      : @66 (gas: 14)\n  1615: a3 = u64 [sp + 472]\n  1619: a0 = u64 [a3 + 28]\n  1622: a1 = u64 [a3 + 20]\n  1625: a2 = u64 [a3 + 12]\n  1628: a3 = u64 [a3 + 4]\n  1631: a5 = reverse a0\n  1633: t2 = reverse a1\n  1635: a1 = reverse a2\n  1637: a0 = reverse a3\n  1639: u64 [sp + 8] = a0\n  1642: i64 a0 = i64 sp + 0x300\n  1646: u64 [sp] = a1\n  1648: a4 = 0x0\n  1650: ra = 30, jump @231\n      : @67 [@dyn 15] (gas: 48)\n  1655: a1 = u64 [sp + 768]\n  1659: u64 [sp + 464] = a1\n  1663: a4 = u64 [sp + 792]\n  1667: u64 [sp + 472] = a4\n  1671: a2 = u64 [sp + 776]\n  1675: u64 [sp + 456] = a2\n  1679: s1 = u64 [sp + 784]\n  1683: i64 a1 = i64 a1 + 0x1\n  1686: a0 = a1 <u 0x1\n  1689: i64 a2 = a2 + a0\n  1692: a0 = a1 | a2\n  1695: a0 = a0 <u 0x1\n  1698: i64 a3 = s1 + a0\n  1701: a0 = a3 <u s1\n  1704: i64 a0 = a0 + a4\n  1707: u64 [sp + 432] = a1\n  1711: u64 [sp + 896] = a1\n  1715: u64 [sp + 448] = a2\n  1719: u64 [sp + 904] = a2\n  1723: u64 [sp + 440] = a3\n  1727: u64 [sp + 912] = a3\n  1731: u64 [sp + 424] = a0\n  1735: u64 [sp + 920] = a0\n  1739: u64 [sp + 1080] = 0\n  1743: u64 [sp + 1072] = 0\n  1747: u64 [sp + 1064] = 0\n  1751: u64 [sp + 1056] = 0\n  1755: u64 [sp + 1040] = 0\n  1759: u64 [sp + 1048] = 0\n  1763: u64 [sp + 1032] = 0\n  1767: u64 [sp + 1024] = 256\n  1773: a1 = sp + 0x380\n  1777: a3 = sp + 0x420\n  1781: a4 = sp + 0x400\n  1785: a2 = 0xffffffff\n  1788: a0 = 0x0\n  1790: ecalli 2 // 'get_storage'\n  1792: a0 = u64 [sp + 1072]\n  1796: a1 = u64 [sp + 1080]\n  1800: a2 = u64 [sp + 1064]\n  1804: a3 = u64 [sp + 1056]\n  1808: a1 = a1 | a2\n  1811: a0 = a0 | a3\n  1814: a0 = a0 | a1\n  1817: a0 = a0 >u 0x0\n  1819: a2 = 0x0\n  1821: a3 = 0x0\n  1823: ra = 32, jump @266\n      : @68 [@dyn 16] (gas: 34)\n  1828: a1 = u64 [sp + 464]\n  1832: i64 a0 = i64 a1 + 0x3\n  1835: a1 = a0 <u a1\n  1838: a3 = u64 [sp + 456]\n  1842: i64 a2 = a3 + a1\n  1845: a3 = a2 <u a3\n  1848: a3 = a1 if a1 == 0\n  1851: i64 a3 = a3 + s1\n  1854: a1 = a3 <u s1\n  1857: a4 = u64 [sp + 472]\n  1861: i64 a1 = a1 + a4\n  1864: u64 [sp + 920] = a1\n  1868: u64 [sp + 912] = a3\n  1872: u64 [sp + 904] = a2\n  1876: u64 [sp + 896] = a0\n  1880: u64 [sp + 1080] = 0\n  1884: u64 [sp + 1072] = 0\n  1888: u64 [sp + 1064] = 0\n  1892: u64 [sp + 1056] = 0\n  1896: u64 [sp + 1040] = 0\n  1900: u64 [sp + 1048] = 0\n  1904: u64 [sp + 1032] = 0\n  1908: u64 [sp + 1024] = 256\n  1914: a1 = sp + 0x380\n  1918: a3 = sp + 0x420\n  1922: a4 = sp + 0x400\n  1926: a2 = 0xffffffff\n  1929: a0 = 0x0\n  1931: ecalli 2 // 'get_storage'\n  1933: a0 = u8 [sp + 1056]\n  1937: a0 = a0 <u 0x1\n  1940: a2 = 0x0\n  1942: a3 = 0x0\n  1944: ra = 34, jump @290\n      : @69 [@dyn 17] (gas: 40)\n  1949: a0 = sp + 0x360\n  1953: ecalli 1 // 'caller'\n  1955: a0 = u64 [sp + 872]\n  1959: a1 = u64 [sp + 864]\n  1963: a2 = i32 [sp + 880]\n  1967: a0 = reverse a0\n  1969: a3 = a0 >>64 32\n  1972: a1 = reverse a1\n  1974: a4 = a1 <<64 32\n  1977: a3 = a3 | a4\n  1980: u64 [sp + 416] = a3\n  1984: a0 = a0 <<64 32\n  1987: a2 = reverse a2\n  1989: a2 = a2 >>64 32\n  1992: a0 = a0 | a2\n  1995: u64 [sp + 408] = a0\n  1999: a1 = a1 >>64 32\n  2002: u64 [sp + 400] = a1\n  2006: a0 = u64 [sp + 472]\n  2010: u64 [sp + 920] = a0\n  2014: u64 [sp + 912] = s1\n  2018: a0 = u64 [sp + 456]\n  2022: u64 [sp + 904] = a0\n  2026: a0 = u64 [sp + 464]\n  2030: u64 [sp + 896] = a0\n  2034: u64 [sp + 1080] = 0\n  2038: u64 [sp + 1072] = 0\n  2042: u64 [sp + 1064] = 0\n  2046: u64 [sp + 1056] = 0\n  2050: u64 [sp + 1040] = 0\n  2054: u64 [sp + 1048] = 0\n  2058: u64 [sp + 1032] = 0\n  2062: u64 [sp + 1024] = 256\n  2068: a1 = sp + 0x380\n  2072: a3 = sp + 0x420\n  2076: a4 = sp + 0x400\n  2080: a2 = 0xffffffff\n  2083: a0 = 0x0\n  2085: ecalli 2 // 'get_storage'\n  2087: fallthrough\n      : @70 (gas: 12)\n  2088: a0 = u32 [sp + 1072]\n  2092: a1 = u64 [sp + 1056]\n  2096: a2 = u64 [sp + 1064]\n  2100: a3 = u64 [sp + 400]\n  2104: a0 = a0 ^ a3\n  2107: a3 = u64 [sp + 408]\n  2111: a1 = a1 ^ a3\n  2114: a0 = a0 | a1\n  2117: a1 = u64 [sp + 416]\n  2121: a1 = a1 ^ a2\n  2124: a0 = a0 | a1\n  2127: jump @72 if a0 == 0\n      : @71 (gas: 1)\n  2130: jump @157\n      : @72 (gas: 84)\n  2133: a0 = u64 [sp + 432]\n  2137: u64 [sp + 896] = a0\n  2141: a0 = u64 [sp + 448]\n  2145: u64 [sp + 904] = a0\n  2149: a0 = u64 [sp + 440]\n  2153: u64 [sp + 912] = a0\n  2157: s1 = u64 [sp + 424]\n  2161: u64 [sp + 920] = s1\n  2165: u64 [sp + 1080] = 0\n  2169: u64 [sp + 1072] = 0\n  2173: u64 [sp + 1064] = 0\n  2177: u64 [sp + 1056] = 0\n  2181: u64 [sp + 1040] = 0\n  2185: u64 [sp + 1048] = 0\n  2189: u64 [sp + 1032] = 0\n  2193: u64 [sp + 1024] = 256\n  2199: a1 = sp + 0x380\n  2203: a3 = sp + 0x420\n  2207: a4 = sp + 0x400\n  2211: a2 = 0xffffffff\n  2214: a0 = 0x0\n  2216: ecalli 2 // 'get_storage'\n  2218: a0 = u64 [sp + 1056]\n  2222: u64 [sp + 472] = a0\n  2226: a0 = u64 [sp + 1064]\n  2230: u64 [sp + 464] = a0\n  2234: a0 = u64 [sp + 1072]\n  2238: u64 [sp + 456] = a0\n  2242: a0 = u64 [sp + 1080]\n  2246: u64 [sp + 416] = a0\n  2250: u64 [sp + 1080] = s1\n  2254: a0 = u64 [sp + 440]\n  2258: u64 [sp + 1072] = a0\n  2262: a0 = u64 [sp + 448]\n  2266: u64 [sp + 1064] = a0\n  2270: s1 = u64 [sp + 432]\n  2274: u64 [sp + 1056] = s1\n  2278: u64 [sp + 1048] = 0\n  2282: u64 [sp + 1040] = 0\n  2286: u64 [sp + 1032] = 0\n  2290: u64 [sp + 1024] = 0\n  2294: u64 [sp + 1008] = 0\n  2298: u64 [sp + 1016] = 0\n  2302: u64 [sp + 1000] = 0\n  2306: u64 [sp + 992] = 256\n  2312: a1 = sp + 0x420\n  2316: a3 = sp + 0x400\n  2320: a4 = sp + 0x3e0\n  2324: a2 = 0xffffffff\n  2327: a0 = 0x0\n  2329: ecalli 2 // 'get_storage'\n  2331: a0 = u64 [sp + 424]\n  2335: u64 [sp + 920] = a0\n  2339: a0 = u64 [sp + 440]\n  2343: u64 [sp + 912] = a0\n  2347: a0 = u64 [sp + 448]\n  2351: u64 [sp + 904] = a0\n  2355: u64 [sp + 896] = s1\n  2359: u64 [sp + 984] = 0\n  2363: u64 [sp + 976] = 0\n  2367: u64 [sp + 968] = 0\n  2371: u64 [sp + 960] = 0\n  2375: a1 = sp + 0x380\n  2379: a3 = sp + 0x3c0\n  2383: a2 = 0xffffffff\n  2386: a4 = 0x20\n  2389: a0 = 0x0\n  2391: ecalli 10 // 'set_storage'\n  2393: a0 = sp + 0x3c0\n  2397: ecalli 1 // 'caller'\n  2399: a0 = u64 [sp + 968]\n  2403: a1 = u64 [sp + 960]\n  2407: a2 = i32 [sp + 976]\n  2411: u64 [sp + 1032] = a0\n  2415: u64 [sp + 1024] = a1\n  2419: u32 [sp + 1040] = a2\n  2423: a0 = u64 [sp + 416]\n  2427: u64 [sp + 1080] = a0\n  2431: a0 = u64 [sp + 456]\n  2435: u64 [sp + 1072] = a0\n  2439: a0 = u64 [sp + 464]\n  2443: u64 [sp + 1064] = a0\n  2447: a0 = u64 [sp + 472]\n  2451: jump @145\n      : @73 (gas: 2)\n  2454: u64 [sp + 472] = t1\n  2458: jump @109 if a4 == 2053389040\n      : @74 (gas: 1)\n  2466: jump @82 if a4 != 2127478272\n      : @75 (gas: 8)\n  2474: s1 = 0x30420\n  2479: u64 [sp + 1048] = 0\n  2483: u64 [sp + 1040] = 0\n  2487: u64 [sp + 1032] = 0\n  2491: u64 [sp + 1024] = 0\n  2495: a0 = sp + 0x400\n  2499: ecalli 11 // 'value_transferred'\n  2501: fallthrough\n      : @76 (gas: 8)\n  2502: a0 = u64 [sp + 1040]\n  2506: a1 = u64 [sp + 1048]\n  2510: a2 = u64 [sp + 1032]\n  2514: a3 = u64 [sp + 1024]\n  2518: a1 = a1 | a2\n  2521: a0 = a0 | a3\n  2524: a0 = a0 | a1\n  2527: jump @123 if a0 != 0\n      : @77 (gas: 27)\n  2531: a0 = u64 [0x30420]\n  2536: a1 = u64 [0x30438]\n  2541: a2 = u64 [0x30428]\n  2546: a3 = u64 [0x30430]\n  2551: i64 a4 = i64 a0 - i64 4\n  2554: a0 = a4 <u a0\n  2557: i64 a5 = a2 + a0\n  2560: i64 a5 = i64 a5 - i64 1\n  2563: s1 = a5 ^ a2\n  2566: a2 = a5 <u a2\n  2569: a2 = a0 if s1 == 0\n  2572: i64 a0 = i64 a3 - i64 1\n  2575: i64 a2 = a2 + a0\n  2578: a0 = a2 <u a0\n  2581: a3 = a3 <u 0x1\n  2584: i64 a1 = i64 a1 - i64 a3\n  2587: i64 a0 = a0 + a1\n  2590: a1 = a0 >s 0\n  2592: a3 = a2 >u 0x0\n  2594: a3 = a1 if a0 != 0\n  2597: a0 = a0 | a2\n  2600: a1 = a5 >u 0x0\n  2602: a2 = a4 <u 0x20\n  2605: a2 = a2 ^ 0x1\n  2608: a2 = a1 if a5 != 0\n  2611: a2 = a3 if a0 != 0\n  2614: jump @123 if a2 == 0\n      : @78 (gas: 13)\n  2618: a4 = u64 [sp + 472]\n  2622: a0 = u64 [a4 + 4]\n  2625: a1 = u64 [a4 + 12]\n  2628: a2 = reverse a0\n  2630: a0 = reverse a1\n  2632: a1 = 0x100000000\n  2642: a1 = a1 ^ a0\n  2645: a1 = a1 | a2\n  2648: a3 = a0 >>64 32\n  2651: a3 = a3 <u 0x1\n  2654: a3 = 0 if a2 != 0\n  2656: a3 = 0 if a1 == 0\n  2658: jump @123 if a3 == 0\n      : @79 (gas: 10)\n  2662: a1 = u64 [a4 + 20]\n  2665: a3 = u64 [a4 + 28]\n  2668: t2 = reverse a1\n  2670: a5 = reverse a3\n  2672: u64 [sp] = a0\n  2674: i64 a0 = i64 sp + 0x260\n  2678: a1 = 0x1\n  2681: u64 [sp + 8] = a2\n  2684: a4 = 0x0\n  2686: ra = 36, jump @217\n      : @80 [@dyn 18] (gas: 9)\n  2691: a0 = u64 [sp + 632]\n  2695: a1 = u64 [sp + 624]\n  2699: a2 = u64 [sp + 616]\n  2703: a3 = u64 [sp + 608]\n  2707: u64 [sp + 920] = a0\n  2711: u64 [sp + 912] = a1\n  2715: u64 [sp + 904] = a2\n  2719: u64 [sp + 896] = a3\n  2723: fallthrough\n      : @81 (gas: 22)\n  2724: u64 [sp + 1080] = 0\n  2728: u64 [sp + 1072] = 0\n  2732: u64 [sp + 1064] = 0\n  2736: u64 [sp + 1056] = 0\n  2740: u64 [sp + 976] = 0\n  2744: u64 [sp + 984] = 0\n  2748: u64 [sp + 968] = 0\n  2752: u64 [sp + 960] = 256\n  2758: a1 = sp + 0x380\n  2762: a3 = sp + 0x420\n  2766: a4 = sp + 0x3c0\n  2770: a2 = 0xffffffff\n  2773: a0 = 0x0\n  2775: ecalli 2 // 'get_storage'\n  2777: a0 = u64 [sp + 1080]\n  2781: u64 [sp + 456] = a0\n  2785: a0 = u64 [sp + 1072]\n  2789: u64 [sp + 464] = a0\n  2793: a0 = u64 [sp + 1064]\n  2797: u64 [sp + 472] = a0\n  2801: s1 = u64 [sp + 1056]\n  2805: jump @101\n      : @82 (gas: 7)\n  2808: ra = 0x26\n  2811: i64 sp = i64 sp - i64 8\n  2814: u64 [sp] = ra\n  2816: a0 = 0x0\n  2818: a1 = 0x0\n  2820: ra = 0x90\n  2824: jump @0\n      : @83 [@dyn 19] (gas: 7)\n  2827: u64 [sp + 856] = 0\n  2831: u64 [sp + 848] = 0\n  2835: u64 [sp + 840] = 0\n  2839: u64 [sp + 832] = 0\n  2843: a0 = sp + 0x340\n  2847: ecalli 11 // 'value_transferred'\n  2849: fallthrough\n      : @84 (gas: 8)\n  2850: a0 = u64 [sp + 848]\n  2854: a1 = u64 [sp + 856]\n  2858: a2 = u64 [sp + 840]\n  2862: a3 = u64 [sp + 832]\n  2866: a1 = a1 | a2\n  2869: a0 = a0 | a3\n  2872: a0 = a0 | a1\n  2875: jump @123 if a0 != 0\n      : @85 (gas: 27)\n  2879: a0 = u64 [s1]\n  2881: a1 = u64 [s1 + 24]\n  2884: a2 = u64 [s1 + 8]\n  2887: a3 = u64 [s1 + 16]\n  2890: i64 a4 = i64 a0 - i64 4\n  2893: a0 = a4 <u a0\n  2896: i64 a5 = a2 + a0\n  2899: i64 a5 = i64 a5 - i64 1\n  2902: s1 = a5 ^ a2\n  2905: a2 = a5 <u a2\n  2908: a2 = a0 if s1 == 0\n  2911: i64 a0 = i64 a3 - i64 1\n  2914: i64 a2 = a2 + a0\n  2917: a0 = a2 <u a0\n  2920: a3 = a3 <u 0x1\n  2923: i64 a1 = i64 a1 - i64 a3\n  2926: i64 a0 = a0 + a1\n  2929: a1 = a0 >s 0\n  2931: a3 = a2 >u 0x0\n  2933: a3 = a1 if a0 != 0\n  2936: a0 = a0 | a2\n  2939: a1 = a5 >u 0x0\n  2941: a2 = a4 <u 0x20\n  2944: a2 = a2 ^ 0x1\n  2947: a2 = a1 if a5 != 0\n  2950: a2 = a3 if a0 != 0\n  2953: jump @123 if a2 == 0\n      : @86 (gas: 14)\n  2957: a3 = u64 [sp + 472]\n  2961: a0 = u64 [a3 + 28]\n  2964: a1 = u64 [a3 + 20]\n  2967: a2 = u64 [a3 + 12]\n  2970: a3 = u64 [a3 + 4]\n  2973: a5 = reverse a0\n  2975: t2 = reverse a1\n  2977: a1 = reverse a2\n  2979: a0 = reverse a3\n  2981: u64 [sp + 8] = a0\n  2984: i64 a0 = i64 sp + 0x2a0\n  2988: u64 [sp] = a1\n  2990: a4 = 0x0\n  2992: ra = 40, jump @231\n      : @87 [@dyn 20] (gas: 48)\n  2997: a1 = u64 [sp + 672]\n  3001: u64 [sp + 464] = a1\n  3005: a4 = u64 [sp + 696]\n  3009: u64 [sp + 472] = a4\n  3013: a2 = u64 [sp + 680]\n  3017: u64 [sp + 456] = a2\n  3021: s1 = u64 [sp + 688]\n  3025: i64 a1 = i64 a1 + 0x1\n  3028: a0 = a1 <u 0x1\n  3031: i64 a2 = a2 + a0\n  3034: a0 = a1 | a2\n  3037: a0 = a0 <u 0x1\n  3040: i64 a3 = s1 + a0\n  3043: a0 = a3 <u s1\n  3046: i64 a0 = a0 + a4\n  3049: u64 [sp + 392] = a1\n  3053: u64 [sp + 896] = a1\n  3057: u64 [sp + 384] = a2\n  3061: u64 [sp + 904] = a2\n  3065: u64 [sp + 376] = a3\n  3069: u64 [sp + 912] = a3\n  3073: u64 [sp + 368] = a0\n  3077: u64 [sp + 920] = a0\n  3081: u64 [sp + 1080] = 0\n  3085: u64 [sp + 1072] = 0\n  3089: u64 [sp + 1064] = 0\n  3093: u64 [sp + 1056] = 0\n  3097: u64 [sp + 1040] = 0\n  3101: u64 [sp + 1048] = 0\n  3105: u64 [sp + 1032] = 0\n  3109: u64 [sp + 1024] = 256\n  3115: a1 = sp + 0x380\n  3119: a3 = sp + 0x420\n  3123: a4 = sp + 0x400\n  3127: a2 = 0xffffffff\n  3130: a0 = 0x0\n  3132: ecalli 2 // 'get_storage'\n  3134: a0 = u64 [sp + 1072]\n  3138: a1 = u64 [sp + 1080]\n  3142: a2 = u64 [sp + 1064]\n  3146: a3 = u64 [sp + 1056]\n  3150: a1 = a1 | a2\n  3153: a0 = a0 | a3\n  3156: a0 = a0 | a1\n  3159: a0 = a0 >u 0x0\n  3161: a2 = 0x0\n  3163: a3 = 0x0\n  3165: ra = 42, jump @266\n      : @88 [@dyn 21] (gas: 38)\n  3170: a0 = u64 [sp + 464]\n  3174: i64 a2 = i64 a0 + 0x3\n  3177: a0 = a2 <u a0\n  3180: a1 = u64 [sp + 456]\n  3184: i64 a3 = a1 + a0\n  3187: a1 = a3 <u a1\n  3190: a1 = a0 if a0 == 0\n  3193: i64 a1 = a1 + s1\n  3196: a0 = a1 <u s1\n  3199: a4 = u64 [sp + 472]\n  3203: i64 a0 = a0 + a4\n  3206: u64 [sp + 360] = a0\n  3210: u64 [sp + 920] = a0\n  3214: u64 [sp + 432] = a1\n  3218: u64 [sp + 912] = a1\n  3222: u64 [sp + 440] = a3\n  3226: u64 [sp + 904] = a3\n  3230: u64 [sp + 448] = a2\n  3234: u64 [sp + 896] = a2\n  3238: u64 [sp + 1080] = 0\n  3242: u64 [sp + 1072] = 0\n  3246: u64 [sp + 1064] = 0\n  3250: u64 [sp + 1056] = 0\n  3254: u64 [sp + 1040] = 0\n  3258: u64 [sp + 1048] = 0\n  3262: u64 [sp + 1032] = 0\n  3266: u64 [sp + 1024] = 256\n  3272: a1 = sp + 0x380\n  3276: a3 = sp + 0x420\n  3280: a4 = sp + 0x400\n  3284: a2 = 0xffffffff\n  3287: a0 = 0x0\n  3289: ecalli 2 // 'get_storage'\n  3291: a0 = u8 [sp + 1056]\n  3295: a0 = a0 <u 0x1\n  3298: a2 = 0x0\n  3300: a3 = 0x0\n  3302: ra = 44, jump @290\n      : @89 [@dyn 22] (gas: 40)\n  3307: a0 = sp + 0x360\n  3311: ecalli 5 // 'now'\n  3313: a0 = u64 [sp + 864]\n  3317: u64 [sp + 424] = a0\n  3321: a0 = u64 [sp + 872]\n  3325: u64 [sp + 416] = a0\n  3329: a0 = u64 [sp + 880]\n  3333: u64 [sp + 408] = a0\n  3337: a0 = u64 [sp + 888]\n  3341: u64 [sp + 400] = a0\n  3345: a1 = u64 [sp + 464]\n  3349: i64 a0 = i64 a1 + 0x2\n  3352: a1 = a0 <u a1\n  3355: a3 = u64 [sp + 456]\n  3359: i64 a2 = a3 + a1\n  3362: a3 = a2 <u a3\n  3365: a3 = a1 if a1 == 0\n  3368: i64 a3 = a3 + s1\n  3371: a1 = a3 <u s1\n  3374: a4 = u64 [sp + 472]\n  3378: i64 a1 = a1 + a4\n  3381: u64 [sp + 920] = a1\n  3385: u64 [sp + 912] = a3\n  3389: u64 [sp + 904] = a2\n  3393: u64 [sp + 896] = a0\n  3397: u64 [sp + 1080] = 0\n  3401: u64 [sp + 1072] = 0\n  3405: u64 [sp + 1064] = 0\n  3409: u64 [sp + 1056] = 0\n  3413: u64 [sp + 1040] = 0\n  3417: u64 [sp + 1048] = 0\n  3421: u64 [sp + 1032] = 0\n  3425: u64 [sp + 1024] = 256\n  3431: a1 = sp + 0x380\n  3435: a3 = sp + 0x420\n  3439: a4 = sp + 0x400\n  3443: a2 = 0xffffffff\n  3446: a0 = 0x0\n  3448: ecalli 2 // 'get_storage'\n  3450: fallthrough\n      : @90 (gas: 20)\n  3451: a0 = u64 [sp + 1080]\n  3455: t0 = u64 [sp + 1056]\n  3459: a2 = u64 [sp + 1072]\n  3463: a3 = u64 [sp + 1064]\n  3467: a1 = u64 [sp + 400]\n  3471: a4 = a1 ^ a0\n  3474: s1 = a0 <u a1\n  3477: a0 = u64 [sp + 408]\n  3481: a5 = a2 <u a0\n  3484: a5 = s1 if a4 != 0\n  3487: a1 = u64 [sp + 416]\n  3491: s1 = a1 ^ a3\n  3494: a3 = a3 <u a1\n  3497: a1 = u64 [sp + 424]\n  3501: a1 = t0 <u a1\n  3504: a1 = a3 if s1 != 0\n  3507: a0 = a0 ^ a2\n  3510: a0 = a0 | a4\n  3513: a1 = a5 if a0 != 0\n  3516: jump @144 if a1 == 0\n      : @91 (gas: 3)\n  3520: a0 = 0x40\n  3523: a1 = 0x20\n  3526: ra = 46, jump @0\n      : @92 [@dyn 23] (gas: 1)\n  3531: jump @125 if a0 == 0\n      : @93 (gas: 17)\n  3535: a3 = u64 [sp + 344]\n  3539: a0 = u64 [a3 + 72]\n  3542: a1 = u64 [a3 + 64]\n  3545: a2 = u64 [a3 + 80]\n  3548: a3 = u64 [a3 + 88]\n  3551: a4 = reverse a0\n  3553: a5 = reverse a1\n  3555: a2 = reverse a2\n  3557: s1 = reverse a3\n  3559: a0 = a2 | a5\n  3562: a1 = s1 | a4\n  3565: a1 = a1 | a0\n  3568: a1 = a1 >>64 32\n  3571: a0 = a0 | a4\n  3574: a0 = a0 <<64 32\n  3577: a0 = a0 | a1\n  3580: jump @125 if a0 != 0\n      : @94 (gas: 7)\n  3584: u64 [sp + 456] = a5\n  3588: u64 [sp + 464] = a4\n  3592: u64 [sp + 472] = a2\n  3596: a0 = s1 + 0x0\n  3598: a1 = 0x20\n  3601: u64 [sp + 448] = a0\n  3605: ra = 48, jump @0\n      : @95 [@dyn 24] (gas: 1)\n  3610: jump @125 if a0 == 0\n      : @96 (gas: 50)\n  3614: a2 = s1\n  3616: u64 [sp + 440] = s1\n  3620: s1 = u64 [sp + 344]\n  3624: a0 = u64 [sp + 448]\n  3628: i64 s1 = s1 + a0\n  3631: u8 [s1 + 31] = 0\n  3634: u8 [s1 + 30] = 0\n  3637: u8 [s1 + 29] = 0\n  3640: u8 [s1 + 28] = 0\n  3643: u8 [s1 + 27] = 0\n  3646: u8 [s1 + 26] = 0\n  3649: u8 [s1 + 25] = 0\n  3652: u8 [s1 + 24] = 0\n  3655: u8 [s1 + 23] = 0\n  3658: u8 [s1 + 22] = 0\n  3661: u8 [s1 + 21] = 0\n  3664: u8 [s1 + 20] = 0\n  3667: u8 [s1 + 19] = 0\n  3670: u8 [s1 + 18] = 0\n  3673: u8 [s1 + 17] = 0\n  3676: u8 [s1 + 16] = 0\n  3679: u8 [s1 + 15] = 0\n  3682: u8 [s1 + 14] = 0\n  3685: u8 [s1 + 13] = 0\n  3688: u8 [s1 + 12] = 0\n  3691: u8 [s1 + 11] = 0\n  3694: u8 [s1 + 10] = 0\n  3697: u8 [s1 + 9] = 0\n  3700: u8 [s1 + 8] = 0\n  3703: u8 [s1 + 7] = 0\n  3706: u8 [s1 + 6] = 0\n  3709: u8 [s1 + 5] = 0\n  3712: u8 [s1 + 4] = 0\n  3715: u8 [s1 + 3] = 160\n  3720: u8 [s1 + 2] = 121\n  3724: u8 [s1 + 1] = 195\n  3729: u8 [s1 + 0] = 8\n  3732: i64 a1 = i64 a2 + 0x4\n  3735: a0 = a1 <u a2\n  3738: a3 = u64 [sp + 472]\n  3742: i64 a2 = a3 + a0\n  3745: a3 = a2 <u a3\n  3748: a3 = a0 if a0 == 0\n  3751: a0 = u64 [sp + 464]\n  3755: i64 a3 = a3 + a0\n  3758: a4 = a3 <u a0\n  3761: a0 = u64 [sp + 456]\n  3765: i64 a4 = a4 + a0\n  3768: i64 a0 = i64 sp + 0x280\n  3772: ra = 50, jump @303\n      : @97 [@dyn 25] (gas: 5)\n  3777: a1 = u64 [sp + 648]\n  3781: t0 = u64 [sp + 664]\n  3785: t1 = u64 [sp + 640]\n  3789: a3 = u64 [sp + 656]\n  3793: jump @164\n      : @98 (gas: 23)\n  3796: i64 a4 = i64 t0 - i64 4\n  3799: a3 = a4 <u t0\n  3802: i64 a5 = a2 + a3\n  3805: i64 a5 = i64 a5 - i64 1\n  3808: s1 = a5 ^ a2\n  3811: a2 = a5 <u a2\n  3814: a2 = a3 if s1 == 0\n  3817: i64 a3 = i64 t2 - i64 1\n  3820: i64 a2 = a2 + a3\n  3823: a3 = a2 <u a3\n  3826: a1 = t2 <u 0x1\n  3829: i64 a0 = i64 a0 - i64 a1\n  3832: i64 a0 = a0 + a3\n  3835: a1 = a0 >s 0\n  3837: a3 = a2 >u 0x0\n  3839: a3 = a1 if a0 != 0\n  3842: a0 = a0 | a2\n  3845: a1 = a5 >u 0x0\n  3847: a2 = a4 <u 0x20\n  3850: a2 = a2 ^ 0x1\n  3853: a2 = a1 if a5 != 0\n  3856: a2 = a3 if a0 != 0\n  3859: jump @123 if a2 == 0\n      : @99 (gas: 10)\n  3863: a0 = u64 [0x3003c]\n  3868: a2 = u64 [0x30034]\n  3873: a3 = u64 [0x3002c]\n  3878: a4 = u64 [0x30024]\n  3883: a1 = reverse a0\n  3885: a2 = reverse a2\n  3887: a3 = reverse a3\n  3889: a4 = reverse a4\n  3891: i64 a0 = i64 sp + 0x320\n  3895: ra = 52, jump @369\n      : @100 [@dyn 26] (gas: 8)\n  3900: a0 = u64 [sp + 824]\n  3904: u64 [sp + 456] = a0\n  3908: a0 = u64 [sp + 816]\n  3912: u64 [sp + 464] = a0\n  3916: a0 = u64 [sp + 808]\n  3920: u64 [sp + 472] = a0\n  3924: s1 = u64 [sp + 800]\n  3928: fallthrough\n      : @101 (gas: 3)\n  3929: a0 = 0x40\n  3932: a1 = 0x20\n  3935: ra = 54, jump @0\n      : @102 [@dyn 27] (gas: 1)\n  3940: jump @125 if a0 == 0\n      : @103 (gas: 16)\n  3944: a3 = u64 [sp + 344]\n  3948: a0 = u64 [a3 + 72]\n  3951: a1 = u64 [a3 + 88]\n  3954: a2 = u64 [a3 + 64]\n  3957: a3 = u64 [a3 + 80]\n  3960: a4 = reverse a0\n  3962: a0 = reverse a1\n  3964: a1 = a0 | a4\n  3967: a2 = a2 | a3\n  3970: a2 = reverse a2\n  3972: a1 = a1 | a2\n  3975: a1 = a1 >>64 32\n  3978: a2 = a2 | a4\n  3981: a2 = a2 <<64 32\n  3984: a1 = a1 | a2\n  3987: jump @125 if a1 != 0\n      : @104 (gas: 5)\n  3991: u64 [sp + 448] = s1\n  3995: s1 = a0 + 0x0\n  3997: a1 = 0x20\n  4000: a0 = s1\n  4002: ra = 56, jump @0\n      : @105 [@dyn 28] (gas: 1)\n  4007: jump @125 if a0 == 0\n      : @106 (gas: 73)\n  4011: a0 = s1\n  4013: s1 = u64 [sp + 344]\n  4017: i64 s1 = s1 + a0\n  4020: a1 = u64 [sp + 456]\n  4024: a5 = reverse a1\n  4026: a1 = u64 [sp + 464]\n  4030: a1 = reverse a1\n  4032: a2 = u64 [sp + 472]\n  4036: a2 = reverse a2\n  4038: a3 = u64 [sp + 448]\n  4042: a3 = reverse a3\n  4044: u8 [s1 + 24] = a3\n  4047: a4 = a3 >>64 56\n  4050: u8 [s1 + 31] = a4\n  4053: a4 = a3 >>64 48\n  4056: u8 [s1 + 30] = a4\n  4059: a4 = a3 >>64 40\n  4062: u8 [s1 + 29] = a4\n  4065: a4 = a3 >>64 32\n  4068: u8 [s1 + 28] = a4\n  4071: a4 = a3 >>64 24\n  4074: u8 [s1 + 27] = a4\n  4077: a4 = a3 >>64 16\n  4080: u8 [s1 + 26] = a4\n  4083: a3 = a3 >>64 8\n  4086: u8 [s1 + 25] = a3\n  4089: u8 [s1 + 16] = a2\n  4092: a3 = a2 >>64 56\n  4095: u8 [s1 + 23] = a3\n  4098: a3 = a2 >>64 48\n  4101: u8 [s1 + 22] = a3\n  4104: a3 = a2 >>64 40\n  4107: u8 [s1 + 21] = a3\n  4110: a3 = a2 >>64 32\n  4113: u8 [s1 + 20] = a3\n  4116: a3 = a2 >>64 24\n  4119: u8 [s1 + 19] = a3\n  4122: a3 = a2 >>64 16\n  4125: u8 [s1 + 18] = a3\n  4128: a2 = a2 >>64 8\n  4131: u8 [s1 + 17] = a2\n  4134: u8 [s1 + 8] = a1\n  4137: a2 = a1 >>64 56\n  4140: u8 [s1 + 15] = a2\n  4143: a2 = a1 >>64 48\n  4146: u8 [s1 + 14] = a2\n  4149: a2 = a1 >>64 40\n  4152: u8 [s1 + 13] = a2\n  4155: a2 = a1 >>64 32\n  4158: u8 [s1 + 12] = a2\n  4161: a2 = a1 >>64 24\n  4164: u8 [s1 + 11] = a2\n  4167: a2 = a1 >>64 16\n  4170: u8 [s1 + 10] = a2\n  4173: a1 = a1 >>64 8\n  4176: u8 [s1 + 9] = a1\n  4179: u8 [s1] = a5\n  4181: a1 = a5 >>64 56\n  4184: u8 [s1 + 7] = a1\n  4187: a1 = a5 >>64 48\n  4190: u8 [s1 + 6] = a1\n  4193: a1 = a5 >>64 40\n  4196: u8 [s1 + 5] = a1\n  4199: a1 = a5 >>64 32\n  4202: u8 [s1 + 4] = a1\n  4205: a1 = a5 >>64 24\n  4208: u8 [s1 + 3] = a1\n  4211: a1 = a5 >>64 16\n  4214: u8 [s1 + 2] = a1\n  4217: a5 = a5 >>64 8\n  4220: u8 [s1 + 1] = a5\n  4223: a1 = 0x20\n  4226: ra = 58, jump @0\n      : @107 [@dyn 29] (gas: 1)\n  4231: jump @125 if a0 == 0\n      : @108 (gas: 5)\n  4235: a1 = s1 + 0x0\n  4237: a2 = 0x20\n  4240: a0 = 0x0\n  4242: ecalli 8 // 'seal_return'\n  4244: fallthrough\n      : @109 (gas: 8)\n  4245: s1 = a1\n  4247: u64 [sp + 1048] = 0\n  4251: u64 [sp + 1040] = 0\n  4255: u64 [sp + 1032] = 0\n  4259: u64 [sp + 1024] = 0\n  4263: a0 = sp + 0x400\n  4267: ecalli 11 // 'value_transferred'\n  4269: fallthrough\n      : @110 (gas: 8)\n  4270: a0 = u64 [sp + 1040]\n  4274: a1 = u64 [sp + 1048]\n  4278: a2 = u64 [sp + 1032]\n  4282: a3 = u64 [sp + 1024]\n  4286: a1 = a1 | a2\n  4289: a0 = a0 | a3\n  4292: a0 = a0 | a1\n  4295: jump @123 if a0 != 0\n      : @111 (gas: 27)\n  4299: a0 = u64 [s1]\n  4301: a1 = u64 [s1 + 24]\n  4304: a2 = u64 [s1 + 8]\n  4307: a3 = u64 [s1 + 16]\n  4310: i64 a4 = i64 a0 - i64 4\n  4313: a0 = a4 <u a0\n  4316: i64 a5 = a2 + a0\n  4319: i64 a5 = i64 a5 - i64 1\n  4322: s1 = a5 ^ a2\n  4325: a2 = a5 <u a2\n  4328: a2 = a0 if s1 == 0\n  4331: i64 a0 = i64 a3 - i64 1\n  4334: i64 a2 = a2 + a0\n  4337: a0 = a2 <u a0\n  4340: a3 = a3 <u 0x1\n  4343: i64 a1 = i64 a1 - i64 a3\n  4346: i64 a0 = a0 + a1\n  4349: a1 = a0 >s 0\n  4351: a3 = a2 >u 0x0\n  4353: a3 = a1 if a0 != 0\n  4356: a0 = a0 | a2\n  4359: a1 = a5 >u 0x0\n  4361: a2 = a4 <u 0x40\n  4364: a2 = a2 ^ 0x1\n  4367: a2 = a1 if a5 != 0\n  4370: a2 = a3 if a0 != 0\n  4373: jump @123 if a2 == 0\n      : @112 (gas: 13)\n  4377: s1 = u64 [sp + 472]\n  4381: a0 = u64 [s1 + 4]\n  4384: a1 = u64 [s1 + 12]\n  4387: a0 = reverse a0\n  4389: a2 = reverse a1\n  4391: a1 = 0x100000000\n  4401: a1 = a1 ^ a2\n  4404: a1 = a1 | a0\n  4407: a3 = a2 >>64 32\n  4410: a3 = a3 <u 0x1\n  4413: a3 = 0 if a0 != 0\n  4415: a3 = 0 if a1 == 0\n  4417: jump @123 if a3 == 0\n      : @113 (gas: 21)\n  4421: a1 = u64 [s1 + 20]\n  4424: a3 = u64 [s1 + 28]\n  4427: t2 = reverse a1\n  4429: a5 = reverse a3\n  4431: a1 = u64 [s1 + 60]\n  4434: a3 = u64 [s1 + 52]\n  4437: a4 = u64 [s1 + 44]\n  4440: s1 = u64 [s1 + 36]\n  4443: a1 = reverse a1\n  4445: u64 [sp + 464] = a1\n  4449: a1 = reverse a3\n  4451: u64 [sp + 456] = a1\n  4455: a1 = reverse a4\n  4457: u64 [sp + 472] = a1\n  4461: s1 = reverse s1\n  4463: u64 [sp + 8] = a0\n  4466: i64 a0 = i64 sp + 0x240\n  4470: a1 = 0x2\n  4473: u64 [sp] = a2\n  4475: a4 = 0x0\n  4477: ra = 60, jump @217\n      : @114 [@dyn 30] (gas: 27)\n  4482: a0 = u64 [sp + 600]\n  4486: a1 = u64 [sp + 592]\n  4490: a2 = u64 [sp + 584]\n  4494: a3 = u64 [sp + 576]\n  4498: u64 [sp + 440] = a0\n  4502: u64 [sp + 920] = a0\n  4506: u64 [sp + 432] = a1\n  4510: u64 [sp + 912] = a1\n  4514: u64 [sp + 424] = a2\n  4518: u64 [sp + 904] = a2\n  4522: u64 [sp + 416] = a3\n  4526: u64 [sp + 896] = a3\n  4530: u64 [sp + 1080] = 0\n  4534: u64 [sp + 1072] = 0\n  4538: u64 [sp + 1064] = 0\n  4542: u64 [sp + 1056] = 0\n  4546: u64 [sp + 976] = 0\n  4550: u64 [sp + 984] = 0\n  4554: u64 [sp + 968] = 0\n  4558: u64 [sp + 960] = 256\n  4564: a1 = sp + 0x380\n  4568: a3 = sp + 0x420\n  4572: a4 = sp + 0x3c0\n  4576: a2 = 0xffffffff\n  4579: a0 = 0x0\n  4581: ecalli 2 // 'get_storage'\n  4583: fallthrough\n      : @115 (gas: 20)\n  4584: a0 = u64 [sp + 1080]\n  4588: t0 = u64 [sp + 1056]\n  4592: a2 = u64 [sp + 1072]\n  4596: a3 = u64 [sp + 1064]\n  4600: a4 = a0 ^ s1\n  4603: u64 [sp + 448] = s1\n  4607: s1 = s1 <u a0\n  4610: a0 = u64 [sp + 472]\n  4614: a5 = a0 <u a2\n  4617: a5 = s1 if a4 != 0\n  4620: a1 = u64 [sp + 456]\n  4624: s1 = a3 ^ a1\n  4627: a3 = a1 <u a3\n  4630: a1 = u64 [sp + 464]\n  4634: a1 = a1 <u t0\n  4637: a1 = a3 if s1 != 0\n  4640: a0 = a0 ^ a2\n  4643: a0 = a0 | a4\n  4646: a1 = a5 if a0 != 0\n  4649: jump @168 if a1 == 0\n      : @116 (gas: 23)\n  4653: a0 = u64 [sp + 416]\n  4657: u64 [sp + 896] = a0\n  4661: a0 = u64 [sp + 424]\n  4665: u64 [sp + 904] = a0\n  4669: a0 = u64 [sp + 432]\n  4673: u64 [sp + 912] = a0\n  4677: a0 = u64 [sp + 440]\n  4681: u64 [sp + 920] = a0\n  4685: u64 [sp + 1080] = 0\n  4689: u64 [sp + 1072] = 0\n  4693: u64 [sp + 1064] = 0\n  4697: u64 [sp + 1056] = 0\n  4701: u64 [sp + 976] = 0\n  4705: u64 [sp + 984] = 0\n  4709: u64 [sp + 968] = 0\n  4713: u64 [sp + 960] = 256\n  4719: a1 = sp + 0x380\n  4723: a3 = sp + 0x420\n  4727: a4 = sp + 0x3c0\n  4731: a2 = 0xffffffff\n  4734: a0 = 0x0\n  4736: ecalli 2 // 'get_storage'\n  4738: fallthrough\n      : @117 (gas: 20)\n  4739: a0 = u64 [sp + 1080]\n  4743: t0 = u64 [sp + 1056]\n  4747: a2 = u64 [sp + 1072]\n  4751: a3 = u64 [sp + 1064]\n  4755: a5 = u64 [sp + 448]\n  4759: a4 = a0 ^ a5\n  4762: s1 = a5 <u a0\n  4765: a0 = u64 [sp + 472]\n  4769: a5 = a0 <u a2\n  4772: a5 = s1 if a4 != 0\n  4775: a1 = u64 [sp + 456]\n  4779: s1 = a3 ^ a1\n  4782: a3 = a1 <u a3\n  4785: a1 = u64 [sp + 464]\n  4789: a1 = a1 <u t0\n  4792: a1 = a3 if s1 != 0\n  4795: a0 = a0 ^ a2\n  4798: a0 = a0 | a4\n  4801: a1 = a5 if a0 != 0\n  4804: jump @172 if a1 == 0\n      : @118 (gas: 6)\n  4808: i64 a0 = i64 sp + 0x220\n  4812: a1 = u64 [sp + 416]\n  4816: a2 = u64 [sp + 424]\n  4820: a3 = u64 [sp + 432]\n  4824: a4 = u64 [sp + 440]\n  4828: ra = 62, jump @225\n      : @119 [@dyn 31] (gas: 27)\n  4833: a0 = u64 [sp + 552]\n  4837: a1 = u64 [sp + 544]\n  4841: t0 = u64 [sp + 568]\n  4845: a3 = u64 [sp + 560]\n  4849: a4 = u64 [sp + 456]\n  4853: i64 a4 = a4 + a0\n  4856: a5 = u64 [sp + 464]\n  4860: i64 a5 = a5 + a1\n  4863: a1 = a5 <u a1\n  4866: i64 a4 = a4 + a1\n  4869: s1 = a4 ^ a0\n  4872: a0 = a4 <u a0\n  4875: a0 = a1 if s1 == 0\n  4878: a1 = u64 [sp + 472]\n  4882: i64 a1 = a1 + a3\n  4885: i64 a0 = a0 + a1\n  4888: s1 = a0 <u a1\n  4891: a2 = u64 [sp + 448]\n  4895: i64 a2 = a2 + t0\n  4898: a1 = a1 <u a3\n  4901: i64 a1 = a1 + a2\n  4904: i64 a1 = a1 + s1\n  4907: u64 [sp + 896] = a5\n  4911: u64 [sp + 904] = a4\n  4915: u64 [sp + 912] = a0\n  4919: u64 [sp + 920] = a1\n  4923: jump @81\n      : @120 (gas: 7)\n  4926: u64 [sp + 1048] = 0\n  4930: u64 [sp + 1040] = 0\n  4934: u64 [sp + 1032] = 0\n  4938: u64 [sp + 1024] = 0\n  4942: a0 = sp + 0x400\n  4946: ecalli 11 // 'value_transferred'\n  4948: fallthrough\n      : @121 (gas: 8)\n  4949: a0 = u64 [sp + 1040]\n  4953: a1 = u64 [sp + 1048]\n  4957: a2 = u64 [sp + 1032]\n  4961: a3 = u64 [sp + 1024]\n  4965: a1 = a1 | a2\n  4968: a0 = a0 | a3\n  4971: a0 = a0 | a1\n  4974: jump @123 if a0 != 0\n      : @122 (gas: 27)\n  4977: a0 = u64 [0x30420]\n  4982: a1 = u64 [0x30438]\n  4987: a2 = u64 [0x30428]\n  4992: a3 = u64 [0x30430]\n  4997: i64 a4 = i64 a0 - i64 4\n  5000: a0 = a4 <u a0\n  5003: i64 a5 = a2 + a0\n  5006: i64 a5 = i64 a5 - i64 1\n  5009: s1 = a5 ^ a2\n  5012: a2 = a5 <u a2\n  5015: a2 = a0 if s1 == 0\n  5018: i64 a0 = i64 a3 - i64 1\n  5021: i64 a2 = a2 + a0\n  5024: a0 = a2 <u a0\n  5027: a3 = a3 <u 0x1\n  5030: i64 a1 = i64 a1 - i64 a3\n  5033: i64 a0 = a0 + a1\n  5036: a1 = a0 >s 0\n  5038: a3 = a2 >u 0x0\n  5040: a3 = a1 if a0 != 0\n  5043: a0 = a0 | a2\n  5046: a1 = a5 >u 0x0\n  5048: a2 = a4 <u 0x20\n  5051: a2 = a2 ^ 0x1\n  5054: a2 = a1 if a5 != 0\n  5057: a2 = a3 if a0 != 0\n  5060: jump @126 if a2 != 0\n      : @123 (gas: 3)\n  5063: a0 = 0x0\n  5065: a1 = 0x0\n  5067: ra = 64, jump @0\n      : @124 [@dyn 32] (gas: 1)\n  5072: jump @170 if a0 != 0\n      : @125 (gas: 1)\n  5076: trap\n      : @126 (gas: 14)\n  5077: a3 = u64 [sp + 472]\n  5081: a0 = u64 [a3 + 28]\n  5084: a1 = u64 [a3 + 20]\n  5087: a2 = u64 [a3 + 12]\n  5090: a3 = u64 [a3 + 4]\n  5093: a5 = reverse a0\n  5095: t2 = reverse a1\n  5097: a1 = reverse a2\n  5099: a0 = reverse a3\n  5101: u64 [sp + 8] = a0\n  5104: i64 a0 = i64 sp + 0x2c0\n  5108: u64 [sp] = a1\n  5110: a4 = 0x0\n  5112: ra = 66, jump @231\n      : @127 [@dyn 33] (gas: 139)\n  5117: a0 = u64 [sp + 728]\n  5121: u64 [sp + 448] = a0\n  5125: a3 = u64 [sp + 720]\n  5129: u64 [sp + 464] = a3\n  5133: a1 = u64 [sp + 712]\n  5137: u64 [sp + 472] = a1\n  5141: s1 = u64 [sp + 704]\n  5145: u64 [sp + 920] = a0\n  5149: u64 [sp + 912] = a3\n  5153: u64 [sp + 904] = a1\n  5157: u64 [sp + 896] = s1\n  5161: u64 [sp + 456] = s1\n  5165: u64 [sp + 1080] = 0\n  5169: u64 [sp + 1072] = 0\n  5173: u64 [sp + 1064] = 0\n  5177: u64 [sp + 1056] = 0\n  5181: u64 [sp + 976] = 0\n  5185: u64 [sp + 984] = 0\n  5189: u64 [sp + 968] = 0\n  5193: u64 [sp + 960] = 256\n  5199: a1 = sp + 0x380\n  5203: a3 = sp + 0x420\n  5207: a4 = sp + 0x3c0\n  5211: a2 = 0xffffffff\n  5214: a0 = 0x0\n  5216: ecalli 2 // 'get_storage'\n  5218: i64 a0 = i64 s1 + 0x1\n  5221: a1 = a0 <u 0x1\n  5224: a2 = u64 [sp + 472]\n  5228: i64 a1 = a1 + a2\n  5231: a2 = a0 | a1\n  5234: a2 = a2 <u 0x1\n  5237: a3 = u64 [sp + 464]\n  5241: i64 a2 = a2 + a3\n  5244: a3 = a2 <u a3\n  5247: s1 = u64 [sp + 448]\n  5251: i64 a3 = a3 + s1\n  5254: u64 [sp + 920] = a3\n  5258: u64 [sp + 912] = a2\n  5262: a2 = u32 [sp + 1072]\n  5266: u64 [sp + 440] = a2\n  5270: u64 [sp + 904] = a1\n  5274: a1 = u64 [sp + 1064]\n  5278: u64 [sp + 432] = a1\n  5282: u64 [sp + 896] = a0\n  5286: a0 = u64 [sp + 1056]\n  5290: u64 [sp + 424] = a0\n  5294: u64 [sp + 1080] = 0\n  5298: u64 [sp + 1072] = 0\n  5302: u64 [sp + 1064] = 0\n  5306: u64 [sp + 1056] = 0\n  5310: u64 [sp + 976] = 0\n  5314: u64 [sp + 984] = 0\n  5318: u64 [sp + 968] = 0\n  5322: u64 [sp + 960] = 256\n  5328: a1 = sp + 0x380\n  5332: a3 = sp + 0x420\n  5336: a4 = sp + 0x3c0\n  5340: a2 = 0xffffffff\n  5343: a0 = 0x0\n  5345: ecalli 2 // 'get_storage'\n  5347: a1 = u64 [sp + 456]\n  5351: i64 a0 = i64 a1 + 0x2\n  5354: a1 = a0 <u a1\n  5357: a3 = u64 [sp + 472]\n  5361: i64 a2 = a3 + a1\n  5364: a3 = a2 <u a3\n  5367: a3 = a1 if a1 == 0\n  5370: a1 = u64 [sp + 464]\n  5374: i64 a3 = a3 + a1\n  5377: a1 = a3 <u a1\n  5380: i64 a1 = a1 + s1\n  5383: u64 [sp + 920] = a1\n  5387: a1 = u64 [sp + 1080]\n  5391: u64 [sp + 416] = a1\n  5395: u64 [sp + 912] = a3\n  5399: a1 = u64 [sp + 1072]\n  5403: u64 [sp + 408] = a1\n  5407: u64 [sp + 904] = a2\n  5411: a1 = u64 [sp + 1064]\n  5415: u64 [sp + 400] = a1\n  5419: u64 [sp + 896] = a0\n  5423: a0 = u64 [sp + 1056]\n  5427: u64 [sp + 392] = a0\n  5431: u64 [sp + 1080] = 0\n  5435: u64 [sp + 1072] = 0\n  5439: u64 [sp + 1064] = 0\n  5443: u64 [sp + 1056] = 0\n  5447: u64 [sp + 976] = 0\n  5451: u64 [sp + 984] = 0\n  5455: u64 [sp + 968] = 0\n  5459: u64 [sp + 960] = 256\n  5465: a1 = sp + 0x380\n  5469: a3 = sp + 0x420\n  5473: a4 = sp + 0x3c0\n  5477: a2 = 0xffffffff\n  5480: a0 = 0x0\n  5482: ecalli 2 // 'get_storage'\n  5484: a0 = u64 [sp + 1080]\n  5488: u64 [sp + 384] = a0\n  5492: a0 = u64 [sp + 1072]\n  5496: u64 [sp + 376] = a0\n  5500: a0 = u64 [sp + 1064]\n  5504: u64 [sp + 368] = a0\n  5508: a0 = u64 [sp + 1056]\n  5512: u64 [sp + 360] = a0\n  5516: a1 = u64 [sp + 456]\n  5520: i64 a0 = i64 a1 + 0x3\n  5523: a1 = a0 <u a1\n  5526: a3 = u64 [sp + 472]\n  5530: i64 a2 = a3 + a1\n  5533: a3 = a2 <u a3\n  5536: a3 = a1 if a1 == 0\n  5539: a1 = u64 [sp + 464]\n  5543: i64 a3 = a3 + a1\n  5546: a1 = a3 <u a1\n  5549: i64 a1 = a1 + s1\n  5552: u64 [sp + 920] = a1\n  5556: u64 [sp + 912] = a3\n  5560: u64 [sp + 904] = a2\n  5564: u64 [sp + 896] = a0\n  5568: u64 [sp + 1080] = 0\n  5572: u64 [sp + 1072] = 0\n  5576: u64 [sp + 1064] = 0\n  5580: u64 [sp + 1056] = 0\n  5584: u64 [sp + 976] = 0\n  5588: u64 [sp + 984] = 0\n  5592: u64 [sp + 968] = 0\n  5596: u64 [sp + 960] = 256\n  5602: a1 = sp + 0x380\n  5606: a3 = sp + 0x420\n  5610: a4 = sp + 0x3c0\n  5614: a2 = 0xffffffff\n  5617: a0 = 0x0\n  5619: ecalli 2 // 'get_storage'\n  5621: s1 = u8 [sp + 1056]\n  5625: a0 = 0x40\n  5628: a1 = 0x20\n  5631: ra = 68, jump @0\n      : @128 [@dyn 34] (gas: 1)\n  5636: jump @125 if a0 == 0\n      : @129 (gas: 18)\n  5640: u64 [sp + 472] = s1\n  5644: a3 = u64 [sp + 344]\n  5648: a0 = u64 [a3 + 72]\n  5651: a1 = u64 [a3 + 64]\n  5654: a2 = u64 [a3 + 80]\n  5657: a3 = u64 [a3 + 88]\n  5660: s1 = reverse a0\n  5662: a4 = reverse a1\n  5664: a2 = reverse a2\n  5666: a3 = reverse a3\n  5668: a0 = a2 | a4\n  5671: a1 = a3 | s1\n  5674: a1 = a1 | a0\n  5677: a1 = a1 >>64 32\n  5680: a0 = a0 | s1\n  5683: a0 = a0 <<64 32\n  5686: a0 = a0 | a1\n  5689: jump @125 if a0 != 0\n      : @130 (gas: 7)\n  5693: u64 [sp + 352] = a4\n  5697: u64 [sp + 464] = a2\n  5701: a0 = a3 + 0x0\n  5703: a1 = 0x20\n  5706: u64 [sp + 448] = a0\n  5710: u64 [sp + 456] = a3\n  5714: ra = 70, jump @0\n      : @131 [@dyn 35] (gas: 1)\n  5719: jump @125 if a0 == 0\n      : @132 (gas: 72)\n  5723: a0 = u64 [sp + 344]\n  5727: t1 = u64 [sp + 448]\n  5731: i64 a4 = a0 + t1\n  5734: a0 = u64 [sp + 440]\n  5738: a0 = reverse a0\n  5740: a1 = u64 [sp + 432]\n  5744: a1 = reverse a1\n  5746: a2 = u64 [sp + 424]\n  5750: a2 = reverse a2\n  5752: u8 [a4 + 24] = a2\n  5755: u8 [a4 + 11] = 0\n  5758: u8 [a4 + 10] = 0\n  5761: u8 [a4 + 9] = 0\n  5764: u8 [a4 + 7] = 0\n  5767: u8 [a4 + 6] = 0\n  5770: u8 [a4 + 5] = 0\n  5773: u8 [a4 + 4] = 0\n  5776: u8 [a4 + 3] = 0\n  5779: u8 [a4 + 2] = 0\n  5782: u8 [a4 + 1] = 0\n  5785: u8 [a4 + 0] = 0\n  5787: a3 = a2 >>64 56\n  5790: u8 [a4 + 31] = a3\n  5793: a3 = a2 >>64 48\n  5796: u8 [a4 + 30] = a3\n  5799: a3 = a2 >>64 40\n  5802: u8 [a4 + 29] = a3\n  5805: a3 = a2 >>64 32\n  5808: u8 [a4 + 28] = a3\n  5811: a3 = a2 >>64 24\n  5814: u8 [a4 + 27] = a3\n  5817: a3 = a2 >>64 16\n  5820: u8 [a4 + 26] = a3\n  5823: a2 = a2 >>64 8\n  5826: u8 [a4 + 25] = a2\n  5829: u8 [a4 + 16] = a1\n  5832: a2 = a1 >>64 56\n  5835: u8 [a4 + 23] = a2\n  5838: a2 = a1 >>64 48\n  5841: u8 [a4 + 22] = a2\n  5844: a2 = a1 >>64 40\n  5847: u8 [a4 + 21] = a2\n  5850: a2 = a1 >>64 32\n  5853: u8 [a4 + 20] = a2\n  5856: a2 = a1 >>64 24\n  5859: u8 [a4 + 19] = a2\n  5862: a2 = a1 >>64 16\n  5865: u8 [a4 + 18] = a2\n  5868: a1 = a1 >>64 8\n  5871: u8 [a4 + 17] = a1\n  5874: u8 [a4 + 8] = a0\n  5877: a1 = a0 >>64 56\n  5880: u8 [a4 + 15] = a1\n  5883: a1 = a0 >>64 48\n  5886: u8 [a4 + 14] = a1\n  5889: a1 = a0 >>64 40\n  5892: u8 [a4 + 13] = a1\n  5895: t0 = a0 >>64 32\n  5898: a1 = s1 >u 0x0\n  5900: a2 = u64 [sp + 352]\n  5904: a3 = a2 >u 0x0\n  5906: a3 = a1 if a2 == 0\n  5909: a1 = 0xffffffdf\n  5919: a5 = u64 [sp + 456]\n  5923: a1 = a1 <u a5\n  5926: a0 = u64 [sp + 464]\n  5930: t2 = a0 >u 0x0\n  5932: a1 = t2 if a0 != 0\n  5935: a2 = a2 | s1\n  5938: a1 = a3 if a2 != 0\n  5941: u8 [a4 + 12] = t0\n  5944: jump @125 if a1 != 0\n      : @133 (gas: 8)\n  5948: u64 [sp + 424] = a2\n  5952: u64 [sp + 432] = t2\n  5956: u64 [sp + 440] = a3\n  5960: u64 [sp + 352] = a4\n  5964: a0 = t1 + 0x20\n  5967: a1 = 0x20\n  5970: s1 = a0\n  5972: ra = 72, jump @0\n      : @134 [@dyn 36] (gas: 1)\n  5977: jump @125 if a0 == 0\n      : @135 (gas: 80)\n  5981: a0 = u64 [sp + 344]\n  5985: i64 a0 = a0 + s1\n  5988: a1 = u64 [sp + 392]\n  5992: a1 = reverse a1\n  5994: a2 = a1 >>64 56\n  5997: u8 [a0 + 31] = a2\n  6000: a2 = a1 >>64 48\n  6003: u8 [a0 + 30] = a2\n  6006: a2 = a1 >>64 40\n  6009: u8 [a0 + 29] = a2\n  6012: a2 = a1 >>64 32\n  6015: u8 [a0 + 28] = a2\n  6018: a2 = a1 >>64 24\n  6021: u8 [a0 + 27] = a2\n  6024: a2 = a1 >>64 16\n  6027: u8 [a0 + 26] = a2\n  6030: a2 = u64 [sp + 400]\n  6034: a2 = reverse a2\n  6036: u8 [a0 + 24] = a1\n  6039: a1 = a1 >>64 8\n  6042: u8 [a0 + 25] = a1\n  6045: a1 = a2 >>64 56\n  6048: u8 [a0 + 23] = a1\n  6051: a1 = a2 >>64 48\n  6054: u8 [a0 + 22] = a1\n  6057: a1 = a2 >>64 40\n  6060: u8 [a0 + 21] = a1\n  6063: a1 = a2 >>64 32\n  6066: u8 [a0 + 20] = a1\n  6069: a1 = a2 >>64 24\n  6072: u8 [a0 + 19] = a1\n  6075: a1 = a2 >>64 16\n  6078: u8 [a0 + 18] = a1\n  6081: a1 = u64 [sp + 408]\n  6085: a1 = reverse a1\n  6087: u8 [a0 + 16] = a2\n  6090: a2 = a2 >>64 8\n  6093: u8 [a0 + 17] = a2\n  6096: a2 = a1 >>64 56\n  6099: u8 [a0 + 15] = a2\n  6102: a2 = a1 >>64 48\n  6105: u8 [a0 + 14] = a2\n  6108: a2 = a1 >>64 40\n  6111: u8 [a0 + 13] = a2\n  6114: a2 = a1 >>64 32\n  6117: u8 [a0 + 12] = a2\n  6120: a2 = a1 >>64 24\n  6123: u8 [a0 + 11] = a2\n  6126: a2 = a1 >>64 16\n  6129: u8 [a0 + 10] = a2\n  6132: a2 = u64 [sp + 416]\n  6136: a2 = reverse a2\n  6138: u8 [a0 + 8] = a1\n  6141: a1 = a1 >>64 8\n  6144: u8 [a0 + 9] = a1\n  6147: u8 [a0] = a2\n  6149: a1 = a2 >>64 56\n  6152: u8 [a0 + 7] = a1\n  6155: a1 = a2 >>64 48\n  6158: u8 [a0 + 6] = a1\n  6161: a1 = a2 >>64 40\n  6164: u8 [a0 + 5] = a1\n  6167: a1 = a2 >>64 32\n  6170: u8 [a0 + 4] = a1\n  6173: a1 = a2 >>64 24\n  6176: u8 [a0 + 3] = a1\n  6179: a1 = a2 >>64 16\n  6182: u8 [a0 + 2] = a1\n  6185: a2 = a2 >>64 8\n  6188: a1 = 0xffffffbf\n  6198: a3 = u64 [sp + 456]\n  6202: a1 = a1 <u a3\n  6205: a3 = u64 [sp + 464]\n  6209: a4 = u64 [sp + 432]\n  6213: a1 = a4 if a3 != 0\n  6216: a3 = u64 [sp + 440]\n  6220: a4 = u64 [sp + 424]\n  6224: a1 = a3 if a4 != 0\n  6227: u8 [a0 + 1] = a2\n  6230: jump @125 if a1 != 0\n      : @136 (gas: 5)\n  6234: a0 = u64 [sp + 448]\n  6238: a0 = a0 + 0x40\n  6241: a1 = 0x20\n  6244: u64 [sp + 416] = a0\n  6248: ra = 74, jump @0\n      : @137 [@dyn 37] (gas: 1)\n  6253: jump @125 if a0 == 0\n      : @138 (gas: 81)\n  6257: a0 = 0xffffff9f\n  6267: a1 = u64 [sp + 456]\n  6271: a0 = a0 <u a1\n  6274: a1 = u64 [sp + 464]\n  6278: a2 = u64 [sp + 432]\n  6282: a0 = a2 if a1 != 0\n  6285: a1 = u64 [sp + 440]\n  6289: a2 = u64 [sp + 424]\n  6293: a0 = a1 if a2 != 0\n  6296: a1 = u64 [sp + 344]\n  6300: a2 = u64 [sp + 416]\n  6304: i64 a1 = a1 + a2\n  6307: a2 = u64 [sp + 360]\n  6311: a2 = reverse a2\n  6313: a3 = a2 >>64 56\n  6316: u8 [a1 + 31] = a3\n  6319: a3 = a2 >>64 48\n  6322: u8 [a1 + 30] = a3\n  6325: a3 = a2 >>64 40\n  6328: u8 [a1 + 29] = a3\n  6331: a3 = a2 >>64 32\n  6334: u8 [a1 + 28] = a3\n  6337: a3 = a2 >>64 24\n  6340: u8 [a1 + 27] = a3\n  6343: a3 = a2 >>64 16\n  6346: u8 [a1 + 26] = a3\n  6349: a3 = u64 [sp + 368]\n  6353: a3 = reverse a3\n  6355: u8 [a1 + 24] = a2\n  6358: a2 = a2 >>64 8\n  6361: u8 [a1 + 25] = a2\n  6364: a2 = a3 >>64 56\n  6367: u8 [a1 + 23] = a2\n  6370: a2 = a3 >>64 48\n  6373: u8 [a1 + 22] = a2\n  6376: a2 = a3 >>64 40\n  6379: u8 [a1 + 21] = a2\n  6382: a2 = a3 >>64 32\n  6385: u8 [a1 + 20] = a2\n  6388: a2 = a3 >>64 24\n  6391: u8 [a1 + 19] = a2\n  6394: a2 = a3 >>64 16\n  6397: u8 [a1 + 18] = a2\n  6400: a2 = u64 [sp + 376]\n  6404: a2 = reverse a2\n  6406: u8 [a1 + 16] = a3\n  6409: a3 = a3 >>64 8\n  6412: u8 [a1 + 17] = a3\n  6415: a3 = a2 >>64 56\n  6418: u8 [a1 + 15] = a3\n  6421: a3 = a2 >>64 48\n  6424: u8 [a1 + 14] = a3\n  6427: a3 = a2 >>64 40\n  6430: u8 [a1 + 13] = a3\n  6433: a3 = a2 >>64 32\n  6436: u8 [a1 + 12] = a3\n  6439: a3 = a2 >>64 24\n  6442: u8 [a1 + 11] = a3\n  6445: a3 = a2 >>64 16\n  6448: u8 [a1 + 10] = a3\n  6451: a3 = u64 [sp + 384]\n  6455: a3 = reverse a3\n  6457: u8 [a1 + 8] = a2\n  6460: a2 = a2 >>64 8\n  6463: u8 [a1 + 9] = a2\n  6466: a2 = a3 >>64 56\n  6469: u8 [a1 + 7] = a2\n  6472: a2 = a3 >>64 48\n  6475: u8 [a1 + 6] = a2\n  6478: a2 = a3 >>64 40\n  6481: u8 [a1 + 5] = a2\n  6484: a2 = a3 >>64 32\n  6487: u8 [a1 + 4] = a2\n  6490: a2 = a3 >>64 24\n  6493: u8 [a1 + 3] = a2\n  6496: a2 = a3 >>64 16\n  6499: u8 [a1 + 2] = a2\n  6502: u8 [a1] = a3\n  6504: a3 = a3 >>64 8\n  6507: u8 [a1 + 1] = a3\n  6510: jump @125 if a0 != 0\n      : @139 (gas: 5)\n  6514: a0 = u64 [sp + 448]\n  6518: s1 = a0 + 0x60\n  6521: a1 = 0x20\n  6524: a0 = s1\n  6526: ra = 76, jump @0\n      : @140 [@dyn 38] (gas: 1)\n  6531: jump @125 if a0 == 0\n      : @141 (gas: 39)\n  6535: a0 = u64 [sp + 472]\n  6539: a1 = a0 >u 0x0\n  6541: a0 = u64 [sp + 344]\n  6545: i64 a0 = a0 + s1\n  6548: u8 [a0 + 31] = a1\n  6551: u8 [a0 + 30] = 0\n  6554: u8 [a0 + 29] = 0\n  6557: u8 [a0 + 28] = 0\n  6560: u8 [a0 + 27] = 0\n  6563: u8 [a0 + 26] = 0\n  6566: u8 [a0 + 25] = 0\n  6569: u8 [a0 + 24] = 0\n  6572: u8 [a0 + 23] = 0\n  6575: u8 [a0 + 22] = 0\n  6578: u8 [a0 + 21] = 0\n  6581: u8 [a0 + 20] = 0\n  6584: u8 [a0 + 19] = 0\n  6587: u8 [a0 + 18] = 0\n  6590: u8 [a0 + 17] = 0\n  6593: u8 [a0 + 16] = 0\n  6596: u8 [a0 + 15] = 0\n  6599: u8 [a0 + 14] = 0\n  6602: u8 [a0 + 13] = 0\n  6605: u8 [a0 + 12] = 0\n  6608: u8 [a0 + 11] = 0\n  6611: u8 [a0 + 10] = 0\n  6614: u8 [a0 + 9] = 0\n  6617: u8 [a0 + 8] = 0\n  6620: u8 [a0 + 7] = 0\n  6623: u8 [a0 + 6] = 0\n  6626: u8 [a0 + 5] = 0\n  6629: u8 [a0 + 4] = 0\n  6632: u8 [a0 + 3] = 0\n  6635: u8 [a0 + 2] = 0\n  6638: u8 [a0 + 1] = 0\n  6641: u8 [a0 + 0] = 0\n  6643: a1 = 0x80\n  6647: a0 = u64 [sp + 448]\n  6651: ra = 78, jump @0\n      : @142 [@dyn 39] (gas: 1)\n  6656: jump @125 if a0 == 0\n      : @143 (gas: 5)\n  6660: a1 = i32 [sp + 352]\n  6664: a2 = 0x80\n  6668: a0 = 0x0\n  6670: ecalli 8 // 'seal_return'\n  6672: fallthrough\n      : @144 (gas: 87)\n  6673: a0 = u64 [sp + 440]\n  6677: u64 [sp + 1064] = a0\n  6681: a0 = u64 [sp + 448]\n  6685: u64 [sp + 1056] = a0\n  6689: a0 = u64 [sp + 432]\n  6693: u64 [sp + 1072] = a0\n  6697: s1 = u64 [sp + 360]\n  6701: u64 [sp + 1080] = s1\n  6705: u64 [sp + 1048] = 0\n  6709: u64 [sp + 1040] = 0\n  6713: u64 [sp + 1032] = 0\n  6717: u64 [sp + 1024] = 0\n  6721: u64 [sp + 1008] = 0\n  6725: u64 [sp + 1016] = 0\n  6729: u64 [sp + 1000] = 0\n  6733: u64 [sp + 992] = 256\n  6739: a1 = sp + 0x420\n  6743: a3 = sp + 0x400\n  6747: a4 = sp + 0x3e0\n  6751: a2 = 0xffffffff\n  6754: a0 = 0x0\n  6756: ecalli 2 // 'get_storage'\n  6758: a0 = u64 [sp + 1024]\n  6762: a1 = u64 [sp + 1032]\n  6766: a2 = u64 [sp + 1040]\n  6770: a3 = u64 [sp + 1048]\n  6774: a0 = a0 & 0xffffff00\n  6778: a0 = a0 | 0x1\n  6781: u64 [sp + 920] = s1\n  6785: a4 = u64 [sp + 432]\n  6789: u64 [sp + 912] = a4\n  6793: a4 = u64 [sp + 440]\n  6797: u64 [sp + 904] = a4\n  6801: a4 = u64 [sp + 448]\n  6805: u64 [sp + 896] = a4\n  6809: u64 [sp + 984] = a3\n  6813: u64 [sp + 976] = a2\n  6817: u64 [sp + 968] = a1\n  6821: u64 [sp + 960] = a0\n  6825: a1 = sp + 0x380\n  6829: a3 = sp + 0x3c0\n  6833: a2 = 0xffffffff\n  6836: a4 = 0x20\n  6839: a0 = 0x0\n  6841: ecalli 10 // 'set_storage'\n  6843: a0 = sp + 0x3c0\n  6847: ecalli 1 // 'caller'\n  6849: a0 = i32 [sp + 976]\n  6853: u64 [sp + 472] = a0\n  6857: a0 = u64 [sp + 960]\n  6861: u64 [sp + 464] = a0\n  6865: s1 = u64 [sp + 968]\n  6869: a0 = u64 [sp + 368]\n  6873: u64 [sp + 920] = a0\n  6877: a0 = u64 [sp + 376]\n  6881: u64 [sp + 912] = a0\n  6885: a0 = u64 [sp + 384]\n  6889: u64 [sp + 904] = a0\n  6893: a0 = u64 [sp + 392]\n  6897: u64 [sp + 896] = a0\n  6901: u64 [sp + 1080] = 0\n  6905: u64 [sp + 1072] = 0\n  6909: u64 [sp + 1064] = 0\n  6913: u64 [sp + 1056] = 0\n  6917: u64 [sp + 1040] = 0\n  6921: u64 [sp + 1048] = 0\n  6925: u64 [sp + 1032] = 0\n  6929: u64 [sp + 1024] = 256\n  6935: a1 = sp + 0x380\n  6939: a3 = sp + 0x420\n  6943: a4 = sp + 0x400\n  6947: a2 = 0xffffffff\n  6950: a0 = 0x0\n  6952: ecalli 2 // 'get_storage'\n  6954: a0 = u64 [sp + 1056]\n  6958: a1 = u64 [sp + 1064]\n  6962: a2 = u64 [sp + 1072]\n  6966: a3 = u64 [sp + 1080]\n  6970: u64 [sp + 1032] = s1\n  6974: a4 = u64 [sp + 464]\n  6978: u64 [sp + 1024] = a4\n  6982: a4 = u64 [sp + 472]\n  6986: u32 [sp + 1040] = a4\n  6990: u64 [sp + 1080] = a3\n  6994: u64 [sp + 1072] = a2\n  6998: u64 [sp + 1064] = a1\n  7002: fallthrough\n      : @145 (gas: 4)\n  7003: u64 [sp + 1056] = a0\n  7007: a0 = 0x0\n  7009: a1 = 0x0\n  7011: ra = 80, jump @0\n      : @146 [@dyn 40] (gas: 1)\n  7016: jump @125 if a0 == 0\n      : @147 (gas: 3)\n  7020: a0 = 0x0\n  7022: a1 = 0x0\n  7024: ra = 82, jump @0\n      : @148 [@dyn 41] (gas: 1)\n  7029: jump @125 if a0 == 0\n      : @149 (gas: 19)\n  7033: u32 [sp + 992] = 0\n  7037: u32 [sp + 896] = 8\n  7042: i64 a0 = i64 sp + 0x400\n  7046: u64 [sp + 900] = a0\n  7050: u64 [sp + 912] = 0\n  7054: u64 [sp + 904] = 0\n  7058: a0 = 0xffffffff\n  7068: u64 [sp + 920] = a0\n  7072: i64 a0 = i64 sp + 0x420\n  7076: u64 [sp + 924] = a0\n  7080: a0 = u64 [sp + 344]\n  7084: u64 [sp + 928] = a0\n  7088: u32 [sp + 932] = 0\n  7092: u64 [sp + 936] = a0\n  7096: i64 a0 = i64 sp + 0x3e0\n  7100: u64 [sp + 940] = a0\n  7104: a0 = sp + 0x380\n  7108: ecalli 0 // 'call'\n  7109: fallthrough\n      : @150 (gas: 1)\n  7110: jump @171 if a0 != 0\n      : @151 (gas: 3)\n  7114: a0 = 0x40\n  7117: a1 = 0x20\n  7120: ra = 84, jump @0\n      : @152 [@dyn 42] (gas: 1)\n  7125: jump @125 if a0 == 0\n      : @153 (gas: 16)\n  7129: a3 = u64 [sp + 344]\n  7133: a0 = u64 [a3 + 72]\n  7136: a1 = u64 [a3 + 88]\n  7139: a2 = u64 [a3 + 64]\n  7142: a3 = u64 [a3 + 80]\n  7145: a0 = reverse a0\n  7147: s1 = reverse a1\n  7149: a1 = s1 | a0\n  7152: a2 = a2 | a3\n  7155: a2 = reverse a2\n  7157: a1 = a1 | a2\n  7160: a1 = a1 >>64 32\n  7163: a0 = a0 | a2\n  7166: a0 = a0 <<64 32\n  7169: a0 = a0 | a1\n  7172: jump @125 if a0 != 0\n      : @154 (gas: 4)\n  7176: s1 = s1 + 0x0\n  7178: a0 = s1\n  7180: a1 = 0x0\n  7182: ra = 86, jump @0\n      : @155 [@dyn 43] (gas: 1)\n  7187: jump @125 if a0 == 0\n      : @156 (gas: 6)\n  7191: a1 = u64 [sp + 344]\n  7195: a1 = a1 + s1\n  7198: a0 = 0x0\n  7200: a2 = 0x0\n  7202: ecalli 8 // 'seal_return'\n  7204: fallthrough\n      : @157 (gas: 3)\n  7205: a0 = 0x40\n  7208: a1 = 0x20\n  7211: ra = 88, jump @0\n      : @158 [@dyn 44] (gas: 1)\n  7216: jump @125 if a0 == 0\n      : @159 (gas: 17)\n  7220: a3 = u64 [sp + 344]\n  7224: a0 = u64 [a3 + 72]\n  7227: a1 = u64 [a3 + 64]\n  7230: a2 = u64 [a3 + 80]\n  7233: a3 = u64 [a3 + 88]\n  7236: a4 = reverse a0\n  7238: a5 = reverse a1\n  7240: a2 = reverse a2\n  7242: s1 = reverse a3\n  7244: a0 = a2 | a5\n  7247: a1 = s1 | a4\n  7250: a1 = a1 | a0\n  7253: a1 = a1 >>64 32\n  7256: a0 = a0 | a4\n  7259: a0 = a0 <<64 32\n  7262: a0 = a0 | a1\n  7265: jump @125 if a0 != 0\n      : @160 (gas: 7)\n  7269: u64 [sp + 456] = a5\n  7273: u64 [sp + 464] = a4\n  7277: u64 [sp + 472] = a2\n  7281: a0 = s1 + 0x0\n  7283: a1 = 0x20\n  7286: u64 [sp + 448] = a0\n  7290: ra = 90, jump @0\n      : @161 [@dyn 45] (gas: 1)\n  7295: jump @125 if a0 == 0\n      : @162 (gas: 50)\n  7299: a2 = s1\n  7301: u64 [sp + 440] = s1\n  7305: s1 = u64 [sp + 344]\n  7309: a0 = u64 [sp + 448]\n  7313: i64 s1 = s1 + a0\n  7316: u8 [s1 + 31] = 0\n  7319: u8 [s1 + 30] = 0\n  7322: u8 [s1 + 29] = 0\n  7325: u8 [s1 + 28] = 0\n  7328: u8 [s1 + 27] = 0\n  7331: u8 [s1 + 26] = 0\n  7334: u8 [s1 + 25] = 0\n  7337: u8 [s1 + 24] = 0\n  7340: u8 [s1 + 23] = 0\n  7343: u8 [s1 + 22] = 0\n  7346: u8 [s1 + 21] = 0\n  7349: u8 [s1 + 20] = 0\n  7352: u8 [s1 + 19] = 0\n  7355: u8 [s1 + 18] = 0\n  7358: u8 [s1 + 17] = 0\n  7361: u8 [s1 + 16] = 0\n  7364: u8 [s1 + 15] = 0\n  7367: u8 [s1 + 14] = 0\n  7370: u8 [s1 + 13] = 0\n  7373: u8 [s1 + 12] = 0\n  7376: u8 [s1 + 11] = 0\n  7379: u8 [s1 + 10] = 0\n  7382: u8 [s1 + 9] = 0\n  7385: u8 [s1 + 8] = 0\n  7388: u8 [s1 + 7] = 0\n  7391: u8 [s1 + 6] = 0\n  7394: u8 [s1 + 5] = 0\n  7397: u8 [s1 + 4] = 0\n  7400: u8 [s1 + 3] = 160\n  7405: u8 [s1 + 2] = 121\n  7409: u8 [s1 + 1] = 195\n  7414: u8 [s1 + 0] = 8\n  7417: i64 a1 = i64 a2 + 0x4\n  7420: a0 = a1 <u a2\n  7423: a3 = u64 [sp + 472]\n  7427: i64 a2 = a3 + a0\n  7430: a3 = a2 <u a3\n  7433: a3 = a0 if a0 == 0\n  7436: a0 = u64 [sp + 464]\n  7440: i64 a3 = a3 + a0\n  7443: a4 = a3 <u a0\n  7446: a0 = u64 [sp + 456]\n  7450: i64 a4 = a4 + a0\n  7453: i64 a0 = i64 sp + 0x2e0\n  7457: ra = 92, jump @328\n      : @163 [@dyn 46] (gas: 5)\n  7462: a1 = u64 [sp + 744]\n  7466: t0 = u64 [sp + 760]\n  7470: t1 = u64 [sp + 736]\n  7474: a3 = u64 [sp + 752]\n  7478: fallthrough\n      : @164 (gas: 27)\n  7479: a0 = u64 [sp + 472]\n  7483: a4 = a1 ^ a0\n  7486: a5 = a1 <u a0\n  7489: ra = a0\n  7491: t2 = u64 [sp + 440]\n  7495: a2 = t1 <u t2\n  7498: a5 = a2 if a4 == 0\n  7501: a0 = u64 [sp + 464]\n  7505: i64 a4 = i64 a3 - i64 a0\n  7508: a3 = a3 <u a0\n  7511: a0 = u64 [sp + 456]\n  7515: i64 a0 = i64 t0 - i64 a0\n  7518: i64 a0 = i64 a0 - i64 a3\n  7521: a3 = a4 <u a5\n  7524: i64 a0 = i64 a0 - i64 a3\n  7527: i64 a4 = i64 a4 - i64 a5\n  7530: i64 a1 = i64 a1 - i64 ra\n  7533: i64 a1 = i64 a1 - i64 a2\n  7536: a0 = a0 | a1\n  7539: i64 a1 = i64 t1 - i64 t2\n  7542: a1 = a1 | a4\n  7545: a1 = a1 | a0\n  7548: a0 = a0 | a4\n  7551: a1 = a1 >>64 32\n  7554: a0 = a0 <<64 32\n  7557: a0 = a0 | a1\n  7560: jump @125 if a0 != 0\n      : @165 (gas: 4)\n  7564: a1 = t1 - t2\n  7567: a0 = u64 [sp + 448]\n  7571: u64 [sp + 472] = a1\n  7575: ra = 94, jump @0\n      : @166 [@dyn 47] (gas: 1)\n  7580: jump @125 if a0 == 0\n      : @167 (gas: 7)\n  7584: a1 = s1 + 0x0\n  7586: a0 = 0x1\n  7589: a2 = u64 [sp + 472]\n  7593: ecalli 8 // 'seal_return'\n  7595: a0 = 0x0\n  7597: ra = 0x60\n  7600: jump @0\n      : @168 (gas: 2)\n  7603: a0 = 0x0\n  7605: ra = 96, jump @0\n      : @169 [@dyn 48] (gas: 1)\n  7610: jump @125 if a0 == 0\n      : @170 (gas: 5)\n  7614: a1 = i32 [sp + 344]\n  7618: a0 = 0x1\n  7621: a2 = 0x0\n  7623: ecalli 8 // 'seal_return'\n  7625: fallthrough\n      : @171 (gas: 11)\n  7626: ra = 0x62\n  7629: i64 sp = i64 sp - i64 160\n  7633: u64 [sp + 152] = ra\n  7637: u64 [sp + 144] = s0\n  7641: u64 [sp + 136] = s1\n  7645: i64 s0 = i64 sp + 0xa0\n  7649: sp = sp & 0xffffffe0\n  7652: a0 = 0x40\n  7655: a1 = 0x20\n  7658: ra = 0xc4\n  7662: jump @0\n      : @172 [@dyn 49] (gas: 3)\n  7665: a1 = 0x20\n  7668: a0 = 0x0\n  7670: ra = 100, jump @0\n      : @173 [@dyn 50] (gas: 1)\n  7675: jump @125 if a0 == 0\n      : @174 (gas: 8)\n  7679: s1 = u64 [sp + 344]\n  7683: u64 [s1 + 24] = 0\n  7686: u64 [s1 + 16] = 0\n  7689: u64 [s1 + 8] = 0\n  7692: u64 [s1 + 0] = 1903904846\n  7698: a0 = 0x4\n  7701: a1 = 0x20\n  7704: ra = 102, jump @0\n      : @175 [@dyn 51] (gas: 1)\n  7709: jump @125 if a0 == 0\n      : @176 (gas: 11)\n  7713: u32 [s1 + 32] = 838860800\n  7720: u32 [s1 + 28] = 0\n  7723: u32 [s1 + 24] = 0\n  7726: u32 [s1 + 20] = 0\n  7729: u32 [s1 + 16] = 0\n  7732: u32 [s1 + 12] = 0\n  7735: u32 [s1 + 8] = 0\n  7738: u32 [s1 + 4] = 0\n  7741: a1 = 0x24\n  7744: a0 = 0x0\n  7746: ra = 104, jump @0\n      : @177 [@dyn 52] (gas: 1)\n  7751: jump @125 if a0 == 0\n      : @178 (gas: 6)\n  7755: a1 = s1 + 0x0\n  7757: a0 = 0x1\n  7760: a2 = 0x24\n  7763: ra = 0x6a\n  7766: ecalli 8 // 'seal_return'\n  7768: fallthrough\n      : @179 [@dyn 53] (gas: 17)\n  7769: t0 = 0x0\n  7771: t1 = 0x0\n  7773: u64 [sp + 384] = 0\n  7777: u64 [sp + 392] = 0\n  7781: a0 = u64 [sp + 504]\n  7785: u64 [sp + 448] = a0\n  7789: a3 = u64 [sp + 496]\n  7793: a5 = u64 [sp + 488]\n  7797: t2 = u64 [sp + 480]\n  7801: a4 = 0xffffffdf\n  7811: u64 [sp + 304] = a4\n  7815: a0 = u64 [sp + 288]\n  7819: u64 [sp + 472] = a0\n  7823: a4 = a1\n  7825: a0 = u64 [sp + 296]\n  7829: a1 = u64 [sp + 464]\n  7833: fallthrough\n      : @180 (gas: 36)\n  7834: u64 [sp + 400] = t1\n  7838: u64 [sp + 408] = t0\n  7842: s1 = a0\n  7844: u64 [sp + 416] = ra\n  7848: u64 [sp + 424] = a4\n  7852: a0 = u64 [sp + 472]\n  7856: u64 [sp + 432] = a0\n  7860: a0 = u64 [sp + 440]\n  7864: u64 [sp + 360] = a0\n  7868: u64 [sp + 368] = a2\n  7872: u64 [sp + 376] = a1\n  7876: a0 = u64 [sp + 456]\n  7880: u64 [sp + 472] = a0\n  7884: u64 [sp + 456] = t2\n  7888: u64 [sp + 896] = t2\n  7892: u64 [sp + 464] = a5\n  7896: u64 [sp + 904] = a5\n  7900: u64 [sp + 440] = a3\n  7904: u64 [sp + 912] = a3\n  7908: a0 = u64 [sp + 448]\n  7912: u64 [sp + 920] = a0\n  7916: u64 [sp + 1080] = 0\n  7920: u64 [sp + 1072] = 0\n  7924: u64 [sp + 1064] = 0\n  7928: u64 [sp + 1056] = 0\n  7932: u64 [sp + 976] = 0\n  7936: u64 [sp + 984] = 0\n  7940: u64 [sp + 968] = 0\n  7944: u64 [sp + 960] = 256\n  7950: a1 = sp + 0x380\n  7954: a3 = sp + 0x420\n  7958: a4 = sp + 0x3c0\n  7962: a2 = 0xffffffff\n  7965: a0 = 0x0\n  7967: ecalli 2 // 'get_storage'\n  7969: fallthrough\n      : @181 (gas: 13)\n  7970: a3 = u64 [sp + 416]\n  7974: a0 = a3 >u 0x0\n  7976: a1 = s1 >u 0x0\n  7978: a1 = a0 if s1 == 0\n  7981: a0 = u64 [sp + 304]\n  7985: a2 = u64 [sp + 432]\n  7989: a0 = a0 <u a2\n  7992: a4 = u64 [sp + 424]\n  7996: a2 = a4 >u 0x0\n  7998: a2 = a0 if a4 == 0\n  8001: a0 = a3 | s1\n  8004: a2 = a1 if a0 != 0\n  8007: jump @125 if a2 != 0\n      : @182 (gas: 12)\n  8011: a0 = u64 [sp + 1080]\n  8015: u64 [sp + 416] = a0\n  8019: a0 = u64 [sp + 1072]\n  8023: u64 [sp + 424] = a0\n  8027: a0 = u64 [sp + 1064]\n  8031: u64 [sp + 432] = a0\n  8035: a0 = u64 [sp + 1056]\n  8039: u64 [sp + 352] = a0\n  8043: s1 = i32 [sp + 472]\n  8047: a1 = 0x20\n  8050: a0 = s1\n  8052: ra = 108, jump @0\n      : @183 [@dyn 54] (gas: 3)\n  8057: t0 = u64 [sp + 408]\n  8061: t1 = u64 [sp + 400]\n  8065: jump @125 if a0 == 0\n      : @184 (gas: 130)\n  8069: a0 = u64 [sp + 344]\n  8073: i64 s1 = s1 + a0\n  8076: a0 = u64 [sp + 352]\n  8080: a2 = reverse a0\n  8082: a0 = a2 >>64 56\n  8085: u8 [s1 + 31] = a0\n  8088: a0 = a2 >>64 48\n  8091: u8 [s1 + 30] = a0\n  8094: a0 = a2 >>64 40\n  8097: u8 [s1 + 29] = a0\n  8100: a0 = a2 >>64 32\n  8103: u8 [s1 + 28] = a0\n  8106: a0 = a2 >>64 24\n  8109: u8 [s1 + 27] = a0\n  8112: a0 = a2 >>64 16\n  8115: u8 [s1 + 26] = a0\n  8118: a0 = u64 [sp + 416]\n  8122: a0 = reverse a0\n  8124: a1 = u64 [sp + 424]\n  8128: a1 = reverse a1\n  8130: a3 = u64 [sp + 432]\n  8134: a3 = reverse a3\n  8136: u8 [s1 + 24] = a2\n  8139: a2 = a2 >>64 8\n  8142: u8 [s1 + 25] = a2\n  8145: u8 [s1 + 16] = a3\n  8148: a2 = a3 >>64 56\n  8151: u8 [s1 + 23] = a2\n  8154: a2 = a3 >>64 48\n  8157: u8 [s1 + 22] = a2\n  8160: a2 = a3 >>64 40\n  8163: u8 [s1 + 21] = a2\n  8166: a2 = a3 >>64 32\n  8169: u8 [s1 + 20] = a2\n  8172: a2 = a3 >>64 24\n  8175: u8 [s1 + 19] = a2\n  8178: a2 = a3 >>64 16\n  8181: u8 [s1 + 18] = a2\n  8184: a3 = a3 >>64 8\n  8187: u8 [s1 + 17] = a3\n  8190: u8 [s1 + 8] = a1\n  8193: a2 = a1 >>64 56\n  8196: u8 [s1 + 15] = a2\n  8199: a2 = a1 >>64 48\n  8202: u8 [s1 + 14] = a2\n  8205: a2 = a1 >>64 40\n  8208: u8 [s1 + 13] = a2\n  8211: a2 = a1 >>64 32\n  8214: u8 [s1 + 12] = a2\n  8217: a2 = a1 >>64 24\n  8220: u8 [s1 + 11] = a2\n  8223: a2 = a1 >>64 16\n  8226: u8 [s1 + 10] = a2\n  8229: a1 = a1 >>64 8\n  8232: u8 [s1 + 9] = a1\n  8235: u8 [s1] = a0\n  8237: a1 = a0 >>64 56\n  8240: u8 [s1 + 7] = a1\n  8243: a1 = a0 >>64 48\n  8246: u8 [s1 + 6] = a1\n  8249: a1 = a0 >>64 40\n  8252: u8 [s1 + 5] = a1\n  8255: a1 = a0 >>64 32\n  8258: u8 [s1 + 4] = a1\n  8261: a1 = a0 >>64 24\n  8264: u8 [s1 + 3] = a1\n  8267: a1 = a0 >>64 16\n  8270: u8 [s1 + 2] = a1\n  8273: a0 = a0 >>64 8\n  8276: u8 [s1 + 1] = a0\n  8279: t2 = u64 [sp + 456]\n  8283: i64 t2 = i64 t2 + 0x1\n  8286: a0 = t2 <u 0x1\n  8289: a1 = u64 [sp + 464]\n  8293: i64 a1 = a1 + a0\n  8296: u64 [sp + 464] = a1\n  8300: a0 = t2 | a1\n  8303: a4 = a0 <u 0x1\n  8306: a0 = u64 [sp + 440]\n  8310: i64 a4 = a4 + a0\n  8313: u64 [sp + 432] = a4\n  8317: a0 = a4 <u a0\n  8320: a1 = u64 [sp + 448]\n  8324: i64 a1 = a1 + a0\n  8327: u64 [sp + 448] = a1\n  8331: i64 t0 = i64 t0 + 0x1\n  8334: a0 = t0 <u 0x1\n  8337: i64 t1 = t1 + a0\n  8340: a0 = t0 | t1\n  8343: a5 = a0 <u 0x1\n  8346: a0 = u64 [sp + 384]\n  8350: i64 a5 = a5 + a0\n  8353: a0 = a5 <u a0\n  8356: s1 = u64 [sp + 392]\n  8360: i64 s1 = s1 + a0\n  8363: ra = u64 [sp + 472]\n  8367: i64 a0 = i64 ra + 0x20\n  8370: u64 [sp + 456] = a0\n  8374: a0 = u64 [sp + 320]\n  8378: a1 = t0 <u a0\n  8381: a0 = u64 [sp + 328]\n  8385: a2 = t1 ^ a0\n  8388: a3 = t1 <u a0\n  8391: a3 = a1 if a2 == 0\n  8394: a1 = u64 [sp + 336]\n  8398: a4 = a5 <u a1\n  8401: a0 = u64 [sp + 312]\n  8405: a2 = s1 ^ a0\n  8408: u64 [sp + 392] = s1\n  8412: s1 = s1 <u a0\n  8415: s1 = a4 if a2 == 0\n  8418: a1 = a1 ^ a5\n  8421: a1 = a1 | a2\n  8424: a0 = u64 [sp + 456]\n  8428: a2 = a0 <u ra\n  8431: s1 = a3 if a1 == 0\n  8434: a4 = u64 [sp + 376]\n  8438: i64 a1 = a4 + a2\n  8441: a3 = a1 <u a4\n  8444: a3 = a2 if a2 == 0\n  8447: ra = u64 [sp + 368]\n  8451: i64 a2 = ra + a3\n  8454: a3 = a2 <u ra\n  8457: a0 = u64 [sp + 360]\n  8461: i64 a3 = a3 + a0\n  8464: u64 [sp + 440] = a3\n  8468: u64 [sp + 384] = a5\n  8472: a5 = u64 [sp + 464]\n  8476: a3 = u64 [sp + 432]\n  8480: jump @180 if s1 != 0\n      : @185 (gas: 26)\n  8484: t1 = u64 [sp + 288]\n  8488: a0 = u64 [sp + 456]\n  8492: a4 = a0 <u t1\n  8495: ra = u64 [sp + 272]\n  8499: a5 = a1 ^ ra\n  8502: s1 = a1 <u ra\n  8505: s1 = a4 if a5 == 0\n  8508: t0 = u64 [sp + 280]\n  8512: i64 a5 = i64 a2 - i64 t0\n  8515: i64 t2 = i64 a5 - i64 s1\n  8518: a5 = a5 <u s1\n  8521: a2 = a2 <u t0\n  8524: s1 = u64 [sp + 296]\n  8528: i64 a2 = a2 + s1\n  8531: a3 = u64 [sp + 440]\n  8535: i64 a3 = i64 a3 - i64 a2\n  8538: i64 a3 = i64 a3 - i64 a5\n  8541: i64 a5 = i64 a1 - i64 ra\n  8544: i64 a5 = i64 a5 - i64 a4\n  8547: i64 a4 = i64 a0 - i64 t1\n  8550: u64 [sp] = a3\n  8552: a0 = t1\n  8554: a1 = ra\n  8556: a2 = t0\n  8558: a3 = s1\n  8560: ra = 110, jump @242\n      : @186 [@dyn 55] (gas: 3)\n  8565: a0 = 0x40\n  8568: a1 = 0x20\n  8571: ra = 112, jump @0\n      : @187 [@dyn 56] (gas: 1)\n  8576: jump @125 if a0 == 0\n      : @188 (gas: 20)\n  8580: a3 = u64 [sp + 344]\n  8584: a0 = u64 [a3 + 72]\n  8587: a1 = u64 [a3 + 64]\n  8590: a2 = u64 [a3 + 80]\n  8593: a3 = u64 [a3 + 88]\n  8596: a4 = reverse a0\n  8598: a1 = reverse a1\n  8600: a0 = reverse a2\n  8602: a2 = reverse a3\n  8604: u64 [sp + 64] = a0\n  8607: u64 [sp + 48] = a1\n  8610: a0 = a0 | a1\n  8613: a1 = a2 | a4\n  8616: a1 = a1 | a0\n  8619: a1 = a1 >>64 32\n  8622: u64 [sp + 56] = a4\n  8625: a0 = a0 | a4\n  8628: a0 = a0 <<64 32\n  8631: a0 = a0 | a1\n  8634: jump @125 if a0 != 0\n      : @189 (gas: 6)\n  8638: u64 [sp + 40] = a2\n  8641: a0 = a2 + 0x0\n  8643: a1 = 0x20\n  8646: s1 = 0x20\n  8649: u64 [sp + 32] = a0\n  8652: ra = 114, jump @0\n      : @190 [@dyn 57] (gas: 1)\n  8657: jump @125 if a0 == 0\n      : @191 (gas: 39)\n  8661: a0 = u64 [sp + 344]\n  8665: a1 = u64 [sp + 32]\n  8668: i64 a0 = a0 + a1\n  8671: u8 [a0 + 31] = s1\n  8674: u8 [a0 + 30] = 0\n  8677: u8 [a0 + 29] = 0\n  8680: u8 [a0 + 28] = 0\n  8683: u8 [a0 + 27] = 0\n  8686: u8 [a0 + 26] = 0\n  8689: u8 [a0 + 25] = 0\n  8692: u8 [a0 + 24] = 0\n  8695: u8 [a0 + 23] = 0\n  8698: u8 [a0 + 22] = 0\n  8701: u8 [a0 + 21] = 0\n  8704: u8 [a0 + 20] = 0\n  8707: u8 [a0 + 19] = 0\n  8710: u8 [a0 + 18] = 0\n  8713: u8 [a0 + 17] = 0\n  8716: u8 [a0 + 16] = 0\n  8719: u8 [a0 + 15] = 0\n  8722: u8 [a0 + 14] = 0\n  8725: u8 [a0 + 13] = 0\n  8728: u8 [a0 + 12] = 0\n  8731: u8 [a0 + 11] = 0\n  8734: u8 [a0 + 10] = 0\n  8737: u8 [a0 + 9] = 0\n  8740: u8 [a0 + 8] = 0\n  8743: u8 [a0 + 7] = 0\n  8746: u8 [a0 + 6] = 0\n  8749: u8 [a0 + 5] = 0\n  8752: u8 [a0 + 4] = 0\n  8755: u8 [a0 + 3] = 0\n  8758: u8 [a0 + 2] = 0\n  8761: u8 [a0 + 1] = 0\n  8764: u64 [sp + 24] = a0\n  8767: u8 [a0 + 0] = 0\n  8769: a1 = 0x20\n  8772: a0 = u64 [sp + 264]\n  8776: ra = 116, jump @0\n      : @192 [@dyn 58] (gas: 1)\n  8781: jump @125 if a0 == 0\n      : @193 (gas: 14)\n  8785: a4 = u64 [sp + 56]\n  8788: a0 = a4 >u 0x0\n  8790: a5 = u64 [sp + 48]\n  8793: a1 = a5 >u 0x0\n  8795: a1 = a0 if a5 == 0\n  8798: a0 = 0xffffffdf\n  8808: a2 = u64 [sp + 40]\n  8811: a0 = a0 <u a2\n  8814: a3 = u64 [sp + 64]\n  8817: a2 = a3 >u 0x0\n  8819: a2 = a0 if a3 == 0\n  8822: a0 = a4 | a5\n  8825: a2 = a1 if a0 != 0\n  8828: jump @125 if a2 != 0\n      : @194 (gas: 72)\n  8832: a0 = u64 [sp + 256]\n  8836: a1 = u8 [a0 + 24]\n  8839: u64 [sp + 200] = a1\n  8843: a1 = u8 [a0 + 25]\n  8846: u64 [sp + 168] = a1\n  8850: a1 = u8 [a0 + 26]\n  8853: u64 [sp + 184] = a1\n  8857: a1 = u8 [a0 + 27]\n  8860: u64 [sp + 176] = a1\n  8864: a1 = u8 [a0 + 28]\n  8867: u64 [sp + 224] = a1\n  8871: a1 = u8 [a0 + 29]\n  8874: u64 [sp + 192] = a1\n  8878: a1 = u8 [a0 + 30]\n  8881: u64 [sp + 216] = a1\n  8885: a1 = u8 [a0 + 31]\n  8888: u64 [sp + 208] = a1\n  8892: a1 = u8 [a0 + 16]\n  8895: u64 [sp + 304] = a1\n  8899: a1 = u8 [a0 + 17]\n  8902: u64 [sp + 232] = a1\n  8906: a1 = u8 [a0 + 18]\n  8909: u64 [sp + 248] = a1\n  8913: a1 = u8 [a0 + 19]\n  8916: u64 [sp + 240] = a1\n  8920: a1 = u8 [a0 + 20]\n  8923: u64 [sp + 328] = a1\n  8927: a1 = u8 [a0 + 21]\n  8930: u64 [sp + 264] = a1\n  8934: a1 = u8 [a0 + 22]\n  8937: u64 [sp + 320] = a1\n  8941: a1 = u8 [a0 + 23]\n  8944: u64 [sp + 312] = a1\n  8948: a1 = u8 [a0 + 8]\n  8951: u64 [sp + 376] = a1\n  8955: a1 = u8 [a0 + 9]\n  8958: u64 [sp + 336] = a1\n  8962: a1 = u8 [a0 + 10]\n  8965: u64 [sp + 360] = a1\n  8969: a1 = u8 [a0 + 11]\n  8972: u64 [sp + 352] = a1\n  8976: a1 = u8 [a0 + 12]\n  8979: u64 [sp + 400] = a1\n  8983: a1 = u8 [a0 + 13]\n  8986: u64 [sp + 368] = a1\n  8990: a1 = u8 [a0 + 14]\n  8993: u64 [sp + 392] = a1\n  8997: a1 = u8 [a0 + 15]\n  9000: u64 [sp + 384] = a1\n  9004: a1 = u8 [a0]\n  9006: u64 [sp + 440] = a1\n  9010: a1 = u8 [a0 + 1]\n  9013: u64 [sp + 408] = a1\n  9017: a1 = u8 [a0 + 2]\n  9020: u64 [sp + 424] = a1\n  9024: a1 = u8 [a0 + 3]\n  9027: u64 [sp + 416] = a1\n  9031: a1 = u8 [a0 + 4]\n  9034: u64 [sp + 472] = a1\n  9038: a1 = u8 [a0 + 5]\n  9041: u64 [sp + 432] = a1\n  9045: a1 = u8 [a0 + 6]\n  9048: u64 [sp + 456] = a1\n  9052: a0 = u8 [a0 + 7]\n  9055: u64 [sp + 448] = a0\n  9059: a0 = u64 [sp + 40]\n  9062: i64 s1 = i64 a0 + 0x20\n  9065: u64 [sp + 464] = s1\n  9069: s1 = s1 + 0x0\n  9071: a1 = 0x20\n  9074: a0 = s1\n  9076: ra = 118, jump @0\n      : @195 [@dyn 59] (gas: 1)\n  9081: jump @197 if a0 != 0\n      : @196 (gas: 1)\n  9084: jump @125\n      : @197 (gas: 170)\n  9087: a0 = u64 [sp + 168]\n  9091: a0 = a0 <<64 8\n  9094: a1 = u64 [sp + 200]\n  9098: a0 = a0 | a1\n  9101: a1 = u64 [sp + 184]\n  9105: a1 = a1 <<64 16\n  9108: a2 = u64 [sp + 176]\n  9112: a2 = a2 <<64 24\n  9115: a1 = a1 | a2\n  9118: a0 = a0 | a1\n  9121: a1 = u64 [sp + 192]\n  9125: a1 = a1 <<64 8\n  9128: a2 = u64 [sp + 224]\n  9132: a1 = a1 | a2\n  9135: a2 = u64 [sp + 216]\n  9139: a2 = a2 <<64 16\n  9142: a3 = u64 [sp + 208]\n  9146: a3 = a3 <<64 24\n  9149: a2 = a2 | a3\n  9152: a1 = a1 | a2\n  9155: a1 = a1 <<64 32\n  9158: t0 = a1 | a0\n  9161: a0 = u64 [sp + 232]\n  9165: a0 = a0 <<64 8\n  9168: a1 = u64 [sp + 304]\n  9172: a0 = a0 | a1\n  9175: a1 = u64 [sp + 248]\n  9179: a1 = a1 <<64 16\n  9182: a2 = u64 [sp + 240]\n  9186: a2 = a2 <<64 24\n  9189: a1 = a1 | a2\n  9192: a0 = a0 | a1\n  9195: a1 = u64 [sp + 264]\n  9199: a1 = a1 <<64 8\n  9202: a2 = u64 [sp + 328]\n  9206: a1 = a1 | a2\n  9209: a2 = u64 [sp + 320]\n  9213: a2 = a2 <<64 16\n  9216: a3 = u64 [sp + 312]\n  9220: a3 = a3 <<64 24\n  9223: a2 = a2 | a3\n  9226: a1 = a1 | a2\n  9229: a1 = a1 <<64 32\n  9232: t1 = a1 | a0\n  9235: a0 = u64 [sp + 336]\n  9239: a0 = a0 <<64 8\n  9242: a1 = u64 [sp + 376]\n  9246: a0 = a0 | a1\n  9249: a2 = u64 [sp + 360]\n  9253: a2 = a2 <<64 16\n  9256: a3 = u64 [sp + 352]\n  9260: a3 = a3 <<64 24\n  9263: a2 = a2 | a3\n  9266: a0 = a0 | a2\n  9269: a2 = u64 [sp + 368]\n  9273: a2 = a2 <<64 8\n  9276: a1 = u64 [sp + 400]\n  9280: a2 = a2 | a1\n  9283: a3 = u64 [sp + 392]\n  9287: a3 = a3 <<64 16\n  9290: a4 = u64 [sp + 384]\n  9294: a4 = a4 <<64 24\n  9297: a3 = a3 | a4\n  9300: a2 = a2 | a3\n  9303: a2 = a2 <<64 32\n  9306: ra = a2 | a0\n  9309: a0 = u64 [sp + 408]\n  9313: a0 = a0 <<64 8\n  9316: a1 = u64 [sp + 440]\n  9320: a0 = a0 | a1\n  9323: a3 = u64 [sp + 424]\n  9327: a3 = a3 <<64 16\n  9330: a4 = u64 [sp + 416]\n  9334: a4 = a4 <<64 24\n  9337: a3 = a3 | a4\n  9340: a0 = a0 | a3\n  9343: a3 = u64 [sp + 432]\n  9347: a3 = a3 <<64 8\n  9350: a1 = u64 [sp + 472]\n  9354: a3 = a3 | a1\n  9357: a4 = u64 [sp + 456]\n  9361: a4 = a4 <<64 16\n  9364: a5 = u64 [sp + 448]\n  9368: a5 = a5 <<64 24\n  9371: a4 = a4 | a5\n  9374: a3 = a3 | a4\n  9377: a3 = a3 <<64 32\n  9380: a0 = a0 | a3\n  9383: a1 = u64 [sp + 344]\n  9387: i64 s1 = s1 + a1\n  9390: u8 [s1 + 8] = ra\n  9393: a3 = a0 >>64 56\n  9396: u8 [s1 + 7] = a3\n  9399: a3 = a0 >>64 48\n  9402: u8 [s1 + 6] = a3\n  9405: a3 = a0 >>64 40\n  9408: u8 [s1 + 5] = a3\n  9411: a3 = a0 >>64 32\n  9414: u8 [s1 + 4] = a3\n  9417: a3 = a0 >>64 24\n  9420: u8 [s1 + 3] = a3\n  9423: a3 = a0 >>64 16\n  9426: u8 [s1 + 2] = a3\n  9429: a3 = a0 >>64 8\n  9432: u8 [s1 + 1] = a3\n  9435: u8 [s1] = a0\n  9437: u8 [s1 + 16] = t1\n  9440: a3 = ra >>64 56\n  9443: u8 [s1 + 15] = a3\n  9446: a3 = ra >>64 48\n  9449: u8 [s1 + 14] = a3\n  9452: a3 = ra >>64 40\n  9455: u8 [s1 + 13] = a3\n  9458: a3 = ra >>64 32\n  9461: u8 [s1 + 12] = a3\n  9464: a3 = ra >>64 24\n  9467: u8 [s1 + 11] = a3\n  9470: a3 = ra >>64 16\n  9473: u8 [s1 + 10] = a3\n  9476: a3 = ra >>64 8\n  9479: u8 [s1 + 9] = a3\n  9482: u8 [s1 + 24] = t0\n  9485: a3 = t1 >>64 56\n  9488: u8 [s1 + 23] = a3\n  9491: a3 = t1 >>64 48\n  9494: u8 [s1 + 22] = a3\n  9497: a3 = t1 >>64 40\n  9500: u8 [s1 + 21] = a3\n  9503: a3 = t1 >>64 32\n  9506: u8 [s1 + 20] = a3\n  9509: a3 = t1 >>64 24\n  9512: u8 [s1 + 19] = a3\n  9515: a3 = t1 >>64 16\n  9518: u8 [s1 + 18] = a3\n  9521: a3 = t1 >>64 8\n  9524: u8 [s1 + 17] = a3\n  9527: a3 = t0 >>64 56\n  9530: u8 [s1 + 31] = a3\n  9533: a3 = t0 >>64 48\n  9536: u8 [s1 + 30] = a3\n  9539: a3 = t0 >>64 40\n  9542: u8 [s1 + 29] = a3\n  9545: a3 = t0 >>64 32\n  9548: u8 [s1 + 28] = a3\n  9551: a3 = t0 >>64 24\n  9554: u8 [s1 + 27] = a3\n  9557: a3 = t0 >>64 16\n  9560: u8 [s1 + 26] = a3\n  9563: a3 = t0 >>64 8\n  9566: u8 [s1 + 25] = a3\n  9569: a1 = u64 [sp + 40]\n  9572: i64 a2 = i64 a1 + 0x40\n  9575: a3 = a2\n  9577: s1 = a2 <u a1\n  9580: a1 = u64 [sp + 64]\n  9583: i64 a2 = a1 + s1\n  9586: a4 = a2\n  9588: a5 = a2 <u a1\n  9591: a5 = s1 if s1 == 0\n  9594: a2 = u64 [sp + 56]\n  9597: i64 a5 = a5 + a2\n  9600: a1 = a0 | t1\n  9603: s1 = ra | t0\n  9606: a1 = a1 | s1\n  9609: s1 = a5 <u a2\n  9612: a2 = u64 [sp + 48]\n  9615: i64 s1 = s1 + a2\n  9618: u64 [sp + 456] = a3\n  9622: u64 [sp + 448] = a4\n  9626: jump @204 if a1 != 0\n      : @198 (gas: 28)\n  9629: t0 = u64 [sp + 40]\n  9632: a3 = u64 [sp + 456]\n  9636: t2 = a3 <u t0\n  9639: a1 = u64 [sp + 64]\n  9642: a4 = u64 [sp + 448]\n  9646: t1 = a4 ^ a1\n  9649: a2 = a4 <u a1\n  9652: a2 = t2 if t1 == 0\n  9655: a0 = u64 [sp + 56]\n  9658: i64 t1 = i64 a5 - i64 a0\n  9661: a5 = a5 <u a0\n  9664: a0 = u64 [sp + 48]\n  9667: i64 a5 = a5 + a0\n  9670: i64 s1 = i64 s1 - i64 a5\n  9673: a5 = t1 <u a2\n  9676: i64 s1 = i64 s1 - i64 a5\n  9679: i64 a5 = i64 t1 - i64 a2\n  9682: i64 a2 = i64 a4 - i64 a1\n  9685: i64 a2 = i64 a2 - i64 t2\n  9688: a2 = a2 | s1\n  9691: i64 a0 = i64 a3 - i64 t0\n  9694: a0 = a0 | a5\n  9697: a0 = a0 | a2\n  9700: a1 = a2 | a5\n  9703: a0 = a0 >>64 32\n  9706: a1 = a1 <<64 32\n  9709: a0 = a0 | a1\n  9712: jump @200 if a0 == 0\n      : @199 (gas: 1)\n  9715: jump @125\n      : @200 (gas: 5)\n  9718: a0 = u64 [sp + 40]\n  9721: s1 = a3 - a0\n  9724: a0 = u64 [sp + 32]\n  9727: a1 = s1\n  9729: ra = 120, jump @0\n      : @201 [@dyn 60] (gas: 1)\n  9734: jump @203 if a0 != 0\n      : @202 (gas: 1)\n  9737: jump @125\n      : @203 (gas: 6)\n  9740: a1 = i32 [sp + 24]\n  9743: a0 = 0x0\n  9745: a2 = s1\n  9747: ra = 0x7a\n  9750: ecalli 8 // 'seal_return'\n  9752: fallthrough\n      : @204 [@dyn 61] (gas: 33)\n  9753: u64 [sp + 408] = 0\n  9757: u64 [sp + 400] = 0\n  9761: u64 [sp + 384] = 0\n  9765: u64 [sp + 392] = 0\n  9769: a1 = u64 [sp + 40]\n  9772: a2 = u64 [sp + 464]\n  9776: t2 = a2 <u a1\n  9779: a1 = u64 [sp + 64]\n  9782: i64 a2 = a1 + t2\n  9785: u64 [sp + 432] = a2\n  9789: a1 = a2 <u a1\n  9792: a1 = t2 if t2 == 0\n  9795: a2 = u64 [sp + 56]\n  9798: i64 a1 = a1 + a2\n  9801: u64 [sp + 424] = a1\n  9805: a1 = a1 <u a2\n  9808: a2 = u64 [sp + 48]\n  9811: i64 a1 = a1 + a2\n  9814: u64 [sp + 416] = a1\n  9818: a0 = reverse a0\n  9820: u64 [sp + 96] = a0\n  9823: a0 = reverse ra\n  9825: u64 [sp + 88] = a0\n  9828: a0 = reverse t1\n  9830: u64 [sp + 80] = a0\n  9833: a0 = reverse t0\n  9835: u64 [sp + 72] = a0\n  9838: a0 = 0xffffffdf\n  9848: u64 [sp + 440] = a0\n  9852: t2 = u64 [sp + 280]\n  9856: t1 = u64 [sp + 272]\n  9860: t0 = u64 [sp + 288]\n  9864: fallthrough\n      : @205 (gas: 19)\n  9865: a0 = t2 >u 0x0\n  9867: a3 = u64 [sp + 296]\n  9871: a1 = a3 >u 0x0\n  9873: a1 = a0 if a3 == 0\n  9876: a0 = u64 [sp + 440]\n  9880: a0 = a0 <u t0\n  9883: a2 = t1 >u 0x0\n  9885: u64 [sp + 272] = t1\n  9889: a2 = a0 if t1 == 0\n  9892: u64 [sp + 280] = t2\n  9896: a0 = t2 | a3\n  9899: a2 = a1 if a0 != 0\n  9902: u64 [sp + 376] = s1\n  9906: u64 [sp + 368] = a5\n  9910: a0 = u64 [sp + 448]\n  9914: u64 [sp + 360] = a0\n  9918: a0 = u64 [sp + 456]\n  9922: u64 [sp + 472] = a0\n  9926: jump @207 if a2 == 0\n      : @206 (gas: 1)\n  9929: jump @125\n      : @207 (gas: 5)\n  9932: u64 [sp + 288] = t0\n  9936: s1 = t0 + 0x20\n  9939: a1 = 0x20\n  9942: a0 = s1\n  9944: ra = 124, jump @0\n      : @208 [@dyn 62] (gas: 1)\n  9949: jump @210 if a0 != 0\n      : @209 (gas: 1)\n  9952: jump @125\n      : @210 (gas: 16)\n  9955: a4 = u64 [sp + 424]\n  9959: a0 = a4 >u 0x0\n  9961: a5 = u64 [sp + 416]\n  9965: a1 = a5 >u 0x0\n  9967: a1 = a0 if a5 == 0\n  9970: a0 = u64 [sp + 440]\n  9974: a2 = u64 [sp + 464]\n  9978: a0 = a0 <u a2\n  9981: a3 = u64 [sp + 432]\n  9985: a2 = a3 >u 0x0\n  9987: a2 = a0 if a3 == 0\n  9990: a0 = a4 | a5\n  9993: a2 = a1 if a0 != 0\n  9996: a3 = u64 [sp + 344]\n 10000: a4 = u64 [sp + 472]\n 10004: jump @212 if a2 == 0\n      : @211 (gas: 1)\n 10007: jump @125\n      : @212 (gas: 68)\n 10010: i64 a0 = a3 + s1\n 10013: a1 = u8 [a0 + 24]\n 10016: u64 [sp + 136] = a1\n 10020: s1 = u8 [a0 + 25]\n 10023: a1 = u8 [a0 + 26]\n 10026: u64 [sp + 120] = a1\n 10029: a1 = u8 [a0 + 27]\n 10032: u64 [sp + 112] = a1\n 10035: a1 = u8 [a0 + 28]\n 10038: u64 [sp + 160] = a1\n 10042: a1 = u8 [a0 + 29]\n 10045: u64 [sp + 128] = a1\n 10049: a1 = u8 [a0 + 30]\n 10052: u64 [sp + 152] = a1\n 10056: a1 = u8 [a0 + 31]\n 10059: u64 [sp + 144] = a1\n 10063: a1 = u8 [a0 + 16]\n 10066: u64 [sp + 200] = a1\n 10070: a1 = u8 [a0 + 17]\n 10073: u64 [sp + 168] = a1\n 10077: a1 = u8 [a0 + 18]\n 10080: u64 [sp + 184] = a1\n 10084: a1 = u8 [a0 + 19]\n 10087: u64 [sp + 176] = a1\n 10091: a1 = u8 [a0 + 20]\n 10094: u64 [sp + 224] = a1\n 10098: a1 = u8 [a0 + 21]\n 10101: u64 [sp + 192] = a1\n 10105: a1 = u8 [a0 + 22]\n 10108: u64 [sp + 216] = a1\n 10112: a1 = u8 [a0 + 23]\n 10115: u64 [sp + 208] = a1\n 10119: a1 = u8 [a0 + 8]\n 10122: u64 [sp + 264] = a1\n 10126: a1 = u8 [a0 + 9]\n 10129: u64 [sp + 232] = a1\n 10133: a1 = u8 [a0 + 10]\n 10136: u64 [sp + 248] = a1\n 10140: a1 = u8 [a0 + 11]\n 10143: u64 [sp + 240] = a1\n 10147: a1 = u8 [a0 + 12]\n 10150: u64 [sp + 320] = a1\n 10154: a1 = u8 [a0 + 13]\n 10157: u64 [sp + 256] = a1\n 10161: a1 = u8 [a0 + 14]\n 10164: u64 [sp + 312] = a1\n 10168: a1 = u8 [a0 + 15]\n 10171: u64 [sp + 304] = a1\n 10175: a1 = u8 [a0]\n 10177: u64 [sp + 424] = a1\n 10181: a1 = u8 [a0 + 1]\n 10184: u64 [sp + 328] = a1\n 10188: a1 = u8 [a0 + 2]\n 10191: u64 [sp + 352] = a1\n 10195: a1 = u8 [a0 + 3]\n 10198: u64 [sp + 336] = a1\n 10202: a1 = u8 [a0 + 4]\n 10205: u64 [sp + 456] = a1\n 10209: a1 = u8 [a0 + 5]\n 10212: u64 [sp + 416] = a1\n 10216: a1 = u8 [a0 + 6]\n 10219: u64 [sp + 448] = a1\n 10223: a0 = u8 [a0 + 7]\n 10226: u64 [sp + 432] = a0\n 10230: a0 = a4 + 0x0\n 10232: a1 = 0x20\n 10235: u64 [sp + 464] = a0\n 10239: ra = 126, jump @0\n      : @213 [@dyn 63] (gas: 4)\n 10244: t0 = u64 [sp + 408]\n 10248: t1 = u64 [sp + 400]\n 10252: t2 = u64 [sp + 392]\n 10256: jump @215 if a0 != 0\n      : @214 (gas: 1)\n 10259: jump @125\n      : @215 (gas: 216)\n 10262: a0 = u64 [sp + 288]\n 10266: i64 a1 = i64 a0 + 0x20\n 10269: u64 [sp + 104] = a1\n 10272: a0 = a1 <u a0\n 10275: a1 = u64 [sp + 272]\n 10279: i64 a2 = a1 + a0\n 10282: u64 [sp + 288] = a2\n 10286: a2 = a2 <u a1\n 10289: a2 = a0 if a0 == 0\n 10292: a0 = u64 [sp + 280]\n 10296: i64 a2 = a2 + a0\n 10299: u64 [sp + 272] = a2\n 10303: a0 = a2 <u a0\n 10306: a1 = u64 [sp + 296]\n 10310: i64 a1 = a1 + a0\n 10313: u64 [sp + 296] = a1\n 10317: s1 = s1 <<64 8\n 10320: a0 = u64 [sp + 136]\n 10324: a0 = a0 | s1\n 10327: a1 = u64 [sp + 120]\n 10330: a1 = a1 <<64 16\n 10333: a3 = u64 [sp + 112]\n 10336: a3 = a3 <<64 24\n 10339: a1 = a1 | a3\n 10342: a0 = a0 | a1\n 10345: a1 = u64 [sp + 128]\n 10349: a1 = a1 <<64 8\n 10352: a2 = u64 [sp + 160]\n 10356: a1 = a1 | a2\n 10359: a3 = u64 [sp + 152]\n 10363: a3 = a3 <<64 16\n 10366: a4 = u64 [sp + 144]\n 10370: a4 = a4 <<64 24\n 10373: a3 = a3 | a4\n 10376: a1 = a1 | a3\n 10379: a1 = a1 <<64 32\n 10382: a3 = a1 | a0\n 10385: a0 = u64 [sp + 168]\n 10389: a0 = a0 <<64 8\n 10392: a1 = u64 [sp + 200]\n 10396: a0 = a0 | a1\n 10399: a1 = u64 [sp + 184]\n 10403: a1 = a1 <<64 16\n 10406: a4 = u64 [sp + 176]\n 10410: a4 = a4 <<64 24\n 10413: a1 = a1 | a4\n 10416: a0 = a0 | a1\n 10419: a1 = u64 [sp + 192]\n 10423: a1 = a1 <<64 8\n 10426: a2 = u64 [sp + 224]\n 10430: a1 = a1 | a2\n 10433: a4 = u64 [sp + 216]\n 10437: a4 = a4 <<64 16\n 10440: a5 = u64 [sp + 208]\n 10444: a5 = a5 <<64 24\n 10447: a4 = a4 | a5\n 10450: a1 = a1 | a4\n 10453: a1 = a1 <<64 32\n 10456: a4 = a1 | a0\n 10459: a0 = u64 [sp + 232]\n 10463: a0 = a0 <<64 8\n 10466: a1 = u64 [sp + 264]\n 10470: a0 = a0 | a1\n 10473: a1 = u64 [sp + 248]\n 10477: a1 = a1 <<64 16\n 10480: a5 = u64 [sp + 240]\n 10484: a5 = a5 <<64 24\n 10487: a1 = a1 | a5\n 10490: a0 = a0 | a1\n 10493: a1 = u64 [sp + 256]\n 10497: a1 = a1 <<64 8\n 10500: a2 = u64 [sp + 320]\n 10504: a1 = a1 | a2\n 10507: a5 = u64 [sp + 312]\n 10511: a5 = a5 <<64 16\n 10514: s1 = u64 [sp + 304]\n 10518: s1 = s1 <<64 24\n 10521: a5 = a5 | s1\n 10524: a1 = a1 | a5\n 10527: a1 = a1 <<64 32\n 10530: a5 = a1 | a0\n 10533: a0 = u64 [sp + 328]\n 10537: a0 = a0 <<64 8\n 10540: a1 = u64 [sp + 424]\n 10544: a0 = a0 | a1\n 10547: a1 = u64 [sp + 352]\n 10551: a1 = a1 <<64 16\n 10554: s1 = u64 [sp + 336]\n 10558: s1 = s1 <<64 24\n 10561: a1 = a1 | s1\n 10564: a0 = a0 | a1\n 10567: a1 = u64 [sp + 416]\n 10571: a1 = a1 <<64 8\n 10574: a2 = u64 [sp + 456]\n 10578: a1 = a1 | a2\n 10581: s1 = u64 [sp + 448]\n 10585: s1 = s1 <<64 16\n 10588: a2 = u64 [sp + 432]\n 10592: a2 = a2 <<64 24\n 10595: a2 = a2 | s1\n 10598: a1 = a1 | a2\n 10601: a1 = a1 <<64 32\n 10604: a0 = a0 | a1\n 10607: s1 = u64 [sp + 464]\n 10611: a1 = u64 [sp + 344]\n 10615: i64 s1 = s1 + a1\n 10618: a1 = a0 >>64 56\n 10621: u8 [s1 + 7] = a1\n 10624: a1 = a0 >>64 48\n 10627: u8 [s1 + 6] = a1\n 10630: a1 = a0 >>64 40\n 10633: u8 [s1 + 5] = a1\n 10636: a1 = a0 >>64 32\n 10639: u8 [s1 + 4] = a1\n 10642: a1 = a0 >>64 24\n 10645: u8 [s1 + 3] = a1\n 10648: a1 = a0 >>64 16\n 10651: u8 [s1 + 2] = a1\n 10654: a1 = a0 >>64 8\n 10657: u8 [s1 + 1] = a1\n 10660: u8 [s1] = a0\n 10662: a0 = a5 >>64 56\n 10665: u8 [s1 + 15] = a0\n 10668: a0 = a5 >>64 48\n 10671: u8 [s1 + 14] = a0\n 10674: a0 = a5 >>64 40\n 10677: u8 [s1 + 13] = a0\n 10680: a0 = a5 >>64 32\n 10683: u8 [s1 + 12] = a0\n 10686: a0 = a5 >>64 24\n 10689: u8 [s1 + 11] = a0\n 10692: a0 = a5 >>64 16\n 10695: u8 [s1 + 10] = a0\n 10698: u8 [s1 + 8] = a5\n 10701: a5 = a5 >>64 8\n 10704: u8 [s1 + 9] = a5\n 10707: a0 = a4 >>64 56\n 10710: u8 [s1 + 23] = a0\n 10713: a0 = a4 >>64 48\n 10716: u8 [s1 + 22] = a0\n 10719: a0 = a4 >>64 40\n 10722: u8 [s1 + 21] = a0\n 10725: a0 = a4 >>64 32\n 10728: u8 [s1 + 20] = a0\n 10731: a0 = a4 >>64 24\n 10734: u8 [s1 + 19] = a0\n 10737: a0 = a4 >>64 16\n 10740: u8 [s1 + 18] = a0\n 10743: u8 [s1 + 16] = a4\n 10746: u8 [s1 + 24] = a3\n 10749: a4 = a4 >>64 8\n 10752: u8 [s1 + 17] = a4\n 10755: a0 = a3 >>64 56\n 10758: u8 [s1 + 31] = a0\n 10761: a0 = a3 >>64 48\n 10764: u8 [s1 + 30] = a0\n 10767: a0 = a3 >>64 40\n 10770: u8 [s1 + 29] = a0\n 10773: a0 = a3 >>64 32\n 10776: u8 [s1 + 28] = a0\n 10779: a0 = a3 >>64 24\n 10782: u8 [s1 + 27] = a0\n 10785: a0 = a3 >>64 16\n 10788: u8 [s1 + 26] = a0\n 10791: a3 = a3 >>64 8\n 10794: u8 [s1 + 25] = a3\n 10797: i64 t0 = i64 t0 + 0x1\n 10800: a0 = t0 <u 0x1\n 10803: i64 t1 = t1 + a0\n 10806: a0 = t0 | t1\n 10809: a0 = a0 <u 0x1\n 10812: a1 = u64 [sp + 384]\n 10816: i64 a0 = a0 + a1\n 10819: a1 = a0 <u a1\n 10822: i64 t2 = t2 + a1\n 10825: a1 = u64 [sp + 72]\n 10828: u64 [sp + 408] = t0\n 10832: a1 = t0 <u a1\n 10835: a3 = u64 [sp + 80]\n 10838: a2 = t1 ^ a3\n 10841: u64 [sp + 400] = t1\n 10845: a3 = t1 <u a3\n 10848: a3 = a1 if a2 == 0\n 10851: a5 = u64 [sp + 88]\n 10854: a2 = a0 <u a5\n 10857: a1 = u64 [sp + 96]\n 10860: a4 = t2 ^ a1\n 10863: u64 [sp + 392] = t2\n 10867: a1 = t2 <u a1\n 10870: a1 = a2 if a4 == 0\n 10873: a2 = a0 ^ a5\n 10876: a2 = a2 | a4\n 10879: a1 = a3 if a2 == 0\n 10882: ra = u64 [sp + 472]\n 10886: i64 a2 = i64 ra + 0x20\n 10889: u64 [sp + 456] = a2\n 10893: a2 = a2 <u ra\n 10896: a4 = u64 [sp + 360]\n 10900: i64 a3 = a4 + a2\n 10903: u64 [sp + 448] = a3\n 10907: a5 = a3 <u a4\n 10910: a5 = a2 if a2 == 0\n 10913: a3 = u64 [sp + 368]\n 10917: i64 a5 = a5 + a3\n 10920: s1 = a5 <u a3\n 10923: a2 = u64 [sp + 376]\n 10927: i64 s1 = s1 + a2\n 10930: u64 [sp + 384] = a0\n 10934: t0 = u64 [sp + 104]\n 10937: t1 = u64 [sp + 288]\n 10941: t2 = u64 [sp + 272]\n 10945: u64 [sp + 464] = ra\n 10949: u64 [sp + 432] = a4\n 10953: u64 [sp + 424] = a3\n 10957: u64 [sp + 416] = a2\n 10961: jump @205 if a1 != 0\n      : @216 (gas: 1)\n 10965: jump @198\n      : @217 (gas: 17)\n 10968: i64 sp = i64 sp - i64 96\n 10971: u64 [sp + 88] = ra\n 10974: u64 [sp + 80] = s0\n 10977: u64 [sp + 72] = s1\n 10980: i64 s0 = i64 sp + 0x60\n 10983: sp = sp & 0xffffffe0\n 10986: s1 = sp\n 10988: u64 [s1 + 48] = t2\n 10991: u64 [s1 + 56] = a5\n 10994: u64 [s1 + 16] = 0\n 10997: u64 [s1 + 24] = 0\n 11000: u64 [s1 + 32] = 0\n 11003: u64 [s1 + 40] = a1\n 11006: u64 [s1 + 8] = a0\n 11009: a1 = 0x20\n 11012: a0 = 0x0\n 11014: ra = 128, jump @0\n      : @218 [@dyn 64] (gas: 1)\n 11020: jump @224 if a0 == 0\n      : @219 (gas: 17)\n 11024: a0 = u64 [s0]\n 11026: a0 = a0 <<64 32\n 11029: a0 = a0 >>64 32\n 11032: a0 = reverse a0\n 11034: a1 = u64 [s1 + 48]\n 11037: a1 = reverse a1\n 11039: a2 = u64 [s1 + 56]\n 11042: a2 = reverse a2\n 11044: a3 = 0x20010\n 11049: u64 [0x20010] = 0\n 11054: u64 [0x20028] = a2\n 11059: u64 [0x20020] = a1\n 11064: u64 [s1 + 56] = a3\n 11067: u64 [0x20018] = a0\n 11072: a0 = 0x20\n 11075: a1 = 0x20\n 11078: ra = 130, jump @0\n      : @220 [@dyn 65] (gas: 1)\n 11084: jump @224 if a0 == 0\n      : @221 (gas: 16)\n 11087: a0 = u64 [s1 + 16]\n 11090: a0 = reverse a0\n 11092: a1 = u64 [s1 + 24]\n 11095: a1 = reverse a1\n 11097: a2 = u64 [s1 + 32]\n 11100: a2 = reverse a2\n 11102: a3 = u64 [s1 + 40]\n 11105: a3 = reverse a3\n 11107: a4 = u64 [s1 + 56]\n 11110: u64 [a4 + 56] = a3\n 11113: u64 [a4 + 48] = a2\n 11116: u64 [a4 + 40] = a1\n 11119: u64 [a4 + 32] = a0\n 11122: a1 = 0x40\n 11125: a0 = 0x0\n 11127: ra = 132, jump @0\n      : @222 [@dyn 66] (gas: 1)\n 11133: jump @224 if a0 == 0\n      : @223 (gas: 28)\n 11136: i64 a0 = i64 sp - i64 32\n 11139: a2 = a0 & 0xffffffe0\n 11142: u64 [s1 + 48] = a2\n 11145: sp = a2\n 11147: a0 = i32 [s1 + 56]\n 11150: a2 = a2 + 0x0\n 11152: a1 = 0x40\n 11155: ecalli 3 // 'hash_keccak_256'\n 11157: a3 = u64 [s1 + 48]\n 11160: a0 = u64 [a3 + 24]\n 11163: a1 = u64 [a3 + 16]\n 11166: a2 = u64 [a3 + 8]\n 11169: a3 = u64 [a3]\n 11171: a0 = reverse a0\n 11173: a1 = reverse a1\n 11175: a2 = reverse a2\n 11177: a3 = reverse a3\n 11179: a4 = u64 [s1 + 8]\n 11182: u64 [a4 + 24] = a3\n 11185: u64 [a4 + 16] = a2\n 11188: u64 [a4 + 8] = a1\n 11191: u64 [a4] = a0\n 11193: i64 sp = i64 s0 - i64 96\n 11196: ra = u64 [sp + 88]\n 11199: s0 = u64 [sp + 80]\n 11202: s1 = u64 [sp + 72]\n 11205: i64 sp = i64 sp + 0x60\n 11208: ret\n      : @224 (gas: 1)\n 11210: trap\n      : @225 (gas: 15)\n 11211: i64 sp = i64 sp - i64 96\n 11214: u64 [sp + 88] = ra\n 11217: u64 [sp + 80] = s0\n 11220: u64 [sp + 72] = s1\n 11223: i64 s0 = i64 sp + 0x60\n 11226: sp = sp & 0xffffffe0\n 11229: s1 = sp\n 11231: u64 [s1 + 32] = a4\n 11234: u64 [s1 + 40] = a3\n 11237: u64 [s1 + 48] = a2\n 11240: u64 [s1 + 56] = a1\n 11243: u64 [s1 + 24] = a0\n 11246: a1 = 0x20\n 11249: a0 = 0x0\n 11251: ra = 134, jump @0\n      : @226 [@dyn 67] (gas: 1)\n 11257: jump @230 if a0 == 0\n      : @227 (gas: 17)\n 11261: a0 = u64 [s1 + 32]\n 11264: a0 = reverse a0\n 11266: a1 = u64 [s1 + 40]\n 11269: a1 = reverse a1\n 11271: a2 = u64 [s1 + 48]\n 11274: a2 = reverse a2\n 11276: a3 = u64 [s1 + 56]\n 11279: a3 = reverse a3\n 11281: a4 = 0x20010\n 11286: u64 [0x20028] = a3\n 11291: u64 [0x20020] = a2\n 11296: u64 [0x20018] = a1\n 11301: u64 [s1 + 56] = a4\n 11304: u64 [0x20010] = a0\n 11309: a1 = 0x20\n 11312: a0 = 0x0\n 11314: ra = 136, jump @0\n      : @228 [@dyn 68] (gas: 1)\n 11320: jump @230 if a0 == 0\n      : @229 (gas: 28)\n 11323: i64 a0 = i64 sp - i64 32\n 11326: a2 = a0 & 0xffffffe0\n 11329: u64 [s1 + 48] = a2\n 11332: sp = a2\n 11334: a0 = i32 [s1 + 56]\n 11337: a2 = a2 + 0x0\n 11339: a1 = 0x20\n 11342: ecalli 3 // 'hash_keccak_256'\n 11344: a3 = u64 [s1 + 48]\n 11347: a0 = u64 [a3 + 24]\n 11350: a1 = u64 [a3 + 16]\n 11353: a2 = u64 [a3 + 8]\n 11356: a3 = u64 [a3]\n 11358: a0 = reverse a0\n 11360: a1 = reverse a1\n 11362: a2 = reverse a2\n 11364: a3 = reverse a3\n 11366: a4 = u64 [s1 + 24]\n 11369: u64 [a4 + 24] = a3\n 11372: u64 [a4 + 16] = a2\n 11375: u64 [a4 + 8] = a1\n 11378: u64 [a4] = a0\n 11380: i64 sp = i64 s0 - i64 96\n 11383: ra = u64 [sp + 88]\n 11386: s0 = u64 [sp + 80]\n 11389: s1 = u64 [sp + 72]\n 11392: i64 sp = i64 sp + 0x60\n 11395: ret\n      : @230 (gas: 1)\n 11397: trap\n      : @231 (gas: 17)\n 11398: i64 sp = i64 sp - i64 96\n 11401: u64 [sp + 88] = ra\n 11404: u64 [sp + 80] = s0\n 11407: u64 [sp + 72] = s1\n 11410: i64 s0 = i64 sp + 0x60\n 11413: sp = sp & 0xffffffe0\n 11416: s1 = sp\n 11418: u64 [s1 + 48] = t2\n 11421: u64 [s1 + 56] = a5\n 11424: u64 [s1 + 16] = 0\n 11427: u64 [s1 + 24] = 0\n 11430: u64 [s1 + 32] = 0\n 11433: u64 [s1 + 40] = 0\n 11436: u64 [s1 + 8] = a0\n 11439: a1 = 0x20\n 11442: a0 = 0x0\n 11444: ra = 138, jump @0\n      : @232 [@dyn 69] (gas: 1)\n 11450: jump @238 if a0 == 0\n      : @233 (gas: 17)\n 11454: a0 = u64 [s0 + 8]\n 11457: a1 = u64 [s0]\n 11459: a0 = reverse a0\n 11461: a1 = reverse a1\n 11463: a2 = u64 [s1 + 48]\n 11466: a2 = reverse a2\n 11468: a3 = u64 [s1 + 56]\n 11471: a3 = reverse a3\n 11473: a4 = 0x20010\n 11478: u64 [0x20028] = a3\n 11483: u64 [0x20020] = a2\n 11488: u64 [0x20018] = a1\n 11493: u64 [s1 + 56] = a4\n 11496: u64 [0x20010] = a0\n 11501: a0 = 0x20\n 11504: a1 = 0x20\n 11507: ra = 140, jump @0\n      : @234 [@dyn 70] (gas: 1)\n 11513: jump @238 if a0 == 0\n      : @235 (gas: 16)\n 11516: a0 = u64 [s1 + 16]\n 11519: a0 = reverse a0\n 11521: a1 = u64 [s1 + 24]\n 11524: a1 = reverse a1\n 11526: a2 = u64 [s1 + 32]\n 11529: a2 = reverse a2\n 11531: a3 = u64 [s1 + 40]\n 11534: a3 = reverse a3\n 11536: a4 = u64 [s1 + 56]\n 11539: u64 [a4 + 56] = a3\n 11542: u64 [a4 + 48] = a2\n 11545: u64 [a4 + 40] = a1\n 11548: u64 [a4 + 32] = a0\n 11551: a1 = 0x40\n 11554: a0 = 0x0\n 11556: ra = 142, jump @0\n      : @236 [@dyn 71] (gas: 1)\n 11562: jump @238 if a0 == 0\n      : @237 (gas: 28)\n 11565: i64 a0 = i64 sp - i64 32\n 11568: a2 = a0 & 0xffffffe0\n 11571: u64 [s1 + 48] = a2\n 11574: sp = a2\n 11576: a0 = i32 [s1 + 56]\n 11579: a2 = a2 + 0x0\n 11581: a1 = 0x40\n 11584: ecalli 3 // 'hash_keccak_256'\n 11586: a3 = u64 [s1 + 48]\n 11589: a0 = u64 [a3 + 24]\n 11592: a1 = u64 [a3 + 16]\n 11595: a2 = u64 [a3 + 8]\n 11598: a3 = u64 [a3]\n 11600: a0 = reverse a0\n 11602: a1 = reverse a1\n 11604: a2 = reverse a2\n 11606: a3 = reverse a3\n 11608: a4 = u64 [s1 + 8]\n 11611: u64 [a4 + 24] = a3\n 11614: u64 [a4 + 16] = a2\n 11617: u64 [a4 + 8] = a1\n 11620: u64 [a4] = a0\n 11622: i64 sp = i64 s0 - i64 96\n 11625: ra = u64 [sp + 88]\n 11628: s0 = u64 [sp + 80]\n 11631: s1 = u64 [sp + 72]\n 11634: i64 sp = i64 sp + 0x60\n 11637: ret\n      : @238 (gas: 1)\n 11639: trap\n      : @239 [@dyn 72] (gas: 1)\n 11640: jump @241 if a0 != 0\n      : @240 (gas: 1)\n 11643: trap\n      : @241 (gas: 7)\n 11644: a1 = 0x20010\n 11649: a1 = a1 + 0x0\n 11651: a0 = 0x1\n 11654: a2 = 0x0\n 11656: ra = 0x92\n 11660: ecalli 8 // 'seal_return'\n 11662: fallthrough\n      : @242 [@dyn 73] (gas: 37)\n 11663: i64 sp = i64 sp - i64 40\n 11666: u64 [sp + 32] = ra\n 11669: u64 [sp + 24] = s0\n 11672: u64 [sp + 16] = s1\n 11675: t1 = a0\n 11677: t0 = u64 [sp + 40]\n 11680: i64 s0 = i64 a4 + 0x1f\n 11683: a4 = s0 <u a4\n 11686: i64 s1 = a5 + a4\n 11689: a5 = s1 <u a5\n 11692: a5 = a4 if a4 == 0\n 11695: i64 a5 = a5 + t2\n 11698: a0 = a5 <u t2\n 11701: s0 = s0 & 0xffffffe0\n 11704: u64 [sp + 8] = t1\n 11707: i64 t1 = t1 + s0\n 11710: ra = t1 <u s0\n 11713: i64 a4 = s1 + a1\n 11716: i64 t2 = a4 + ra\n 11719: a4 = t2 ^ s1\n 11722: s0 = t2 <u s1\n 11725: s0 = ra if a4 == 0\n 11728: i64 a4 = a5 + a2\n 11731: i64 s0 = s0 + a4\n 11734: s1 = s0 <u a4\n 11737: a4 = a4 <u a5\n 11740: i64 t0 = t0 + a3\n 11743: i64 t0 = t0 + a0\n 11746: i64 a4 = a4 + t0\n 11749: i64 s1 = s1 + a4\n 11752: a4 = s1 >u 0x0\n 11754: a5 = s0 >u 0x0\n 11756: a5 = a4 if s1 != 0\n 11759: t0 = s0 | s1\n 11762: a4 = t2 >u 0x0\n 11764: a4 = a5 if t0 != 0\n 11767: jump @247 if a4 != 0\n      : @243 (gas: 13)\n 11770: a0 = u64 [sp + 8]\n 11773: a0 = t1 <u a0\n 11776: a4 = t2 ^ a1\n 11779: a1 = t2 <u a1\n 11782: a1 = a0 if a4 == 0\n 11785: a0 = s0 <u a2\n 11788: a4 = s1 ^ a3\n 11791: a3 = s1 <u a3\n 11794: a3 = a0 if a4 == 0\n 11797: a2 = a2 ^ s0\n 11800: a2 = a2 | a4\n 11803: a3 = a1 if a2 == 0\n 11806: jump @247 if a3 != 0\n      : @244 (gas: 5)\n 11809: u64 [sp] = t2\n 11811: u64 [sp + 8] = t1\n 11814: a0 = 0x40\n 11817: a1 = 0x20\n 11820: ra = 148, jump @0\n      : @245 [@dyn 74] (gas: 1)\n 11826: jump @253 if a0 == 0\n      : @246 (gas: 16)\n 11830: a0 = reverse s1\n 11832: a1 = reverse s0\n 11834: a2 = u64 [sp]\n 11836: a2 = reverse a2\n 11838: a3 = u64 [sp + 8]\n 11841: a3 = reverse a3\n 11843: a4 = 0x20010\n 11848: u64 [0x20068] = a3\n 11853: u64 [0x20060] = a2\n 11858: u64 [0x20058] = a1\n 11863: u64 [0x20050] = a0\n 11868: ra = u64 [sp + 32]\n 11871: s0 = u64 [sp + 24]\n 11874: s1 = u64 [sp + 16]\n 11877: i64 sp = i64 sp + 0x28\n 11880: ret\n      : @247 (gas: 3)\n 11882: a1 = 0x20\n 11885: a0 = 0x0\n 11887: ra = 150, jump @0\n      : @248 [@dyn 75] (gas: 1)\n 11893: jump @253 if a0 == 0\n      : @249 (gas: 8)\n 11896: s0 = 0x20010\n 11901: u64 [0x20028] = 0\n 11906: u64 [0x20020] = 0\n 11911: u64 [0x20018] = 0\n 11916: u64 [0x20010] = 1903904846\n 11925: a0 = 0x4\n 11928: a1 = 0x20\n 11931: ra = 152, jump @0\n      : @250 [@dyn 76] (gas: 1)\n 11937: jump @253 if a0 == 0\n      : @251 (gas: 11)\n 11940: u32 [s0 + 32] = 1090519040\n 11947: u32 [s0 + 28] = 0\n 11950: u32 [s0 + 24] = 0\n 11953: u32 [s0 + 20] = 0\n 11956: u32 [s0 + 16] = 0\n 11959: u32 [s0 + 12] = 0\n 11962: u32 [s0 + 8] = 0\n 11965: u32 [s0 + 4] = 0\n 11968: a1 = 0x24\n 11971: a0 = 0x0\n 11973: ra = 154, jump @0\n      : @252 [@dyn 77] (gas: 1)\n 11979: jump @254 if a0 != 0\n      : @253 (gas: 1)\n 11982: trap\n      : @254 (gas: 6)\n 11983: a1 = s0 + 0x0\n 11985: a0 = 0x1\n 11988: a2 = 0x24\n 11991: ra = 0x9c\n 11995: ecalli 8 // 'seal_return'\n 11997: fallthrough\n      : @255 [@dyn 78] (gas: 17)\n 11998: i64 sp = i64 sp - i64 96\n 12001: u64 [sp + 88] = ra\n 12004: u64 [sp + 80] = s0\n 12007: u64 [sp + 72] = s1\n 12010: s1 = a4\n 12012: a4 = a1\n 12014: u64 [sp + 64] = a2\n 12017: a1 = a2 | s1\n 12020: a2 = a4 | a3\n 12023: a2 = a2 | a1\n 12026: a2 = a2 >>64 32\n 12029: u64 [sp + 48] = a3\n 12032: a1 = a1 | a3\n 12035: a1 = a1 <<64 32\n 12038: a1 = a1 | a2\n 12041: u64 [sp + 32] = a0\n 12044: jump @265 if a1 != 0\n      : @256 (gas: 5)\n 12048: s0 = a4 + 0x0\n 12050: a1 = 0x20\n 12053: a0 = s0\n 12055: u64 [sp + 56] = a4\n 12058: ra = 158, jump @0\n      : @257 [@dyn 79] (gas: 1)\n 12064: jump @265 if a0 == 0\n      : @258 (gas: 52)\n 12068: a0 = 0x20010\n 12073: u64 [sp + 40] = a0\n 12076: i64 a0 = a0 + s0\n 12079: u8 [a0 + 31] = 32\n 12083: u8 [a0 + 30] = 0\n 12086: u8 [a0 + 29] = 0\n 12089: u8 [a0 + 28] = 0\n 12092: u8 [a0 + 27] = 0\n 12095: u8 [a0 + 26] = 0\n 12098: u8 [a0 + 25] = 0\n 12101: u8 [a0 + 24] = 0\n 12104: u8 [a0 + 23] = 0\n 12107: u8 [a0 + 22] = 0\n 12110: u8 [a0 + 21] = 0\n 12113: u8 [a0 + 20] = 0\n 12116: u8 [a0 + 19] = 0\n 12119: u8 [a0 + 18] = 0\n 12122: u8 [a0 + 17] = 0\n 12125: u8 [a0 + 16] = 0\n 12128: u8 [a0 + 15] = 0\n 12131: u8 [a0 + 14] = 0\n 12134: u8 [a0 + 13] = 0\n 12137: u8 [a0 + 12] = 0\n 12140: u8 [a0 + 11] = 0\n 12143: u8 [a0 + 10] = 0\n 12146: u8 [a0 + 9] = 0\n 12149: u8 [a0 + 8] = 0\n 12152: u8 [a0 + 7] = 0\n 12155: u8 [a0 + 6] = 0\n 12158: u8 [a0 + 5] = 0\n 12161: u8 [a0 + 4] = 0\n 12164: u8 [a0 + 3] = 0\n 12167: u8 [a0 + 2] = 0\n 12170: u8 [a0 + 1] = 0\n 12173: a3 = u64 [sp + 48]\n 12176: a1 = a3 >u 0x0\n 12178: a2 = s1\n 12180: s1 = s1 >u 0x0\n 12182: s1 = a1 if a2 == 0\n 12185: a1 = 0xffffffdf\n 12195: a4 = u64 [sp + 56]\n 12198: a1 = a1 <u a4\n 12201: a4 = u64 [sp + 64]\n 12204: a5 = a4 >u 0x0\n 12206: u64 [sp + 24] = a5\n 12209: a1 = a5 if a4 != 0\n 12212: u64 [sp + 8] = a2\n 12215: a2 = a2 | a3\n 12218: u64 [sp + 16] = a2\n 12221: a1 = s1 if a2 != 0\n 12224: u8 [a0 + 0] = 0\n 12226: jump @265 if a1 != 0\n      : @259 (gas: 5)\n 12230: u64 [sp] = s0\n 12232: s0 = s0 + 0x20\n 12235: a1 = 0x20\n 12238: a0 = s0\n 12240: ra = 160, jump @0\n      : @260 [@dyn 80] (gas: 1)\n 12246: jump @265 if a0 == 0\n      : @261 (gas: 43)\n 12250: a0 = u64 [sp + 40]\n 12253: i64 s0 = s0 + a0\n 12256: u8 [s0 + 31] = 12\n 12260: u8 [s0 + 30] = 0\n 12263: u8 [s0 + 29] = 0\n 12266: u8 [s0 + 28] = 0\n 12269: u8 [s0 + 27] = 0\n 12272: u8 [s0 + 26] = 0\n 12275: u8 [s0 + 25] = 0\n 12278: u8 [s0 + 24] = 0\n 12281: u8 [s0 + 23] = 0\n 12284: u8 [s0 + 22] = 0\n 12287: u8 [s0 + 21] = 0\n 12290: u8 [s0 + 20] = 0\n 12293: u8 [s0 + 19] = 0\n 12296: u8 [s0 + 18] = 0\n 12299: u8 [s0 + 17] = 0\n 12302: u8 [s0 + 16] = 0\n 12305: u8 [s0 + 15] = 0\n 12308: u8 [s0 + 14] = 0\n 12311: u8 [s0 + 13] = 0\n 12314: u8 [s0 + 12] = 0\n 12317: u8 [s0 + 11] = 0\n 12320: u8 [s0 + 10] = 0\n 12323: u8 [s0 + 9] = 0\n 12326: u8 [s0 + 8] = 0\n 12329: u8 [s0 + 7] = 0\n 12332: u8 [s0 + 6] = 0\n 12335: u8 [s0 + 5] = 0\n 12338: u8 [s0 + 4] = 0\n 12341: u8 [s0 + 3] = 0\n 12344: u8 [s0 + 2] = 0\n 12347: u8 [s0 + 1] = 0\n 12350: a0 = 0xffffffbf\n 12360: a1 = u64 [sp + 56]\n 12363: a0 = a0 <u a1\n 12366: a1 = u64 [sp + 64]\n 12369: a2 = u64 [sp + 24]\n 12372: a0 = a2 if a1 != 0\n 12375: a1 = u64 [sp + 16]\n 12378: a0 = s1 if a1 != 0\n 12381: u8 [s0 + 0] = 0\n 12383: jump @265 if a0 != 0\n      : @262 (gas: 6)\n 12387: a0 = u64 [sp]\n 12389: s1 = a0 + 0x40\n 12392: a1 = 0x20\n 12395: s0 = 0x20\n 12398: a0 = s1\n 12400: ra = 162, jump @0\n      : @263 [@dyn 81] (gas: 1)\n 12406: jump @265 if a0 == 0\n      : @264 (gas: 56)\n 12410: a0 = u64 [sp + 40]\n 12413: i64 s1 = s1 + a0\n 12416: u8 [s1 + 31] = 0\n 12419: u8 [s1 + 30] = 0\n 12422: u8 [s1 + 29] = 0\n 12425: u8 [s1 + 28] = 0\n 12428: u8 [s1 + 27] = 0\n 12431: u8 [s1 + 26] = 0\n 12434: u8 [s1 + 25] = 0\n 12437: u8 [s1 + 24] = 0\n 12440: u8 [s1 + 23] = 0\n 12443: u8 [s1 + 22] = 0\n 12446: u8 [s1 + 21] = 0\n 12449: u8 [s1 + 20] = 0\n 12452: u8 [s1 + 19] = 0\n 12455: u8 [s1 + 18] = 0\n 12458: u8 [s1 + 17] = 0\n 12461: u8 [s1 + 16] = 0\n 12464: u8 [s1 + 15] = 0\n 12467: u8 [s1 + 14] = 0\n 12470: u8 [s1 + 13] = 0\n 12473: u8 [s1 + 12] = 0\n 12476: u8 [s1 + 11] = 107\n 12480: u8 [s1 + 10] = 110\n 12484: u8 [s1 + 9] = 105\n 12488: u8 [s1 + 8] = 108\n 12492: u8 [s1 + 7] = s0\n 12495: u8 [s1 + 6] = 100\n 12499: u8 [s1 + 5] = 105\n 12503: u8 [s1 + 4] = 108\n 12507: u8 [s1 + 3] = 97\n 12511: u8 [s1 + 2] = 118\n 12515: u8 [s1 + 1] = 110\n 12519: u8 [s1 + 0] = 73\n 12522: a1 = u64 [sp + 56]\n 12525: i64 a0 = i64 a1 + 0x60\n 12528: a1 = a0 <u a1\n 12531: a3 = u64 [sp + 64]\n 12534: i64 a2 = a3 + a1\n 12537: a3 = a2 <u a3\n 12540: a3 = a1 if a1 == 0\n 12543: a1 = u64 [sp + 48]\n 12546: i64 a3 = a3 + a1\n 12549: a1 = a3 <u a1\n 12552: a4 = u64 [sp + 8]\n 12555: i64 a1 = a1 + a4\n 12558: a4 = u64 [sp + 32]\n 12561: u64 [a4] = a0\n 12563: u64 [a4 + 8] = a2\n 12566: u64 [a4 + 16] = a3\n 12569: u64 [a4 + 24] = a1\n 12572: ra = u64 [sp + 88]\n 12575: s0 = u64 [sp + 80]\n 12578: s1 = u64 [sp + 72]\n 12581: i64 sp = i64 sp + 0x60\n 12584: ret\n      : @265 (gas: 1)\n 12586: trap\n      : @266 (gas: 10)\n 12587: i64 sp = i64 sp - i64 112\n 12590: u64 [sp + 104] = ra\n 12593: u64 [sp + 96] = s0\n 12596: u64 [sp + 88] = s1\n 12599: i64 s0 = i64 sp + 0x70\n 12602: sp = sp & 0xfffffff0\n 12605: a1 = 0x0\n 12607: a0 = a0 | 0x0\n 12609: a0 = a0 | 0x0\n 12611: jump @268 if a0 == 0\n      : @267 (gas: 6)\n 12614: i64 sp = i64 s0 - i64 112\n 12617: ra = u64 [sp + 104]\n 12620: s0 = u64 [sp + 96]\n 12623: s1 = u64 [sp + 88]\n 12626: i64 sp = i64 sp + 0x70\n 12629: ret\n      : @268 (gas: 3)\n 12631: a0 = 0x40\n 12634: a1 = 0x20\n 12637: ra = 164, jump @0\n      : @269 [@dyn 82] (gas: 1)\n 12643: jump @277 if a0 == 0\n      : @270 (gas: 21)\n 12647: s1 = 0x20010\n 12652: a0 = u64 [0x20058]\n 12657: a1 = u64 [0x20050]\n 12662: a2 = u64 [0x20060]\n 12667: a3 = u64 [0x20068]\n 12672: a4 = reverse a0\n 12674: a5 = reverse a1\n 12676: a0 = reverse a2\n 12678: a1 = reverse a3\n 12680: u64 [sp + 32] = a0\n 12683: u64 [sp + 16] = a5\n 12686: a0 = a0 | a5\n 12689: u64 [sp + 40] = a1\n 12692: a1 = a1 | a4\n 12695: a1 = a1 | a0\n 12698: a1 = a1 >>64 32\n 12701: u64 [sp + 24] = a4\n 12704: a0 = a0 | a4\n 12707: a0 = a0 <<64 32\n 12710: a0 = a0 | a1\n 12713: jump @277 if a0 != 0\n      : @271 (gas: 4)\n 12717: a0 = i32 [sp + 40]\n 12720: a1 = 0x20\n 12723: u64 [sp + 8] = a0\n 12726: ra = 166, jump @0\n      : @272 [@dyn 83] (gas: 1)\n 12732: jump @277 if a0 == 0\n      : @273 (gas: 48)\n 12736: a0 = u64 [sp + 8]\n 12739: i64 s1 = s1 + a0\n 12742: u8 [s1 + 31] = 0\n 12745: u8 [s1 + 30] = 0\n 12748: u8 [s1 + 29] = 0\n 12751: u8 [s1 + 28] = 0\n 12754: u8 [s1 + 27] = 0\n 12757: u8 [s1 + 26] = 0\n 12760: u8 [s1 + 25] = 0\n 12763: u8 [s1 + 24] = 0\n 12766: u8 [s1 + 23] = 0\n 12769: u8 [s1 + 22] = 0\n 12772: u8 [s1 + 21] = 0\n 12775: u8 [s1 + 20] = 0\n 12778: u8 [s1 + 19] = 0\n 12781: u8 [s1 + 18] = 0\n 12784: u8 [s1 + 17] = 0\n 12787: u8 [s1 + 16] = 0\n 12790: u8 [s1 + 15] = 0\n 12793: u8 [s1 + 14] = 0\n 12796: u8 [s1 + 13] = 0\n 12799: u8 [s1 + 12] = 0\n 12802: u8 [s1 + 11] = 0\n 12805: u8 [s1 + 10] = 0\n 12808: u8 [s1 + 9] = 0\n 12811: u8 [s1 + 8] = 0\n 12814: u8 [s1 + 7] = 0\n 12817: u8 [s1 + 6] = 0\n 12820: u8 [s1 + 5] = 0\n 12823: u8 [s1 + 4] = 0\n 12826: u8 [s1 + 3] = 160\n 12831: u8 [s1 + 2] = 121\n 12835: u8 [s1 + 1] = 195\n 12840: u8 [s1 + 0] = 8\n 12843: a0 = u64 [sp + 40]\n 12846: i64 a1 = i64 a0 + 0x4\n 12849: a0 = a1 <u a0\n 12852: a3 = u64 [sp + 32]\n 12855: i64 a2 = a3 + a0\n 12858: a3 = a2 <u a3\n 12861: a3 = a0 if a0 == 0\n 12864: a0 = u64 [sp + 24]\n 12867: i64 a3 = a3 + a0\n 12870: a4 = a3 <u a0\n 12873: a0 = u64 [sp + 16]\n 12876: i64 a4 = a4 + a0\n 12879: i64 a0 = i64 sp + 0x30\n 12882: ra = 168, jump @255\n      : @274 [@dyn 84] (gas: 31)\n 12888: a1 = u64 [sp + 56]\n 12891: t0 = u64 [sp + 72]\n 12894: t1 = u64 [sp + 48]\n 12897: a3 = u64 [sp + 64]\n 12900: a0 = u64 [sp + 32]\n 12903: a4 = a1 ^ a0\n 12906: a5 = a1 <u a0\n 12909: ra = a0\n 12911: t2 = u64 [sp + 40]\n 12914: a2 = t1 <u t2\n 12917: a5 = a2 if a4 == 0\n 12920: a0 = u64 [sp + 24]\n 12923: i64 a4 = i64 a3 - i64 a0\n 12926: a3 = a3 <u a0\n 12929: a0 = u64 [sp + 16]\n 12932: i64 a0 = i64 t0 - i64 a0\n 12935: i64 a0 = i64 a0 - i64 a3\n 12938: a3 = a4 <u a5\n 12941: i64 a0 = i64 a0 - i64 a3\n 12944: i64 a4 = i64 a4 - i64 a5\n 12947: i64 a1 = i64 a1 - i64 ra\n 12950: i64 a1 = i64 a1 - i64 a2\n 12953: a0 = a0 | a1\n 12956: i64 a1 = i64 t1 - i64 t2\n 12959: a1 = a1 | a4\n 12962: a1 = a1 | a0\n 12965: a0 = a0 | a4\n 12968: a1 = a1 >>64 32\n 12971: a0 = a0 <<64 32\n 12974: a0 = a0 | a1\n 12977: jump @277 if a0 != 0\n      : @275 (gas: 5)\n 12980: a0 = u64 [sp + 40]\n 12983: a1 = t1 - a0\n 12986: a0 = u64 [sp + 8]\n 12989: u64 [sp + 40] = a1\n 12992: ra = 170, jump @0\n      : @276 [@dyn 85] (gas: 1)\n 12998: jump @278 if a0 != 0\n      : @277 (gas: 1)\n 13001: trap\n      : @278 (gas: 6)\n 13002: a1 = s1 + 0x0\n 13004: a0 = 0x1\n 13007: a2 = u64 [sp + 40]\n 13010: ra = 0xac\n 13014: ecalli 8 // 'seal_return'\n 13016: fallthrough\n      : @279 [@dyn 86] (gas: 17)\n 13017: i64 sp = i64 sp - i64 96\n 13020: u64 [sp + 88] = ra\n 13023: u64 [sp + 80] = s0\n 13026: u64 [sp + 72] = s1\n 13029: s1 = a4\n 13031: a4 = a1\n 13033: u64 [sp + 64] = a2\n 13036: a1 = a2 | s1\n 13039: a2 = a4 | a3\n 13042: a2 = a2 | a1\n 13045: a2 = a2 >>64 32\n 13048: u64 [sp + 48] = a3\n 13051: a1 = a1 | a3\n 13054: a1 = a1 <<64 32\n 13057: a1 = a1 | a2\n 13060: u64 [sp + 32] = a0\n 13063: jump @289 if a1 != 0\n      : @280 (gas: 5)\n 13067: s0 = a4 + 0x0\n 13069: a1 = 0x20\n 13072: a0 = s0\n 13074: u64 [sp + 56] = a4\n 13077: ra = 174, jump @0\n      : @281 [@dyn 87] (gas: 1)\n 13083: jump @289 if a0 == 0\n      : @282 (gas: 52)\n 13087: a0 = 0x20010\n 13092: u64 [sp + 40] = a0\n 13095: i64 a0 = a0 + s0\n 13098: u8 [a0 + 31] = 32\n 13102: u8 [a0 + 30] = 0\n 13105: u8 [a0 + 29] = 0\n 13108: u8 [a0 + 28] = 0\n 13111: u8 [a0 + 27] = 0\n 13114: u8 [a0 + 26] = 0\n 13117: u8 [a0 + 25] = 0\n 13120: u8 [a0 + 24] = 0\n 13123: u8 [a0 + 23] = 0\n 13126: u8 [a0 + 22] = 0\n 13129: u8 [a0 + 21] = 0\n 13132: u8 [a0 + 20] = 0\n 13135: u8 [a0 + 19] = 0\n 13138: u8 [a0 + 18] = 0\n 13141: u8 [a0 + 17] = 0\n 13144: u8 [a0 + 16] = 0\n 13147: u8 [a0 + 15] = 0\n 13150: u8 [a0 + 14] = 0\n 13153: u8 [a0 + 13] = 0\n 13156: u8 [a0 + 12] = 0\n 13159: u8 [a0 + 11] = 0\n 13162: u8 [a0 + 10] = 0\n 13165: u8 [a0 + 9] = 0\n 13168: u8 [a0 + 8] = 0\n 13171: u8 [a0 + 7] = 0\n 13174: u8 [a0 + 6] = 0\n 13177: u8 [a0 + 5] = 0\n 13180: u8 [a0 + 4] = 0\n 13183: u8 [a0 + 3] = 0\n 13186: u8 [a0 + 2] = 0\n 13189: u8 [a0 + 1] = 0\n 13192: a3 = u64 [sp + 48]\n 13195: a1 = a3 >u 0x0\n 13197: a2 = s1\n 13199: s1 = s1 >u 0x0\n 13201: s1 = a1 if a2 == 0\n 13204: a1 = 0xffffffdf\n 13214: a4 = u64 [sp + 56]\n 13217: a1 = a1 <u a4\n 13220: a4 = u64 [sp + 64]\n 13223: a5 = a4 >u 0x0\n 13225: u64 [sp + 24] = a5\n 13228: a1 = a5 if a4 != 0\n 13231: u64 [sp + 8] = a2\n 13234: a2 = a2 | a3\n 13237: u64 [sp + 16] = a2\n 13240: a1 = s1 if a2 != 0\n 13243: u8 [a0 + 0] = 0\n 13245: jump @289 if a1 != 0\n      : @283 (gas: 5)\n 13249: u64 [sp] = s0\n 13251: s0 = s0 + 0x20\n 13254: a1 = 0x20\n 13257: a0 = s0\n 13259: ra = 176, jump @0\n      : @284 [@dyn 88] (gas: 1)\n 13265: jump @289 if a0 == 0\n      : @285 (gas: 43)\n 13269: a0 = u64 [sp + 40]\n 13272: i64 s0 = s0 + a0\n 13275: u8 [s0 + 31] = 20\n 13279: u8 [s0 + 30] = 0\n 13282: u8 [s0 + 29] = 0\n 13285: u8 [s0 + 28] = 0\n 13288: u8 [s0 + 27] = 0\n 13291: u8 [s0 + 26] = 0\n 13294: u8 [s0 + 25] = 0\n 13297: u8 [s0 + 24] = 0\n 13300: u8 [s0 + 23] = 0\n 13303: u8 [s0 + 22] = 0\n 13306: u8 [s0 + 21] = 0\n 13309: u8 [s0 + 20] = 0\n 13312: u8 [s0 + 19] = 0\n 13315: u8 [s0 + 18] = 0\n 13318: u8 [s0 + 17] = 0\n 13321: u8 [s0 + 16] = 0\n 13324: u8 [s0 + 15] = 0\n 13327: u8 [s0 + 14] = 0\n 13330: u8 [s0 + 13] = 0\n 13333: u8 [s0 + 12] = 0\n 13336: u8 [s0 + 11] = 0\n 13339: u8 [s0 + 10] = 0\n 13342: u8 [s0 + 9] = 0\n 13345: u8 [s0 + 8] = 0\n 13348: u8 [s0 + 7] = 0\n 13351: u8 [s0 + 6] = 0\n 13354: u8 [s0 + 5] = 0\n 13357: u8 [s0 + 4] = 0\n 13360: u8 [s0 + 3] = 0\n 13363: u8 [s0 + 2] = 0\n 13366: u8 [s0 + 1] = 0\n 13369: a0 = 0xffffffbf\n 13379: a1 = u64 [sp + 56]\n 13382: a0 = a0 <u a1\n 13385: a1 = u64 [sp + 64]\n 13388: a2 = u64 [sp + 24]\n 13391: a0 = a2 if a1 != 0\n 13394: a1 = u64 [sp + 16]\n 13397: a0 = s1 if a1 != 0\n 13400: u8 [s0 + 0] = 0\n 13402: jump @289 if a0 != 0\n      : @286 (gas: 6)\n 13406: a0 = u64 [sp]\n 13408: s1 = a0 + 0x40\n 13411: a1 = 0x20\n 13414: s0 = 0x20\n 13417: a0 = s1\n 13419: ra = 178, jump @0\n      : @287 [@dyn 89] (gas: 1)\n 13425: jump @289 if a0 == 0\n      : @288 (gas: 56)\n 13429: a0 = u64 [sp + 40]\n 13432: i64 s1 = s1 + a0\n 13435: u8 [s1 + 17] = 109\n 13439: u8 [s1 + 13] = 99\n 13443: u8 [s1 + 11] = 121\n 13447: u8 [s1 + 19] = 100\n 13451: u8 [s1 + 10] = 100\n 13455: u8 [s1 + 18] = 101\n 13459: u8 [s1 + 8] = 101\n 13463: u8 [s1 + 7] = 114\n 13467: u8 [s1 + 14] = 108\n 13471: u8 [s1 + 6] = 108\n 13475: u8 [s1 + 15] = 97\n 13479: u8 [s1 + 9] = 97\n 13483: u8 [s1 + 5] = 97\n 13487: u8 [s1 + 31] = 0\n 13490: u8 [s1 + 30] = 0\n 13493: u8 [s1 + 29] = 0\n 13496: u8 [s1 + 28] = 0\n 13499: u8 [s1 + 27] = 0\n 13502: u8 [s1 + 26] = 0\n 13505: u8 [s1 + 25] = 0\n 13508: u8 [s1 + 24] = 0\n 13511: u8 [s1 + 23] = 0\n 13514: u8 [s1 + 22] = 0\n 13517: u8 [s1 + 21] = 0\n 13520: u8 [s1 + 20] = 0\n 13523: u8 [s1 + 12] = s0\n 13526: u8 [s1 + 4] = s0\n 13529: u8 [s1 + 3] = 107\n 13533: u8 [s1 + 2] = 110\n 13537: u8 [s1 + 16] = 105\n 13541: u8 [s1 + 1] = 105\n 13545: u8 [s1 + 0] = 76\n 13548: a1 = u64 [sp + 56]\n 13551: i64 a0 = i64 a1 + 0x60\n 13554: a1 = a0 <u a1\n 13557: a3 = u64 [sp + 64]\n 13560: i64 a2 = a3 + a1\n 13563: a3 = a2 <u a3\n 13566: a3 = a1 if a1 == 0\n 13569: a1 = u64 [sp + 48]\n 13572: i64 a3 = a3 + a1\n 13575: a1 = a3 <u a1\n 13578: a4 = u64 [sp + 8]\n 13581: i64 a1 = a1 + a4\n 13584: a4 = u64 [sp + 32]\n 13587: u64 [a4] = a0\n 13589: u64 [a4 + 8] = a2\n 13592: u64 [a4 + 16] = a3\n 13595: u64 [a4 + 24] = a1\n 13598: ra = u64 [sp + 88]\n 13601: s0 = u64 [sp + 80]\n 13604: s1 = u64 [sp + 72]\n 13607: i64 sp = i64 sp + 0x60\n 13610: ret\n      : @289 (gas: 1)\n 13612: trap\n      : @290 (gas: 10)\n 13613: i64 sp = i64 sp - i64 112\n 13616: u64 [sp + 104] = ra\n 13619: u64 [sp + 96] = s0\n 13622: u64 [sp + 88] = s1\n 13625: i64 s0 = i64 sp + 0x70\n 13628: sp = sp & 0xfffffff0\n 13631: a1 = 0x0\n 13633: a0 = a0 | 0x0\n 13635: a0 = a0 | 0x0\n 13637: jump @292 if a0 == 0\n      : @291 (gas: 6)\n 13640: i64 sp = i64 s0 - i64 112\n 13643: ra = u64 [sp + 104]\n 13646: s0 = u64 [sp + 96]\n 13649: s1 = u64 [sp + 88]\n 13652: i64 sp = i64 sp + 0x70\n 13655: ret\n      : @292 (gas: 3)\n 13657: a0 = 0x40\n 13660: a1 = 0x20\n 13663: ra = 180, jump @0\n      : @293 [@dyn 90] (gas: 1)\n 13669: jump @301 if a0 == 0\n      : @294 (gas: 21)\n 13673: s1 = 0x20010\n 13678: a0 = u64 [0x20058]\n 13683: a1 = u64 [0x20050]\n 13688: a2 = u64 [0x20060]\n 13693: a3 = u64 [0x20068]\n 13698: a4 = reverse a0\n 13700: a5 = reverse a1\n 13702: a0 = reverse a2\n 13704: a1 = reverse a3\n 13706: u64 [sp + 32] = a0\n 13709: u64 [sp + 16] = a5\n 13712: a0 = a0 | a5\n 13715: u64 [sp + 40] = a1\n 13718: a1 = a1 | a4\n 13721: a1 = a1 | a0\n 13724: a1 = a1 >>64 32\n 13727: u64 [sp + 24] = a4\n 13730: a0 = a0 | a4\n 13733: a0 = a0 <<64 32\n 13736: a0 = a0 | a1\n 13739: jump @301 if a0 != 0\n      : @295 (gas: 4)\n 13743: a0 = i32 [sp + 40]\n 13746: a1 = 0x20\n 13749: u64 [sp + 8] = a0\n 13752: ra = 182, jump @0\n      : @296 [@dyn 91] (gas: 1)\n 13758: jump @301 if a0 == 0\n      : @297 (gas: 48)\n 13762: a0 = u64 [sp + 8]\n 13765: i64 s1 = s1 + a0\n 13768: u8 [s1 + 31] = 0\n 13771: u8 [s1 + 30] = 0\n 13774: u8 [s1 + 29] = 0\n 13777: u8 [s1 + 28] = 0\n 13780: u8 [s1 + 27] = 0\n 13783: u8 [s1 + 26] = 0\n 13786: u8 [s1 + 25] = 0\n 13789: u8 [s1 + 24] = 0\n 13792: u8 [s1 + 23] = 0\n 13795: u8 [s1 + 22] = 0\n 13798: u8 [s1 + 21] = 0\n 13801: u8 [s1 + 20] = 0\n 13804: u8 [s1 + 19] = 0\n 13807: u8 [s1 + 18] = 0\n 13810: u8 [s1 + 17] = 0\n 13813: u8 [s1 + 16] = 0\n 13816: u8 [s1 + 15] = 0\n 13819: u8 [s1 + 14] = 0\n 13822: u8 [s1 + 13] = 0\n 13825: u8 [s1 + 12] = 0\n 13828: u8 [s1 + 11] = 0\n 13831: u8 [s1 + 10] = 0\n 13834: u8 [s1 + 9] = 0\n 13837: u8 [s1 + 8] = 0\n 13840: u8 [s1 + 7] = 0\n 13843: u8 [s1 + 6] = 0\n 13846: u8 [s1 + 5] = 0\n 13849: u8 [s1 + 4] = 0\n 13852: u8 [s1 + 3] = 160\n 13857: u8 [s1 + 2] = 121\n 13861: u8 [s1 + 1] = 195\n 13866: u8 [s1 + 0] = 8\n 13869: a0 = u64 [sp + 40]\n 13872: i64 a1 = i64 a0 + 0x4\n 13875: a0 = a1 <u a0\n 13878: a3 = u64 [sp + 32]\n 13881: i64 a2 = a3 + a0\n 13884: a3 = a2 <u a3\n 13887: a3 = a0 if a0 == 0\n 13890: a0 = u64 [sp + 24]\n 13893: i64 a3 = a3 + a0\n 13896: a4 = a3 <u a0\n 13899: a0 = u64 [sp + 16]\n 13902: i64 a4 = a4 + a0\n 13905: i64 a0 = i64 sp + 0x30\n 13908: ra = 184, jump @279\n      : @298 [@dyn 92] (gas: 31)\n 13914: a1 = u64 [sp + 56]\n 13917: t0 = u64 [sp + 72]\n 13920: t1 = u64 [sp + 48]\n 13923: a3 = u64 [sp + 64]\n 13926: a0 = u64 [sp + 32]\n 13929: a4 = a1 ^ a0\n 13932: a5 = a1 <u a0\n 13935: ra = a0\n 13937: t2 = u64 [sp + 40]\n 13940: a2 = t1 <u t2\n 13943: a5 = a2 if a4 == 0\n 13946: a0 = u64 [sp + 24]\n 13949: i64 a4 = i64 a3 - i64 a0\n 13952: a3 = a3 <u a0\n 13955: a0 = u64 [sp + 16]\n 13958: i64 a0 = i64 t0 - i64 a0\n 13961: i64 a0 = i64 a0 - i64 a3\n 13964: a3 = a4 <u a5\n 13967: i64 a0 = i64 a0 - i64 a3\n 13970: i64 a4 = i64 a4 - i64 a5\n 13973: i64 a1 = i64 a1 - i64 ra\n 13976: i64 a1 = i64 a1 - i64 a2\n 13979: a0 = a0 | a1\n 13982: i64 a1 = i64 t1 - i64 t2\n 13985: a1 = a1 | a4\n 13988: a1 = a1 | a0\n 13991: a0 = a0 | a4\n 13994: a1 = a1 >>64 32\n 13997: a0 = a0 <<64 32\n 14000: a0 = a0 | a1\n 14003: jump @301 if a0 != 0\n      : @299 (gas: 5)\n 14006: a0 = u64 [sp + 40]\n 14009: a1 = t1 - a0\n 14012: a0 = u64 [sp + 8]\n 14015: u64 [sp + 40] = a1\n 14018: ra = 186, jump @0\n      : @300 [@dyn 93] (gas: 1)\n 14024: jump @302 if a0 != 0\n      : @301 (gas: 1)\n 14027: trap\n      : @302 (gas: 6)\n 14028: a1 = s1 + 0x0\n 14030: a0 = 0x1\n 14033: a2 = u64 [sp + 40]\n 14036: ra = 0xbc\n 14040: ecalli 8 // 'seal_return'\n 14042: fallthrough\n      : @303 [@dyn 94] (gas: 17)\n 14043: i64 sp = i64 sp - i64 96\n 14046: u64 [sp + 88] = ra\n 14049: u64 [sp + 80] = s0\n 14052: u64 [sp + 72] = s1\n 14055: s1 = a4\n 14057: a4 = a1\n 14059: u64 [sp + 64] = a2\n 14062: a1 = a2 | s1\n 14065: a2 = a4 | a3\n 14068: a2 = a2 | a1\n 14071: a2 = a2 >>64 32\n 14074: u64 [sp + 48] = a3\n 14077: a1 = a1 | a3\n 14080: a1 = a1 <<64 32\n 14083: a1 = a1 | a2\n 14086: u64 [sp + 32] = a0\n 14089: jump @313 if a1 != 0\n      : @304 (gas: 5)\n 14093: s0 = a4 + 0x0\n 14095: a1 = 0x20\n 14098: a0 = s0\n 14100: u64 [sp + 56] = a4\n 14103: ra = 190, jump @0\n      : @305 [@dyn 95] (gas: 1)\n 14109: jump @313 if a0 == 0\n      : @306 (gas: 52)\n 14113: a0 = 0x20010\n 14118: u64 [sp + 40] = a0\n 14121: i64 a0 = a0 + s0\n 14124: u8 [a0 + 31] = 32\n 14128: u8 [a0 + 30] = 0\n 14131: u8 [a0 + 29] = 0\n 14134: u8 [a0 + 28] = 0\n 14137: u8 [a0 + 27] = 0\n 14140: u8 [a0 + 26] = 0\n 14143: u8 [a0 + 25] = 0\n 14146: u8 [a0 + 24] = 0\n 14149: u8 [a0 + 23] = 0\n 14152: u8 [a0 + 22] = 0\n 14155: u8 [a0 + 21] = 0\n 14158: u8 [a0 + 20] = 0\n 14161: u8 [a0 + 19] = 0\n 14164: u8 [a0 + 18] = 0\n 14167: u8 [a0 + 17] = 0\n 14170: u8 [a0 + 16] = 0\n 14173: u8 [a0 + 15] = 0\n 14176: u8 [a0 + 14] = 0\n 14179: u8 [a0 + 13] = 0\n 14182: u8 [a0 + 12] = 0\n 14185: u8 [a0 + 11] = 0\n 14188: u8 [a0 + 10] = 0\n 14191: u8 [a0 + 9] = 0\n 14194: u8 [a0 + 8] = 0\n 14197: u8 [a0 + 7] = 0\n 14200: u8 [a0 + 6] = 0\n 14203: u8 [a0 + 5] = 0\n 14206: u8 [a0 + 4] = 0\n 14209: u8 [a0 + 3] = 0\n 14212: u8 [a0 + 2] = 0\n 14215: u8 [a0 + 1] = 0\n 14218: a3 = u64 [sp + 48]\n 14221: a1 = a3 >u 0x0\n 14223: a2 = s1\n 14225: s1 = s1 >u 0x0\n 14227: s1 = a1 if a2 == 0\n 14230: a1 = 0xffffffdf\n 14240: a4 = u64 [sp + 56]\n 14243: a1 = a1 <u a4\n 14246: a4 = u64 [sp + 64]\n 14249: a5 = a4 >u 0x0\n 14251: u64 [sp + 24] = a5\n 14254: a1 = a5 if a4 != 0\n 14257: u64 [sp + 8] = a2\n 14260: a2 = a2 | a3\n 14263: u64 [sp + 16] = a2\n 14266: a1 = s1 if a2 != 0\n 14269: u8 [a0 + 0] = 0\n 14271: jump @313 if a1 != 0\n      : @307 (gas: 5)\n 14275: u64 [sp] = s0\n 14277: s0 = s0 + 0x20\n 14280: a1 = 0x20\n 14283: a0 = s0\n 14285: ra = 192, jump @0\n      : @308 [@dyn 96] (gas: 1)\n 14291: jump @313 if a0 == 0\n      : @309 (gas: 43)\n 14295: a0 = u64 [sp + 40]\n 14298: i64 s0 = s0 + a0\n 14301: u8 [s0 + 31] = 12\n 14305: u8 [s0 + 30] = 0\n 14308: u8 [s0 + 29] = 0\n 14311: u8 [s0 + 28] = 0\n 14314: u8 [s0 + 27] = 0\n 14317: u8 [s0 + 26] = 0\n 14320: u8 [s0 + 25] = 0\n 14323: u8 [s0 + 24] = 0\n 14326: u8 [s0 + 23] = 0\n 14329: u8 [s0 + 22] = 0\n 14332: u8 [s0 + 21] = 0\n 14335: u8 [s0 + 20] = 0\n 14338: u8 [s0 + 19] = 0\n 14341: u8 [s0 + 18] = 0\n 14344: u8 [s0 + 17] = 0\n 14347: u8 [s0 + 16] = 0\n 14350: u8 [s0 + 15] = 0\n 14353: u8 [s0 + 14] = 0\n 14356: u8 [s0 + 13] = 0\n 14359: u8 [s0 + 12] = 0\n 14362: u8 [s0 + 11] = 0\n 14365: u8 [s0 + 10] = 0\n 14368: u8 [s0 + 9] = 0\n 14371: u8 [s0 + 8] = 0\n 14374: u8 [s0 + 7] = 0\n 14377: u8 [s0 + 6] = 0\n 14380: u8 [s0 + 5] = 0\n 14383: u8 [s0 + 4] = 0\n 14386: u8 [s0 + 3] = 0\n 14389: u8 [s0 + 2] = 0\n 14392: u8 [s0 + 1] = 0\n 14395: a0 = 0xffffffbf\n 14405: a1 = u64 [sp + 56]\n 14408: a0 = a0 <u a1\n 14411: a1 = u64 [sp + 64]\n 14414: a2 = u64 [sp + 24]\n 14417: a0 = a2 if a1 != 0\n 14420: a1 = u64 [sp + 16]\n 14423: a0 = s1 if a1 != 0\n 14426: u8 [s0 + 0] = 0\n 14428: jump @313 if a0 != 0\n      : @310 (gas: 6)\n 14432: a0 = u64 [sp]\n 14434: s1 = a0 + 0x40\n 14437: a1 = 0x20\n 14440: s0 = 0x20\n 14443: a0 = s1\n 14445: ra = 194, jump @0\n      : @311 [@dyn 97] (gas: 1)\n 14451: jump @313 if a0 == 0\n      : @312 (gas: 56)\n 14455: a0 = u64 [sp + 40]\n 14458: i64 s1 = s1 + a0\n 14461: u8 [s1 + 31] = 0\n 14464: u8 [s1 + 30] = 0\n 14467: u8 [s1 + 29] = 0\n 14470: u8 [s1 + 28] = 0\n 14473: u8 [s1 + 27] = 0\n 14476: u8 [s1 + 26] = 0\n 14479: u8 [s1 + 25] = 0\n 14482: u8 [s1 + 24] = 0\n 14485: u8 [s1 + 23] = 0\n 14488: u8 [s1 + 22] = 0\n 14491: u8 [s1 + 21] = 0\n 14494: u8 [s1 + 20] = 0\n 14497: u8 [s1 + 19] = 0\n 14500: u8 [s1 + 18] = 0\n 14503: u8 [s1 + 17] = 0\n 14506: u8 [s1 + 16] = 0\n 14509: u8 [s1 + 15] = 0\n 14512: u8 [s1 + 14] = 0\n 14515: u8 [s1 + 13] = 0\n 14518: u8 [s1 + 12] = 0\n 14521: u8 [s1 + 11] = 100\n 14525: u8 [s1 + 10] = 101\n 14529: u8 [s1 + 9] = 114\n 14533: u8 [s1 + 8] = 105\n 14537: u8 [s1 + 7] = 112\n 14541: u8 [s1 + 6] = 120\n 14545: u8 [s1 + 5] = 101\n 14549: u8 [s1 + 4] = s0\n 14552: u8 [s1 + 3] = 107\n 14556: u8 [s1 + 2] = 110\n 14560: u8 [s1 + 1] = 105\n 14564: u8 [s1 + 0] = 76\n 14567: a1 = u64 [sp + 56]\n 14570: i64 a0 = i64 a1 + 0x60\n 14573: a1 = a0 <u a1\n 14576: a3 = u64 [sp + 64]\n 14579: i64 a2 = a3 + a1\n 14582: a3 = a2 <u a3\n 14585: a3 = a1 if a1 == 0\n 14588: a1 = u64 [sp + 48]\n 14591: i64 a3 = a3 + a1\n 14594: a1 = a3 <u a1\n 14597: a4 = u64 [sp + 8]\n 14600: i64 a1 = a1 + a4\n 14603: a4 = u64 [sp + 32]\n 14606: u64 [a4] = a0\n 14608: u64 [a4 + 8] = a2\n 14611: u64 [a4 + 16] = a3\n 14614: u64 [a4 + 24] = a1\n 14617: ra = u64 [sp + 88]\n 14620: s0 = u64 [sp + 80]\n 14623: s1 = u64 [sp + 72]\n 14626: i64 sp = i64 sp + 0x60\n 14629: ret\n      : @313 (gas: 1)\n 14631: trap\n      : @314 [@dyn 98] (gas: 1)\n 14632: jump @326 if a0 == 0\n      : @315 (gas: 14)\n 14636: a2 = 0x20010\n 14641: a0 = u64 [0x20060]\n 14646: u64 [sp + 24] = a0\n 14649: a0 = u64 [0x20058]\n 14654: a1 = u64 [0x20068]\n 14659: u64 [sp] = a2\n 14661: a2 = u64 [0x20050]\n 14666: u64 [sp + 16] = a2\n 14669: s1 = reverse a0\n 14671: a0 = reverse a1\n 14673: u64 [sp + 8] = a0\n 14676: a0 = sp + 0x20\n 14679: ecalli 7 // 'return_data_size'\n 14681: fallthrough\n      : @316 (gas: 12)\n 14682: a3 = u64 [sp + 8]\n 14685: a0 = a3 | s1\n 14688: a1 = u64 [sp + 24]\n 14691: a2 = u64 [sp + 16]\n 14694: a1 = a1 | a2\n 14697: a1 = reverse a1\n 14699: a0 = a0 | a1\n 14702: a0 = a0 >>64 32\n 14705: a1 = a1 | s1\n 14708: a1 = a1 <<64 32\n 14711: a0 = a0 | a1\n 14714: jump @326 if a0 != 0\n      : @317 (gas: 12)\n 14718: a4 = u64 [sp + 32]\n 14721: a0 = u64 [sp + 56]\n 14724: a1 = u64 [sp + 40]\n 14727: a2 = u64 [sp + 48]\n 14730: a0 = a0 | a1\n 14733: a1 = a4 | a2\n 14736: a1 = a1 | a0\n 14739: a1 = a1 >>64 32\n 14742: a0 = a0 | a2\n 14745: a0 = a0 <<64 32\n 14748: a0 = a0 | a1\n 14751: jump @326 if a0 != 0\n      : @318 (gas: 6)\n 14754: s1 = a3 + 0x0\n 14756: u64 [sp + 24] = a4\n 14759: a1 = a4 + 0x0\n 14761: a0 = s1\n 14763: u64 [sp + 16] = a1\n 14766: ra = 198, jump @0\n      : @319 [@dyn 99] (gas: 1)\n 14772: jump @326 if a0 == 0\n      : @320 (gas: 10)\n 14775: a0 = u64 [sp + 24]\n 14778: u32 [sp + 64] = a0\n 14781: a0 = s1\n 14783: s1 = u64 [sp]\n 14785: u64 [sp + 24] = a0\n 14788: a0 = a0 + s1\n 14791: a1 = sp + 0x40\n 14794: a2 = 0x0\n 14796: ecalli 6 // 'return_data_copy'\n 14798: fallthrough\n      : @321 (gas: 3)\n 14799: a0 = i32 [sp + 64]\n 14802: a1 = u64 [sp + 16]\n 14805: jump @326 if a0 <u a1\n      : @322 (gas: 3)\n 14808: a0 = sp + 0x60\n 14811: ecalli 7 // 'return_data_size'\n 14813: fallthrough\n      : @323 (gas: 12)\n 14814: a1 = u64 [sp + 112]\n 14817: a2 = u64 [sp + 120]\n 14820: a3 = u64 [sp + 104]\n 14823: a0 = u64 [sp + 96]\n 14826: a2 = a2 | a3\n 14829: a3 = a0 | a1\n 14832: a3 = a3 | a2\n 14835: a3 = a3 >>64 32\n 14838: a1 = a1 | a2\n 14841: a1 = a1 <<64 32\n 14844: a1 = a1 | a3\n 14847: jump @326 if a1 != 0\n      : @324 (gas: 4)\n 14850: a1 = a0 + 0x0\n 14852: a0 = u64 [sp + 24]\n 14855: u64 [sp + 16] = a1\n 14858: ra = 200, jump @0\n      : @325 [@dyn 100] (gas: 1)\n 14864: jump @327 if a0 != 0\n      : @326 (gas: 1)\n 14867: trap\n      : @327 (gas: 7)\n 14868: a1 = u64 [sp + 24]\n 14871: a1 = a1 + s1\n 14874: a0 = 0x1\n 14877: a2 = u64 [sp + 16]\n 14880: ra = 0xca\n 14884: ecalli 8 // 'seal_return'\n 14886: fallthrough\n      : @328 [@dyn 101] (gas: 17)\n 14887: i64 sp = i64 sp - i64 96\n 14890: u64 [sp + 88] = ra\n 14893: u64 [sp + 80] = s0\n 14896: u64 [sp + 72] = s1\n 14899: s1 = a4\n 14901: a4 = a1\n 14903: u64 [sp + 64] = a2\n 14906: a1 = a2 | s1\n 14909: a2 = a4 | a3\n 14912: a2 = a2 | a1\n 14915: a2 = a2 >>64 32\n 14918: u64 [sp + 48] = a3\n 14921: a1 = a1 | a3\n 14924: a1 = a1 <<64 32\n 14927: a1 = a1 | a2\n 14930: u64 [sp + 32] = a0\n 14933: jump @338 if a1 != 0\n      : @329 (gas: 5)\n 14937: s0 = a4 + 0x0\n 14939: a1 = 0x20\n 14942: a0 = s0\n 14944: u64 [sp + 56] = a4\n 14947: ra = 204, jump @0\n      : @330 [@dyn 102] (gas: 1)\n 14953: jump @338 if a0 == 0\n      : @331 (gas: 52)\n 14957: a0 = 0x20010\n 14962: u64 [sp + 40] = a0\n 14965: i64 a0 = a0 + s0\n 14968: u8 [a0 + 31] = 32\n 14972: u8 [a0 + 30] = 0\n 14975: u8 [a0 + 29] = 0\n 14978: u8 [a0 + 28] = 0\n 14981: u8 [a0 + 27] = 0\n 14984: u8 [a0 + 26] = 0\n 14987: u8 [a0 + 25] = 0\n 14990: u8 [a0 + 24] = 0\n 14993: u8 [a0 + 23] = 0\n 14996: u8 [a0 + 22] = 0\n 14999: u8 [a0 + 21] = 0\n 15002: u8 [a0 + 20] = 0\n 15005: u8 [a0 + 19] = 0\n 15008: u8 [a0 + 18] = 0\n 15011: u8 [a0 + 17] = 0\n 15014: u8 [a0 + 16] = 0\n 15017: u8 [a0 + 15] = 0\n 15020: u8 [a0 + 14] = 0\n 15023: u8 [a0 + 13] = 0\n 15026: u8 [a0 + 12] = 0\n 15029: u8 [a0 + 11] = 0\n 15032: u8 [a0 + 10] = 0\n 15035: u8 [a0 + 9] = 0\n 15038: u8 [a0 + 8] = 0\n 15041: u8 [a0 + 7] = 0\n 15044: u8 [a0 + 6] = 0\n 15047: u8 [a0 + 5] = 0\n 15050: u8 [a0 + 4] = 0\n 15053: u8 [a0 + 3] = 0\n 15056: u8 [a0 + 2] = 0\n 15059: u8 [a0 + 1] = 0\n 15062: a3 = u64 [sp + 48]\n 15065: a1 = a3 >u 0x0\n 15067: a2 = s1\n 15069: s1 = s1 >u 0x0\n 15071: s1 = a1 if a2 == 0\n 15074: a1 = 0xffffffdf\n 15084: a4 = u64 [sp + 56]\n 15087: a1 = a1 <u a4\n 15090: a4 = u64 [sp + 64]\n 15093: a5 = a4 >u 0x0\n 15095: u64 [sp + 24] = a5\n 15098: a1 = a5 if a4 != 0\n 15101: u64 [sp + 8] = a2\n 15104: a2 = a2 | a3\n 15107: u64 [sp + 16] = a2\n 15110: a1 = s1 if a2 != 0\n 15113: u8 [a0 + 0] = 0\n 15115: jump @338 if a1 != 0\n      : @332 (gas: 5)\n 15119: u64 [sp] = s0\n 15121: s0 = s0 + 0x20\n 15124: a1 = 0x20\n 15127: a0 = s0\n 15129: ra = 206, jump @0\n      : @333 [@dyn 103] (gas: 1)\n 15135: jump @338 if a0 == 0\n      : @334 (gas: 43)\n 15139: a0 = u64 [sp + 40]\n 15142: i64 s0 = s0 + a0\n 15145: u8 [s0 + 31] = 23\n 15149: u8 [s0 + 30] = 0\n 15152: u8 [s0 + 29] = 0\n 15155: u8 [s0 + 28] = 0\n 15158: u8 [s0 + 27] = 0\n 15161: u8 [s0 + 26] = 0\n 15164: u8 [s0 + 25] = 0\n 15167: u8 [s0 + 24] = 0\n 15170: u8 [s0 + 23] = 0\n 15173: u8 [s0 + 22] = 0\n 15176: u8 [s0 + 21] = 0\n 15179: u8 [s0 + 20] = 0\n 15182: u8 [s0 + 19] = 0\n 15185: u8 [s0 + 18] = 0\n 15188: u8 [s0 + 17] = 0\n 15191: u8 [s0 + 16] = 0\n 15194: u8 [s0 + 15] = 0\n 15197: u8 [s0 + 14] = 0\n 15200: u8 [s0 + 13] = 0\n 15203: u8 [s0 + 12] = 0\n 15206: u8 [s0 + 11] = 0\n 15209: u8 [s0 + 10] = 0\n 15212: u8 [s0 + 9] = 0\n 15215: u8 [s0 + 8] = 0\n 15218: u8 [s0 + 7] = 0\n 15221: u8 [s0 + 6] = 0\n 15224: u8 [s0 + 5] = 0\n 15227: u8 [s0 + 4] = 0\n 15230: u8 [s0 + 3] = 0\n 15233: u8 [s0 + 2] = 0\n 15236: u8 [s0 + 1] = 0\n 15239: a0 = 0xffffffbf\n 15249: a1 = u64 [sp + 56]\n 15252: a0 = a0 <u a1\n 15255: a1 = u64 [sp + 64]\n 15258: a2 = u64 [sp + 24]\n 15261: a0 = a2 if a1 != 0\n 15264: a1 = u64 [sp + 16]\n 15267: a0 = s1 if a1 != 0\n 15270: u8 [s0 + 0] = 0\n 15272: jump @338 if a0 != 0\n      : @335 (gas: 6)\n 15276: a0 = u64 [sp]\n 15278: s1 = a0 + 0x40\n 15281: a1 = 0x20\n 15284: s0 = 0x20\n 15287: a0 = s1\n 15289: ra = 208, jump @0\n      : @336 [@dyn 104] (gas: 1)\n 15295: jump @338 if a0 == 0\n      : @337 (gas: 56)\n 15299: a0 = u64 [sp + 40]\n 15302: i64 s1 = s1 + a0\n 15305: u8 [s1 + 22] = 109\n 15309: u8 [s1 + 21] = 105\n 15313: u8 [s1 + 20] = 97\n 15317: u8 [s1 + 13] = 97\n 15321: u8 [s1 + 18] = 99\n 15325: u8 [s1 + 12] = 99\n 15329: u8 [s1 + 16] = 114\n 15333: u8 [s1 + 10] = 114\n 15337: u8 [s1 + 8] = 100\n 15341: u8 [s1 + 17] = 101\n 15345: u8 [s1 + 9] = 101\n 15349: u8 [s1 + 6] = 101\n 15353: u8 [s1 + 5] = 115\n 15357: u8 [s1 + 31] = 0\n 15360: u8 [s1 + 30] = 0\n 15363: u8 [s1 + 29] = 0\n 15366: u8 [s1 + 28] = 0\n 15369: u8 [s1 + 27] = 0\n 15372: u8 [s1 + 26] = 0\n 15375: u8 [s1 + 25] = 0\n 15378: u8 [s1 + 24] = 0\n 15381: u8 [s1 + 23] = 0\n 15384: u8 [s1 + 15] = s0\n 15387: u8 [s1 + 11] = s0\n 15390: u8 [s1 + 4] = s0\n 15393: u8 [s1 + 3] = 121\n 15397: u8 [s1 + 19] = 108\n 15401: u8 [s1 + 2] = 108\n 15405: u8 [s1 + 14] = 110\n 15409: u8 [s1 + 7] = 110\n 15413: u8 [s1 + 1] = 110\n 15417: u8 [s1 + 0] = 79\n 15420: a1 = u64 [sp + 56]\n 15423: i64 a0 = i64 a1 + 0x60\n 15426: a1 = a0 <u a1\n 15429: a3 = u64 [sp + 64]\n 15432: i64 a2 = a3 + a1\n 15435: a3 = a2 <u a3\n 15438: a3 = a1 if a1 == 0\n 15441: a1 = u64 [sp + 48]\n 15444: i64 a3 = a3 + a1\n 15447: a1 = a3 <u a1\n 15450: a4 = u64 [sp + 8]\n 15453: i64 a1 = a1 + a4\n 15456: a4 = u64 [sp + 32]\n 15459: u64 [a4] = a0\n 15461: u64 [a4 + 8] = a2\n 15464: u64 [a4 + 16] = a3\n 15467: u64 [a4 + 24] = a1\n 15470: ra = u64 [sp + 88]\n 15473: s0 = u64 [sp + 80]\n 15476: s1 = u64 [sp + 72]\n 15479: i64 sp = i64 sp + 0x60\n 15482: ret\n      : @338 (gas: 1)\n 15484: trap\n      : @339 (gas: 17)\n 15485: i64 sp = i64 sp - i64 96\n 15488: u64 [sp + 88] = ra\n 15491: u64 [sp + 80] = s0\n 15494: u64 [sp + 72] = s1\n 15497: s1 = a4\n 15499: a4 = a1\n 15501: u64 [sp + 64] = a2\n 15504: a1 = a2 | s1\n 15507: a2 = a4 | a3\n 15510: a2 = a2 | a1\n 15513: a2 = a2 >>64 32\n 15516: u64 [sp + 48] = a3\n 15519: a1 = a1 | a3\n 15522: a1 = a1 <<64 32\n 15525: a1 = a1 | a2\n 15528: u64 [sp + 32] = a0\n 15531: jump @349 if a1 != 0\n      : @340 (gas: 5)\n 15535: s0 = a4 + 0x0\n 15537: a1 = 0x20\n 15540: a0 = s0\n 15542: u64 [sp + 56] = a4\n 15545: ra = 210, jump @0\n      : @341 [@dyn 105] (gas: 1)\n 15551: jump @349 if a0 == 0\n      : @342 (gas: 52)\n 15555: a0 = 0x20010\n 15560: u64 [sp + 40] = a0\n 15563: i64 a0 = a0 + s0\n 15566: u8 [a0 + 31] = 32\n 15570: u8 [a0 + 30] = 0\n 15573: u8 [a0 + 29] = 0\n 15576: u8 [a0 + 28] = 0\n 15579: u8 [a0 + 27] = 0\n 15582: u8 [a0 + 26] = 0\n 15585: u8 [a0 + 25] = 0\n 15588: u8 [a0 + 24] = 0\n 15591: u8 [a0 + 23] = 0\n 15594: u8 [a0 + 22] = 0\n 15597: u8 [a0 + 21] = 0\n 15600: u8 [a0 + 20] = 0\n 15603: u8 [a0 + 19] = 0\n 15606: u8 [a0 + 18] = 0\n 15609: u8 [a0 + 17] = 0\n 15612: u8 [a0 + 16] = 0\n 15615: u8 [a0 + 15] = 0\n 15618: u8 [a0 + 14] = 0\n 15621: u8 [a0 + 13] = 0\n 15624: u8 [a0 + 12] = 0\n 15627: u8 [a0 + 11] = 0\n 15630: u8 [a0 + 10] = 0\n 15633: u8 [a0 + 9] = 0\n 15636: u8 [a0 + 8] = 0\n 15639: u8 [a0 + 7] = 0\n 15642: u8 [a0 + 6] = 0\n 15645: u8 [a0 + 5] = 0\n 15648: u8 [a0 + 4] = 0\n 15651: u8 [a0 + 3] = 0\n 15654: u8 [a0 + 2] = 0\n 15657: u8 [a0 + 1] = 0\n 15660: a3 = u64 [sp + 48]\n 15663: a1 = a3 >u 0x0\n 15665: a2 = s1\n 15667: s1 = s1 >u 0x0\n 15669: s1 = a1 if a2 == 0\n 15672: a1 = 0xffffffdf\n 15682: a4 = u64 [sp + 56]\n 15685: a1 = a1 <u a4\n 15688: a4 = u64 [sp + 64]\n 15691: a5 = a4 >u 0x0\n 15693: u64 [sp + 24] = a5\n 15696: a1 = a5 if a4 != 0\n 15699: u64 [sp + 8] = a2\n 15702: a2 = a2 | a3\n 15705: u64 [sp + 16] = a2\n 15708: a1 = s1 if a2 != 0\n 15711: u8 [a0 + 0] = 0\n 15713: jump @349 if a1 != 0\n      : @343 (gas: 5)\n 15717: u64 [sp] = s0\n 15719: s0 = s0 + 0x20\n 15722: a1 = 0x20\n 15725: a0 = s0\n 15727: ra = 212, jump @0\n      : @344 [@dyn 106] (gas: 1)\n 15733: jump @349 if a0 == 0\n      : @345 (gas: 43)\n 15737: a0 = u64 [sp + 40]\n 15740: i64 s0 = s0 + a0\n 15743: u8 [s0 + 31] = 18\n 15747: u8 [s0 + 30] = 0\n 15750: u8 [s0 + 29] = 0\n 15753: u8 [s0 + 28] = 0\n 15756: u8 [s0 + 27] = 0\n 15759: u8 [s0 + 26] = 0\n 15762: u8 [s0 + 25] = 0\n 15765: u8 [s0 + 24] = 0\n 15768: u8 [s0 + 23] = 0\n 15771: u8 [s0 + 22] = 0\n 15774: u8 [s0 + 21] = 0\n 15777: u8 [s0 + 20] = 0\n 15780: u8 [s0 + 19] = 0\n 15783: u8 [s0 + 18] = 0\n 15786: u8 [s0 + 17] = 0\n 15789: u8 [s0 + 16] = 0\n 15792: u8 [s0 + 15] = 0\n 15795: u8 [s0 + 14] = 0\n 15798: u8 [s0 + 13] = 0\n 15801: u8 [s0 + 12] = 0\n 15804: u8 [s0 + 11] = 0\n 15807: u8 [s0 + 10] = 0\n 15810: u8 [s0 + 9] = 0\n 15813: u8 [s0 + 8] = 0\n 15816: u8 [s0 + 7] = 0\n 15819: u8 [s0 + 6] = 0\n 15822: u8 [s0 + 5] = 0\n 15825: u8 [s0 + 4] = 0\n 15828: u8 [s0 + 3] = 0\n 15831: u8 [s0 + 2] = 0\n 15834: u8 [s0 + 1] = 0\n 15837: a0 = 0xffffffbf\n 15847: a1 = u64 [sp + 56]\n 15850: a0 = a0 <u a1\n 15853: a1 = u64 [sp + 64]\n 15856: a2 = u64 [sp + 24]\n 15859: a0 = a2 if a1 != 0\n 15862: a1 = u64 [sp + 16]\n 15865: a0 = s1 if a1 != 0\n 15868: u8 [s0 + 0] = 0\n 15870: jump @349 if a0 != 0\n      : @346 (gas: 6)\n 15874: a0 = u64 [sp]\n 15876: s1 = a0 + 0x40\n 15879: a1 = 0x20\n 15882: s0 = 0x20\n 15885: a0 = s1\n 15887: ra = 214, jump @0\n      : @347 [@dyn 107] (gas: 1)\n 15893: jump @349 if a0 == 0\n      : @348 (gas: 56)\n 15897: a0 = u64 [sp + 40]\n 15900: i64 s1 = s1 + a0\n 15903: u8 [s1 + 31] = 0\n 15906: u8 [s1 + 30] = 0\n 15909: u8 [s1 + 29] = 0\n 15912: u8 [s1 + 28] = 0\n 15915: u8 [s1 + 27] = 0\n 15918: u8 [s1 + 26] = 0\n 15921: u8 [s1 + 25] = 0\n 15924: u8 [s1 + 24] = 0\n 15927: u8 [s1 + 23] = 0\n 15930: u8 [s1 + 22] = 0\n 15933: u8 [s1 + 21] = 0\n 15936: u8 [s1 + 20] = 0\n 15939: u8 [s1 + 19] = 0\n 15942: u8 [s1 + 18] = 0\n 15945: u8 [s1 + 17] = 72\n 15949: u8 [s1 + 16] = 84\n 15953: u8 [s1 + 15] = 69\n 15957: u8 [s1 + 14] = s0\n 15960: u8 [s1 + 13] = 101\n 15964: u8 [s1 + 12] = 109\n 15968: u8 [s1 + 11] = 111\n 15972: u8 [s1 + 10] = 115\n 15976: u8 [s1 + 9] = s0\n 15979: u8 [s1 + 8] = 100\n 15983: u8 [s1 + 7] = 110\n 15987: u8 [s1 + 6] = 101\n 15991: u8 [s1 + 5] = 115\n 15995: u8 [s1 + 4] = s0\n 15998: u8 [s1 + 3] = 116\n 16002: u8 [s1 + 2] = 115\n 16006: u8 [s1 + 1] = 117\n 16010: u8 [s1 + 0] = 77\n 16013: a1 = u64 [sp + 56]\n 16016: i64 a0 = i64 a1 + 0x60\n 16019: a1 = a0 <u a1\n 16022: a3 = u64 [sp + 64]\n 16025: i64 a2 = a3 + a1\n 16028: a3 = a2 <u a3\n 16031: a3 = a1 if a1 == 0\n 16034: a1 = u64 [sp + 48]\n 16037: i64 a3 = a3 + a1\n 16040: a1 = a3 <u a1\n 16043: a4 = u64 [sp + 8]\n 16046: i64 a1 = a1 + a4\n 16049: a4 = u64 [sp + 32]\n 16052: u64 [a4] = a0\n 16054: u64 [a4 + 8] = a2\n 16057: u64 [a4 + 16] = a3\n 16060: u64 [a4 + 24] = a1\n 16063: ra = u64 [sp + 88]\n 16066: s0 = u64 [sp + 80]\n 16069: s1 = u64 [sp + 72]\n 16072: i64 sp = i64 sp + 0x60\n 16075: ret\n      : @349 (gas: 1)\n 16077: trap\n      : @350 (gas: 7)\n 16078: a4 = u64 [s1 + 184]\n 16082: a5 = u64 [s1 + 176]\n 16086: a2 = u64 [s1 + 168]\n 16090: a0 = a5 | a4\n 16093: a1 = a2 <u 0x1\n 16096: a1 = 0 if a0 != 0\n 16098: jump @355 if a1 == 0\n      : @351 (gas: 57)\n 16102: a0 = u64 [s1 + 160]\n 16106: u64 [s1 + 32] = a0\n 16109: i64 a0 = i64 a0 + 0x1\n 16112: a1 = a0 <u 0x1\n 16115: i64 a1 = a1 + a2\n 16118: u64 [s1 + 40] = a2\n 16121: a2 = a0 | a1\n 16124: a2 = a2 <u 0x1\n 16127: i64 a2 = a2 + a5\n 16130: a3 = a2 <u a5\n 16133: i64 t0 = a4 + a3\n 16136: a3 = u64 [s1 + 64]\n 16139: u64 [s1 + 224] = a3\n 16143: a3 = u64 [s1 + 72]\n 16146: u64 [s1 + 232] = a3\n 16150: a3 = u64 [s1 + 80]\n 16153: u64 [s1 + 240] = a3\n 16157: a3 = u64 [s1 + 88]\n 16160: u64 [s1 + 248] = a3\n 16164: u64 [s1 + 56] = a4\n 16167: i64 a4 = i64 sp - i64 32\n 16170: a4 = a4 & 0xffffffe0\n 16173: sp = a4\n 16175: u64 [a4 + 24] = t0\n 16178: u64 [a4 + 16] = a2\n 16181: u64 [a4 + 8] = a1\n 16184: u64 [a4] = a0\n 16186: a3 = a4 + 0x0\n 16188: a1 = s1 + 0xe0\n 16192: a2 = 0xffffffff\n 16195: a4 = 0x20\n 16198: a0 = 0x0\n 16200: u64 [s1 + 48] = a5\n 16203: ecalli 10 // 'set_storage'\n 16205: a0 = u64 [s1 + 88]\n 16208: u64 [s1 + 408] = a0\n 16212: a0 = u64 [s1 + 80]\n 16215: u64 [s1 + 400] = a0\n 16219: a0 = u64 [s1 + 72]\n 16222: u64 [s1 + 392] = a0\n 16226: a0 = u64 [s1 + 64]\n 16229: u64 [s1 + 384] = a0\n 16233: u64 [s1 + 376] = 0\n 16237: u64 [s1 + 368] = 0\n 16241: u64 [s1 + 360] = 0\n 16245: u64 [s1 + 352] = 0\n 16249: u64 [s1 + 336] = 0\n 16253: u64 [s1 + 344] = 0\n 16257: u64 [s1 + 328] = 0\n 16261: u64 [s1 + 320] = 256\n 16267: a1 = s1 + 0x180\n 16271: a3 = s1 + 0x160\n 16275: a4 = s1 + 0x140\n 16279: a2 = 0xffffffff\n 16282: a0 = 0x0\n 16284: ecalli 2 // 'get_storage'\n 16286: fallthrough\n      : @352 (gas: 20)\n 16287: a0 = u64 [s1 + 376]\n 16291: t0 = u64 [s1 + 352]\n 16295: a2 = u64 [s1 + 368]\n 16299: a3 = u64 [s1 + 360]\n 16303: a1 = u64 [s1 + 56]\n 16306: a4 = a0 ^ a1\n 16309: a1 = a1 <u a0\n 16312: a0 = u64 [s1 + 48]\n 16315: a5 = a0 <u a2\n 16318: a5 = a1 if a4 != 0\n 16321: a1 = u64 [s1 + 40]\n 16324: t1 = a3 ^ a1\n 16327: a3 = a1 <u a3\n 16330: a1 = u64 [s1 + 32]\n 16333: a1 = a1 <u t0\n 16336: a1 = a3 if t1 != 0\n 16339: a0 = a0 ^ a2\n 16342: a0 = a0 | a4\n 16345: a1 = a5 if a0 != 0\n 16348: jump @360 if a1 == 0\n      : @353 (gas: 8)\n 16352: a0 = u64 [s0]\n 16354: u64 [s1] = a0\n 16356: i64 a0 = i64 s1 + 0x60\n 16359: a1 = u64 [s1 + 64]\n 16362: a2 = u64 [s1 + 72]\n 16365: a3 = u64 [s1 + 80]\n 16368: a4 = u64 [s1 + 88]\n 16371: ra = 216, jump @225\n      : @354 [@dyn 108] (gas: 73)\n 16377: a0 = u64 [s1 + 104]\n 16380: a1 = u64 [s1 + 96]\n 16383: t0 = u64 [s1 + 120]\n 16386: t1 = u64 [s1 + 112]\n 16389: a4 = u64 [s1 + 40]\n 16392: i64 a4 = a4 + a0\n 16395: a5 = u64 [s1 + 32]\n 16398: i64 a5 = a5 + a1\n 16401: a2 = a5 <u a1\n 16404: u64 [s1 + 88] = a5\n 16407: i64 a1 = a4 + a2\n 16410: a4 = a1 ^ a0\n 16413: a0 = a1 <u a0\n 16416: a3 = a1\n 16418: u64 [s1 + 80] = a1\n 16421: a0 = a2 if a4 == 0\n 16424: a1 = u64 [s1 + 48]\n 16427: i64 a1 = a1 + t1\n 16430: i64 a0 = a0 + a1\n 16433: u64 [s1 + 72] = a0\n 16436: t2 = a0 <u a1\n 16439: a4 = u64 [s1 + 56]\n 16442: i64 a2 = t0 + a4\n 16445: a1 = a1 <u t1\n 16448: i64 a1 = a1 + a2\n 16451: i64 a1 = a1 + t2\n 16454: u64 [s1 + 64] = a1\n 16457: u64 [s1 + 352] = a5\n 16461: u64 [s1 + 360] = a3\n 16465: u64 [s1 + 368] = a0\n 16469: u64 [s1 + 376] = a1\n 16473: u64 [s1 + 344] = 0\n 16477: u64 [s1 + 336] = 0\n 16481: u64 [s1 + 328] = 0\n 16485: u64 [s1 + 320] = 0\n 16489: u64 [s1 + 304] = 0\n 16493: u64 [s1 + 312] = 0\n 16497: u64 [s1 + 296] = 0\n 16501: u64 [s1 + 288] = 256\n 16507: a1 = s1 + 0x160\n 16511: a3 = s1 + 0x140\n 16515: a4 = s1 + 0x120\n 16519: a2 = 0xffffffff\n 16522: a0 = 0x0\n 16524: ecalli 2 // 'get_storage'\n 16526: a0 = u64 [s1 + 64]\n 16529: u64 [s1 + 408] = a0\n 16533: a0 = u64 [s1 + 72]\n 16536: u64 [s1 + 400] = a0\n 16540: a0 = u64 [s1 + 80]\n 16543: u64 [s1 + 392] = a0\n 16547: a0 = u64 [s1 + 88]\n 16550: u64 [s1 + 384] = a0\n 16554: a0 = u64 [s1]\n 16556: u64 [s1 + 280] = a0\n 16560: a0 = u64 [s1 + 8]\n 16563: u64 [s1 + 272] = a0\n 16567: a0 = u64 [s1 + 16]\n 16570: u64 [s1 + 264] = a0\n 16574: a0 = u64 [s1 + 24]\n 16577: u64 [s1 + 256] = a0\n 16581: a1 = s1 + 0x180\n 16585: a3 = s1 + 0x100\n 16589: a2 = 0xffffffff\n 16592: a4 = 0x20\n 16595: a0 = 0x0\n 16597: ecalli 10 // 'set_storage'\n 16599: i64 sp = i64 s0 - i64 448\n 16603: ra = u64 [sp + 440]\n 16607: s0 = u64 [sp + 432]\n 16611: s1 = u64 [sp + 424]\n 16615: i64 sp = i64 sp + 0x1c0\n 16619: ret\n      : @355 (gas: 3)\n 16621: a1 = 0x20\n 16624: a0 = 0x0\n 16626: ra = 218, jump @0\n      : @356 [@dyn 109] (gas: 1)\n 16632: jump @367 if a0 == 0\n      : @357 (gas: 9)\n 16636: a1 = 0x20010\n 16641: u64 [0x20028] = 0\n 16646: u64 [0x20020] = 0\n 16651: u64 [0x20018] = 0\n 16656: u64 [s1 + 88] = a1\n 16659: u64 [0x20010] = 1903904846\n 16668: a0 = 0x4\n 16671: a1 = 0x20\n 16674: ra = 220, jump @0\n      : @358 [@dyn 110] (gas: 1)\n 16680: jump @367 if a0 == 0\n      : @359 (gas: 2)\n 16683: a0 = 0x41000000\n 16689: jump @365\n      : @360 (gas: 3)\n 16691: a1 = 0x20\n 16694: a0 = 0x0\n 16696: ra = 222, jump @0\n      : @361 [@dyn 111] (gas: 1)\n 16702: jump @367 if a0 == 0\n      : @362 (gas: 9)\n 16705: a1 = 0x20010\n 16710: u64 [0x20028] = 0\n 16715: u64 [0x20020] = 0\n 16720: u64 [0x20018] = 0\n 16725: u64 [s1 + 88] = a1\n 16728: u64 [0x20010] = 1903904846\n 16737: a0 = 0x4\n 16740: a1 = 0x20\n 16743: ra = 224, jump @0\n      : @363 [@dyn 112] (gas: 1)\n 16749: jump @367 if a0 == 0\n      : @364 (gas: 2)\n 16752: a0 = 0x32000000\n 16758: fallthrough\n      : @365 (gas: 12)\n 16759: a1 = u64 [s1 + 88]\n 16762: u32 [a1 + 32] = a0\n 16765: u32 [a1 + 28] = 0\n 16768: u32 [a1 + 24] = 0\n 16771: u32 [a1 + 20] = 0\n 16774: u32 [a1 + 16] = 0\n 16777: u32 [a1 + 12] = 0\n 16780: u32 [a1 + 8] = 0\n 16783: u32 [a1 + 4] = 0\n 16786: a1 = 0x24\n 16789: a0 = 0x0\n 16791: ra = 226, jump @0\n      : @366 [@dyn 113] (gas: 1)\n 16797: jump @368 if a0 != 0\n      : @367 (gas: 1)\n 16800: trap\n      : @368 (gas: 6)\n 16801: a1 = i32 [s1 + 88]\n 16804: a0 = 0x1\n 16807: a2 = 0x24\n 16810: ra = 0xe4\n 16814: ecalli 8 // 'seal_return'\n 16816: fallthrough\n      : @369 [@dyn 114] (gas: 19)\n 16817: i64 sp = i64 sp - i64 800\n 16821: u64 [sp + 792] = ra\n 16825: u64 [sp + 784] = s0\n 16829: u64 [sp + 776] = s1\n 16833: i64 s0 = i64 sp + 0x320\n 16837: sp = sp & 0xffffffe0\n 16840: s1 = sp\n 16842: u64 [s1 + 48] = a4\n 16845: u64 [s1 + 40] = a3\n 16848: u64 [s1 + 32] = a2\n 16851: u64 [s1 + 24] = a1\n 16854: u64 [s1 + 16] = a0\n 16857: u64 [s1 + 408] = 0\n 16861: u64 [s1 + 400] = 0\n 16865: u64 [s1 + 392] = 0\n 16869: u64 [s1 + 384] = 0\n 16873: a0 = s1 + 0x180\n 16877: ecalli 11 // 'value_transferred'\n 16879: fallthrough\n      : @370 (gas: 8)\n 16880: a0 = u64 [s1 + 400]\n 16884: a1 = u64 [s1 + 408]\n 16888: a2 = u64 [s1 + 392]\n 16892: a3 = u64 [s1 + 384]\n 16896: a1 = a1 | a2\n 16899: a0 = a0 | a3\n 16902: a0 = a0 | a1\n 16905: jump @372 if a0 != 0\n      : @371 (gas: 1)\n 16908: jump @438\n      : @372 (gas: 22)\n 16911: a0 = s1 + 0x1a0\n 16915: ecalli 1 // 'caller'\n 16917: a0 = u64 [s1 + 424]\n 16921: a1 = i32 [s1 + 432]\n 16925: a2 = u64 [s1 + 416]\n 16929: a0 = reverse a0\n 16931: a3 = a0 <<64 32\n 16934: a1 = reverse a1\n 16936: a1 = a1 >>64 32\n 16939: a5 = a1 | a3\n 16942: a0 = a0 >>64 32\n 16945: a1 = reverse a2\n 16947: a2 = a1 <<64 32\n 16950: t2 = a2 | a0\n 16953: a2 = a1 >>64 32\n 16956: i64 sp = i64 sp - i64 16\n 16959: u64 [sp + 8] = 0\n 16962: i64 a0 = i64 s1 + 0x160\n 16966: a1 = 0x1\n 16969: u64 [sp] = a2\n 16971: a4 = 0x0\n 16973: ra = 230, jump @217\n      : @373 [@dyn 115] (gas: 52)\n 16979: i64 sp = i64 sp + 0x10\n 16982: a0 = u64 [s1 + 376]\n 16986: a1 = u64 [s1 + 368]\n 16990: a2 = u64 [s1 + 360]\n 16994: a3 = u64 [s1 + 352]\n 16998: u64 [s1 + 760] = a0\n 17002: u64 [s1 + 752] = a1\n 17006: u64 [s1 + 744] = a2\n 17010: u64 [s1 + 736] = a3\n 17014: u64 [s1 + 728] = 0\n 17018: u64 [s1 + 720] = 0\n 17022: u64 [s1 + 712] = 0\n 17026: u64 [s1 + 704] = 0\n 17030: u64 [s1 + 688] = 0\n 17034: u64 [s1 + 696] = 0\n 17038: u64 [s1 + 680] = 0\n 17042: u64 [s1 + 672] = 256\n 17048: a1 = s1 + 0x2e0\n 17052: a3 = s1 + 0x2c0\n 17056: a4 = s1 + 0x2a0\n 17060: a2 = 0xffffffff\n 17063: a0 = 0x0\n 17065: ecalli 2 // 'get_storage'\n 17067: a0 = u64 [s1 + 728]\n 17071: u64 [s1 + 112] = a0\n 17074: a0 = u64 [s1 + 720]\n 17078: u64 [s1 + 104] = a0\n 17081: a0 = u64 [s1 + 712]\n 17085: u64 [s1 + 96] = a0\n 17088: a0 = u64 [s1 + 704]\n 17092: u64 [s1 + 88] = a0\n 17095: a0 = s1 + 0x1c0\n 17099: ecalli 1 // 'caller'\n 17101: a0 = u32 [s1 + 464]\n 17105: u64 [s1 + 152] = a0\n 17109: a0 = u64 [s1 + 456]\n 17113: u64 [s1 + 144] = a0\n 17117: a0 = u64 [s1 + 448]\n 17121: u64 [s1 + 136] = a0\n 17125: a0 = s1 + 0x1e0\n 17129: ecalli 5 // 'now'\n 17131: a0 = u64 [s1 + 504]\n 17135: u64 [s1 + 72] = a0\n 17138: a0 = u64 [s1 + 496]\n 17142: u64 [s1 + 80] = a0\n 17145: a0 = u64 [s1 + 488]\n 17149: u64 [s1 + 64] = a0\n 17152: a0 = u64 [s1 + 480]\n 17156: u64 [s1 + 56] = a0\n 17159: a0 = 0x40\n 17162: a1 = 0x20\n 17165: ra = 232, jump @0\n      : @374 [@dyn 116] (gas: 1)\n 17171: jump @376 if a0 != 0\n      : @375 (gas: 1)\n 17174: jump @454\n      : @376 (gas: 33)\n 17177: a3 = 0x20010\n 17182: a0 = u64 [0x20050]\n 17187: a1 = u64 [0x20058]\n 17192: a2 = u64 [0x20060]\n 17197: u64 [s1 + 216] = a3\n 17201: a3 = u64 [0x20068]\n 17206: t0 = reverse a0\n 17208: a5 = reverse a1\n 17210: a1 = reverse a2\n 17212: a2 = reverse a3\n 17214: i64 a3 = i64 a2 + 0x20\n 17217: a0 = a3 <u a2\n 17220: i64 a4 = a1 + a0\n 17223: u64 [s1 + 168] = a1\n 17227: a1 = a4 <u a1\n 17230: a1 = a0 if a0 == 0\n 17233: i64 a1 = a1 + a5\n 17236: u64 [s1 + 176] = a5\n 17240: a0 = a1 <u a5\n 17243: u64 [s1 + 184] = t0\n 17247: i64 t0 = t0 + a0\n 17250: u64 [s1 + 200] = a3\n 17254: a0 = a3 | a1\n 17257: u64 [s1 + 192] = a4\n 17261: u64 [s1 + 120] = t0\n 17264: a3 = a4 | t0\n 17267: a0 = a0 | a3\n 17270: a0 = a0 >>64 32\n 17273: u64 [s1 + 128] = a1\n 17277: a1 = a1 | a3\n 17280: a1 = a1 <<64 32\n 17283: a0 = a0 | a1\n 17286: jump @378 if a0 == 0\n      : @377 (gas: 1)\n 17289: jump @454\n      : @378 (gas: 5)\n 17292: u64 [s1 + 160] = a2\n 17296: a0 = a2 + 0x20\n 17299: a1 = 0x20\n 17302: u64 [s1 + 208] = a0\n 17306: ra = 234, jump @0\n      : @379 [@dyn 117] (gas: 1)\n 17312: jump @381 if a0 != 0\n      : @380 (gas: 1)\n 17315: jump @454\n      : @381 (gas: 73)\n 17318: a0 = u64 [s1 + 216]\n 17322: t0 = u64 [s1 + 208]\n 17326: i64 a1 = a0 + t0\n 17329: a2 = u64 [s1 + 136]\n 17333: a0 = a2 >>64 56\n 17336: u8 [a1 + 7] = a0\n 17339: a0 = a2 >>64 48\n 17342: u8 [a1 + 6] = a0\n 17345: a0 = a2 >>64 40\n 17348: u8 [a1 + 5] = a0\n 17351: a0 = a2 >>64 32\n 17354: u8 [a1 + 4] = a0\n 17357: a0 = a2 >>64 24\n 17360: u8 [a1 + 3] = a0\n 17363: a0 = a2 >>64 16\n 17366: u8 [a1 + 2] = a0\n 17369: a0 = a2 >>64 8\n 17372: u8 [a1 + 1] = a0\n 17375: u8 [a1] = a2\n 17377: a3 = u64 [s1 + 144]\n 17381: a0 = a3 >>64 56\n 17384: u8 [a1 + 15] = a0\n 17387: a0 = a3 >>64 48\n 17390: u8 [a1 + 14] = a0\n 17393: a0 = a3 >>64 40\n 17396: u8 [a1 + 13] = a0\n 17399: a0 = a3 >>64 32\n 17402: u8 [a1 + 12] = a0\n 17405: a0 = a3 >>64 24\n 17408: u8 [a1 + 11] = a0\n 17411: a0 = a3 >>64 16\n 17414: u8 [a1 + 10] = a0\n 17417: u8 [a1 + 31] = 0\n 17420: u8 [a1 + 30] = 0\n 17423: u8 [a1 + 29] = 0\n 17426: u8 [a1 + 28] = 0\n 17429: u8 [a1 + 27] = 0\n 17432: u8 [a1 + 26] = 0\n 17435: u8 [a1 + 25] = 0\n 17438: u8 [a1 + 24] = 0\n 17441: u8 [a1 + 23] = 0\n 17444: u8 [a1 + 22] = 0\n 17447: u8 [a1 + 21] = 0\n 17450: u8 [a1 + 8] = a3\n 17453: a2 = u64 [s1 + 152]\n 17457: u8 [a1 + 16] = a2\n 17460: a0 = a3 >>64 8\n 17463: u8 [a1 + 9] = a0\n 17466: a0 = a2 >>64 24\n 17469: u8 [a1 + 19] = a0\n 17472: a0 = a2 >>64 16\n 17475: u8 [a1 + 18] = a0\n 17478: a0 = a2 >>64 8\n 17481: u8 [a1 + 17] = a0\n 17484: a4 = u64 [s1 + 128]\n 17488: a0 = a4 >u 0x0\n 17490: a5 = u64 [s1 + 120]\n 17493: a3 = a5 >u 0x0\n 17495: a3 = a0 if a5 == 0\n 17498: a0 = 0xffffffeb\n 17508: a2 = u64 [s1 + 200]\n 17512: a0 = a0 <u a2\n 17515: a4 = a4 | a5\n 17518: a2 = u64 [s1 + 192]\n 17522: a5 = a2 >u 0x0\n 17524: u64 [s1 + 136] = a5\n 17528: a0 = a5 if a2 != 0\n 17531: u64 [s1 + 152] = a3\n 17535: u64 [s1 + 144] = a4\n 17539: a0 = a3 if a4 != 0\n 17542: u64 [s1 + 120] = a1\n 17545: u8 [a1 + 20] = 0\n 17548: jump @383 if a0 == 0\n      : @382 (gas: 1)\n 17551: jump @454\n      : @383 (gas: 4)\n 17554: a0 = t0 + 0x14\n 17557: a1 = 0x20\n 17560: u64 [s1 + 128] = a0\n 17564: ra = 236, jump @0\n      : @384 [@dyn 118] (gas: 1)\n 17570: jump @386 if a0 != 0\n      : @385 (gas: 1)\n 17573: jump @454\n      : @386 (gas: 81)\n 17576: a0 = 0xffffffcb\n 17586: a1 = u64 [s1 + 200]\n 17590: a0 = a0 <u a1\n 17593: a1 = u64 [s1 + 192]\n 17597: a2 = u64 [s1 + 136]\n 17601: a0 = a2 if a1 != 0\n 17604: a1 = u64 [s1 + 152]\n 17608: a2 = u64 [s1 + 144]\n 17612: a0 = a1 if a2 != 0\n 17615: a1 = u64 [s1 + 216]\n 17619: a2 = u64 [s1 + 128]\n 17623: i64 a1 = a1 + a2\n 17626: a2 = u64 [s1 + 88]\n 17629: a2 = reverse a2\n 17631: a3 = a2 >>64 56\n 17634: u8 [a1 + 31] = a3\n 17637: a3 = a2 >>64 48\n 17640: u8 [a1 + 30] = a3\n 17643: a3 = a2 >>64 40\n 17646: u8 [a1 + 29] = a3\n 17649: a3 = a2 >>64 32\n 17652: u8 [a1 + 28] = a3\n 17655: a3 = a2 >>64 24\n 17658: u8 [a1 + 27] = a3\n 17661: a3 = a2 >>64 16\n 17664: u8 [a1 + 26] = a3\n 17667: a3 = u64 [s1 + 96]\n 17670: a3 = reverse a3\n 17672: u8 [a1 + 24] = a2\n 17675: a2 = a2 >>64 8\n 17678: u8 [a1 + 25] = a2\n 17681: a2 = a3 >>64 56\n 17684: u8 [a1 + 23] = a2\n 17687: a2 = a3 >>64 48\n 17690: u8 [a1 + 22] = a2\n 17693: a2 = a3 >>64 40\n 17696: u8 [a1 + 21] = a2\n 17699: a2 = a3 >>64 32\n 17702: u8 [a1 + 20] = a2\n 17705: a2 = a3 >>64 24\n 17708: u8 [a1 + 19] = a2\n 17711: a2 = a3 >>64 16\n 17714: u8 [a1 + 18] = a2\n 17717: a2 = u64 [s1 + 104]\n 17720: a2 = reverse a2\n 17722: u8 [a1 + 16] = a3\n 17725: a3 = a3 >>64 8\n 17728: u8 [a1 + 17] = a3\n 17731: a3 = a2 >>64 56\n 17734: u8 [a1 + 15] = a3\n 17737: a3 = a2 >>64 48\n 17740: u8 [a1 + 14] = a3\n 17743: a3 = a2 >>64 40\n 17746: u8 [a1 + 13] = a3\n 17749: a3 = a2 >>64 32\n 17752: u8 [a1 + 12] = a3\n 17755: a3 = a2 >>64 24\n 17758: u8 [a1 + 11] = a3\n 17761: a3 = a2 >>64 16\n 17764: u8 [a1 + 10] = a3\n 17767: a3 = u64 [s1 + 112]\n 17770: a3 = reverse a3\n 17772: u8 [a1 + 8] = a2\n 17775: a2 = a2 >>64 8\n 17778: u8 [a1 + 9] = a2\n 17781: a2 = a3 >>64 56\n 17784: u8 [a1 + 7] = a2\n 17787: a2 = a3 >>64 48\n 17790: u8 [a1 + 6] = a2\n 17793: a2 = a3 >>64 40\n 17796: u8 [a1 + 5] = a2\n 17799: a2 = a3 >>64 32\n 17802: u8 [a1 + 4] = a2\n 17805: a2 = a3 >>64 24\n 17808: u8 [a1 + 3] = a2\n 17811: a2 = a3 >>64 16\n 17814: u8 [a1 + 2] = a2\n 17817: u8 [a1] = a3\n 17819: a3 = a3 >>64 8\n 17822: u8 [a1 + 1] = a3\n 17825: jump @388 if a0 == 0\n      : @387 (gas: 1)\n 17828: jump @454\n      : @388 (gas: 5)\n 17831: a0 = u64 [s1 + 208]\n 17835: a0 = a0 + 0x34\n 17838: a1 = 0x20\n 17841: u64 [s1 + 200] = a0\n 17845: ra = 238, jump @0\n      : @389 [@dyn 119] (gas: 1)\n 17851: jump @391 if a0 != 0\n      : @390 (gas: 1)\n 17854: jump @454\n      : @391 (gas: 83)\n 17857: a0 = u64 [s1 + 216]\n 17861: a1 = u64 [s1 + 200]\n 17865: i64 a0 = a0 + a1\n 17868: a1 = u64 [s1 + 56]\n 17871: a1 = reverse a1\n 17873: a2 = a1 >>64 56\n 17876: u8 [a0 + 31] = a2\n 17879: a2 = a1 >>64 48\n 17882: u8 [a0 + 30] = a2\n 17885: a2 = a1 >>64 40\n 17888: u8 [a0 + 29] = a2\n 17891: a2 = a1 >>64 32\n 17894: u8 [a0 + 28] = a2\n 17897: a2 = a1 >>64 24\n 17900: u8 [a0 + 27] = a2\n 17903: a2 = a1 >>64 16\n 17906: u8 [a0 + 26] = a2\n 17909: a2 = u64 [s1 + 64]\n 17912: a2 = reverse a2\n 17914: u8 [a0 + 24] = a1\n 17917: a1 = a1 >>64 8\n 17920: u8 [a0 + 25] = a1\n 17923: a1 = a2 >>64 56\n 17926: u8 [a0 + 23] = a1\n 17929: a1 = a2 >>64 48\n 17932: u8 [a0 + 22] = a1\n 17935: a1 = a2 >>64 40\n 17938: u8 [a0 + 21] = a1\n 17941: a1 = a2 >>64 32\n 17944: u8 [a0 + 20] = a1\n 17947: a1 = a2 >>64 24\n 17950: u8 [a0 + 19] = a1\n 17953: a1 = a2 >>64 16\n 17956: u8 [a0 + 18] = a1\n 17959: a1 = u64 [s1 + 72]\n 17962: a1 = reverse a1\n 17964: a3 = u64 [s1 + 80]\n 17967: a3 = reverse a3\n 17969: u8 [a0 + 16] = a2\n 17972: a2 = a2 >>64 8\n 17975: u8 [a0 + 17] = a2\n 17978: u8 [a0 + 8] = a3\n 17981: a2 = a3 >>64 56\n 17984: u8 [a0 + 15] = a2\n 17987: a2 = a3 >>64 48\n 17990: u8 [a0 + 14] = a2\n 17993: a2 = a3 >>64 40\n 17996: u8 [a0 + 13] = a2\n 17999: a2 = a3 >>64 32\n 18002: u8 [a0 + 12] = a2\n 18005: a2 = a3 >>64 24\n 18008: u8 [a0 + 11] = a2\n 18011: a2 = a3 >>64 16\n 18014: u8 [a0 + 10] = a2\n 18017: a3 = a3 >>64 8\n 18020: u8 [a0 + 9] = a3\n 18023: a2 = a1 >>64 56\n 18026: u8 [a0 + 7] = a2\n 18029: a2 = a1 >>64 48\n 18032: u8 [a0 + 6] = a2\n 18035: a2 = a1 >>64 40\n 18038: u8 [a0 + 5] = a2\n 18041: a2 = a1 >>64 32\n 18044: u8 [a0 + 4] = a2\n 18047: a2 = a1 >>64 24\n 18050: u8 [a0 + 3] = a2\n 18053: a2 = a1 >>64 16\n 18056: u8 [a0 + 2] = a2\n 18059: a4 = u64 [s1 + 176]\n 18063: t0 = u64 [s1 + 160]\n 18067: a2 = t0 | a4\n 18070: a3 = u64 [s1 + 184]\n 18074: a5 = u64 [s1 + 168]\n 18078: a3 = a3 | a5\n 18081: a2 = a2 | a3\n 18084: a2 = a2 >>64 32\n 18087: a3 = a3 | a4\n 18090: a3 = a3 <<64 32\n 18093: a2 = a2 | a3\n 18096: u8 [a0] = a1\n 18098: a1 = a1 >>64 8\n 18101: u8 [a0 + 1] = a1\n 18104: jump @393 if a2 == 0\n      : @392 (gas: 1)\n 18107: jump @454\n      : @393 (gas: 4)\n 18110: a0 = t0 + 0x0\n 18112: a1 = 0x20\n 18115: u64 [s1 + 200] = a0\n 18119: ra = 240, jump @0\n      : @394 [@dyn 120] (gas: 1)\n 18125: jump @396 if a0 != 0\n      : @395 (gas: 1)\n 18128: jump @454\n      : @396 (gas: 46)\n 18131: a0 = u64 [s1 + 216]\n 18135: a1 = u64 [s1 + 200]\n 18139: i64 a1 = a1 + a0\n 18142: u8 [a1 + 31] = 84\n 18146: u8 [a1 + 30] = 0\n 18149: u8 [a1 + 29] = 0\n 18152: u8 [a1 + 28] = 0\n 18155: u8 [a1 + 27] = 0\n 18158: u8 [a1 + 26] = 0\n 18161: u8 [a1 + 25] = 0\n 18164: u8 [a1 + 24] = 0\n 18167: u8 [a1 + 23] = 0\n 18170: u8 [a1 + 22] = 0\n 18173: u8 [a1 + 21] = 0\n 18176: u8 [a1 + 20] = 0\n 18179: u8 [a1 + 19] = 0\n 18182: u8 [a1 + 18] = 0\n 18185: u8 [a1 + 17] = 0\n 18188: u8 [a1 + 16] = 0\n 18191: u8 [a1 + 15] = 0\n 18194: u8 [a1 + 14] = 0\n 18197: u8 [a1 + 13] = 0\n 18200: u8 [a1 + 12] = 0\n 18203: u8 [a1 + 11] = 0\n 18206: u8 [a1 + 10] = 0\n 18209: u8 [a1 + 9] = 0\n 18212: u8 [a1 + 8] = 0\n 18215: u8 [a1 + 7] = 0\n 18218: u8 [a1 + 6] = 0\n 18221: u8 [a1 + 5] = 0\n 18224: u8 [a1 + 4] = 0\n 18227: u8 [a1 + 3] = 0\n 18230: u8 [a1 + 2] = 0\n 18233: u8 [a1 + 1] = 0\n 18236: u64 [s1 + 192] = a1\n 18240: u8 [a1 + 0] = 0\n 18242: i64 sp = i64 sp - i64 8\n 18245: a4 = 0x74\n 18248: u64 [sp + 0] = 0\n 18250: a0 = u64 [s1 + 160]\n 18254: a1 = u64 [s1 + 168]\n 18258: a2 = u64 [s1 + 176]\n 18262: a3 = u64 [s1 + 184]\n 18266: a5 = 0x0\n 18268: t2 = 0x0\n 18270: ra = 242, jump @242\n      : @397 [@dyn 121] (gas: 4)\n 18276: i64 sp = i64 sp + 0x8\n 18279: a1 = 0x20\n 18282: a0 = u64 [s1 + 200]\n 18286: ra = 244, jump @0\n      : @398 [@dyn 122] (gas: 1)\n 18292: jump @400 if a0 != 0\n      : @399 (gas: 1)\n 18295: jump @454\n      : @400 (gas: 99)\n 18298: ra = u64 [s1 + 192]\n 18302: a0 = u8 [ra + 25]\n 18305: a1 = u8 [ra + 24]\n 18308: a2 = u8 [ra + 26]\n 18311: a3 = u8 [ra + 27]\n 18314: a0 = a0 <<64 8\n 18317: a0 = a0 | a1\n 18320: a2 = a2 <<64 16\n 18323: a3 = a3 <<64 24\n 18326: a2 = a2 | a3\n 18329: a0 = a0 | a2\n 18332: a1 = u8 [ra + 29]\n 18335: a2 = u8 [ra + 28]\n 18338: a3 = u8 [ra + 30]\n 18341: a4 = u8 [ra + 31]\n 18344: a1 = a1 <<64 8\n 18347: a1 = a1 | a2\n 18350: a3 = a3 <<64 16\n 18353: a4 = a4 <<64 24\n 18356: a3 = a3 | a4\n 18359: a1 = a1 | a3\n 18362: a1 = a1 <<64 32\n 18365: t0 = a1 | a0\n 18368: a1 = u8 [ra + 9]\n 18371: a2 = u8 [ra + 8]\n 18374: a3 = u8 [ra + 10]\n 18377: a4 = u8 [ra + 11]\n 18380: a1 = a1 <<64 8\n 18383: a1 = a1 | a2\n 18386: a3 = a3 <<64 16\n 18389: a4 = a4 <<64 24\n 18392: a3 = a3 | a4\n 18395: a1 = a1 | a3\n 18398: a2 = u8 [ra + 13]\n 18401: a3 = u8 [ra + 12]\n 18404: a4 = u8 [ra + 14]\n 18407: a5 = u8 [ra + 15]\n 18410: a2 = a2 <<64 8\n 18413: a2 = a2 | a3\n 18416: a4 = a4 <<64 16\n 18419: a5 = a5 <<64 24\n 18422: a4 = a4 | a5\n 18425: a2 = a2 | a4\n 18428: a2 = a2 <<64 32\n 18431: t1 = a2 | a1\n 18434: a2 = u8 [ra + 1]\n 18437: a3 = u8 [ra]\n 18439: a4 = u8 [ra + 2]\n 18442: a5 = u8 [ra + 3]\n 18445: a2 = a2 <<64 8\n 18448: a2 = a2 | a3\n 18451: a4 = a4 <<64 16\n 18454: a5 = a5 <<64 24\n 18457: a4 = a4 | a5\n 18460: t2 = a4 | a2\n 18463: a3 = u8 [ra + 17]\n 18466: a4 = u8 [ra + 16]\n 18469: a5 = u8 [ra + 18]\n 18472: a0 = u8 [ra + 19]\n 18475: a3 = a3 <<64 8\n 18478: a3 = a3 | a4\n 18481: a5 = a5 <<64 16\n 18484: a0 = a0 <<64 24\n 18487: a0 = a0 | a5\n 18490: a3 = a3 | a0\n 18493: a0 = u8 [ra + 5]\n 18496: a4 = u8 [ra + 4]\n 18499: a5 = u8 [ra + 6]\n 18502: a1 = u8 [ra + 7]\n 18505: a0 = a0 <<64 8\n 18508: a0 = a0 | a4\n 18511: a5 = a5 <<64 16\n 18514: a1 = a1 <<64 24\n 18517: a1 = a1 | a5\n 18520: a1 = a1 | a0\n 18523: a0 = u8 [ra + 21]\n 18526: a4 = u8 [ra + 20]\n 18529: a5 = u8 [ra + 22]\n 18532: a2 = u8 [ra + 23]\n 18535: a0 = a0 <<64 8\n 18538: a0 = a0 | a4\n 18541: a5 = a5 <<64 16\n 18544: a2 = a2 <<64 24\n 18547: a2 = a2 | a5\n 18550: a2 = a2 | a0\n 18553: a4 = reverse t1\n 18555: a0 = reverse t0\n 18557: a5 = a0 | a4\n 18560: a1 = a1 | a2\n 18563: a1 = a1 <<64 32\n 18566: a2 = a3 | t2\n 18569: a1 = a1 | a2\n 18572: a1 = reverse a1\n 18574: a5 = a5 | a1\n 18577: a5 = a5 >>64 32\n 18580: a1 = a1 | a4\n 18583: a1 = a1 <<64 32\n 18586: a1 = a1 | a5\n 18589: jump @402 if a1 == 0\n      : @401 (gas: 1)\n 18592: jump @454\n      : @402 (gas: 4)\n 18595: a1 = a0 + 0x0\n 18597: a0 = u64 [s1 + 208]\n 18601: u64 [s1 + 208] = a1\n 18605: ra = 246, jump @0\n      : @403 [@dyn 123] (gas: 1)\n 18611: jump @405 if a0 != 0\n      : @404 (gas: 1)\n 18614: jump @454\n      : @405 (gas: 47)\n 18617: i64 a0 = i64 sp - i64 32\n 18620: a2 = a0 & 0xffffffe0\n 18623: u64 [s1 + 200] = a2\n 18627: sp = a2\n 18629: a0 = i32 [s1 + 120]\n 18632: a2 = a2 + 0x0\n 18634: a1 = u64 [s1 + 208]\n 18638: ecalli 3 // 'hash_keccak_256'\n 18640: a1 = u64 [s1 + 200]\n 18644: a0 = u64 [a1 + 24]\n 18647: u64 [s1 + 112] = a0\n 18650: a0 = u64 [a1 + 16]\n 18653: u64 [s1 + 104] = a0\n 18656: a0 = u64 [a1 + 8]\n 18659: u64 [s1 + 96] = a0\n 18662: a0 = u64 [a1]\n 18664: u64 [s1 + 88] = a0\n 18667: a0 = s1 + 0x200\n 18671: ecalli 1 // 'caller'\n 18673: a0 = i32 [s1 + 528]\n 18677: u64 [s1 + 168] = a0\n 18681: a0 = u64 [s1 + 512]\n 18685: u64 [s1 + 160] = a0\n 18689: a0 = u64 [s1 + 520]\n 18693: u64 [s1 + 152] = a0\n 18697: i64 a0 = i64 sp - i64 32\n 18700: a0 = a0 & 0xffffffe0\n 18703: u64 [s1 + 208] = a0\n 18707: sp = a0\n 18709: u64 [a0 + 24] = 0\n 18712: u64 [a0 + 16] = 0\n 18715: u64 [a0 + 8] = 0\n 18718: u64 [a0 + 0] = 0\n 18720: a0 = a0 + 0x0\n 18722: ecalli 11 // 'value_transferred'\n 18724: a1 = u64 [s1 + 208]\n 18728: a0 = u64 [a1 + 24]\n 18731: u64 [s1 + 144] = a0\n 18735: a0 = u64 [a1 + 16]\n 18738: u64 [s1 + 136] = a0\n 18742: a0 = u64 [a1 + 8]\n 18745: u64 [s1 + 128] = a0\n 18749: a0 = u64 [a1]\n 18751: u64 [s1 + 120] = a0\n 18754: a0 = 0x40\n 18757: a1 = 0x20\n 18760: ra = 248, jump @0\n      : @406 [@dyn 124] (gas: 1)\n 18766: jump @408 if a0 != 0\n      : @407 (gas: 1)\n 18769: jump @454\n      : @408 (gas: 19)\n 18772: a3 = u64 [s1 + 216]\n 18776: a0 = u64 [a3 + 64]\n 18779: a1 = u64 [a3 + 72]\n 18782: a5 = u64 [a3 + 80]\n 18785: a4 = u64 [a3 + 88]\n 18788: a3 = reverse a0\n 18790: u64 [s1 + 192] = a3\n 18794: a2 = reverse a1\n 18796: u64 [s1 + 184] = a2\n 18800: a1 = reverse a5\n 18802: u64 [s1 + 208] = a1\n 18806: a0 = reverse a4\n 18808: u64 [s1 + 200] = a0\n 18812: i64 sp = i64 sp - i64 8\n 18815: a4 = 0x80\n 18819: u64 [sp + 0] = 0\n 18821: a5 = 0x0\n 18823: t2 = 0x0\n 18825: ra = 250, jump @242\n      : @409 [@dyn 125] (gas: 13)\n 18831: a2 = u64 [s1 + 200]\n 18835: i64 sp = i64 sp + 0x8\n 18838: a1 = u64 [s1 + 208]\n 18842: a0 = u64 [s1 + 192]\n 18846: a0 = a0 | a1\n 18849: a3 = u64 [s1 + 184]\n 18853: a1 = a2 | a3\n 18856: a1 = a1 | a0\n 18859: a1 = a1 >>64 32\n 18862: a0 = a0 | a3\n 18865: a0 = a0 <<64 32\n 18868: a0 = a0 | a1\n 18871: jump @411 if a0 == 0\n      : @410 (gas: 1)\n 18874: jump @454\n      : @411 (gas: 4)\n 18877: a0 = a2 + 0x0\n 18879: a1 = 0x20\n 18882: u64 [s1 + 176] = a0\n 18886: ra = 252, jump @0\n      : @412 [@dyn 126] (gas: 1)\n 18892: jump @414 if a0 != 0\n      : @413 (gas: 1)\n 18895: jump @454\n      : @414 (gas: 87)\n 18898: a0 = u64 [s1 + 152]\n 18902: a2 = reverse a0\n 18904: a1 = a2 >>64 32\n 18907: a0 = u64 [s1 + 160]\n 18911: a0 = reverse a0\n 18913: a3 = a0 <<64 32\n 18916: a1 = a1 | a3\n 18919: a2 = a2 <<64 32\n 18922: a3 = u64 [s1 + 168]\n 18926: a3 = reverse a3\n 18928: a3 = a3 >>64 32\n 18931: a2 = a2 | a3\n 18934: a3 = u64 [s1 + 216]\n 18938: t0 = u64 [s1 + 176]\n 18942: i64 a4 = a3 + t0\n 18945: a2 = reverse a2\n 18947: a3 = a2 >>64 56\n 18950: u8 [a4 + 31] = a3\n 18953: a3 = a2 >>64 48\n 18956: u8 [a4 + 30] = a3\n 18959: a3 = a2 >>64 40\n 18962: u8 [a4 + 29] = a3\n 18965: a3 = a2 >>64 32\n 18968: u8 [a4 + 28] = a3\n 18971: a3 = a2 >>64 24\n 18974: u8 [a4 + 27] = a3\n 18977: a3 = a2 >>64 16\n 18980: u8 [a4 + 26] = a3\n 18983: a1 = reverse a1\n 18985: u8 [a4 + 24] = a2\n 18988: a2 = a2 >>64 8\n 18991: u8 [a4 + 25] = a2\n 18994: a2 = a1 >>64 56\n 18997: u8 [a4 + 23] = a2\n 19000: a2 = a1 >>64 48\n 19003: u8 [a4 + 22] = a2\n 19006: a2 = a1 >>64 40\n 19009: u8 [a4 + 21] = a2\n 19012: a2 = a1 >>64 32\n 19015: u8 [a4 + 20] = a2\n 19018: a2 = a1 >>64 24\n 19021: u8 [a4 + 19] = a2\n 19024: a2 = a1 >>64 16\n 19027: u8 [a4 + 18] = a2\n 19030: a0 = a0 >>64 32\n 19033: a0 = reverse a0\n 19035: u8 [a4 + 11] = 0\n 19038: u8 [a4 + 10] = 0\n 19041: u8 [a4 + 9] = 0\n 19044: u8 [a4 + 7] = 0\n 19047: u8 [a4 + 6] = 0\n 19050: u8 [a4 + 5] = 0\n 19053: u8 [a4 + 4] = 0\n 19056: u8 [a4 + 3] = 0\n 19059: u8 [a4 + 2] = 0\n 19062: u8 [a4 + 1] = 0\n 19065: u8 [a4 + 16] = a1\n 19068: a1 = a1 >>64 8\n 19071: u8 [a4 + 17] = a1\n 19074: u8 [a4 + 8] = a0\n 19077: a1 = a0 >>64 56\n 19080: u8 [a4 + 15] = a1\n 19083: a1 = a0 >>64 48\n 19086: u8 [a4 + 14] = a1\n 19089: a1 = a0 >>64 40\n 19092: u8 [a4 + 13] = a1\n 19095: a0 = a0 >>64 32\n 19098: u8 [a4 + 12] = a0\n 19101: a3 = u64 [s1 + 184]\n 19105: a0 = a3 >u 0x0\n 19107: a1 = u64 [s1 + 192]\n 19111: a2 = a1 >u 0x0\n 19113: a2 = a0 if a1 == 0\n 19116: a0 = 0xffffffdf\n 19126: a5 = u64 [s1 + 200]\n 19130: a0 = a0 <u a5\n 19133: a3 = a3 | a1\n 19136: a1 = u64 [s1 + 208]\n 19140: a5 = a1 >u 0x0\n 19142: u64 [s1 + 168] = a5\n 19146: a0 = a5 if a1 != 0\n 19149: u64 [s1 + 192] = a2\n 19153: u64 [s1 + 184] = a3\n 19157: a0 = a2 if a3 != 0\n 19160: u64 [s1 + 80] = a4\n 19163: u8 [a4 + 0] = 0\n 19165: jump @454 if a0 != 0\n      : @415 (gas: 4)\n 19169: a0 = t0 + 0x20\n 19172: a1 = 0x20\n 19175: u64 [s1 + 160] = a0\n 19179: ra = 254, jump @0\n      : @416 [@dyn 127] (gas: 1)\n 19185: jump @454 if a0 == 0\n      : @417 (gas: 82)\n 19189: a0 = u64 [s1 + 216]\n 19193: a2 = u64 [s1 + 160]\n 19197: i64 a2 = a2 + a0\n 19200: a0 = u64 [s1 + 120]\n 19203: a0 = reverse a0\n 19205: a1 = a0 >>64 56\n 19208: u8 [a2 + 31] = a1\n 19211: a1 = a0 >>64 48\n 19214: u8 [a2 + 30] = a1\n 19217: a1 = a0 >>64 40\n 19220: u8 [a2 + 29] = a1\n 19223: a1 = a0 >>64 32\n 19226: u8 [a2 + 28] = a1\n 19229: a1 = a0 >>64 24\n 19232: u8 [a2 + 27] = a1\n 19235: a1 = a0 >>64 16\n 19238: u8 [a2 + 26] = a1\n 19241: a1 = u64 [s1 + 128]\n 19245: a1 = reverse a1\n 19247: u8 [a2 + 24] = a0\n 19250: a0 = a0 >>64 8\n 19253: u8 [a2 + 25] = a0\n 19256: a0 = a1 >>64 56\n 19259: u8 [a2 + 23] = a0\n 19262: a0 = a1 >>64 48\n 19265: u8 [a2 + 22] = a0\n 19268: a0 = a1 >>64 40\n 19271: u8 [a2 + 21] = a0\n 19274: a0 = a1 >>64 32\n 19277: u8 [a2 + 20] = a0\n 19280: a0 = a1 >>64 24\n 19283: u8 [a2 + 19] = a0\n 19286: a0 = a1 >>64 16\n 19289: u8 [a2 + 18] = a0\n 19292: a0 = u64 [s1 + 136]\n 19296: a0 = reverse a0\n 19298: u8 [a2 + 16] = a1\n 19301: a1 = a1 >>64 8\n 19304: u8 [a2 + 17] = a1\n 19307: a1 = a0 >>64 56\n 19310: u8 [a2 + 15] = a1\n 19313: a1 = a0 >>64 48\n 19316: u8 [a2 + 14] = a1\n 19319: a1 = a0 >>64 40\n 19322: u8 [a2 + 13] = a1\n 19325: a1 = a0 >>64 32\n 19328: u8 [a2 + 12] = a1\n 19331: a1 = a0 >>64 24\n 19334: u8 [a2 + 11] = a1\n 19337: a1 = a0 >>64 16\n 19340: u8 [a2 + 10] = a1\n 19343: a1 = u64 [s1 + 144]\n 19347: a1 = reverse a1\n 19349: u8 [a2 + 8] = a0\n 19352: a0 = a0 >>64 8\n 19355: u8 [a2 + 9] = a0\n 19358: u8 [a2] = a1\n 19360: a0 = a1 >>64 56\n 19363: u8 [a2 + 7] = a0\n 19366: a0 = a1 >>64 48\n 19369: u8 [a2 + 6] = a0\n 19372: a0 = a1 >>64 40\n 19375: u8 [a2 + 5] = a0\n 19378: a0 = a1 >>64 32\n 19381: u8 [a2 + 4] = a0\n 19384: a0 = a1 >>64 24\n 19387: u8 [a2 + 3] = a0\n 19390: a0 = a1 >>64 16\n 19393: u8 [a2 + 2] = a0\n 19396: a1 = a1 >>64 8\n 19399: a0 = 0xffffffbf\n 19409: a3 = u64 [s1 + 200]\n 19413: a0 = a0 <u a3\n 19416: a3 = u64 [s1 + 208]\n 19420: a4 = u64 [s1 + 168]\n 19424: a0 = a4 if a3 != 0\n 19427: a3 = u64 [s1 + 192]\n 19431: a4 = u64 [s1 + 184]\n 19435: a0 = a3 if a4 != 0\n 19438: u64 [s1 + 72] = a2\n 19441: u8 [a2 + 1] = a1\n 19444: jump @454 if a0 != 0\n      : @418 (gas: 5)\n 19448: a0 = u64 [s1 + 176]\n 19452: a0 = a0 + 0x40\n 19455: a1 = 0x20\n 19458: u64 [s1 + 152] = a0\n 19462: ra = 256, jump @0\n      : @419 [@dyn 128] (gas: 1)\n 19468: jump @454 if a0 == 0\n      : @420 (gas: 82)\n 19472: a0 = 0xffffff9f\n 19482: a1 = u64 [s1 + 200]\n 19486: a0 = a0 <u a1\n 19489: a1 = u64 [s1 + 208]\n 19493: a2 = u64 [s1 + 168]\n 19497: a0 = a2 if a1 != 0\n 19500: a1 = u64 [s1 + 192]\n 19504: a2 = u64 [s1 + 184]\n 19508: a0 = a1 if a2 != 0\n 19511: a1 = u64 [s1 + 216]\n 19515: a3 = u64 [s1 + 152]\n 19519: i64 a3 = a3 + a1\n 19522: a1 = u64 [s1 + 24]\n 19525: a1 = reverse a1\n 19527: a2 = a1 >>64 56\n 19530: u8 [a3 + 31] = a2\n 19533: a2 = a1 >>64 48\n 19536: u8 [a3 + 30] = a2\n 19539: a2 = a1 >>64 40\n 19542: u8 [a3 + 29] = a2\n 19545: a2 = a1 >>64 32\n 19548: u8 [a3 + 28] = a2\n 19551: a2 = a1 >>64 24\n 19554: u8 [a3 + 27] = a2\n 19557: a2 = a1 >>64 16\n 19560: u8 [a3 + 26] = a2\n 19563: a2 = u64 [s1 + 32]\n 19566: a2 = reverse a2\n 19568: u8 [a3 + 24] = a1\n 19571: a1 = a1 >>64 8\n 19574: u8 [a3 + 25] = a1\n 19577: a1 = a2 >>64 56\n 19580: u8 [a3 + 23] = a1\n 19583: a1 = a2 >>64 48\n 19586: u8 [a3 + 22] = a1\n 19589: a1 = a2 >>64 40\n 19592: u8 [a3 + 21] = a1\n 19595: a1 = a2 >>64 32\n 19598: u8 [a3 + 20] = a1\n 19601: a1 = a2 >>64 24\n 19604: u8 [a3 + 19] = a1\n 19607: a1 = a2 >>64 16\n 19610: u8 [a3 + 18] = a1\n 19613: a1 = u64 [s1 + 40]\n 19616: a1 = reverse a1\n 19618: u8 [a3 + 16] = a2\n 19621: a2 = a2 >>64 8\n 19624: u8 [a3 + 17] = a2\n 19627: a2 = a1 >>64 56\n 19630: u8 [a3 + 15] = a2\n 19633: a2 = a1 >>64 48\n 19636: u8 [a3 + 14] = a2\n 19639: a2 = a1 >>64 40\n 19642: u8 [a3 + 13] = a2\n 19645: a2 = a1 >>64 32\n 19648: u8 [a3 + 12] = a2\n 19651: a2 = a1 >>64 24\n 19654: u8 [a3 + 11] = a2\n 19657: a2 = a1 >>64 16\n 19660: u8 [a3 + 10] = a2\n 19663: a2 = u64 [s1 + 48]\n 19666: a2 = reverse a2\n 19668: u8 [a3 + 8] = a1\n 19671: a1 = a1 >>64 8\n 19674: u8 [a3 + 9] = a1\n 19677: a1 = a2 >>64 56\n 19680: u8 [a3 + 7] = a1\n 19683: a1 = a2 >>64 48\n 19686: u8 [a3 + 6] = a1\n 19689: a1 = a2 >>64 40\n 19692: u8 [a3 + 5] = a1\n 19695: a1 = a2 >>64 32\n 19698: u8 [a3 + 4] = a1\n 19701: a1 = a2 >>64 24\n 19704: u8 [a3 + 3] = a1\n 19707: a1 = a2 >>64 16\n 19710: u8 [a3 + 2] = a1\n 19713: u8 [a3] = a2\n 19715: a2 = a2 >>64 8\n 19718: u64 [s1 + 64] = a3\n 19721: u8 [a3 + 1] = a2\n 19724: jump @454 if a0 != 0\n      : @421 (gas: 5)\n 19728: a0 = u64 [s1 + 176]\n 19732: a0 = a0 + 0x60\n 19735: a1 = 0x20\n 19738: u64 [s1 + 168] = a0\n 19742: ra = 258, jump @0\n      : @422 [@dyn 129] (gas: 1)\n 19748: jump @454 if a0 == 0\n      : @423 (gas: 54)\n 19752: a0 = u64 [s1 + 88]\n 19755: a2 = reverse a0\n 19757: a0 = u64 [s1 + 96]\n 19760: a1 = reverse a0\n 19762: a0 = u64 [s1 + 104]\n 19765: t2 = reverse a0\n 19767: a0 = u64 [s1 + 112]\n 19770: a5 = reverse a0\n 19772: a0 = u64 [s1 + 216]\n 19776: a3 = u64 [s1 + 168]\n 19780: i64 a0 = a0 + a3\n 19783: u8 [a0 + 31] = 0\n 19786: u8 [a0 + 30] = 0\n 19789: u8 [a0 + 29] = 0\n 19792: u8 [a0 + 28] = 0\n 19795: u8 [a0 + 27] = 0\n 19798: u8 [a0 + 26] = 0\n 19801: u8 [a0 + 25] = 0\n 19804: u8 [a0 + 24] = 0\n 19807: u8 [a0 + 23] = 0\n 19810: u8 [a0 + 22] = 0\n 19813: u8 [a0 + 21] = 0\n 19816: u8 [a0 + 20] = 0\n 19819: u8 [a0 + 19] = 0\n 19822: u8 [a0 + 18] = 0\n 19825: u8 [a0 + 17] = 0\n 19828: u8 [a0 + 16] = 0\n 19831: u8 [a0 + 15] = 0\n 19834: u8 [a0 + 14] = 0\n 19837: u8 [a0 + 13] = 0\n 19840: u8 [a0 + 12] = 0\n 19843: u8 [a0 + 11] = 0\n 19846: u8 [a0 + 10] = 0\n 19849: u8 [a0 + 9] = 0\n 19852: u8 [a0 + 8] = 0\n 19855: u8 [a0 + 7] = 0\n 19858: u8 [a0 + 6] = 0\n 19861: u8 [a0 + 5] = 0\n 19864: u8 [a0 + 4] = 0\n 19867: u8 [a0 + 3] = 0\n 19870: u8 [a0 + 2] = 0\n 19873: u8 [a0 + 1] = 0\n 19876: u64 [s1 + 96] = a0\n 19879: u8 [a0 + 0] = 0\n 19881: i64 sp = i64 sp - i64 16\n 19884: u64 [s1 + 120] = a2\n 19887: u64 [sp + 8] = a2\n 19890: i64 a0 = i64 s1 + 0x140\n 19894: u64 [s1 + 128] = a1\n 19898: u64 [sp] = a1\n 19900: a4 = 0x0\n 19902: u64 [s1 + 144] = a5\n 19906: u64 [s1 + 136] = t2\n 19910: ra = 260, jump @231\n      : @424 [@dyn 130] (gas: 12)\n 19916: i64 sp = i64 sp + 0x10\n 19919: a0 = u64 [s1 + 344]\n 19923: u64 [s1 + 208] = a0\n 19927: a0 = u64 [s1 + 336]\n 19931: u64 [s1 + 200] = a0\n 19935: a0 = u64 [s1 + 328]\n 19939: u64 [s1 + 192] = a0\n 19943: a0 = u64 [s1 + 320]\n 19947: u64 [s1 + 184] = a0\n 19951: a1 = 0x20\n 19954: a0 = u64 [s1 + 176]\n 19958: ra = 262, jump @0\n      : @425 [@dyn 131] (gas: 1)\n 19964: jump @454 if a0 == 0\n      : @426 (gas: 112)\n 19968: t0 = u64 [s1 + 80]\n 19971: a0 = u8 [t0 + 17]\n 19974: a1 = u8 [t0 + 16]\n 19977: a2 = u8 [t0 + 18]\n 19980: a3 = u8 [t0 + 19]\n 19983: a0 = a0 <<64 8\n 19986: a0 = a0 | a1\n 19989: a2 = a2 <<64 16\n 19992: a3 = a3 <<64 24\n 19995: a2 = a2 | a3\n 19998: a0 = a0 | a2\n 20001: a1 = u8 [t0 + 21]\n 20004: a2 = u8 [t0 + 20]\n 20007: a3 = u8 [t0 + 22]\n 20010: a4 = u8 [t0 + 23]\n 20013: a1 = a1 <<64 8\n 20016: a1 = a1 | a2\n 20019: a3 = a3 <<64 16\n 20022: a4 = a4 <<64 24\n 20025: a3 = a3 | a4\n 20028: a1 = a1 | a3\n 20031: a1 = a1 <<64 32\n 20034: a0 = a0 | a1\n 20037: a1 = u8 [t0 + 25]\n 20040: a2 = u8 [t0 + 24]\n 20043: a3 = u8 [t0 + 26]\n 20046: a4 = u8 [t0 + 27]\n 20049: a1 = a1 <<64 8\n 20052: a1 = a1 | a2\n 20055: a3 = a3 <<64 16\n 20058: a4 = a4 <<64 24\n 20061: a3 = a3 | a4\n 20064: a1 = a1 | a3\n 20067: a2 = u8 [t0 + 29]\n 20070: a3 = u8 [t0 + 28]\n 20073: a4 = u8 [t0 + 30]\n 20076: a5 = u8 [t0 + 31]\n 20079: a2 = a2 <<64 8\n 20082: a2 = a2 | a3\n 20085: a4 = a4 <<64 16\n 20088: a5 = a5 <<64 24\n 20091: a4 = a4 | a5\n 20094: a2 = a2 | a4\n 20097: a2 = a2 <<64 32\n 20100: a1 = a1 | a2\n 20103: a2 = u8 [t0 + 13]\n 20106: a3 = u8 [t0 + 12]\n 20109: a4 = u8 [t0 + 14]\n 20112: a5 = u8 [t0 + 15]\n 20115: a2 = a2 <<64 8\n 20118: a2 = a2 | a3\n 20121: a4 = a4 <<64 16\n 20124: a5 = a5 <<64 24\n 20127: a4 = a4 | a5\n 20130: a2 = a2 | a4\n 20133: a1 = reverse a1\n 20135: u64 [s1 + 176] = a1\n 20139: a0 = reverse a0\n 20141: u64 [s1 + 112] = a0\n 20144: a0 = reverse a2\n 20146: a0 = a0 >>64 32\n 20149: u64 [s1 + 104] = a0\n 20152: a0 = u64 [s1 + 208]\n 20156: u64 [s1 + 728] = a0\n 20160: a0 = u64 [s1 + 200]\n 20164: u64 [s1 + 720] = a0\n 20168: a0 = u64 [s1 + 192]\n 20172: u64 [s1 + 712] = a0\n 20176: a0 = u64 [s1 + 184]\n 20180: u64 [s1 + 704] = a0\n 20184: u64 [s1 + 696] = 0\n 20188: u64 [s1 + 688] = 0\n 20192: u64 [s1 + 680] = 0\n 20196: u64 [s1 + 672] = 0\n 20200: u64 [s1 + 656] = 0\n 20204: u64 [s1 + 664] = 0\n 20208: u64 [s1 + 648] = 0\n 20212: u64 [s1 + 640] = 256\n 20218: a1 = s1 + 0x2c0\n 20222: a3 = s1 + 0x2a0\n 20226: a4 = s1 + 0x280\n 20230: a2 = 0xffffffff\n 20233: a0 = 0x0\n 20235: ecalli 2 // 'get_storage'\n 20237: a0 = u32 [s1 + 692]\n 20241: a0 = a0 <<64 32\n 20244: a1 = u64 [s1 + 696]\n 20248: a2 = u64 [s1 + 104]\n 20251: a0 = a0 | a2\n 20254: a2 = u64 [s1 + 208]\n 20258: u64 [s1 + 760] = a2\n 20262: a2 = u64 [s1 + 200]\n 20266: u64 [s1 + 752] = a2\n 20270: a2 = u64 [s1 + 192]\n 20274: u64 [s1 + 744] = a2\n 20278: a2 = u64 [s1 + 184]\n 20282: u64 [s1 + 736] = a2\n 20286: a2 = u64 [s1 + 112]\n 20289: u64 [s1 + 616] = a2\n 20293: a2 = u64 [s1 + 176]\n 20297: u64 [s1 + 608] = a2\n 20301: u64 [s1 + 632] = a1\n 20305: u64 [s1 + 624] = a0\n 20309: a1 = s1 + 0x2e0\n 20313: a3 = s1 + 0x260\n 20317: a2 = 0xffffffff\n 20320: a4 = 0x20\n 20323: a0 = 0x0\n 20325: ecalli 10 // 'set_storage'\n 20327: a1 = 0x20\n 20330: a0 = u64 [s1 + 160]\n 20334: ra = 264, jump @0\n      : @427 [@dyn 132] (gas: 1)\n 20340: jump @454 if a0 == 0\n      : @428 (gas: 156)\n 20344: t2 = u64 [s1 + 72]\n 20347: a0 = u8 [t2 + 1]\n 20350: a1 = u8 [t2]\n 20352: a2 = u8 [t2 + 2]\n 20355: a3 = u8 [t2 + 3]\n 20358: a0 = a0 <<64 8\n 20361: a0 = a0 | a1\n 20364: a2 = a2 <<64 16\n 20367: a3 = a3 <<64 24\n 20370: a2 = a2 | a3\n 20373: a0 = a0 | a2\n 20376: a1 = u8 [t2 + 5]\n 20379: a2 = u8 [t2 + 4]\n 20382: a3 = u8 [t2 + 6]\n 20385: a4 = u8 [t2 + 7]\n 20388: a1 = a1 <<64 8\n 20391: a1 = a1 | a2\n 20394: a3 = a3 <<64 16\n 20397: a4 = a4 <<64 24\n 20400: a3 = a3 | a4\n 20403: a1 = a1 | a3\n 20406: a1 = a1 <<64 32\n 20409: t0 = a1 | a0\n 20412: a1 = u8 [t2 + 9]\n 20415: a2 = u8 [t2 + 8]\n 20418: a3 = u8 [t2 + 10]\n 20421: a4 = u8 [t2 + 11]\n 20424: a1 = a1 <<64 8\n 20427: a1 = a1 | a2\n 20430: a3 = a3 <<64 16\n 20433: a4 = a4 <<64 24\n 20436: a3 = a3 | a4\n 20439: a1 = a1 | a3\n 20442: a2 = u8 [t2 + 13]\n 20445: a3 = u8 [t2 + 12]\n 20448: a4 = u8 [t2 + 14]\n 20451: a5 = u8 [t2 + 15]\n 20454: a2 = a2 <<64 8\n 20457: a2 = a2 | a3\n 20460: a4 = a4 <<64 16\n 20463: a5 = a5 <<64 24\n 20466: a4 = a4 | a5\n 20469: a2 = a2 | a4\n 20472: a2 = a2 <<64 32\n 20475: t1 = a2 | a1\n 20478: a2 = u8 [t2 + 17]\n 20481: a3 = u8 [t2 + 16]\n 20484: a4 = u8 [t2 + 18]\n 20487: a5 = u8 [t2 + 19]\n 20490: a2 = a2 <<64 8\n 20493: a2 = a2 | a3\n 20496: a4 = a4 <<64 16\n 20499: a5 = a5 <<64 24\n 20502: a4 = a4 | a5\n 20505: a2 = a2 | a4\n 20508: a3 = u8 [t2 + 21]\n 20511: a4 = u8 [t2 + 20]\n 20514: a5 = u8 [t2 + 22]\n 20517: a0 = u8 [t2 + 23]\n 20520: a3 = a3 <<64 8\n 20523: a3 = a3 | a4\n 20526: a5 = a5 <<64 16\n 20529: a0 = a0 <<64 24\n 20532: a0 = a0 | a5\n 20535: a0 = a0 | a3\n 20538: a0 = a0 <<64 32\n 20541: ra = a0 | a2\n 20544: a0 = u8 [t2 + 25]\n 20547: a3 = u8 [t2 + 24]\n 20550: a4 = u8 [t2 + 26]\n 20553: a5 = u8 [t2 + 27]\n 20556: a0 = a0 <<64 8\n 20559: a0 = a0 | a3\n 20562: a4 = a4 <<64 16\n 20565: a5 = a5 <<64 24\n 20568: a4 = a4 | a5\n 20571: a0 = a0 | a4\n 20574: a3 = u8 [t2 + 29]\n 20577: a4 = u8 [t2 + 28]\n 20580: a5 = u8 [t2 + 30]\n 20583: a1 = u8 [t2 + 31]\n 20586: a3 = a3 <<64 8\n 20589: a3 = a3 | a4\n 20592: a5 = a5 <<64 16\n 20595: a1 = a1 <<64 24\n 20598: a1 = a1 | a5\n 20601: a4 = u64 [s1 + 184]\n 20605: i64 a5 = i64 a4 + 0x1\n 20608: a1 = a1 | a3\n 20611: a3 = a5 <u 0x1\n 20614: a4 = u64 [s1 + 192]\n 20618: i64 a4 = a4 + a3\n 20621: a1 = a1 <<64 32\n 20624: a3 = a1 | a0\n 20627: a0 = a5 | a4\n 20630: u64 [s1 + 80] = a4\n 20633: u64 [s1 + 88] = a5\n 20636: a0 = a0 <u 0x1\n 20639: a1 = u64 [s1 + 200]\n 20643: i64 a2 = a1 + a0\n 20646: u64 [s1 + 72] = a2\n 20649: u64 [s1 + 640] = 256\n 20655: a0 = a2 <u a1\n 20658: a1 = u64 [s1 + 208]\n 20662: i64 a1 = a1 + a0\n 20665: u64 [s1 + 56] = a1\n 20668: a0 = reverse a3\n 20670: u64 [s1 + 176] = a0\n 20674: a0 = reverse ra\n 20676: u64 [s1 + 160] = a0\n 20680: a0 = reverse t1\n 20682: u64 [s1 + 112] = a0\n 20685: a0 = reverse t0\n 20687: u64 [s1 + 104] = a0\n 20690: u64 [s1 + 712] = a4\n 20694: u64 [s1 + 704] = a5\n 20698: u64 [s1 + 720] = a2\n 20702: u64 [s1 + 728] = a1\n 20706: u64 [s1 + 696] = 0\n 20710: u64 [s1 + 688] = 0\n 20714: u64 [s1 + 680] = 0\n 20718: u64 [s1 + 672] = 0\n 20722: u64 [s1 + 656] = 0\n 20726: u64 [s1 + 664] = 0\n 20730: u64 [s1 + 648] = 0\n 20734: a1 = s1 + 0x2c0\n 20738: a3 = s1 + 0x2a0\n 20742: a4 = s1 + 0x280\n 20746: a2 = 0xffffffff\n 20749: a0 = 0x0\n 20751: ecalli 2 // 'get_storage'\n 20753: a0 = u64 [s1 + 56]\n 20756: u64 [s1 + 760] = a0\n 20760: a0 = u64 [s1 + 72]\n 20763: u64 [s1 + 752] = a0\n 20767: a0 = u64 [s1 + 80]\n 20770: u64 [s1 + 744] = a0\n 20774: a0 = u64 [s1 + 88]\n 20777: u64 [s1 + 736] = a0\n 20781: a0 = u64 [s1 + 104]\n 20784: u64 [s1 + 632] = a0\n 20788: a0 = u64 [s1 + 112]\n 20791: u64 [s1 + 624] = a0\n 20795: a0 = u64 [s1 + 160]\n 20799: u64 [s1 + 616] = a0\n 20803: a0 = u64 [s1 + 176]\n 20807: u64 [s1 + 608] = a0\n 20811: a1 = s1 + 0x2e0\n 20815: a3 = s1 + 0x260\n 20819: a2 = 0xffffffff\n 20822: a4 = 0x20\n 20825: a0 = 0x0\n 20827: ecalli 10 // 'set_storage'\n 20829: a1 = 0x20\n 20832: a0 = u64 [s1 + 152]\n 20836: ra = 266, jump @0\n      : @429 [@dyn 133] (gas: 1)\n 20842: jump @454 if a0 == 0\n      : @430 (gas: 159)\n 20846: a0 = u64 [s1 + 184]\n 20850: i64 a2 = i64 a0 + 0x2\n 20853: a1 = a2 <u a0\n 20856: ra = a2\n 20858: u64 [s1 + 104] = a2\n 20861: a0 = u64 [s1 + 192]\n 20865: i64 t0 = a0 + a1\n 20868: t2 = t0 <u a0\n 20871: u64 [s1 + 88] = t0\n 20874: t2 = a1 if a1 == 0\n 20877: a0 = u64 [s1 + 64]\n 20880: a1 = u8 [a0 + 1]\n 20883: a2 = u8 [a0]\n 20885: a3 = u8 [a0 + 2]\n 20888: a4 = u8 [a0 + 3]\n 20891: a1 = a1 <<64 8\n 20894: a1 = a1 | a2\n 20897: a3 = a3 <<64 16\n 20900: a4 = a4 <<64 24\n 20903: a3 = a3 | a4\n 20906: a1 = a1 | a3\n 20909: a2 = u8 [a0 + 5]\n 20912: a3 = u8 [a0 + 4]\n 20915: a4 = u8 [a0 + 6]\n 20918: a5 = u8 [a0 + 7]\n 20921: a2 = a2 <<64 8\n 20924: a2 = a2 | a3\n 20927: a4 = a4 <<64 16\n 20930: a5 = a5 <<64 24\n 20933: a4 = a4 | a5\n 20936: a2 = a2 | a4\n 20939: a2 = a2 <<64 32\n 20942: a1 = a1 | a2\n 20945: u64 [s1 + 176] = a1\n 20949: a2 = u8 [a0 + 9]\n 20952: a3 = u8 [a0 + 8]\n 20955: a4 = u8 [a0 + 10]\n 20958: a5 = u8 [a0 + 11]\n 20961: a2 = a2 <<64 8\n 20964: a2 = a2 | a3\n 20967: a4 = a4 <<64 16\n 20970: a5 = a5 <<64 24\n 20973: a4 = a4 | a5\n 20976: a2 = a2 | a4\n 20979: a3 = u8 [a0 + 13]\n 20982: a4 = u8 [a0 + 12]\n 20985: a5 = u8 [a0 + 14]\n 20988: a1 = u8 [a0 + 15]\n 20991: a3 = a3 <<64 8\n 20994: a3 = a3 | a4\n 20997: a5 = a5 <<64 16\n 21000: a1 = a1 <<64 24\n 21003: a1 = a1 | a5\n 21006: a1 = a1 | a3\n 21009: a1 = a1 <<64 32\n 21012: t1 = a1 | a2\n 21015: a1 = u8 [a0 + 17]\n 21018: a3 = u8 [a0 + 16]\n 21021: a4 = u8 [a0 + 18]\n 21024: a5 = u8 [a0 + 19]\n 21027: a1 = a1 <<64 8\n 21030: a1 = a1 | a3\n 21033: a4 = a4 <<64 16\n 21036: a5 = a5 <<64 24\n 21039: a4 = a4 | a5\n 21042: a1 = a1 | a4\n 21045: a3 = u8 [a0 + 21]\n 21048: a4 = u8 [a0 + 20]\n 21051: a5 = u8 [a0 + 22]\n 21054: a2 = u8 [a0 + 23]\n 21057: a3 = a3 <<64 8\n 21060: a3 = a3 | a4\n 21063: a5 = a5 <<64 16\n 21066: a2 = a2 <<64 24\n 21069: a2 = a2 | a5\n 21072: a2 = a2 | a3\n 21075: a2 = a2 <<64 32\n 21078: a3 = a2 | a1\n 21081: a1 = u8 [a0 + 25]\n 21084: a2 = u8 [a0 + 24]\n 21087: a4 = u8 [a0 + 26]\n 21090: a5 = u8 [a0 + 27]\n 21093: a1 = a1 <<64 8\n 21096: a1 = a1 | a2\n 21099: a4 = a4 <<64 16\n 21102: a5 = a5 <<64 24\n 21105: a4 = a4 | a5\n 21108: a1 = a1 | a4\n 21111: a2 = u8 [a0 + 29]\n 21114: a4 = u8 [a0 + 28]\n 21117: a5 = u8 [a0 + 30]\n 21120: a0 = u8 [a0 + 31]\n 21123: a2 = a2 <<64 8\n 21126: a2 = a2 | a4\n 21129: a5 = a5 <<64 16\n 21132: a0 = a0 <<64 24\n 21135: a0 = a0 | a5\n 21138: a4 = u64 [s1 + 200]\n 21142: i64 t2 = t2 + a4\n 21145: u64 [s1 + 80] = t2\n 21148: a0 = a0 | a2\n 21151: a2 = t2 <u a4\n 21154: a4 = u64 [s1 + 208]\n 21158: i64 a2 = a2 + a4\n 21161: u64 [s1 + 72] = a2\n 21164: a0 = a0 <<64 32\n 21167: a0 = a0 | a1\n 21170: a0 = reverse a0\n 21172: u64 [s1 + 160] = a0\n 21176: a0 = reverse a3\n 21178: u64 [s1 + 152] = a0\n 21182: a0 = reverse t1\n 21184: u64 [s1 + 112] = a0\n 21187: a0 = u64 [s1 + 176]\n 21191: a0 = reverse a0\n 21193: u64 [s1 + 176] = a0\n 21197: u64 [s1 + 712] = t0\n 21201: u64 [s1 + 704] = ra\n 21205: u64 [s1 + 720] = t2\n 21209: u64 [s1 + 728] = a2\n 21213: u64 [s1 + 696] = 0\n 21217: u64 [s1 + 688] = 0\n 21221: u64 [s1 + 680] = 0\n 21225: u64 [s1 + 672] = 0\n 21229: u64 [s1 + 656] = 0\n 21233: u64 [s1 + 664] = 0\n 21237: u64 [s1 + 648] = 0\n 21241: u64 [s1 + 640] = 256\n 21247: a1 = s1 + 0x2c0\n 21251: a3 = s1 + 0x2a0\n 21255: a4 = s1 + 0x280\n 21259: a2 = 0xffffffff\n 21262: a0 = 0x0\n 21264: ecalli 2 // 'get_storage'\n 21266: a0 = u64 [s1 + 72]\n 21269: u64 [s1 + 760] = a0\n 21273: a0 = u64 [s1 + 80]\n 21276: u64 [s1 + 752] = a0\n 21280: a0 = u64 [s1 + 88]\n 21283: u64 [s1 + 744] = a0\n 21287: a0 = u64 [s1 + 104]\n 21290: u64 [s1 + 736] = a0\n 21294: a0 = u64 [s1 + 176]\n 21298: u64 [s1 + 632] = a0\n 21302: a0 = u64 [s1 + 112]\n 21305: u64 [s1 + 624] = a0\n 21309: a0 = u64 [s1 + 152]\n 21313: u64 [s1 + 616] = a0\n 21317: a0 = u64 [s1 + 160]\n 21321: u64 [s1 + 608] = a0\n 21325: a1 = s1 + 0x2e0\n 21329: a3 = s1 + 0x260\n 21333: a2 = 0xffffffff\n 21336: a4 = 0x20\n 21339: a0 = 0x0\n 21341: ecalli 10 // 'set_storage'\n 21343: a1 = 0x20\n 21346: a0 = u64 [s1 + 168]\n 21350: ra = 268, jump @0\n      : @431 [@dyn 134] (gas: 1)\n 21356: jump @454 if a0 == 0\n      : @432 (gas: 181)\n 21360: a0 = u64 [s1 + 184]\n 21364: i64 a1 = i64 a0 + 0x3\n 21367: u64 [s1 + 176] = a1\n 21371: a0 = a1 <u a0\n 21374: a1 = u64 [s1 + 192]\n 21378: i64 a2 = a1 + a0\n 21381: u64 [s1 + 184] = a2\n 21385: a1 = a2 <u a1\n 21388: a1 = a0 if a0 == 0\n 21391: a0 = u64 [s1 + 200]\n 21395: i64 a1 = a1 + a0\n 21398: u64 [s1 + 192] = a1\n 21402: a0 = a1 <u a0\n 21405: a1 = u64 [s1 + 208]\n 21409: i64 a0 = a0 + a1\n 21412: u64 [s1 + 208] = a0\n 21416: t0 = u64 [s1 + 96]\n 21419: a0 = u8 [t0 + 17]\n 21422: a1 = u8 [t0 + 16]\n 21425: a2 = u8 [t0 + 18]\n 21428: a3 = u8 [t0 + 19]\n 21431: a0 = a0 <<64 8\n 21434: a0 = a0 | a1\n 21437: a2 = a2 <<64 16\n 21440: a3 = a3 <<64 24\n 21443: a2 = a2 | a3\n 21446: a0 = a0 | a2\n 21449: u64 [s1 + 200] = a0\n 21453: a1 = u8 [t0 + 1]\n 21456: a2 = u8 [t0]\n 21458: a3 = u8 [t0 + 2]\n 21461: a4 = u8 [t0 + 3]\n 21464: a1 = a1 <<64 8\n 21467: a1 = a1 | a2\n 21470: a3 = a3 <<64 16\n 21473: a4 = a4 <<64 24\n 21476: a3 = a3 | a4\n 21479: a1 = a1 | a3\n 21482: u64 [s1 + 168] = a1\n 21486: a2 = u8 [t0 + 21]\n 21489: a3 = u8 [t0 + 20]\n 21492: a4 = u8 [t0 + 22]\n 21495: a5 = u8 [t0 + 23]\n 21498: a2 = a2 <<64 8\n 21501: a2 = a2 | a3\n 21504: a4 = a4 <<64 16\n 21507: a5 = a5 <<64 24\n 21510: a4 = a4 | a5\n 21513: t2 = a4 | a2\n 21516: a3 = u8 [t0 + 5]\n 21519: a4 = u8 [t0 + 4]\n 21522: a5 = u8 [t0 + 6]\n 21525: a0 = u8 [t0 + 7]\n 21528: a3 = a3 <<64 8\n 21531: a3 = a3 | a4\n 21534: a5 = a5 <<64 16\n 21537: a0 = a0 <<64 24\n 21540: a0 = a0 | a5\n 21543: ra = a0 | a3\n 21546: a0 = u8 [t0 + 25]\n 21549: a4 = u8 [t0 + 24]\n 21552: a5 = u8 [t0 + 26]\n 21555: a1 = u8 [t0 + 27]\n 21558: a0 = a0 <<64 8\n 21561: a0 = a0 | a4\n 21564: a5 = a5 <<64 16\n 21567: a1 = a1 <<64 24\n 21570: a1 = a1 | a5\n 21573: t1 = a1 | a0\n 21576: a0 = u8 [t0 + 9]\n 21579: a1 = u8 [t0 + 8]\n 21582: a5 = u8 [t0 + 10]\n 21585: a2 = u8 [t0 + 11]\n 21588: a0 = a0 <<64 8\n 21591: a0 = a0 | a1\n 21594: a5 = a5 <<64 16\n 21597: a2 = a2 <<64 24\n 21600: a2 = a2 | a5\n 21603: a5 = a2 | a0\n 21606: a0 = u8 [t0 + 29]\n 21609: a1 = u8 [t0 + 28]\n 21612: a2 = u8 [t0 + 30]\n 21615: a3 = u8 [t0 + 31]\n 21618: a0 = a0 <<64 8\n 21621: a0 = a0 | a1\n 21624: a2 = a2 <<64 16\n 21627: a3 = a3 <<64 24\n 21630: a2 = a2 | a3\n 21633: a4 = a2 | a0\n 21636: a1 = u8 [t0 + 13]\n 21639: a2 = u8 [t0 + 12]\n 21642: a3 = u8 [t0 + 14]\n 21645: a0 = u8 [t0 + 15]\n 21648: a1 = a1 <<64 8\n 21651: a1 = a1 | a2\n 21654: a3 = a3 <<64 16\n 21657: a0 = a0 <<64 24\n 21660: a0 = a0 | a3\n 21663: a0 = a0 | a1\n 21666: a0 = a0 | a4\n 21669: a1 = a5 | t1\n 21672: a0 = a0 <<64 32\n 21675: a0 = a0 | a1\n 21678: a1 = ra | t2\n 21681: a2 = u64 [s1 + 200]\n 21685: a3 = u64 [s1 + 168]\n 21689: a2 = a2 | a3\n 21692: a1 = a1 <<64 32\n 21695: a1 = a1 | a2\n 21698: a0 = a0 | a1\n 21701: a0 = a0 >u 0x0\n 21703: u64 [s1 + 200] = a0\n 21707: a0 = u64 [s1 + 184]\n 21711: u64 [s1 + 712] = a0\n 21715: a0 = u64 [s1 + 176]\n 21719: u64 [s1 + 704] = a0\n 21723: a0 = u64 [s1 + 192]\n 21727: u64 [s1 + 720] = a0\n 21731: a0 = u64 [s1 + 208]\n 21735: u64 [s1 + 728] = a0\n 21739: u64 [s1 + 696] = 0\n 21743: u64 [s1 + 688] = 0\n 21747: u64 [s1 + 680] = 0\n 21751: u64 [s1 + 672] = 0\n 21755: u64 [s1 + 656] = 0\n 21759: u64 [s1 + 664] = 0\n 21763: u64 [s1 + 648] = 0\n 21767: u64 [s1 + 640] = 256\n 21773: a1 = s1 + 0x2c0\n 21777: a3 = s1 + 0x2a0\n 21781: a4 = s1 + 0x280\n 21785: a2 = 0xffffffff\n 21788: a0 = 0x0\n 21790: ecalli 2 // 'get_storage'\n 21792: a0 = u64 [s1 + 672]\n 21796: a1 = u64 [s1 + 680]\n 21800: a2 = u64 [s1 + 688]\n 21804: a3 = u64 [s1 + 696]\n 21808: a0 = a0 & 0xffffff00\n 21812: a4 = u64 [s1 + 200]\n 21816: a0 = a0 | a4\n 21819: a4 = u64 [s1 + 208]\n 21823: u64 [s1 + 760] = a4\n 21827: a4 = u64 [s1 + 192]\n 21831: u64 [s1 + 752] = a4\n 21835: a4 = u64 [s1 + 184]\n 21839: u64 [s1 + 744] = a4\n 21843: a4 = u64 [s1 + 176]\n 21847: u64 [s1 + 736] = a4\n 21851: u64 [s1 + 632] = a3\n 21855: u64 [s1 + 624] = a2\n 21859: u64 [s1 + 616] = a1\n 21863: u64 [s1 + 608] = a0\n 21867: a1 = s1 + 0x2e0\n 21871: a3 = s1 + 0x260\n 21875: a2 = 0xffffffff\n 21878: a4 = 0x20\n 21881: a0 = 0x0\n 21883: ecalli 10 // 'set_storage'\n 21885: a0 = s1 + 0x220\n 21889: ecalli 1 // 'caller'\n 21891: a0 = u64 [s1 + 552]\n 21895: a1 = i32 [s1 + 560]\n 21899: a2 = u64 [s1 + 544]\n 21903: a0 = reverse a0\n 21905: a3 = a0 <<64 32\n 21908: a1 = reverse a1\n 21910: a1 = a1 >>64 32\n 21913: a5 = a1 | a3\n 21916: a0 = a0 >>64 32\n 21919: a1 = reverse a2\n 21921: a2 = a1 <<64 32\n 21924: t2 = a2 | a0\n 21927: a2 = a1 >>64 32\n 21930: i64 sp = i64 sp - i64 16\n 21933: u64 [sp + 8] = 0\n 21936: i64 a0 = i64 s1 + 0x120\n 21940: a1 = 0x2\n 21943: u64 [sp] = a2\n 21945: a4 = 0x0\n 21947: ra = 270, jump @217\n      : @433 [@dyn 135] (gas: 45)\n 21953: i64 sp = i64 sp + 0x10\n 21956: a3 = u64 [s1 + 312]\n 21960: a2 = u64 [s1 + 304]\n 21964: a1 = u64 [s1 + 296]\n 21968: a0 = u64 [s1 + 288]\n 21972: i64 sp = i64 sp - i64 8\n 21975: a4 = u64 [s1 + 120]\n 21978: u64 [sp] = a4\n 21980: a4 = u64 [s1 + 144]\n 21984: a5 = u64 [s1 + 136]\n 21988: t2 = u64 [s1 + 128]\n 21992: ra = 0x110\n 21996: i64 sp = i64 sp - i64 448\n 22000: u64 [sp + 440] = ra\n 22004: u64 [sp + 432] = s0\n 22008: u64 [sp + 424] = s1\n 22012: i64 s0 = i64 sp + 0x1c0\n 22016: sp = sp & 0xffffffe0\n 22019: s1 = sp\n 22021: u64 [s1 + 8] = t2\n 22024: u64 [s1 + 16] = a5\n 22027: u64 [s1 + 24] = a4\n 22030: u64 [s1 + 88] = a3\n 22033: u64 [s1 + 216] = a3\n 22037: u64 [s1 + 80] = a2\n 22040: u64 [s1 + 208] = a2\n 22044: u64 [s1 + 72] = a1\n 22047: u64 [s1 + 200] = a1\n 22051: u64 [s1 + 64] = a0\n 22054: u64 [s1 + 192] = a0\n 22058: u64 [s1 + 184] = 0\n 22062: u64 [s1 + 176] = 0\n 22066: u64 [s1 + 168] = 0\n 22070: u64 [s1 + 160] = 0\n 22074: u64 [s1 + 152] = 0\n 22078: u64 [s1 + 144] = 0\n 22082: u64 [s1 + 136] = 0\n 22086: u64 [s1 + 128] = 256\n 22092: a1 = s1 + 0xc0\n 22096: a3 = s1 + 0xa0\n 22100: a4 = s1 + 0x80\n 22104: a2 = 0xffffffff\n 22107: a0 = 0x0\n 22109: ecalli 2 // 'get_storage'\n 22111: jump @350\n      : @434 [@dyn 136] (gas: 23)\n 22114: i64 sp = i64 sp + 0x8\n 22117: a0 = s1 + 0x240\n 22121: ecalli 1 // 'caller'\n 22123: a0 = u64 [s1 + 584]\n 22127: a1 = i32 [s1 + 592]\n 22131: a2 = u64 [s1 + 576]\n 22135: a0 = reverse a0\n 22137: a3 = a0 <<64 32\n 22140: a1 = reverse a1\n 22142: a1 = a1 >>64 32\n 22145: a5 = a1 | a3\n 22148: a0 = a0 >>64 32\n 22151: a1 = reverse a2\n 22153: a2 = a1 <<64 32\n 22156: t2 = a2 | a0\n 22159: a2 = a1 >>64 32\n 22162: i64 sp = i64 sp - i64 16\n 22165: u64 [sp + 8] = 0\n 22168: i64 a0 = i64 s1 + 0x100\n 22172: a1 = 0x1\n 22175: u64 [sp] = a2\n 22177: a4 = 0x0\n 22179: ra = 274, jump @217\n      : @435 [@dyn 137] (gas: 28)\n 22185: i64 sp = i64 sp + 0x10\n 22188: a3 = u64 [s1 + 280]\n 22192: a2 = u64 [s1 + 272]\n 22196: a1 = u64 [s1 + 264]\n 22200: a0 = u64 [s1 + 256]\n 22204: u64 [s1 + 184] = a3\n 22208: u64 [s1 + 760] = a3\n 22212: u64 [s1 + 192] = a2\n 22216: u64 [s1 + 752] = a2\n 22220: u64 [s1 + 200] = a1\n 22224: u64 [s1 + 744] = a1\n 22228: u64 [s1 + 208] = a0\n 22232: u64 [s1 + 736] = a0\n 22236: u64 [s1 + 728] = 0\n 22240: u64 [s1 + 720] = 0\n 22244: u64 [s1 + 712] = 0\n 22248: u64 [s1 + 704] = 0\n 22252: u64 [s1 + 688] = 0\n 22256: u64 [s1 + 696] = 0\n 22260: u64 [s1 + 680] = 0\n 22264: u64 [s1 + 672] = 256\n 22270: a1 = s1 + 0x2e0\n 22274: a3 = s1 + 0x2c0\n 22278: a4 = s1 + 0x2a0\n 22282: a2 = 0xffffffff\n 22285: a0 = 0x0\n 22287: ecalli 2 // 'get_storage'\n 22289: fallthrough\n      : @436 (gas: 20)\n 22290: a0 = u64 [s1 + 704]\n 22294: a1 = u64 [s1 + 728]\n 22298: a2 = u64 [s1 + 712]\n 22302: a3 = u64 [s1 + 720]\n 22306: i64 a4 = i64 a0 + 0x1\n 22309: a0 = a4 <u 0x1\n 22312: i64 a2 = a2 + a0\n 22315: a0 = a4 | a2\n 22318: a0 = a0 <u 0x1\n 22321: i64 a5 = a3 + a0\n 22324: a0 = a5 <u a3\n 22327: i64 a0 = a0 + a1\n 22330: u64 [s1 + 168] = a2\n 22334: u64 [s1 + 152] = a0\n 22338: a0 = a0 | a2\n 22341: u64 [s1 + 176] = a4\n 22345: u64 [s1 + 160] = a5\n 22349: a1 = a4 | a5\n 22352: a0 = a0 | a1\n 22355: jump @448 if a0 == 0\n      : @437 (gas: 59)\n 22359: a0 = u64 [s1 + 200]\n 22363: u64 [s1 + 712] = a0\n 22367: a0 = u64 [s1 + 208]\n 22371: u64 [s1 + 704] = a0\n 22375: a0 = u64 [s1 + 192]\n 22379: u64 [s1 + 720] = a0\n 22383: a0 = u64 [s1 + 184]\n 22387: u64 [s1 + 728] = a0\n 22391: u64 [s1 + 696] = 0\n 22395: u64 [s1 + 688] = 0\n 22399: u64 [s1 + 680] = 0\n 22403: u64 [s1 + 672] = 0\n 22407: u64 [s1 + 656] = 0\n 22411: u64 [s1 + 664] = 0\n 22415: u64 [s1 + 648] = 0\n 22419: u64 [s1 + 640] = 256\n 22425: a1 = s1 + 0x2c0\n 22429: a3 = s1 + 0x2a0\n 22433: a4 = s1 + 0x280\n 22437: a2 = 0xffffffff\n 22440: a0 = 0x0\n 22442: ecalli 2 // 'get_storage'\n 22444: a0 = u64 [s1 + 184]\n 22448: u64 [s1 + 760] = a0\n 22452: a0 = u64 [s1 + 192]\n 22456: u64 [s1 + 752] = a0\n 22460: a0 = u64 [s1 + 200]\n 22464: u64 [s1 + 744] = a0\n 22468: a0 = u64 [s1 + 208]\n 22472: u64 [s1 + 736] = a0\n 22476: a0 = u64 [s1 + 152]\n 22480: u64 [s1 + 632] = a0\n 22484: a0 = u64 [s1 + 160]\n 22488: u64 [s1 + 624] = a0\n 22492: a0 = u64 [s1 + 168]\n 22496: u64 [s1 + 616] = a0\n 22500: a0 = u64 [s1 + 176]\n 22504: u64 [s1 + 608] = a0\n 22508: a1 = s1 + 0x2e0\n 22512: a3 = s1 + 0x260\n 22516: a2 = 0xffffffff\n 22519: a4 = 0x20\n 22522: a0 = 0x0\n 22524: ecalli 10 // 'set_storage'\n 22526: a0 = u64 [s1 + 16]\n 22529: a1 = u64 [s1 + 120]\n 22532: u64 [a0 + 24] = a1\n 22535: a1 = u64 [s1 + 128]\n 22539: u64 [a0 + 16] = a1\n 22542: a1 = u64 [s1 + 136]\n 22546: u64 [a0 + 8] = a1\n 22549: a1 = u64 [s1 + 144]\n 22553: u64 [a0] = a1\n 22555: i64 sp = i64 s0 - i64 800\n 22559: ra = u64 [sp + 792]\n 22563: s0 = u64 [sp + 784]\n 22567: s1 = u64 [sp + 776]\n 22571: i64 sp = i64 sp + 0x320\n 22575: ret\n      : @438 (gas: 3)\n 22577: a0 = 0x40\n 22580: a1 = 0x20\n 22583: ra = 276, jump @0\n      : @439 [@dyn 138] (gas: 1)\n 22589: jump @454 if a0 == 0\n      : @440 (gas: 22)\n 22593: a3 = 0x20010\n 22598: a0 = u64 [0x20058]\n 22603: a1 = u64 [0x20050]\n 22608: a2 = u64 [0x20060]\n 22613: u64 [s1 + 184] = a3\n 22617: a3 = u64 [0x20068]\n 22622: a4 = reverse a0\n 22624: a5 = reverse a1\n 22626: a0 = reverse a2\n 22628: a1 = reverse a3\n 22630: u64 [s1 + 208] = a0\n 22634: u64 [s1 + 192] = a5\n 22638: a0 = a0 | a5\n 22641: u64 [s1 + 216] = a1\n 22645: a1 = a1 | a4\n 22648: a1 = a1 | a0\n 22651: a1 = a1 >>64 32\n 22654: u64 [s1 + 200] = a4\n 22658: a0 = a0 | a4\n 22661: a0 = a0 <<64 32\n 22664: a0 = a0 | a1\n 22667: jump @454 if a0 != 0\n      : @441 (gas: 4)\n 22671: a0 = i32 [s1 + 216]\n 22675: a1 = 0x20\n 22678: u64 [s1 + 176] = a0\n 22682: ra = 278, jump @0\n      : @442 [@dyn 139] (gas: 1)\n 22688: jump @454 if a0 == 0\n      : @443 (gas: 50)\n 22692: a0 = u64 [s1 + 176]\n 22696: a1 = u64 [s1 + 184]\n 22700: i64 a1 = a1 + a0\n 22703: u8 [a1 + 31] = 0\n 22706: u8 [a1 + 30] = 0\n 22709: u8 [a1 + 29] = 0\n 22712: u8 [a1 + 28] = 0\n 22715: u8 [a1 + 27] = 0\n 22718: u8 [a1 + 26] = 0\n 22721: u8 [a1 + 25] = 0\n 22724: u8 [a1 + 24] = 0\n 22727: u8 [a1 + 23] = 0\n 22730: u8 [a1 + 22] = 0\n 22733: u8 [a1 + 21] = 0\n 22736: u8 [a1 + 20] = 0\n 22739: u8 [a1 + 19] = 0\n 22742: u8 [a1 + 18] = 0\n 22745: u8 [a1 + 17] = 0\n 22748: u8 [a1 + 16] = 0\n 22751: u8 [a1 + 15] = 0\n 22754: u8 [a1 + 14] = 0\n 22757: u8 [a1 + 13] = 0\n 22760: u8 [a1 + 12] = 0\n 22763: u8 [a1 + 11] = 0\n 22766: u8 [a1 + 10] = 0\n 22769: u8 [a1 + 9] = 0\n 22772: u8 [a1 + 8] = 0\n 22775: u8 [a1 + 7] = 0\n 22778: u8 [a1 + 6] = 0\n 22781: u8 [a1 + 5] = 0\n 22784: u8 [a1 + 4] = 0\n 22787: u8 [a1 + 3] = 160\n 22792: u8 [a1 + 2] = 121\n 22796: u8 [a1 + 1] = 195\n 22801: u64 [s1 + 184] = a1\n 22805: u8 [a1 + 0] = 8\n 22808: a0 = u64 [s1 + 216]\n 22812: i64 a1 = i64 a0 + 0x4\n 22815: a0 = a1 <u a0\n 22818: a3 = u64 [s1 + 208]\n 22822: i64 a2 = a3 + a0\n 22825: a3 = a2 <u a3\n 22828: a3 = a0 if a0 == 0\n 22831: a0 = u64 [s1 + 200]\n 22835: i64 a3 = a3 + a0\n 22838: a4 = a3 <u a0\n 22841: a0 = u64 [s1 + 192]\n 22845: i64 a4 = a4 + a0\n 22848: i64 a0 = i64 s1 + 0xe0\n 22852: ra = 280, jump @339\n      : @444 [@dyn 140] (gas: 31)\n 22858: a1 = u64 [s1 + 232]\n 22862: t0 = u64 [s1 + 248]\n 22866: t1 = u64 [s1 + 224]\n 22870: a3 = u64 [s1 + 240]\n 22874: a0 = u64 [s1 + 208]\n 22878: a4 = a1 ^ a0\n 22881: a5 = a1 <u a0\n 22884: ra = a0\n 22886: t2 = u64 [s1 + 216]\n 22890: a2 = t1 <u t2\n 22893: a5 = a2 if a4 == 0\n 22896: a0 = u64 [s1 + 200]\n 22900: i64 a4 = i64 a3 - i64 a0\n 22903: a3 = a3 <u a0\n 22906: a0 = u64 [s1 + 192]\n 22910: i64 a0 = i64 t0 - i64 a0\n 22913: i64 a0 = i64 a0 - i64 a3\n 22916: a3 = a4 <u a5\n 22919: i64 a0 = i64 a0 - i64 a3\n 22922: i64 a4 = i64 a4 - i64 a5\n 22925: i64 a1 = i64 a1 - i64 ra\n 22928: i64 a1 = i64 a1 - i64 a2\n 22931: a0 = a0 | a1\n 22934: i64 a1 = i64 t1 - i64 t2\n 22937: a1 = a1 | a4\n 22940: a1 = a1 | a0\n 22943: a0 = a0 | a4\n 22946: a1 = a1 >>64 32\n 22949: a0 = a0 <<64 32\n 22952: a0 = a0 | a1\n 22955: jump @454 if a0 != 0\n      : @445 (gas: 5)\n 22959: a0 = u64 [s1 + 216]\n 22963: a1 = t1 - a0\n 22966: a0 = u64 [s1 + 176]\n 22970: u64 [s1 + 216] = a1\n 22974: ra = 282, jump @0\n      : @446 [@dyn 141] (gas: 1)\n 22980: jump @454 if a0 == 0\n      : @447 (gas: 7)\n 22983: a1 = i32 [s1 + 184]\n 22987: a0 = 0x1\n 22990: a2 = u64 [s1 + 216]\n 22994: ecalli 8 // 'seal_return'\n 22996: a1 = 0x20\n 22999: ra = 0x11c\n 23003: jump @0\n      : @448 (gas: 2)\n 23006: a1 = 0x20\n 23009: ra = 284, jump @0\n      : @449 [@dyn 142] (gas: 1)\n 23015: jump @454 if a0 == 0\n      : @450 (gas: 8)\n 23018: a1 = u64 [s1 + 216]\n 23022: u64 [a1 + 24] = 0\n 23025: u64 [a1 + 16] = 0\n 23028: u64 [a1 + 8] = 0\n 23031: u64 [a1 + 0] = 1903904846\n 23037: a0 = 0x4\n 23040: a1 = 0x20\n 23043: ra = 286, jump @0\n      : @451 [@dyn 143] (gas: 1)\n 23049: jump @454 if a0 == 0\n      : @452 (gas: 12)\n 23052: a1 = u64 [s1 + 216]\n 23056: u32 [a1 + 32] = 285212672\n 23063: u32 [a1 + 28] = 0\n 23066: u32 [a1 + 24] = 0\n 23069: u32 [a1 + 20] = 0\n 23072: u32 [a1 + 16] = 0\n 23075: u32 [a1 + 12] = 0\n 23078: u32 [a1 + 8] = 0\n 23081: u32 [a1 + 4] = 0\n 23084: a1 = 0x24\n 23087: a0 = 0x0\n 23089: ra = 288, jump @0\n      : @453 [@dyn 144] (gas: 1)\n 23095: jump @455 if a0 != 0\n      : @454 (gas: 1)\n 23098: trap\n      : @455 (gas: 7)\n 23099: a1 = i32 [s1 + 216]\n 23103: a0 = 0x1\n 23106: a2 = 0x24\n 23109: ecalli 8 // 'seal_return'\n 23111: a0 = 0x0\n 23113: ra = 0x122\n 23117: jump @8\n      : @456 [export #0: 'call'] (gas: 2)\n 23120: a0 = 0x0\n 23122: ra = 290, jump @8\n      : @457 [@dyn 145] [export #1: 'deploy'] (gas: 2)\n 23128: a0 = 0x1\n 23131: ra = 292, jump @8\n      : @458 [@dyn 146] (gas: 1)\n 23137: trap\n",
				"bytecode": {
					"object": "50564d0000c267000000000000010700c14004c000400480b60c00000000040000000a0000001500000024000000290000002c0000003c0000004c00000057000000690000007400000063616c6c63616c6c65726765745f73746f72616765686173685f6b656363616b5f323536696e7075746e6f7772657475726e5f646174615f636f707972657475726e5f646174615f73697a657365616c5f72657475726e7365745f696d6d757461626c655f646174617365745f73746f7261676576616c75655f7472616e73666572726564051302c0505a0463616c6cc0585a066465706c6f7906c0d966809202c0625a670099009e00bd002701630182019e01b001d2015203790354044d05770624079d07830a0b0bb50b620ceb0ccb0d1a0ec10e3c0f640fa70f87108211e112d013fd130416571659176d188319001a681b751bd51b131c301c7f1c261d9c1dba1df11dfb1d1d1e471e591e791f75218021d1214d22792306261926dd2604280c2b4c2b7d2bf92b382cba2cf92c2a2d782d8f2d322e752ea12ecb2ede2e202fd62f76306331bc315832c632d9321b33d13371346535be355a36c836db361d37d33773382839b439103a273a693a1f3bbf3bbf3c753d153ef93ff84028413e416d419d41b14153421343a043a244bb45cd4664477447b3484e498f49cc49f14a0c4c244dcc4dfc4d744f6a516c53c1556256a9563d58a0584a59c459e759095a375a585a615a52790e7a1004070f0a41040a0000012f8a3965980802871f1277e03b370000010a040713000a0800000229781416070000025278040720000265870713000407200002658707130013006811e05a10185a15105a16086815201211e0127601040704080610029d60071000020d0100040407200003027702184e0411631762033804036203300403620328040360072004030706070610040906100617016811c05a10385a15305a16286815401211e0521604074004082006100848ff0707e4000408100002620360000262035800026203500002760700000000000000805a681060076800026817e01277e05a671852715d17185d17105d17085d0702774e0b115b6a185ba7105ba8185ba9085baa0c98080ca7070c87070f077c04074004082006100adefe07077a5b6a105ba7485ba8585ba9405baa509d7b9d879d989da90c98080cb7090c89096a99200cb8086988200c98080f084b02775a671806100ca2fe07073e0a0818000207080d040740040302774e09115b6718040806100e83fe07071f5b67105b6818087808040704094e08110407040806101067fe0f07040001681004070104090400124e08116811a0fb5a1058045a1550045a164804681560041211e004074004082006101433fe0f070605ff11040a10000262036000026203580002620350000204082004035f073804035f043004035f022004035f09280403277b274c547b0c279b1b26041f6601549b060c740b54bc06760b0000000000000080600b6800020706cc0804032000035f0b2000039dbb6bbb20040c659855f85a1a58012bbc5a03040c0040647a0406ef3a647a30b63d07040c669855f818cb710c5a13d8010f4b5c33d1668d0804062004035d2118045d2110045d2108045d210004021700044e0b115b1710045b1818045b1908045b1a00040c98080ca7070c8707070706051c115f072004035f083804035f092804035f0a300403687bfc247b0765790c68ccff1c9c06249c0953670968a7ff6579092479071baa0170a8086587073d78279a54780a0c970727c81bb9201f990154c809547a090f090605c3105b1bd8015bb7045bb80c9d799d87760800000000010000001c78080c98086a7a201baa01569a558a0f0a060595105bb8145bba1c9d849dac5a17681700020408025a1908040b0610168b275b1718025a17d8015b1610025b1708025a17d0015b1700025a17c8010407400408200610188cfc0f07060558105b1a58015ba7485ba8405ba9505baa589d775a1718019d875a1728019d975a1710019da85a1820015a16c0015a1690035b18d0015a1888035b18c8015a1880035b17d8015a1798035d2138045d2130045d2128045d2120045d21d0035d21d8035d21c8035d21c003000102188003021a2004021bc0030409ff04074e02115b1620015b1810015b1918015b1728010c87070c96080c78086a88200c97076977200c870707070605af0f5b1738045a1738015b1730045a1750015b1728045a1748015b1720045a1740010266040820526706101ab1fb0f0706057d0f5b1758015a1608016567095b1740019d776a783810981f6a783010981e6a782810981d6a782010981c6a781810981b6a781010981a5b1848019d881097186a77081097196a87381097176a87301097166a87281097156a87201097146a87181097136a87101097125b1750019d771098106a88081098116a783810980f6a783010980e6a782810980d6a782010980c6a781810980b6a781010980a5b1638019d681097086a77081097096a87381097076a87301097066a87281097056a87201097046a87181097036a871010970210986a88085a1900011098016817e0015b18c8015b19d0015b1ac0015b1bd80106101c83265b1820016887205a17c8012487095b1810016598075a17d00124870a53990a5b10180165a0095b1740015b1a50010c7a0a5b1b48010c6b0b0cab0b24090a5b17280165a7065a16b801070b0605c0185b18d00105841b04062004035a13d801074bc3c786aa5f05074b7fccfcb28a0d0f4ba8e949b93c055d2158035d2150035d2148035d214003021740034e0b115b1750035b1858035b1948035b1a40030c98080ca7070c87070f07d30d5f072004035f083804035f092804035f0a300403687bfc247b0765790c68ccff1c9c06249c0953670968a7ff6579092479071baa0170a8086587073d78279a54780a0c970727c81bb9201f990154c809547a0907097c0d5b1ad8015ba71c5ba8145ba90c5baa049d7c9d849d989da75a1708681700035a18040b06101e14265b1800035a18d0015b1b18035a1bd8015b1908035a19c8015b1610036888011b87016579090c98071b770165760a246a0765b7075a18b0015a1880035a19c0015a1988035a1ab8015a1a90035a17a8015a1798035d2138045d2130045d2128045d2120045d2110045d2118045d2108045d210004000102188003021a2004021b00040409ff04074e025b1730045b1838045b1928045b1a20040c98080ca7070c870727770409040a0610200c2a5b18d0016887032487085b1ac801658a0924a90a53880a656a0a246a085b1bd80165b8085a1898035a1a90035a1988035a1780035d2138045d2130045d2128045d2120045d2110045d2118045d2108045d210004000102188003021a2004021b00040409ff04074e020b1720041b77010409040a061022952d021760034e015b1768035b186003011970039d776a7a209d88698b200cba0a5a1aa0016977209d996a99200c97075a1798016a88205a1890015b17d8015a1798035a1690035b17c8015a1788035b17d0015a1780035d2138045d2130045d2128045d2120045d2110045d2118045d2108045d210004000102188003021a2004021b00040409ff04074e0211631730045b1820045b1928045b1a90011ca7075b1a98011ca8080c87075b18a0011c98080c870707070605d3135b17b0015a1780035b17c0015a1788035b17b8015a1790035b16a8015a1698035d2138045d2130045d2128045d2120045d2110045d2118045d2108045d210004000102188003021a2004021b00040409ff04074e025b1720045a17d8015b1728045a17d0015b1730045a17c8015b1738045a17a0015a1638045b17b8015a1730045b17c0015a1728045b16b0015a1620045d2118045d2110045d2108045d2100045d21f0035d21f8035d21e8035d21e003000102182004021a0004021be0030409ff04074e025b17a8015a1798035b17b8015a1790035b17c0015a1788035a1680035d21d8035d21d0035d21c8035d21c00302188003021ac0030409ff040b2004074e0a0217c0034e015b17c8035b18c0030119d0035a1708045a180004031910045b17a0015a1738045b17c8015a1730045b17d0015a1728045b17d80105c8115a13d801074bf03a647afb060f4b00bece7e560104062004035d2118045d2110045d2108045d210004021700044e0b115b1710045b1818045b1908045b1a00040c98080ca7070c87070f07e8095f072004035f083804035f092804035f0a300403687bfc247b0765790c68ccff1c9c06249c0953670968a7ff6579092479071baa0170a8086587073d78279a54780a0c970727c81bb9201f990154c809547a09070991095b1bd8015bb7045bb80c9d799d87760800000000010000001c78080c98086a7a201baa01569a558a070a65095bb8145bba1c9d849dac5a17681760020408015a1908040b0610245a205b1778025b1870025b1968025b1a60025a1798035a1890035a1988035a1a8003115d2138045d2130045d2128045d2120045d21d0035d21d8035d21c8035d21c003000102188003021a2004021bc0030409ff04074e025b1738045a17c8015b1730045a17d0015b1728045a17d8015b1620040564040400266811f85a10040704080400900005f8f45d2158035d2150035d2148035d214003021740034e0b115b1750035b1858035b1948035b1a40030c98080ca7070c87070f078c085b675b68185b69085b6a10687bfc247b0765790c68ccff1c9c06249c0953670968a7ff6579092479071baa0170a8086587073d78279a54780a0c970727c81bb9201f990154c809547a0907093e085b1ad8015ba71c5ba8145ba90c5baa049d7c9d849d989da75a17086817a0025a18040b061028d6205b18a0025a18d0015b1bb8025a1bd8015b19a8025a19c8015b16b0026888011b87016579090c98071b770165760a246a0765b7075a1888015a1880035a1980015a1988035a1a78015a1a90035a1770015a1798035d2138045d2130045d2128045d2120045d2110045d2118045d2108045d210004000102188003021a2004021b00040409ff04074e025b1730045b1838045b1928045b1a20040c98080ca7070c870727770409040a06102ace245b17d0016879032479075b18c80165780a248a085377086568082468075b1bd80165b7075a1768015a1798035a18b0015a1890035a1ab8015a1a88035a19c0015a1980035d2138045d2130045d2128045d2120045d2110045d2118045d2108045d210004000102188003021a2004021b00040409ff04074e020b1720041b77010409040a06102c4728021760034e055b1760035a17a8015b1768035a17a0015b1770035a1798015b1778035a1790015b18d0016887022487085b1ac801658a0924a90a53880a656a0a246a085b1bd80165b8085a1898035a1a90035a1988035a1780035d2138045d2130045d2128045d2120045d2110045d2118045d2108045d210004000102188003021a2004021b00040409ff04074e02115b1738045b1220045b1930045b1a28045b1890011c780b2487065b17980124790c54b60c5b18a0011ca806248a0a5b18a801248208546a081c97070cb707547c080708550c04074004082006102e3af2070709065b1a58015ba7485ba8405ba9505baa589d7b9d8c9d999da60cc9070cb6080c78086a88200cb7076977200c87070f07d8055a1cc8015a1bd0015a19d80102670408205a17c001061030ebf10707ba0552695a16b8015b1658015b17c0016576061a161f1a161e1a161d1a161c1a161b1a161a1a16191a16181a16171a16161a16151a16141a16131a16121a16111a16101a160f1a160e1a160d1a160c1a160b1a160a1a16091a16081a16071a16061a16051a16041a1603a0001a1602791a1601c3001a06086898042498075b1ad801657a0924a90a53770a5b17d001657a0a247a0b5b17c801657b0b681780020610321f285b1888025b1298025b1380025b1a900205660e682bfc242b0a65a90c68ccff1c9c06249c09536a09684aff65a90924a90a1b480170870765a7073d78279a54780a0c970727c81bb9201f990154c809547a090709b4045f073c00035f093400035f0a2c00035f0b2400039d789d999daa9dbb681720030610347a325b1738035a17c8015b1730035a17d0015b1728035a17d8015b16200311040740040820061036a1f0070770045b1a58015ba7485ba8585ba9405baa509d7b9d870cb7080ca9099d990c98086a88200cb9096999200c98080f0841045a16c001027604082052670610385ef007072d0452675b1658016576065b18c8019d8c5b18d0019d885b19d8019d995b1ac0019daa106a186aab38106b1f6aab30106b1e6aab28106b1d6aab20106b1c6aab18106b1b6aab10106b1a6aaa08106a191069106a9a38106a176a9a30106a166a9a28106a156a9a20106a146a9a18106a136a9a10106a126a99081069111068086a893810690f6a893010690e6a892810690d6a892010690c6a891810690b6a891010690a6a8808106809106c6ac8381068076ac8301068066ac8281068056ac8201068046ac8181068036ac8101068026acc08106c0104082006103a7eef07074d03026804092004074e081152865d2118045d2110045d2108045d210004021700044e0b115b1710045b1818045b1908045b1a00040c98080ca7070c87070f0700035b675b68185b69085b6a10687bfc247b0765790c68ccff1c9c06249c0953670968a7ff6579092479071baa0170a8086587073d78279a54780a0c970727c81bb9401f990154c809547a090709b2025b16d8015b67045b680c9d779d89760800000000010000001c98080c78086a9a201baa01567a558a070a86025b68145b6a1c9d849dac5b683c5b6a345b6b2c5b66249d885a18d0019da85a18c8019db85a18d8019d665a1708681740020408025a19040b06103c5b195b1758025b1850025b1948025b1a40025a17b8015a1798035a18b0015a1890035a19a8015a1988035a1aa0015a1a80035d2138045d2130045d2128045d2120045d21d0035d21d8035d21c8035d21c003000102188003021a2004021bc0030409ff04074e02115b1738045b1220045b1930045b1a28041c670b5a16c0012476065b17d80124970c54b60c5b18c8011c8a0624a80a5b18d001242808546a081c97070cb707547c0807088a0b5b17a0015a1780035b17a8015a1788035b17b0015a1790035b17b8015a1798035d2138045d2130045d2128045d2120045d21d0035d21d8035d21c8035d21c003000102188003021a2004021bc0030409ff04074e02115b1738045b1220045b1930045b1a28045b1cc0011cc70b247c065b17d80124970c54b60c5b18c8011c8a0624a80a5b18d001242808546a081c97070cb707547c0807082d0b681720025b18a0015b19a8015b1ab0015b1bb80106103eef185b1728025b1820025b1238025b1a30025b1bc801657b0b5b1cd001658c0c248c08658b0b1c7b06247b075368075b18d80165a8086587072487065b19c00165290924a8086598086568085a1c80035a1b88035a1790035a1898030569f75d2118045d2110045d2108045d210004021700044e0b115b1710045b1818045b1908045b1a00040c98080ca7070c87070f07595f072004035f083804035f092804035f0a300403687bfc247b0765790c68ccff1c9c06249c0953670968a7ff6579092479071baa0170a8086587073d78279a54780a0c970727c81bb9201f990154c809547a090f09110407040806104035ec0f07ee09005b1ad8015ba71c5ba8145ba90c5baa049d7c9d849d989da75a17086817c0025a18040b0610428e185b17d8025a17c0015b1ad0025a1ad0015b18c8025a18d8015b16c0025a1798035a1a90035a1888035a1680035a16c8015d2138045d2130045d2128045d2120045d21d0035d21d8035d21c8035d21c003000102188003021a2004021bc0030409ff04074e026867011b78015b19d8016598080c87091b99015b1ad00165a90924a90a5b16c001656a0a5a1a98035a199003631930045a19b8015a1888035b1828045a18b0015a1780035b1720045a17a8015d2138045d2130045d2128045d2120045d21d0035d21d8035d21c8035d21c003000102188003021a2004021bc0030409ff04074e025b18c8016887022487085b1ad801658a0924a90a53880a5b18d001658a0a248a086568085a1898035b1838045a18a0015a1a90035b1830045a1898015a1988035b1828045a1890015a1780035b1720045a1788015d2138045d2130045d2128045d2120045d21d0035d21d8035d21c8035d21c003000102188003021a2004021bc0030409ff04074e025b1738045a1780015b1730045a1778015b1728045a1770015b1720045a1768015b18c8016887032487085b1ad801658a0924a90a53880a5b18d001658a0a248a086568085a1898035a1a90035a1988035a1780035d2138045d2130045d2128045d2120045d21d0035d21d8035d21c8035d21c003000102188003021a2004021bc0030409ff04074e020b16200404074004082006104401ea0707d0fd5a16d8015b1a58015ba7485ba8405ba9505baa589d769d8b9d999daa0cb9070c6a080c78086a88200c67076977200c87070f079bfd5a1b60015a19d00102a70408205a17c0015a1ac801061046aee907077dfd5b1758015b13c00165370b5b17b8019d775b18b0019d885b19a8019d9910b9181a1b0b1a1b0a1a1b091a1b071a1b061a1b051a1b041a1b031a1b021a1b011a0b6a9a3810ba1f6a9a3010ba1e6a9a2810ba1d6a9a2010ba1c6a9a1810ba1b6a9a1010ba1a6a990810b91910b8106a893810b9176a893010b9166a892810b9156a892010b9146a891810b9136a891010b9126a880810b81110b7086a783810b80f6a783010b80e6a782810b80d6a722027685b196001279a53980a7608dfffffff000000005b1cc80124c8085b17d00127745474080c6909549a0810b20c0f089cfc5a19a8015a14b0015a1ab8015a1b60010237200408205276061048ace807077bfc5b1758016567075b1888019d886a893810791f6a893010791e6a892810791d6a892010791c6a891810791b6a891010791a5b1990019d991078186a88081078196a98381078176a98301078166a98281078156a98201078146a98181078136a98101078125b1898019d881079106a99081079116a893810790f6a893010790e6a892810790d6a892010790c6a891810790b6a891010790a5b19a0019d991078086a880810780910796a98381078076a98301078066a98281078056a98201078046a98181078036a98101078026a99087608bfffffff000000005b1ac80124a8085b1ad0015b1bb00154ab085b1ab8015b1ba80154ba081079010f087efb5b17c0010277400408205a17a00106104a98e7070767fb76079fffffff000000005b18c8012487075b18d0015b19b0015489075b18b8015b19a8015498075b1858015b19a0016598085b1968019d996a9a38108a1f6a9a30108a1e6a9a28108a1d6a9a20108a1c6a9a18108a1b6a9a10108a1a5b1a70019daa1089186a99081089196aa9381089176aa9301089166aa9281089156aa9201089146aa9181089136aa9101089125b1978019d99108a106aaa08108a116a9a38108a0f6a9a30108a0e6a9a28108a0d6a9a20108a0c6a9a18108a0b6a9a10108a0a5b1a80019daa1089086a99081089096aa9381089076aa9301089066aa9281089056aa9201089046aa9181089036aa910108902108a6aaa08108a010f0766fa5b17c001027660040820526706104c82e6070751fa5b17d80127785b17580165670710781f1a171e1a171d1a171c1a171b1a171a1a17191a17181a17171a17161a17151a17141a17131a17121a17111a17101a170f1a170e1a170d1a170c1a170b1a170a1a17091a17081a17071a17061a17051a17041a17031a17021a17011a07040880005b17c00106104e05e60707d4f9011860010409800004074e08115b17b8015a1728045b17c0015a1720045b17b0015a1730045b1668015a1638045d2118045d2110045d2108045d2100045d21f0035d21f8035d21e8035d21e003000102182004021a0004021be0030409ff04074e025b1700045b1808045b1910045b1a1804127700ff3177015a1698035b1bb0015a1b90035b1bb8015a1b88035b1bc0015a1b80035a1ad8035a19d0035a18c8035a17c00302188003021ac0030409ff040b2004074e0a0217c0034e010117d0035a17d8015b17c0035a17d0015b16c8035b1770015a1798035b1778015a1790035b1780015a1788035b1788015a1780035d2138045d2130045d2128045d2120045d2110045d2118045d2108045d210004000102188003021a2004021b00040409ff04074e025b1720045b1828045b1930045b1a38045a1608045b1bd0015a1b00045b1bd801031b10045a1a38045a1930045a182804115a172004040704080610509de407076cf80407040806105290e407075ff80d21e0030d21800308681700045a1784035d2190035d2188037607ffffffff000000005a179803681720045a179c035b1758015a17a0030d21a4035a17a8036817e0035a17ac03021780034e110f07040204074004082006105430e40707fff75b1a58015ba7485ba8585ba9405baa509d779d860c76080ca9099d990c98086a88200c97076977200c87070f07d0f7026652670408061056f2e30707c1f75b185801086808040704094e0811040740040820061058d5e30707a4f75b1a58015ba7485ba8405ba9505baa589d7b9d8c9d999da60cc9070cb6080c78086a88200cb7076977200c87070f0773f75a1cc8015a1bd0015a19d80102670408205a17c00106105a86e3070755f752695a16b8015b1658015b17c0016576061a161f1a161e1a161d1a161c1a161b1a161a1a16191a16181a16171a16161a16151a16141a16131a16121a16111a16101a160f1a160e1a160d1a160c1a160b1a160a1a16091a16081a16071a16061a16051a16041a1603a0001a1602791a1601c3001a06086898042498075b1ad801657a0924a90a53770a5b17d001657a0a247a0b5b17c801657b0b6817e00206105c061d5b18e8025b12f8025b13e0025b1af002115b17d8011c780b24780c52705b14b80124430953b90c5b17d001707a0b247a0a5b17c80170720770a70724cb0a70a70770cb0b7008087098080c87077043080cb8080c78080cb7076a88206977200c87070f074cf61443085b17c0015a18d80106105e69e2070738f602680407015b19d8014e0804070400600550e204070610604be207071af60118580104070104094e0811040062681160ff5a1098005a1590005a1688006815a0001211e00407400408200400c4000512e204082004070610640ae20707d9f55b1658015d16185d16105d16085d064e487b71040704040820061066e8e10707b7f50d1620000000320d161c0d16180d16140d16100d160c0d16080d16040408240407061068bee107078df5026804070104092404006a4e0811040204035d2180015d2188015b17f8015a17c0015b1af0015b1ce8015b14e001760bdfffffff000000005a1b30015b1720015a17d801528b5b1728015b18d001115a1390015a12980152765a10a0015a1ba8015b17d8015a17b0015b17b8015a1768015a1970015a1878015b17c8015a17d8015a14c8015a1480035a1cd0015a1c88035a1ab8015a1a90035b17c0015a1798035d2138045d2130045d2128045d2120045d21d0035d21d8035d21c8035d21c003000102188003021a2004021bc0030409ff04074e02115b1aa00127a727685367085b1730015b19b0012497075b1ba80127b953b7090c6a075478090f098df45b1738045a17a0015b1730045a17a8015b1728045a17b0015b1720045a1760010116d801040820526706106c8ce05b1298015b139001070753f45b1758016576065b1760019d796a973810671f6a973010671e6a972810671d6a972010671c6a971810671b6a971010671a5b17a0019d775b18a8019d885b1ab0019daa1069186a9908106919106a106aa9381069176aa9301069166aa9281069156aa9201069146aa9181069136aa9101069126aaa08106a111068086a893810690f6a893010690e6a892810690d6a892010690c6a891810690b6a891010690a6a880810680910676a78381068076a78301068066a78281068056a78201068046a78181068036a78101068026a77081067015b14c8016844011b47015b18d0016578085a18d0010c84071b7b015b17b801657b0b5a1bb001247b075b18c0016578085a18c0016822011b27016573030c32071b7c015b178001657c0c247c075b1688016576065b10d8016807205a17c8015b1740012472085b1748011c730924730a53980a5b185001248c0b5b1738011c76095a168801247606539b061cc8080c98085b17c801240709538a065b1b7801659b0824b80a53990a5b10700165a00924090a5b176801657a0a5a1ab8015a1c80015b1cd0015b1ab0010f067afd5b1320015b17c80124370b5b1010011c080c24080653cb065b12180170290c706c04246c0c2429095b1628016569095b1ab801709a0a70ca0a70080c70bc0c70370b5a1a523752085229526a06106e1f0c04074004082006107085de070754f25b1a58015ba7485ba8405ba9505baa589d7b9d889d979da95a17405a18300c87070cb9080c78086a88205a1b380cb7076977200c87070f071af25a192802970408200406205a172006107234de070703f25b1758015b182065870710761f1a171e1a171d1a171c1a171b1a171a1a17191a17181a17171a17161a17151a17141a17131a17121a17111a17101a170f1a170e1a170d1a170c1a170b1a170a1a17091a17081a17071a17061a17051a17041a17031a17021a17015a17181a070408205b170801061074b8dd070787f15b1b3827b75b1c3027c853c7087607dfffffff000000005b19282497075b1a4027a953a7090ccb075478090f0958f15b1700010b78185a18c8000b78195a18a8000b781a5a18b8000b781b5a18b0000b781c5a18e0000b781d5a18c0000b781e5a18d8000b781f5a18d0000b78105a1830010b78115a18e8000b78125a18f8000b78135a18f0000b78145a1848010b78155a1808010b78165a1840010b78175a1838010b78085a1878010b78095a1850010b780a5a1868010b780b5a1860010b780c5a1890010b780d5a1870010b780e5a1888010b780f5a1880010b785a18b8010b78015a1898010b78025a18a8010b78035a18a0010b78045a18d8010b78055a18b0010b78065a18c8010b77075a17c0015b17286876205a16d001026604082052670610768cdc0f07060558f05b17a8006977085b18c8000c87075b18b8006988105b19b0006999180c98080c87075b18c0006988085b19e0000c98085b19d8006999105b1ad00069aa180ca9090c98086988200c78025b17e8006977085b1830010c87075b18f8006988105b19f0006999180c98080c87075b1808016988085b1948010c98085b1940016999105b1a380169aa180ca9090c98086988200c78035b1750016977085b1878010c87075b1968016999105b1a600169aa180ca9090c97075b1970016999085b1890010c89095b1a880169aa105b1b800169bb180cba0a0ca9096999200c79005b1798016977085b18b8010c87075b1aa80169aa105b1ba00169bb180cba0a0ca7075b1ab00169aa085b18d8010c8a0a5b1bc80169bb105b1cc00169cc180ccb0b0cba0a69aa200ca7075b1858016586061060086a7a38106a076a7a30106a066a7a28106a056a7a20106a046a7a18106a036a7a10106a026a7a08106a0110671063106a0a38106a0f6a0a30106a0e6a0a28106a0d6a0a20106a0c6a0a18106a0b6a0a10106a0a6a0a08106a091062186a3a38106a176a3a30106a166a3a28106a156a3a20106a146a3a18106a136a3a10106a126a3a08106a116a2a38106a1f6a2a30106a1e6a2a28106a1d6a2a20106a1c6a2a18106a1b6a2a10106a1a6a2a08106a195b1828688940529a2489065b1840656809529b24890c53660c5b1938659c0c0c37080c20060c6808249c065b19306596065a1ac8015a1bc0010f087f5b12285b1ac801242a045b18405b1bc0011c8b03248b095334095b1738707c03247c0c5b1730657c0c70c60624930c70c60670930c708b097049090c6909702a070cc7070c97070cc9086a77206988200c870707070605e1ed5b1728147a065b17205268061078ffd90f070605cbed0118180407526904007a4e08115d2198015d2190015d2180015d2188015b18285b19d0012489045b18406548095a19b0012489085344085b19386598085a18a8012498085b19306598085a18a0019d775a17609d075a17589d375a17509d275a17487607dfffffff000000005a17b8015b1418015b1310015b1220011127475b1a280127a853a7085b17b80124270727395a1310015337095a1418010ca4075478095a1678015a1c70015b17c0015a1768015b17c8015a17d801070906050bed5a122001022620040820526706107c28d90f070605f4ec5b1ba80127b75b1ca00127c853c7085b17b8015b19d0012497075b1ab00127a953a7090ccb075478095b1a58015b1bd80107090605bdec656a070b78185a1888000b76190b781a5a18780b781b5a18700b781c5a18a0000b781d5a1880000b781e5a1898000b781f5a1890000b78105a18c8000b78115a18a8000b78125a18b8000b78135a18b0000b78145a18e0000b78155a18c0000b78165a18d8000b78175a18d0000b78085a1808010b78095a18e8000b780a5a18f8000b780b5a18f0000b780c5a1840010b780d5a1800010b780e5a1838010b780f5a1830010b785a18a8010b78015a1848010b78025a1860010b78035a1850010b78045a18c8010b78055a18a0010b78065a18c0010b77075a17b00102b70408205a17d00106107e01d85b1298015b1390015b1488010f070605c1eb5b1720016878205a18682478075b1810016578095a1920012489095377095b1718016579095a1910012479075b1828016578085a1828016966085b1788000c67075b18786988105b1a7069aa180ca8080c87075b1880006988085b19a0000c98085b1a980069aa105b1b900069bb180cba0a0ca8086988200c780a5b17a8006977085b18c8000c87075b18b8006988105b1bb00069bb180cb8080c87075b18c0006988085b19e0000c98085b1bd80069bb105b1cd00069cc180ccb0b0cb8086988200c780b5b17e8006977085b1808010c87075b18f8006988105b1cf00069cc180cc8080c87075b1800016988085b1940010c98085b1c380169cc105b1630016966180c6c0c0cc8086988200c780c5b1748016977085b18a8010c87075b1860016988105b1650016966180c68080c87075b18a0016988085b19c8010c98085b16c0016966105b19b0016999180c69090c98086988200c87075b16d0015b1858016586066a78381068076a78301068066a78281068056a78201068046a78181068036a78101068026a780810680110676ac73810670f6ac73010670e6ac72810670d6ac72010670c6ac71810670b6ac71010670a106c086acc08106c096ab7381067176ab7301067166ab7281067156ab7201067146ab7181067136ab710106712106b10106a186abb08106b116aa73810671f6aa73010671e6aa72810671d6aa72010671c6aa71810671b6aa71010671a6aaa08106a196822011b27016573030c32071b77015b1880016587072487086584045b18485a1298012482085b1a501ca3095a13900124a30a53980a5b1c5824c7095b18601c840b5a14880124840853b9081cc7090cb909539a085b10d8016809205a19c8012409095b1b6801659b0a5a1ac00124ba0c53990c5b1a700165ac0c24ac065b1978016596065a1780015b12685b1320015b1410015a10d0015a1bb0015a1aa8015a19a0010f08b8fb05c8fa6811a05a10585a15505a16486815601211e052165a64305a6c385d16105d16185d16205a68285a6708040820040706208000fad40707be005b576977206a77209d775b68309d885b69389d99040a1000026203100002600928000260082000025a6a38600718000204072004082006208200bad407077e5b67109d775b68189d885b69209d995b6a289daa5b6b385aba385ab9305ab8285ab72004084004070620840089d407074d6817e01279e05a6930529101673802990408404e035b6a305ba7185ba8105ba9085baa9d779d889d999daa5b6b085aba185ab9105ab8085ab76851a05b10585b15505b16486811601300006811a05a10585a15505a16486815601211e052165a6b205a6a285a69305a68385a67180408200407062086000dd407078c005b67209d775b68289d885b69309d995b6a389daa040b100002600a280002600920000260081800025a6b386007100002040820040706208800ced307074d6817e01279e05a6930529101673802990408204e035b6a305ba7185ba8105ba9085baa9d779d889d999daa5b6b185aba185ab9105ab8085ab76851a05b10585b15505b16486811601300006811a05a10585a15505a16486815601211e052165a64305a6c385d16105d16185d16205d16285a6708040820040706208a004cd30707bd005b57085b589d779d885b69309d995b6a389daa040b100002600a280002600920000260081800025a6b38600710000204072004082006208c000dd307077e5b67109d775b68189d885b69209d995b6a289daa5b6b385aba385ab9305ab8285ab720040840040706208e00dcd207074d6817e01279e05a6930529101673802990408404e035b6a305ba7185ba8105ba9085baa9d779d889d999daa5b6b085aba185ab9105ab8085ab76851a05b10585b15505b16486811601300000f070400040810000202880407010409040092004e08116811d85a10205a15185a161052735b122868b51f24b50b65bc0624c60c53bb0c654c0c244c071255e05a130865530324530065860b650b041c640b24640553b005659c0b65b50524b50624cb0b65a202657202652b0b65b606276b275c546b0c0c6502274b542c0b0f0b735b17082473071c840b24840853b7082495071ca60b24a60a53b70a1c59090cb90953980a0f0a4c5a145a130804074004082006209400d4d107079c009d679d585b199d995b1a089daa040b100002600a6800026009600002600858000260075000025b10205b15185b1610681128130004082004070620960091d1070759040510000262032800026203200002620318000262031000024e487b710407040408200620980065d107072d0d1520000000410d151c0d15180d15140d15100d150c0d15080d1504040824040706209a003bd10f070400025804070104092404009c004e08116811a05a10585a15505a164852b6528b5a19400c69080cab090c89096a99205a1a300ca8086988200c98085a17200f081e0202b504082052575a1b3806209e00e6d007070a0204071000025a17286557071a171f201a171e1a171d1a171c1a171b1a171a1a17191a17181a17171a17161a17151a17141a17131a17121a17111a17101a170f1a170e1a170d1a170c1a170b1a170a1a17091a17081a17071a17061a17051a17041a17031a17021a17015b1a3027a8526927665398067608dfffffff000000005b1b3824b8085b1b4027bc5a1c1854bc085a19080ca9095a19105496081a070f0868015a1502552004082052570620a00030d0070754015b17286575051a151f0c1a151e1a151d1a151c1a151b1a151a1a15191a15181a15171a15161a15151a15141a15131a15121a15111a15101a150f1a150e1a150d1a150c1a150b1a150a1a15091a15081a15071a15061a15051a15041a15031a15021a15017607bfffffff000000005b18382487075b18405b19185489075b18105486071a050f07cb005b1702764004082004052052670620a20090cf0707b4005b17286576061a161f1a161e1a161d1a161c1a161b1a161a1a16191a16181a16171a16161a16151a16141a16131a16121a16111a16101a160f1a160e1a160d1a160c1a160b6b1a160a6e1a1609691a16086c1065071a1606641a1605691a16046c1a1603611a1602761a16016e1a06495b18386887602487085b1a40658a0924a90a53880a5b1830658a0a248a085b1b0865b8085b1b205ab75ab9085aba105ab8185b10585b15505b16486811601300006811905a10685a15605a16586815701211f00408317731770707146851905b10685b15605b165868117013000407400408200620a400a3ce0707660104061000025f075800025f085000025f096000025f0a6800029d7b9d8c9d979da85a17205a1c100cc7075a18280cb8080c78086a88205a1b180cb7076977200c87070f0720010117280408205a17080620a6004ace07070d015b17086576061a161f1a161e1a161d1a161c1a161b1a161a1a16191a16181a16171a16161a16151a16141a16131a16121a16111a16101a160f1a160e1a160d1a160c1a160b1a160a1a16091a16081a16071a16061a16051a16041a1603a0001a1602791a1601c3001a06085b17286878042478075b1a20657a0924a90a53770a5b1718657a0a247a0b5b1710657b0b6817300620a8008cfc5b18385b12485b13305b1a405b17201c780b24780c52705b142824430953b90c5b1718707a0b247a0a5b171070720770a70724cb0a70a70770cb0b7008087098080c87077043080cb8080c78080cb7076a88206977200c87070f07185b17281473085b17085a18280620aa0040cd0f07040002680407015b19280400ac004e08116811a05a10585a15505a164852b6528b5a19400c69080cab090c89096a99205a1a300ca8086988200c98085a17200f08250202b504082052575a1b380620ae00ebcc0707110204071000025a17286557071a171f201a171e1a171d1a171c1a171b1a171a1a17191a17181a17171a17161a17151a17141a17131a17121a17111a17101a170f1a170e1a170d1a170c1a170b1a170a1a17091a17081a17071a17061a17051a17041a17031a17021a17015b1a3027a8526927665398067608dfffffff000000005b1b3824b8085b1b4027bc5a1c1854bc085a19080ca9095a19105496081a070f086f015a1502552004082052570620b00035cc07075b015b17286575051a151f141a151e1a151d1a151c1a151b1a151a1a15191a15181a15171a15161a15151a15141a15131a15121a15111a15101a150f1a150e1a150d1a150c1a150b1a150a1a15091a15081a15071a15061a15051a15041a15031a15021a15017607bfffffff000000005b18382487075b18405b19185489075b18105486071a050f07d2005b1702764004082004052052670620b20095cb0707bb005b17286576061a16116d1a160d631a160b791a1613641a160a641a1612651a1608651a1607721a160e6c1a16066c1a160f611a1609611a1605611a161f1a161e1a161d1a161c1a161b1a161a1a16191a16181a16171a16161a16151a161410650c1065041a16036b1a16026e1a1610691a1601691a064c5b18386887602487085b1a40658a0924a90a53880a5b1830658a0a248a085b1b0865b8085b1b205ab75ab9085aba105ab8185b10585b15505b16486811601300006811905a10685a15605a16586815701211f00408317731770707146851905b10685b15605b165868117013000407400408200620b400a1ca0707660104061000025f075800025f085000025f096000025f0a6800029d7b9d8c9d979da85a17205a1c100cc7075a18280cb8080c78086a88205a1b180cb7076977200c87070f0720010117280408205a17080620b60048ca07070d015b17086576061a161f1a161e1a161d1a161c1a161b1a161a1a16191a16181a16171a16161a16151a16141a16131a16121a16111a16101a160f1a160e1a160d1a160c1a160b1a160a1a16091a16081a16071a16061a16051a16041a1603a0001a1602791a1601c3001a06085b17286878042478075b1a20657a0924a90a53770a5b1718657a0a247a0b5b1710657b0b6817300620b80085fc5b18385b12485b13305b1a405b17201c780b24780c52705b142824430953b90c5b1718707a0b247a0a5b171070720770a70724cb0a70a70770cb0b7008087098080c87077043080cb8080c78080cb7076a88206977200c87070f07185b17281473085b17085a18280620ba003ec90f07040002680407015b19280400bc004e08116811a05a10585a15505a164852b6528b5a19400c69080cab090c89096a99205a1a300ca8086988200c98085a17200f081e0202b504082052575a1b380620be00e9c807070a0204071000025a17286557071a171f201a171e1a171d1a171c1a171b1a171a1a17191a17181a17171a17161a17151a17141a17131a17121a17111a17101a170f1a170e1a170d1a170c1a170b1a170a1a17091a17081a17071a17061a17051a17041a17031a17021a17015b1a3027a8526927665398067608dfffffff000000005b1b3824b8085b1b4027bc5a1c1854bc085a19080ca9095a19105496081a070f0868015a1502552004082052570620c00033c8070754015b17286575051a151f0c1a151e1a151d1a151c1a151b1a151a1a15191a15181a15171a15161a15151a15141a15131a15121a15111a15101a150f1a150e1a150d1a150c1a150b1a150a1a15091a15081a15071a15061a15051a15041a15031a15021a15017607bfffffff000000005b18382487075b18405b19185489075b18105486071a050f07cb005b1702764004082004052052670620c20093c70707b4005b17286576061a161f1a161e1a161d1a161c1a161b1a161a1a16191a16181a16171a16161a16151a16141a16131a16121a16111a16101a160f1a160e1a160d1a160c1a160b641a160a651a1609721a1608691a1607701a1606781a1605651065041a16036b1a16026e1a1601691a064c5b18386887602487085b1a40658a0924a90a53880a5b1830658a0a248a085b1b0865b8085b1b205ab75ab9085aba105ab8185b10585b15505b16486811601300000707eb0004091000025f076000025a17185f075800025f086800025a195f095000025a19109d769d875a17080217204e07115b1a080c6a075b18185b19100c98089d880c87076a77200c68086988200c87070f0799005b1b205b17385b18285b19300c87070c9b080c78086a88200c97076977200c87070f077402a65a1b1802b852675a18100620c60052c607075f5b171803174052675b165a171808670702184004094e06110117405b18102f873e0217604e07115b18705b19785b1a685b17600ca9090c870a0c9a0a6aaa200c98086988200ca8080f081402785b17185a18100620c800f6c50f0704005b18180868080407015b19100400ca004e08116811a05a10585a15505a164852b6528b5a19400c69080cab090c89096a99205a1a300ca8086988200c98085a17200f08270202b504082052575a1b380620cc009dc50707130204071000025a17286557071a171f201a171e1a171d1a171c1a171b1a171a1a17191a17181a17171a17161a17151a17141a17131a17121a17111a17101a170f1a170e1a170d1a170c1a170b1a170a1a17091a17081a17071a17061a17051a17041a17031a17021a17015b1a3027a8526927665398067608dfffffff000000005b1b3824b8085b1b4027bc5a1c1854bc085a19080ca9095a19105496081a070f0871015a1502552004082052570620ce00e7c407075d015b17286575051a151f171a151e1a151d1a151c1a151b1a151a1a15191a15181a15171a15161a15151a15141a15131a15121a15111a15101a150f1a150e1a150d1a150c1a150b1a150a1a15091a15081a15071a15061a15051a15041a15031a15021a15017607bfffffff000000005b18382487075b18405b19185489075b18105486071a050f07d4005b1702764004082004052052670620d00047c40707bd005b17286576061a16166d1a1615691a1614611a160d611a1612631a160c631a1610721a160a721a1608641a1611651a1609651a1606651a1605731a161f1a161e1a161d1a161c1a161b1a161a1a16191a16181a161710650f10650b1065041a1603791a16136c1a16026c1a160e6e1a16076e1a16016e1a064f5b18386887602487085b1a40658a0924a90a53880a5b1830658a0a248a085b1b0865b8085b1b205ab75ab9085aba105ab8185b10585b15505b16486811601300006811a05a10585a15505a164852b6528b5a19400c69080cab090c89096a99205a1a300ca8086988200c98085a17200f08220202b504082052575a1b380620d20047c307070e0204071000025a17286557071a171f201a171e1a171d1a171c1a171b1a171a1a17191a17181a17171a17161a17151a17141a17131a17121a17111a17101a170f1a170e1a170d1a170c1a170b1a170a1a17091a17081a17071a17061a17051a17041a17031a17021a17015b1a3027a8526927665398067608dfffffff000000005b1b3824b8085b1b4027bc5a1c1854bc085a19080ca9095a19105496081a070f086c015a1502552004082052570620d40091c2070758015b17286575051a151f121a151e1a151d1a151c1a151b1a151a1a15191a15181a15171a15161a15151a15141a15131a15121a15111a15101a150f1a150e1a150d1a150c1a150b1a150a1a15091a15081a15071a15061a15051a15041a15031a15021a15017607bfffffff000000005b18382487075b18405b19185489075b18105486071a050f07cf005b1702764004082004052052670620d600f1c10707b8005b17286576061a161f1a161e1a161d1a161c1a161b1a161a1a16191a16181a16171a16161a16151a16141a16131a16121a1611481a1610541a160f4510650e1a160d651a160c6d1a160b6f1a160a731065091a1608641a16076e1a1606651a1605731065041a1603741a1602731a1601751a064d5b18386887602487085b1a40658a0924a90a53880a5b1830658a0a248a085b1b0865b8085b1b205ab75ab9085aba105ab8185b10585b15505b16486811601300005b6bb8005b6cb0005b69a8000cbc071b9801567807080b025b67a0005a67206877011b78016598085a69280c87091b990165c90924c90a65ab025b6a405a6ae0005b6a485a6ae8005b6a505a6af0005b6a585a6af8005a6b38681be012bbe052b15ab2185ab9105ab8085ab702ba0268e0000409ff040b2004075a6c304e0a5b67585a6798015b67505a6790015b67485a6788015b67405a6780015d2678015d2670015d2668015d2660015d2650015d2658015d2648015d264001000102688001026a6001026b40010409ff04074e02115b6778015b6260015b6970015b6a68015b68381c870b2478085b673024970c54b80c5b68281c8a0324a80a5b6820242808543a081c97070cb707547c08070857015b575a676867605b68405b69485b6a505b6b580620d800d8eb5b67685b68605b62785b63705b6b28657b0b5b6c20658c0c248c095a6c58659b081c780b247807528a5a685053b9075b68306538086587075a67482487045b6b3865b2092438086598086548085a68405a6c60015a6a68015a6770015a6878015d2658015d2650015d2648015d2640015d2630015d2638015d2628015d262001000102686001026a4001026b20010409ff04074e025b67405a6798015b67485a6790015b67505a6788015b67585a6780015b675a6718015b67085a6710015b67105a6708015b67185a67000102688001026a00010409ff040b2004074e0a685140fe5b10b8015b15b0015b16a8016811c001130004082004070620da000ebf0707a80004081000026203280002620320000262031800025a685862031000024e487b710407040408200620dc00debe070778040700000041054604082004070620de00c8be07076204081000026203280002620320000262031800025a685862031000024e487b710407040408200620e00099be070733040700000032115b68580387200d181c0d18180d18140d18100d180c0d18080d180404082404070620e20069be0f0704000168580407010409240400e4004e08116811e0fc5a1018035a1510035a160803681520031211e052165a6b305a6a285a69205a68185a67105d2698015d2690015d2688015d268001026780014e0b115b6790015b6898015b6988015b6a80010c98080ca7070c87070f07060525160267a0014e015b67a8010168b0015b69a0019d77697a209d886a88200ca80c6a77209d986989200c79046a89206811f05d1108686760010408015a19040b0620e6008be86811105b6778015b6870015b6968015b6a60015a67f8025a68f0025a69e8025a6ae0025d26d8025d26d0025d26c8025d26c0025d26b0025d26b8025d26a8025d26a00200010268e002026ac002026ba0020409ff04074e025b67d8025a67705b67d0025a67685b67c8025a67605b67c0025a67580267c0014e016367d0015a6798005b67c8015a6790005b67c0015a6788000267e0014e055b67f8015a67485b67f0015a67505b67e8015a67405b67e0015a67380407400408200620e800f3bc0f0706052417040a1000025f075000025f085800025f096000025a6ad8005f0a6800029d729d8c9d989da9689a20249a0765780b5a68a800248b0853770865c8085a6cb00024c8075a62b8006572025a6ac8000c8a075a6bc0005a62780c2b0a0ca7076a77205a6880000ca8086988200c870707070605b1165a69a0000297200408205a67d0000620ea0066bc0f07060597165b67d8005b62d0006527085b6988006a97381087076a97301087066a97281087056a97201087046a97181087036a97101087026a970810870110895b6a90006aa73810870f6aa73010870e6aa72810870d6aa72010870c6aa71810870b6aa71010870a1a181f1a181e1a181d1a181c1a181b1a181a1a18191a18181a18171a18161a1815108a085b6998001089106aa7081087096a97181087136a97101087126a97081087115b6b800027b75b6c7827ca53c70a7607ebffffff000000005b69c8002497070ccb0b5b69c000279c5a6c8800549c075a6a98005a6b900054ba075a68781a181407070605ab150227140408205a6780000620ec0064bb0f07060595157607cbffffff000000005b68c8002487075b68c0005b6988005489075b6898005b6990005498075b68d8005b6980006598085b69589d996a9a38108a1f6a9a30108a1e6a9a28108a1d6a9a20108a1c6a9a18108a1b6a9a10108a1a5b6a609daa1089186a99081089196aa9381089176aa9301089166aa9281089156aa9201089146aa9181089136aa9101089125b69689d99108a106aaa08108a116a9a38108a0f6a9a30108a0e6a9a28108a0d6a9a20108a0c6a9a18108a0b6a9a10108a0a5b6a709daa1089086a99081089096aa9381089076aa9301089066aa9281089056aa9201089046aa9181089036aa910108902108a6aaa08108a010707060596145b67d0000277340408205a67c8000620ee004bba0f0706057c145b67d8005b68c8006587075b68389d886a893810791f6a893010791e6a892810791d6a892010791c6a891810791b6a891010791a5b69409d991078186a88081078196a98381078176a98301078166a98281078156a98201078146a98181078136a98101078125b68489d885b6a509daa1079106a9908107911107a086aa93810790f6aa93010790e6aa92810790d6aa92010790c6aa91810790b6aa91010790a6aaa08107a096a89381079076a89301079066a89281079056a89201079046a89181079036a89101079025b6bb0005b62a0000cb2095b6ab8005b6ca8000cca0a0ca9096a99200cba0a69aa200ca90910786a8808107801070906057f1302270408205a67c8000620f00039b90f0706056a135b67d8005b68c8006578081a181f541a181e1a181d1a181c1a181b1a181a1a18191a18181a18171a18161a18151a18141a18131a18121a18111a18101a180f1a180e1a180d1a180c1a180b1a180a1a18091a18081a18071a18061a18051a18041a18031a18021a18015a68c0001a086811f8040b745d015b67a0005b68a8005b69b0005b6ab800040c04040620f20031e66811080408205b67c8000620f40092b80f070605c3125b60c0000b07190b08180b091a0b0a1b6977080c870769991069aa180ca9090c97070b081d0b091c0b0a1e0b0b1f6988080c980869aa1069bb180cba0a0ca8086988200c78020b08090b09080b0a0a0b0b0b6988080c980869aa1069bb180cba0a0ca8080b090d0b0a0c0b0b0e0b0c0f6999080ca90969bb1069cc180ccb0b0cb9096999200c89030b09010b0a0b0b020b0c036999080ca90969bb1069cc180ccb0b0c9b040b0a110b0b100b0c120b071369aa080cba0a69cc106977180cc7070c7a0a0b07050b0b040b0c060b08076977080cb70769cc106988180cc8080c78080b07150b0b140b0c160b09176977080cb70769cc106999180cc9090c79099d3b9d270cb70c0c98086988200c4a090c98089d880c8c0c6acc200cb8086988200cc808070806059a1102785b67d0005a68d0000620f60053b70f07060584116817e01279e05a69c800529101677802995b68d0004e035b68c8005b87185a67705b87105a67685b87085a67605b875a6758026700024e01016710025a67a8005b6700025a67a0005b6708025a6798006817e01277e05a67d00052715d17185d17105d17085d0702774e0b5b68d0005b87185a6790005b87105a6788005b87085a6780005b875a67780407400408200620f800b8b60f070605e9105b6ad8005ba7405ba8485bac505bab589d7a5a6ac0009d895a69b8009dc85a68d0009db75a67c8006811f8040b80005d01040c04040620fa0006e45b69c8006811085b68d0005b67c0000c87075b6ab8000ca9080c78086a88200ca7076977200c870707070605801002970408205a67b0000620fc003ab60f0706056b105b6798009d796a98205b67a0009d77697a200ca8086999205b6aa8009daa6aaa200ca9095b6ad8005b62b000652a0b9d996a9a3810ba1f6a9a3010ba1e6a9a2810ba1d6a9a2010ba1c6a9a1810ba1b6a9a1010ba1a9d8810b9186a990810b9196a893810b9176a893010b9166a892810b9156a892010b9146a891810b9136a891010b9126a77209d771a1b0b1a1b0a1a1b091a1b071a1b061a1b051a1b041a1b031a1b021a1b0110b8106a880810b81110b7086a783810b80f6a783010b80e6a782810b80d6a772010b70c5b6ab80027a75b68c00027895387097607dfffffff000000005b6cc80024c7070c8a0a5b68d000278c5a6ca800548c075a69c0005a6ab80054a9075a6b501a0b0f075d0f0227200408205a67a0000620fe0015b50707490f5b67d8005b69a0006579095b67789d776a783810981f6a783010981e6a782810981d6a782010981c6a781810981b6a781010981a5b6880009d881097186a77081097196a87381097176a87301097166a87281097156a87201097146a87181097136a87101097125b6788009d771098106a88081098116a783810980f6a783010980e6a782810980d6a782010980c6a781810980b6a781010980a5b6890009d881097086a770810970910986a87381097076a87301097066a87281097056a87201097046a87181097036a87101097026a88087607bfffffff000000005b6ac80024a7075b6ad0005b6ba80054ab075b6ac0005b6bb80054ba075a69481098010f07460e5b67b0000277400408205a67980006200001fab307072e0e76079fffffff000000005b68c8002487075b68d0005b69a8005489075b68c0005b69b8005498075b68d8005b6a9800658a0a5b68189d886a893810a91f6a893010a91e6a892810a91d6a892010a91c6a891810a91b6a891010a91a5b69209d9910a8186a880810a8196a983810a8176a983010a8166a982810a8156a982010a8146a981810a8136a981010a8125b68289d8810a9106a990810a9116a893810a90f6a893010a90e6a892810a90d6a892010a90c6a891810a90b6a891010a90a5b69309d9910a8086a880810a8096a983810a8076a983010a8066a982810a8056a982010a8046a981810a8036a981010a80210a96a99085a6a4010a9010f072e0d5b67b0000277600408205a67a80006200201e2b20707160d5b67589d795b67609d785b67689d745b67709d7c5b67d8005b6aa80065a7071a171f1a171e1a171d1a171c1a171b1a171a1a17191a17181a17171a17161a17151a17141a17131a17121a17111a17101a170f1a170e1a170d1a170c1a170b1a170a1a17091a17081a17071a17061a17051a17041a17031a17021a17015a67601a076811f05a69785a1908686740015a6880005a18040b5a6c90005a64880006200401c0de6811105b6758015a67d0005b6750015a67c8005b6748015a67c0005b6740015a67b8000408205b67b000062006010ab207073e0c5b62500b27110b28100b29120b2a136977080c870769991069aa180ca9090c97070b28150b29140b2a160b2b176988080c980869aa1069bb180cba0a0ca8086988200c87070b28190b29180b2a1a0b2b1b6988080c980869aa1069bb180cba0a0ca8080b291d0b2a1c0b2b1e0b2c1f6999080ca90969bb1069cc180ccb0b0cb9096999200c98080b290d0b2a0c0b2b0e0b2c0f6999080ca90969bb1069cc180ccb0b0cb9099d885a68b0009d775a67709d976a77205a67685b67d0005a67d8025b67c8005a67d0025b67c0005a67c8025b67b8005a67c0025d26b8025d26b0025d26a8025d26a0025d2690025d2698025d2688025d26800200010268c002026aa002026b80020409ff04074e026367b4026977205b68b8025b69680c97075b69d0005a69f8025b69c8005a69f0025b69c0005a69e8025b69b8005a69e0025b69705a6968025b69b0005a6960025a6878025a6770020268e002026a60020409ff040b2004074e0a0408205b67a0000620080192b00707c60a5b64480b47010b480b49020b4a036977080c870769991069aa180ca9090c97070b48050b49040b4a060b4b076988080c980869aa1069bb180cba0a0ca8086988200c78020b48090b49080b4a0a0b4b0b6988080c980869aa1069bb180cba0a0ca8080b490d0b4a0c0b4b0e0b4c0f6999080ca90969bb1069cc180ccb0b0cb9096999200c89030b49110b4a100b4b120b4c136999080ca90969bb1069cc180ccb0b0cb9090b4a150b4b140b4c160b471769aa080cba0a69cc106977180cc7070ca7076977200c97000b47190b4a180b4b1a0b4c1b6977080ca70769bb1069cc180ccb0b0cb7070b4a1d0b4b1c0b4c1e0b481f69aa080cba0a69cc106988180cc8085b6bb80068bc010ca8081bca015b6bc00065ab0b6988200c780a0cbc075a6b505a6c581b77015b68c8006578095a69485d26800200012489075b68d0006578085a68389da75a67b0009d075a67a0009d375a67709d275a67685a6bc8025a6cc0025a69d0025a68d8025d26b8025d26b0025d26a8025d26a0025d2690025d2698025d2688020268c002026aa002026b80020409ff04074e025b67385a67f8025b67485a67f0025b67505a67e8025b67585a67e0025b67685a6778025b67705a6770025b67a0005a6768025b67b0005a6760020268e002026a60020409ff040b2004074e0a0408205b67980006200a019cae0707d0085b67b80068790224790852905a69685b67c0006587022472045a62585388045b67400b78010b790b7a020b7b036988080c980869aa1069bb180cba0a0ca8080b79050b7a040b7b060b7c076999080ca90969bb1069cc180ccb0b0cb9096999200c98085a68b0000b79090b7a080b7b0a0b7c0b6999080ca90969bb1069cc180ccb0b0cb9090b7a0d0b7b0c0b7c0e0b780f69aa080cba0a69cc106988180cc8080ca8086988200c98030b78110b7a100b7b120b7c136988080ca80869bb1069cc180ccb0b0cb8080b7a150b7b140b7c160b791769aa080cba0a69cc106999180cc9090ca9096999200c890a0b78190b79180b7b1a0b7c1b6988080c980869bb1069cc180ccb0b0cb8080b791d0b7b1c0b7c1e0b771f6999080cb90969cc106977180cc7075b6bc80065b4045a64500c970724b4095b6bd00065b9095a69486977200c87079d775a67a0009da75a6798009d375a67705b67b0009d775a67b0005a62c8025a60c0025a64d0025a69d8025d26b8025d26b0025d26a8025d26a0025d2690025d2698025d2688025d26800200010268c002026aa002026b80020409ff04074e025b67485a67f8025b67505a67f0025b67585a67e8025b67685a67e0025b67b0005a6778025b67705a6770025b6798005a6768025b67a0005a6760020268e002026a60020409ff040b2004074e0a0408205b67a80006200c019aac0707ce065b67b8006878035a68b0002478075b68c0006578095a69b8002489085377085b67c8006578085a68c0002478075b68d0006587075a67d0005b62600b27110b28100b29120b2a136977080c870769991069aa180ca9090c97075a67c8000b28010b290b2a020b2b036988080c980869aa1069bb180cba0a0ca8085a68a8000b29150b2a140b2b160b2c176999080ca90969bb1069cc180ccb0b0c9b040b2a050b2b040b2c060b270769aa080cba0a69cc106977180cc7070ca7000b27190b2b180b2c1a0b281b6977080cb70769cc106988180cc8080c78030b27090b28080b2c0a0b290b6977080c870769cc106999180cc9090c790c0b271d0b281c0b291e0b2a1f6977080c870769991069aa180ca9090c790b0b280d0b290c0b2a0e0b270f6988080c980869aa106977180ca7070c87070cb7070c3c086977200c87070c40085b69c8005b6aa8000ca9096988200c98080c870727775a67c8005b67b8005a67c8025b67b0005a67c0025b67c0005a67d0025b67d0005a67d8025d26b8025d26b0025d26a8025d26a0025d2690025d2698025d2688025d26800200010268c002026aa002026b80020409ff04074e025b67a0025b68a8025b69b0025b6ab802127700ff5b6bc8000cb7075b6bd0005a6bf8025b6bc0005a6bf0025b6bb8005a6be8025b6bb0005a6be0025a6a78025a6970025a6868025a6760020268e002026a60020409ff040b2004074e0a026720024e015b672802016830025b6920029d77697a209d886a88200ca80c6a77209d986989200c79046a89206811f05d1108686720010408025a19040b06200e011dd56811105b6a38015b6930015b6828015b6720016811f85b6b785a1b5b6b90005b6c88005b64800004001001681140fe5a10b8015a15b0015a16a8016815c0011211e052165a64085a6c105a6b185a6a585a6ad8005a69505a69d0005a68485a68c8005a67405a67c0005d26b8005d26b0005d26a8005d26a0005d2698005d2690005d2688005d26800000010268c000026aa000026b80000409ff04074e02056fe8681108026740024e015b674802016850025b6940029d77697a209d886a88200ca80c6a77209d986989200c79046a89206811f05d1108686700010408015a19040b0620120135d46811105b6a18015b6910015b6808015b6700015a6ab8005a6af8025a69c0005a69f0025a68c8005a68e8025a67d0005a67e0025d26d8025d26d0025d26c8025d26c0025d26b0025d26b8025d26a8025d26a00200010268e002026ac002026ba0020409ff04074e02115b67c0025b68d8025b69c8025b6ad002687b011bb7016579090c9b071b7701657a0c24ac076587075a69a8005a6798000c97075a6bb0005a6ca0000ccb080c870707078b025b67c8005a67c8025b67d0005a67c0025b67c0005a67d0025b67b8005a67d8025d26b8025d26b0025d26a8025d26a0025d2690025d2698025d2688025d26800200010268c002026aa002026b80020409ff04074e025b67b8005a67f8025b67c0005a67f0025b67c8005a67e8025b67d0005a67e0025b6798005a6778025b67a0005a6770025b67a8005a6768025b67b0005a6760020268e002026a60020409ff040b2004074e0a5b67105b68785a78185b6880005a78105b6888005a78085b6890005a786851e0fc5b1018035b1510035b16080368112003130004074004082006201401c9a70707fd01040a1000025f075800025f085000025f096000025a6ab8005f0a6800029d7b9d8c9d979da85a67d0005a6cc0000cc7075a68d8000cb8080c78086a88205a6bc8000cb7076977200c87070f07af010167d8000408205a67b0000620160166a707079a015b67b0005b68b8006578081a181f1a181e1a181d1a181c1a181b1a181a1a18191a18181a18171a18161a18151a18141a18131a18121a18111a18101a180f1a180e1a180d1a180c1a180b1a180a1a18091a18081a18071a18061a18051a18041a1803a0001a1802791a1801c3005a68b8001a08085b67d8006878042478075b6ad000657a0924a90a53770a5b67c800657a0a247a0b5b67c000657b0b6867e0000620180139e35b68e8005b62f8005b63e0005b6af0005b67d0001c780b24780c52705b64d80024430953b90c5b67c800707a0b247a0a5b67c00070720770a70724cb0a70a70770cb0b7008087098080c87077043080cb8080c78080cb7076a88206977200c87070f078f005b67d8001473085b67b0005a68d80006201a0142a60707760168b8000407015b69d8004e0804082004001c010525a604082006201c011fa60707535b68d8005d18185d18105d18085d084e487b7104070404082006201e01fda50707315b68d8000d1820000000110d181c0d18180d18140d18100d180c0d18080d1804040824040706202001cfa50f0704000168d8000407010409244e0804070400220105fda5040706202201f8a504070106202401efa500a58424092a241452482549928a10a15a082124429224252142082180842425a926494992842449aa9224494a4848a8292449b54226a511119124242184104208a152922480102194202208228808081111d188882449082124499224492a294992482a8024a924a922294444444412924892a2288a8888888888888808222235222249922411111111a59044244a92244992284992244992444992244992244a9224499224251211112112894412894824894412091110101011118d88481221849024499224a9a424894892aa44858888884892248988888888888888202252111149aa104924492211111111111144442a52218a885212298944444444444444441011a91111892492242222222222222282884845444444444444444444440411918a888888888888a4a288888888888848040484888868444492082184244992244925254944520124494552455288888888181111114144a4222222224915898888464424899224499224492a29492292a42a512122222292244922222222222222228888544444922a4412499248444444444444440411918a548822222222228924492422222222228288488d888824924822491249884892aa24491211512244119124499224499224499224091192449248221122229224499224a9a424891042a88a10111111931091249594248928852812455194244992244992244992244992244992242949922449928428b5888868444492284992244992a492922422a90092a422a924298aa2442a444444444444444444441011a9111189441249244922222222222222228288488d888824924822491211111122222291244924892489884844443422224942082149922449524949920a3192a42a5121222222222222222222828848259124924844444444444444440411918a2492449288888888888888888808222215111111114924892411111111111144442a921011495295244922a2448488481445499224494a922449922449922449922449921425804894241111911422122549922449942449922449a22449922449122529499224491240242211494412210288442422118992244992244a92244992245192244992248992244992244949445288289224499224499224499224498a0811512322222222222222888854444424222222222222928a222222222222222222228288484544444444448c0a512122444404101111111171242122492a294912558848350911495295244922224a8428229224499224499224499224214292481249244244c4488a2492489224499224918810252a2944a42622229244528848122421024992248528492b2222220288882246141111111111111111111111114144a44625225192888888888814222212254992244914454992244992244992244992242949922449924822914422914892441289442492442291249144924822111111914812491289244955210911495295244992444a1222922449922449922449922449921221524a00494a129148241289442291482412894422914824128944225124128944229148a21492482412492291482449229148248944229124894422912412894492241289449248241249924892244992242949922449922449922449922449922449929294244992442491449224499224499224499242924a232212492249224994524a0011118b1229124944444412492189a244244a12912491244924128944229148241289442291482412892291482412894489101149248944128944229124492291482449229148248944229124894422912412894492241289449248241249928824499224495292244992244992244992244992244992244912491249224992489244229148228944222222224992942449521025a514420809499094524a92a420494a2949aa4a9292244d92a424490a22a594420821210549524a4952559294246992242549921444aa94420821210992524a499214244929254955495292a4194ad12429499224499224499224959424499224494a1244550a21849024a52021841020091248922429c89268925492244912a504119248922449922449922449922455024852922445494124912449922449922449922449004992a4284941244992244992244912119188888824499224494a92244d92a44a92a424881042085549922449224910499224499224499224499284084992244992044992a42449922449922449922441964493a49224499228258890449224499224499224499224a91240929224294a0a228924499224499224499224490248922445490a22898888888888882449922449222292244992242949923449922a49929220420821542549922489244124499224499224499224491222244992244912244992922449922449922449920459124d924a922449a2942042124992244992244992244992a44a00494a92a42829882492244992244992244992240920499214252988244992244992244922222222119124499224494992a411424228a49226494a924492244992944a90a492d424699224499294049924d124a9244992244a092224912449922449922449922449aa0490a424498a92824822499224499224499224499200922449519282482222222222222249922449222222922449922429499234492a49922489528208492449922449922449922449922a0124294992a2a420924892244992244992244992248024495294a42092244992244922221111898848442449922449529224694424452449922489442291a424154929914824222222228888d48888244992244912952409922449922425499224492222222222228888542291481489442222a988882805114208099004094a41420821019220c1244992a420934423222225492222a21111499228224a494a92442a48444444444444440411918a442291282222228a4422912448420821425592481289442249224912490449442249922449922249922449922449922492244912a504104914894892241124014422129188a424499224494992244992242549922449929424499224494a92482248229292244992242549922449929492244992244992244992248948449224254989208948244992244992244992244912254544549044904492244992244992244992244992244992a424499224499224499224499224492a4952922429224892284591244989222222922849158944a22441124952144591a8824844224992a444904489924449444a922449929224499224494a92244992244992248a12402451242229920822222949922449a224499224491225499224499228494992244992002211894812914410014422129188a424499224494992244992242549922449929424499224494a1291441029a5149124499224499224499224499292445444908888888844104992244992244992244992244992244992244992a42825111111111111111144442a12494444444422222222a94410494992244992244992244992244992244992244992244992244992244992244922492449924882445214a544444444444444a41289442291888888482a114424259224294992244992244922499224499224499224499224499224499224499224499244924492144589222222222222828848251289444422222222a94410914824924824124992244922254992449224499224499224499224499224499224499224499224492292a4888888888888888820225211111189888888888888482a8a8852929224910a12119114111111112949229148444444441011a9248a8852929224910a121111111111111111114144a44644244992442422898888888888888808222215111111111111111191549248248a888892204208214255442249248948041191244992244992244992240911229144924822114444445224914492244992248948449048944882449220091281244992828ca42205090200"
				},
				"methodIdentifiers": {
					"claimLink(bytes32)": "aa86c7c3",
					"createLink(uint256)": "f8559866",
					"getSenderLinks(address)": "66d1335c",
					"links(bytes32)": "b2fccc7f",
					"nonces(address)": "7ecebe00",
					"reclaimLink(bytes32)": "b949e9a8",
					"senderLinks(address,uint256)": "7a643af0"
				}
			},
			"hash": "69ed87a772e2d42d655b05e510545bc2dd878a55f300d5aec4139ade2cb6797b",
			"factoryDependencies": {}
		}
	}
}