{
    "abi": [
        {
            "type": "constructor",
            "inputs": [
                {
                    "name": "_earnVAsset",
                    "type": "address",
                    "internalType": "address"
                },
                {
                    "name": "_initialAPY",
                    "type": "uint256",
                    "internalType": "uint256"
                }
            ],
            "stateMutability": "nonpayable"
        },
        {
            "type": "function",
            "name": "APY",
            "inputs": [],
            "outputs": [
                {
                    "name": "",
                    "type": "uint256",
                    "internalType": "uint256"
                }
            ],
            "stateMutability": "view"
        },
        {
            "type": "function",
            "name": "assetDecimals",
            "inputs": [],
            "outputs": [
                {
                    "name": "",
                    "type": "uint8",
                    "internalType": "uint8"
                }
            ],
            "stateMutability": "view"
        },
        {
            "type": "function",
            "name": "calculateRewards",
            "inputs": [
                {
                    "name": "user",
                    "type": "address",
                    "internalType": "address"
                }
            ],
            "outputs": [
                {
                    "name": "",
                    "type": "uint256",
                    "internalType": "uint256"
                }
            ],
            "stateMutability": "view"
        },
        {
            "type": "function",
            "name": "earnVAsset",
            "inputs": [],
            "outputs": [
                {
                    "name": "",
                    "type": "address",
                    "internalType": "contract IERC20"
                }
            ],
            "stateMutability": "view"
        },
        {
            "type": "function",
            "name": "emergencyWithdraw",
            "inputs": [
                {
                    "name": "token",
                    "type": "address",
                    "internalType": "address"
                }
            ],
            "outputs": [],
            "stateMutability": "nonpayable"
        },
        {
            "type": "function",
            "name": "getStakeInfo",
            "inputs": [
                {
                    "name": "user",
                    "type": "address",
                    "internalType": "address"
                }
            ],
            "outputs": [
                {
                    "name": "amount",
                    "type": "uint256",
                    "internalType": "uint256"
                },
                {
                    "name": "startTime",
                    "type": "uint256",
                    "internalType": "uint256"
                },
                {
                    "name": "pendingReward",
                    "type": "uint256",
                    "internalType": "uint256"
                }
            ],
            "stateMutability": "view"
        },
        {
            "type": "function",
            "name": "owner",
            "inputs": [],
            "outputs": [
                {
                    "name": "",
                    "type": "address",
                    "internalType": "address"
                }
            ],
            "stateMutability": "view"
        },
        {
            "type": "function",
            "name": "pause",
            "inputs": [],
            "outputs": [],
            "stateMutability": "nonpayable"
        },
        {
            "type": "function",
            "name": "paused",
            "inputs": [],
            "outputs": [
                {
                    "name": "",
                    "type": "bool",
                    "internalType": "bool"
                }
            ],
            "stateMutability": "view"
        },
        {
            "type": "function",
            "name": "renounceOwnership",
            "inputs": [],
            "outputs": [],
            "stateMutability": "nonpayable"
        },
        {
            "type": "function",
            "name": "setAPY",
            "inputs": [
                {
                    "name": "_newAPY",
                    "type": "uint256",
                    "internalType": "uint256"
                }
            ],
            "outputs": [],
            "stateMutability": "nonpayable"
        },
        {
            "type": "function",
            "name": "stake",
            "inputs": [
                {
                    "name": "amount",
                    "type": "uint256",
                    "internalType": "uint256"
                }
            ],
            "outputs": [],
            "stateMutability": "nonpayable"
        },
        {
            "type": "function",
            "name": "stakes",
            "inputs": [
                {
                    "name": "",
                    "type": "address",
                    "internalType": "address"
                }
            ],
            "outputs": [
                {
                    "name": "amount",
                    "type": "uint256",
                    "internalType": "uint256"
                },
                {
                    "name": "startTime",
                    "type": "uint256",
                    "internalType": "uint256"
                },
                {
                    "name": "accumulatedRewards",
                    "type": "uint256",
                    "internalType": "uint256"
                }
            ],
            "stateMutability": "view"
        },
        {
            "type": "function",
            "name": "totalStaked",
            "inputs": [],
            "outputs": [
                {
                    "name": "",
                    "type": "uint256",
                    "internalType": "uint256"
                }
            ],
            "stateMutability": "view"
        },
        {
            "type": "function",
            "name": "transferOwnership",
            "inputs": [
                {
                    "name": "newOwner",
                    "type": "address",
                    "internalType": "address"
                }
            ],
            "outputs": [],
            "stateMutability": "nonpayable"
        },
        {
            "type": "function",
            "name": "unpause",
            "inputs": [],
            "outputs": [],
            "stateMutability": "nonpayable"
        },
        {
            "type": "function",
            "name": "unstake",
            "inputs": [
                {
                    "name": "amount",
                    "type": "uint256",
                    "internalType": "uint256"
                }
            ],
            "outputs": [],
            "stateMutability": "nonpayable"
        },
        {
            "type": "event",
            "name": "APYUpdated",
            "inputs": [
                {
                    "name": "newAPY",
                    "type": "uint256",
                    "indexed": false,
                    "internalType": "uint256"
                }
            ],
            "anonymous": false
        },
        {
            "type": "event",
            "name": "OwnershipTransferred",
            "inputs": [
                {
                    "name": "previousOwner",
                    "type": "address",
                    "indexed": true,
                    "internalType": "address"
                },
                {
                    "name": "newOwner",
                    "type": "address",
                    "indexed": true,
                    "internalType": "address"
                }
            ],
            "anonymous": false
        },
        {
            "type": "event",
            "name": "Paused",
            "inputs": [
                {
                    "name": "account",
                    "type": "address",
                    "indexed": false,
                    "internalType": "address"
                }
            ],
            "anonymous": false
        },
        {
            "type": "event",
            "name": "Staked",
            "inputs": [
                {
                    "name": "user",
                    "type": "address",
                    "indexed": true,
                    "internalType": "address"
                },
                {
                    "name": "amount",
                    "type": "uint256",
                    "indexed": false,
                    "internalType": "uint256"
                }
            ],
            "anonymous": false
        },
        {
            "type": "event",
            "name": "Unpaused",
            "inputs": [
                {
                    "name": "account",
                    "type": "address",
                    "indexed": false,
                    "internalType": "address"
                }
            ],
            "anonymous": false
        },
        {
            "type": "event",
            "name": "Unstaked",
            "inputs": [
                {
                    "name": "user",
                    "type": "address",
                    "indexed": true,
                    "internalType": "address"
                },
                {
                    "name": "amount",
                    "type": "uint256",
                    "indexed": false,
                    "internalType": "uint256"
                },
                {
                    "name": "reward",
                    "type": "uint256",
                    "indexed": false,
                    "internalType": "uint256"
                }
            ],
            "anonymous": false
        },
        {
            "type": "error",
            "name": "EnforcedPause",
            "inputs": []
        },
        {
            "type": "error",
            "name": "ExpectedPause",
            "inputs": []
        },
        {
            "type": "error",
            "name": "OwnableInvalidOwner",
            "inputs": [
                {
                    "name": "owner",
                    "type": "address",
                    "internalType": "address"
                }
            ]
        },
        {
            "type": "error",
            "name": "OwnableUnauthorizedAccount",
            "inputs": [
                {
                    "name": "account",
                    "type": "address",
                    "internalType": "address"
                }
            ]
        },
        {
            "type": "error",
            "name": "ReentrancyGuardReentrantCall",
            "inputs": []
        },
        {
            "type": "error",
            "name": "SafeERC20FailedOperation",
            "inputs": [
                {
                    "name": "token",
                    "type": "address",
                    "internalType": "address"
                }
            ]
        }
    ],
    "bytecode": {
        "object": "0x608060405234801561000f575f80fd5b50604051610d8e380380610d8e83398101604081905261002e9161015c565b338061005357604051631e4fbdf760e01b81525f600482015260240160405180910390fd5b61005c8161010d565b5060018055600280546001600160a81b0319166101006001600160a01b0385160217905561008b816064610193565b600381905550816001600160a01b031663313ce5676040518163ffffffff1660e01b8152600401602060405180830381865afa1580156100cd573d5f803e3d5ffd5b505050506040513d601f19601f820116820180604052508101906100f191906101bc565b6004805460ff191660ff92909216919091179055506101e39050565b5f80546001600160a01b038381166001600160a01b0319831681178455604051919092169283917f8be0079c531659141344cd1fd0a4f28419497f9722a3daafe3b4186f6b6457e09190a35050565b5f806040838503121561016d575f80fd5b82516001600160a01b0381168114610183575f80fd5b6020939093015192949293505050565b80820281158282048414176101b657634e487b7160e01b5f52601160045260245ffd5b92915050565b5f602082840312156101cc575f80fd5b815160ff811681146101dc575f80fd5b9392505050565b610b9e806101f05f395ff3fe608060405234801561000f575f80fd5b5060043610610106575f3560e01c8063715018a61161009e578063a694fc3a1161006e578063a694fc3a1461022b578063c2d416011461023e578063c34531531461025d578063ef8bd30514610270578063f2fde38b14610279575f80fd5b8063715018a614610202578063817b1cd21461020a5780638456cb59146102135780638da5cb5b1461021b575f80fd5b80633f4ba83a116100d95780633f4ba83a146101b05780635c975abb146101b857806364ab8675146101ce5780636ff1c9bc146101ef575f80fd5b806316934fc41461010a57806324f45e67146101585780632e17de781461016d57806334ee8d6b14610180575b5f80fd5b610138610118366004610a97565b60056020525f908152604090208054600182015460029092015490919083565b604080519384526020840192909252908201526060015b60405180910390f35b61016b610166366004610ac4565b61028c565b005b61016b61017b366004610ac4565b61031e565b6002546101989061010090046001600160a01b031681565b6040516001600160a01b03909116815260200161014f565b61016b6104ad565b60025460ff16604051901515815260200161014f565b6101e16101dc366004610a97565b6104bf565b60405190815260200161014f565b61016b6101fd366004610a97565b61053e565b61016b6105d9565b6101e160065481565b61016b6105ea565b5f546001600160a01b0316610198565b61016b610239366004610ac4565b6105fa565b60045461024b9060ff1681565b60405160ff909116815260200161014f565b61013861026b366004610a97565b610787565b6101e160035481565b61016b610287366004610a97565b6107d3565b61029461080d565b6127108111156102da5760405162461bcd60e51b815260206004820152600c60248201526b082a0b240e8dede40d0d2ced60a31b60448201526064015b60405180910390fd5b6102e5816064610aef565b6003556040518181527f5d96611557274413c64267972d202ca41009c399954bcb4cbab17d2a5156fbb09060200160405180910390a150565b610326610839565b335f90815260056020526040902080548211156103855760405162461bcd60e51b815260206004820152601a60248201527f496e73756666696369656e74207374616b656420616d6f756e7400000000000060448201526064016102d1565b805460028201545f91906103999085610aef565b6103a39190610b0c565b90505f6103af336104bf565b90505f6103bc8284610b2b565b905084845f015f8282546103d09190610b3e565b909155505083545f036103fe57335f9081526005602052604081208181556001810182905560020155610425565b8284600201548361040f9190610b2b565b6104199190610b3e565b60028501554260018501555b8460065f8282546104369190610b3e565b9091555061046290503361044a8388610b2b565b60025461010090046001600160a01b03169190610863565b604080518681526020810183905233917f7fc4727e062e336010f2c282598ef5f14facb3de68cf8195c2f23e1454b2b74e910160405180910390a2505050506104aa60018055565b50565b6104b561080d565b6104bd6108c7565b565b6001600160a01b0381165f908152600560205260408120805482036104e657505f92915050565b5f8160010154426104f79190610b3e565b90505f612710600354845f015461050e9190610aef565b6105189190610b0c565b90505f6301e1338061052a8484610aef565b6105349190610b0c565b9695505050505050565b61054661080d565b6040516370a0823160e01b81523060048201525f906001600160a01b038316906370a0823190602401602060405180830381865afa15801561058a573d5f803e3d5ffd5b505050506040513d601f19601f820116820180604052508101906105ae9190610b51565b90506105d56105c45f546001600160a01b031690565b6001600160a01b0384169083610863565b5050565b6105e161080d565b6104bd5f610919565b6105f261080d565b6104bd610968565b610602610839565b61060a6109a5565b5f81116106595760405162461bcd60e51b815260206004820152601d60248201527f416d6f756e74206d7573742062652067726561746572207468616e203000000060448201526064016102d1565b335f90815260056020526040902054156106da575f610677336104bf565b335f9081526005602052604081205491925090610695908490610b2b565b60408051606081018252918252426020808401918252838301958652335f90815260059091529190912091518255516001820155915160029092019190915550610716565b604080516060810182528281524260208083019182525f8385018181523382526005909252939093209151825551600182015590516002909101555b6002546107339061010090046001600160a01b03163330846109c9565b8060065f8282546107449190610b2b565b909155505060405181815233907f9e71bc8eea02a63969f509818f2dafb9254532904319f9dbda79b67bd34a5f3d9060200160405180910390a26104aa60018055565b6001600160a01b0381165f90815260056020526040812080546001820154600283015484938493909290916107bb886104bf565b6107c59190610b2b565b935093509350509193909250565b6107db61080d565b6001600160a01b03811661080457604051631e4fbdf760e01b81525f60048201526024016102d1565b6104aa81610919565b5f546001600160a01b031633146104bd5760405163118cdaa760e01b81523360048201526024016102d1565b60026001540361085c57604051633ee5aeb560e01b815260040160405180910390fd5b6002600155565b6040516001600160a01b038381166024830152604482018390526108c291859182169063a9059cbb906064015b604051602081830303815290604052915060e01b6020820180516001600160e01b038381831617835250505050610a08565b505050565b6108cf610a74565b6002805460ff191690557f5db9ee0a495bf2e6ff9c91a7834c1ba4fdd244a5e8aa4e537bd38aeae4b073aa335b6040516001600160a01b03909116815260200160405180910390a1565b5f80546001600160a01b038381166001600160a01b0319831681178455604051919092169283917f8be0079c531659141344cd1fd0a4f28419497f9722a3daafe3b4186f6b6457e09190a35050565b6109706109a5565b6002805460ff191660011790557f62e78cea01bee320cd4e420270b5ea74000d11b0c9f74754ebdbfc544b05a2586108fc3390565b60025460ff16156104bd5760405163d93c066560e01b815260040160405180910390fd5b6040516001600160a01b038481166024830152838116604483015260648201839052610a029186918216906323b872dd90608401610890565b50505050565b5f8060205f8451602086015f885af180610a27576040513d5f823e3d81fd5b50505f513d91508115610a3e578060011415610a4b565b6001600160a01b0384163b155b15610a0257604051635274afe760e01b81526001600160a01b03851660048201526024016102d1565b60025460ff166104bd57604051638dfc202b60e01b815260040160405180910390fd5b5f60208284031215610aa7575f80fd5b81356001600160a01b0381168114610abd575f80fd5b9392505050565b5f60208284031215610ad4575f80fd5b5035919050565b634e487b7160e01b5f52601160045260245ffd5b8082028115828204841417610b0657610b06610adb565b92915050565b5f82610b2657634e487b7160e01b5f52601260045260245ffd5b500490565b80820180821115610b0657610b06610adb565b81810381811115610b0657610b06610adb565b5f60208284031215610b61575f80fd5b505191905056fea2646970667358221220299fc5f9e865b27a6f69cf174b384fa6a9ea07bc51ae04978f4b5ae8bc0846a464736f6c63430008180033",
        "linkReferences": {}
    },
    "methodIdentifiers": {
        "APY()": "ef8bd305",
        "assetDecimals()": "c2d41601",
        "calculateRewards(address)": "64ab8675",
        "earnVAsset()": "34ee8d6b",
        "emergencyWithdraw(address)": "6ff1c9bc",
        "getStakeInfo(address)": "c3453153",
        "owner()": "8da5cb5b",
        "pause()": "8456cb59",
        "paused()": "5c975abb",
        "renounceOwnership()": "715018a6",
        "setAPY(uint256)": "24f45e67",
        "stake(uint256)": "a694fc3a",
        "stakes(address)": "16934fc4",
        "totalStaked()": "817b1cd2",
        "transferOwnership(address)": "f2fde38b",
        "unpause()": "3f4ba83a",
        "unstake(uint256)": "2e17de78"
    },
    "id": 41
}