{
    "abi": [
        {
            "type": "constructor",
            "inputs": [
                {
                    "name": "_projectToken",
                    "type": "address",
                    "internalType": "address"
                },
                {
                    "name": "_platformFee",
                    "type": "uint256",
                    "internalType": "uint256"
                },
                {
                    "name": "_acceptedVTokens",
                    "type": "address[]",
                    "internalType": "address[]"
                }
            ],
            "stateMutability": "nonpayable"
        },
        {
            "type": "function",
            "name": "DECIMALS",
            "inputs": [],
            "outputs": [
                {
                    "name": "",
                    "type": "uint256",
                    "internalType": "uint256"
                }
            ],
            "stateMutability": "view"
        },
        {
            "type": "function",
            "name": "acceptedVTokens",
            "inputs": [
                {
                    "name": "",
                    "type": "uint256",
                    "internalType": "uint256"
                }
            ],
            "outputs": [
                {
                    "name": "",
                    "type": "address",
                    "internalType": "address"
                }
            ],
            "stateMutability": "view"
        },
        {
            "type": "function",
            "name": "cancelOrder",
            "inputs": [
                {
                    "name": "orderId",
                    "type": "uint256",
                    "internalType": "uint256"
                }
            ],
            "outputs": [],
            "stateMutability": "nonpayable"
        },
        {
            "type": "function",
            "name": "claimCollateralAfterExpiry",
            "inputs": [
                {
                    "name": "orderId",
                    "type": "uint256",
                    "internalType": "uint256"
                }
            ],
            "outputs": [],
            "stateMutability": "nonpayable"
        },
        {
            "type": "function",
            "name": "completeTradeAsBuyer",
            "inputs": [
                {
                    "name": "orderId",
                    "type": "uint256",
                    "internalType": "uint256"
                }
            ],
            "outputs": [],
            "stateMutability": "nonpayable"
        },
        {
            "type": "function",
            "name": "completeTradeAsSeller",
            "inputs": [
                {
                    "name": "orderId",
                    "type": "uint256",
                    "internalType": "uint256"
                }
            ],
            "outputs": [],
            "stateMutability": "nonpayable"
        },
        {
            "type": "function",
            "name": "createOrder",
            "inputs": [
                {
                    "name": "creatorType",
                    "type": "uint8",
                    "internalType": "enum Market.OrderCreator"
                },
                {
                    "name": "projectTokenAmount",
                    "type": "uint256",
                    "internalType": "uint256"
                },
                {
                    "name": "collateralAmount",
                    "type": "uint256",
                    "internalType": "uint256"
                },
                {
                    "name": "collateralToken",
                    "type": "address",
                    "internalType": "address"
                }
            ],
            "outputs": [
                {
                    "name": "",
                    "type": "uint256",
                    "internalType": "uint256"
                }
            ],
            "stateMutability": "nonpayable"
        },
        {
            "type": "function",
            "name": "getAcceptedVTokens",
            "inputs": [],
            "outputs": [
                {
                    "name": "",
                    "type": "address[]",
                    "internalType": "address[]"
                }
            ],
            "stateMutability": "view"
        },
        {
            "type": "function",
            "name": "getAcceptedVTokensCount",
            "inputs": [],
            "outputs": [
                {
                    "name": "",
                    "type": "uint256",
                    "internalType": "uint256"
                }
            ],
            "stateMutability": "view"
        },
        {
            "type": "function",
            "name": "getOrder",
            "inputs": [
                {
                    "name": "orderId",
                    "type": "uint256",
                    "internalType": "uint256"
                }
            ],
            "outputs": [
                {
                    "name": "order",
                    "type": "tuple",
                    "internalType": "struct Market.Order",
                    "components": [
                        {
                            "name": "creatorType",
                            "type": "uint8",
                            "internalType": "enum Market.OrderCreator"
                        },
                        {
                            "name": "creator",
                            "type": "address",
                            "internalType": "address"
                        },
                        {
                            "name": "joiner",
                            "type": "address",
                            "internalType": "address"
                        },
                        {
                            "name": "projectTokenAmount",
                            "type": "uint256",
                            "internalType": "uint256"
                        },
                        {
                            "name": "collateralAmount",
                            "type": "uint256",
                            "internalType": "uint256"
                        },
                        {
                            "name": "collateralToken",
                            "type": "address",
                            "internalType": "address"
                        },
                        {
                            "name": "settleTime",
                            "type": "uint256",
                            "internalType": "uint256"
                        },
                        {
                            "name": "status",
                            "type": "uint8",
                            "internalType": "enum Market.OrderStatus"
                        },
                        {
                            "name": "buyerWithdrawn",
                            "type": "bool",
                            "internalType": "bool"
                        },
                        {
                            "name": "sellerWithdrawn",
                            "type": "bool",
                            "internalType": "bool"
                        }
                    ]
                }
            ],
            "stateMutability": "view"
        },
        {
            "type": "function",
            "name": "getOrdersCount",
            "inputs": [],
            "outputs": [
                {
                    "name": "",
                    "type": "uint256",
                    "internalType": "uint256"
                }
            ],
            "stateMutability": "view"
        },
        {
            "type": "function",
            "name": "getPlatformFee",
            "inputs": [],
            "outputs": [
                {
                    "name": "",
                    "type": "uint256",
                    "internalType": "uint256"
                }
            ],
            "stateMutability": "view"
        },
        {
            "type": "function",
            "name": "getProjectToken",
            "inputs": [],
            "outputs": [
                {
                    "name": "",
                    "type": "address",
                    "internalType": "address"
                }
            ],
            "stateMutability": "view"
        },
        {
            "type": "function",
            "name": "getVTokenAtIndex",
            "inputs": [
                {
                    "name": "index",
                    "type": "uint256",
                    "internalType": "uint256"
                }
            ],
            "outputs": [
                {
                    "name": "",
                    "type": "address",
                    "internalType": "address"
                }
            ],
            "stateMutability": "view"
        },
        {
            "type": "function",
            "name": "isAcceptedVToken",
            "inputs": [
                {
                    "name": "token",
                    "type": "address",
                    "internalType": "address"
                }
            ],
            "outputs": [
                {
                    "name": "",
                    "type": "bool",
                    "internalType": "bool"
                }
            ],
            "stateMutability": "view"
        },
        {
            "type": "function",
            "name": "joinOrder",
            "inputs": [
                {
                    "name": "orderId",
                    "type": "uint256",
                    "internalType": "uint256"
                }
            ],
            "outputs": [],
            "stateMutability": "nonpayable"
        },
        {
            "type": "function",
            "name": "orderCount",
            "inputs": [],
            "outputs": [
                {
                    "name": "",
                    "type": "uint256",
                    "internalType": "uint256"
                }
            ],
            "stateMutability": "view"
        },
        {
            "type": "function",
            "name": "orders",
            "inputs": [
                {
                    "name": "",
                    "type": "uint256",
                    "internalType": "uint256"
                }
            ],
            "outputs": [
                {
                    "name": "creatorType",
                    "type": "uint8",
                    "internalType": "enum Market.OrderCreator"
                },
                {
                    "name": "creator",
                    "type": "address",
                    "internalType": "address"
                },
                {
                    "name": "joiner",
                    "type": "address",
                    "internalType": "address"
                },
                {
                    "name": "projectTokenAmount",
                    "type": "uint256",
                    "internalType": "uint256"
                },
                {
                    "name": "collateralAmount",
                    "type": "uint256",
                    "internalType": "uint256"
                },
                {
                    "name": "collateralToken",
                    "type": "address",
                    "internalType": "address"
                },
                {
                    "name": "settleTime",
                    "type": "uint256",
                    "internalType": "uint256"
                },
                {
                    "name": "status",
                    "type": "uint8",
                    "internalType": "enum Market.OrderStatus"
                },
                {
                    "name": "buyerWithdrawn",
                    "type": "bool",
                    "internalType": "bool"
                },
                {
                    "name": "sellerWithdrawn",
                    "type": "bool",
                    "internalType": "bool"
                }
            ],
            "stateMutability": "view"
        },
        {
            "type": "function",
            "name": "platformFee",
            "inputs": [],
            "outputs": [
                {
                    "name": "",
                    "type": "uint256",
                    "internalType": "uint256"
                }
            ],
            "stateMutability": "view"
        },
        {
            "type": "function",
            "name": "projectToken",
            "inputs": [],
            "outputs": [
                {
                    "name": "",
                    "type": "address",
                    "internalType": "contract IERC20"
                }
            ],
            "stateMutability": "view"
        },
        {
            "type": "event",
            "name": "OrderCancelled",
            "inputs": [
                {
                    "name": "orderId",
                    "type": "uint256",
                    "indexed": true,
                    "internalType": "uint256"
                }
            ],
            "anonymous": false
        },
        {
            "type": "event",
            "name": "OrderCompleted",
            "inputs": [
                {
                    "name": "orderId",
                    "type": "uint256",
                    "indexed": true,
                    "internalType": "uint256"
                }
            ],
            "anonymous": false
        },
        {
            "type": "event",
            "name": "OrderCreated",
            "inputs": [
                {
                    "name": "orderId",
                    "type": "uint256",
                    "indexed": true,
                    "internalType": "uint256"
                },
                {
                    "name": "creatorType",
                    "type": "uint8",
                    "indexed": false,
                    "internalType": "enum Market.OrderCreator"
                },
                {
                    "name": "creator",
                    "type": "address",
                    "indexed": true,
                    "internalType": "address"
                },
                {
                    "name": "projectTokenAmount",
                    "type": "uint256",
                    "indexed": false,
                    "internalType": "uint256"
                },
                {
                    "name": "collateralAmount",
                    "type": "uint256",
                    "indexed": false,
                    "internalType": "uint256"
                },
                {
                    "name": "collateralToken",
                    "type": "address",
                    "indexed": false,
                    "internalType": "address"
                }
            ],
            "anonymous": false
        },
        {
            "type": "event",
            "name": "OrderSettled",
            "inputs": [
                {
                    "name": "orderId",
                    "type": "uint256",
                    "indexed": true,
                    "internalType": "uint256"
                },
                {
                    "name": "joiner",
                    "type": "address",
                    "indexed": true,
                    "internalType": "address"
                }
            ],
            "anonymous": false
        },
        {
            "type": "event",
            "name": "TokensWithdrawn",
            "inputs": [
                {
                    "name": "orderId",
                    "type": "uint256",
                    "indexed": true,
                    "internalType": "uint256"
                },
                {
                    "name": "party",
                    "type": "address",
                    "indexed": true,
                    "internalType": "address"
                }
            ],
            "anonymous": false
        },
        {
            "type": "error",
            "name": "BuyerAlreadyWithdrawn",
            "inputs": []
        },
        {
            "type": "error",
            "name": "CannotJoinOwnOrder",
            "inputs": []
        },
        {
            "type": "error",
            "name": "IndexOutOfRange",
            "inputs": []
        },
        {
            "type": "error",
            "name": "InvalidTokenAmount",
            "inputs": []
        },
        {
            "type": "error",
            "name": "NotAcceptedVToken",
            "inputs": []
        },
        {
            "type": "error",
            "name": "NotBuyer",
            "inputs": []
        },
        {
            "type": "error",
            "name": "NotSeller",
            "inputs": []
        },
        {
            "type": "error",
            "name": "OrderNotOpen",
            "inputs": []
        },
        {
            "type": "error",
            "name": "OrderNotSettled",
            "inputs": []
        },
        {
            "type": "error",
            "name": "ReentrancyGuardReentrantCall",
            "inputs": []
        },
        {
            "type": "error",
            "name": "SellerAlreadyWithdrawn",
            "inputs": []
        },
        {
            "type": "error",
            "name": "TimeElapsed",
            "inputs": []
        },
        {
            "type": "error",
            "name": "TimeNotElapsed",
            "inputs": []
        }
    ],
    "bytecode": {
        "object": "0x60c06040523480156200001157600080fd5b5060405162001be838038062001be883398101604081905262000034916200011e565b600160008190556001600160a01b03841660805260a0839052815162000060919060208401906200006a565b5050505062000210565b828054828255906000526020600020908101928215620000c2579160200282015b82811115620000c257825182546001600160a01b0319166001600160a01b039091161782556020909201916001909101906200008b565b50620000d0929150620000d4565b5090565b5b80821115620000d05760008155600101620000d5565b80516001600160a01b03811681146200010357600080fd5b919050565b634e487b7160e01b600052604160045260246000fd5b6000806000606084860312156200013457600080fd5b6200013f84620000eb565b60208581015160408701519295509350906001600160401b03808211156200016657600080fd5b818701915087601f8301126200017b57600080fd5b81518181111562000190576200019062000108565b8060051b604051601f19603f83011681018181108582111715620001b857620001b862000108565b60405291825284820192508381018501918a831115620001d757600080fd5b938501935b828510156200020057620001f085620000eb565b84529385019392850192620001dc565b8096505050505050509250925092565b60805160a05161198f620002596000396000818161015201526102490152600081816101d4015281816101fd0152818161077801528181610d0f0152610dfa015261198f6000f3fe608060405234801561001057600080fd5b506004361061012c5760003560e01c80636ea8bc10116100ad578063c0225c3d11610071578063c0225c3d14610327578063c191654c1461033c578063c494a5351461034f578063d09ef24114610362578063dadc5e591461038257600080fd5b80636ea8bc10146102475780637cce04721461026d578063817cc79a14610280578063a85c38ef14610293578063b5b3b0511461031f57600080fd5b806343b8531a116100f457806343b8531a146101ca5780634837c596146101d25780634b60ce77146101f8578063514fcac71461021f5780636b269f821461023457600080fd5b80632453ffa81461013157806326232a2e1461014d5780632e0f2625146101745780633a2cbd6b1461017c5780633cd1a4a0146101a7575b600080fd5b61013a60025481565b6040519081526020015b60405180910390f35b61013a7f000000000000000000000000000000000000000000000000000000000000000081565b61013a600281565b61018f61018a366004611627565b610395565b6040516001600160a01b039091168152602001610144565b6101ba6101b536600461165c565b6103e8565b6040519015158152602001610144565b60015461013a565b7f000000000000000000000000000000000000000000000000000000000000000061018f565b61018f7f000000000000000000000000000000000000000000000000000000000000000081565b61023261022d366004611627565b610447565b005b610232610242366004611627565b6105f2565b7f000000000000000000000000000000000000000000000000000000000000000061013a565b61023261027b366004611627565b6108d0565b61023261028e366004611627565b610b43565b6103096102a1366004611627565b6003602081905260009182526040909120805460018201546002830154938301546004840154600585015460069095015460ff808616976001600160a01b0361010097889004811698968116979196941693928083169291810482169162010000909104168a565b6040516101449a999897969594939291906116b8565b60025461013a565b61032f610fdb565b6040516101449190611727565b61018f61034a366004611627565b61103d565b61023261035d366004611627565b611067565b610375610370366004611627565b6111f8565b6040516101449190611774565b61013a61039036600461182b565b61133b565b60015460009082106103ba57604051631390f2a160e01b815260040160405180910390fd5b600182815481106103cd576103cd611877565b6000918252602090912001546001600160a01b031692915050565b6000805b60015481101561043e57826001600160a01b03166001828154811061041357610413611877565b6000918252602090912001546001600160a01b0316036104365750600192915050565b6001016103ec565b50600092915050565b61044f6115fd565b600081815260036020526040812090600682015460ff1660038111156104775761047761167e565b146104d35760405162461bcd60e51b815260206004820152602160248201527f4f6e6c79206f70656e206f72646572732063616e2062652063616e63656c6c656044820152601960fa1b60648201526084015b60405180910390fd5b805461010090046001600160a01b031633146105255760405162461bcd60e51b81526020600482015260116024820152702737ba1037b93232b91031b932b0ba37b960791b60448201526064016104ca565b6004818101548254600384015460405163a9059cbb60e01b81526001600160a01b036101009093048316948101949094526024840152169063a9059cbb906044016020604051808303816000875af1158015610585573d6000803e3d6000fd5b505050506040513d601f19601f820116820180604052508101906105a9919061188d565b5060068101805460ff1916600317905560405182907f61b9399f2f0f32ca39ce8d7be32caed5ec22fe07a6daba3a467ed479ec60658290600090a2506105ef6001600055565b50565b6000818152600360205260408120829180825460ff1660018111156106195761061961167e565b146106315760018201546001600160a01b0316610642565b815461010090046001600160a01b03165b9050336001600160a01b0382161461066d5760405163239700bf60e11b815260040160405180910390fd5b6106756115fd565b600084815260036020526040902084906001600682015460ff1660038111156106a0576106a061167e565b146106be57604051634811daf560e01b815260040160405180910390fd5b60008681526003602052604090206006810154879190610100900460ff16156106fa576040516340ae800560e01b815260040160405180910390fd5b60008881526003602052604081209080825460ff1660018111156107205761072061167e565b146107385760018201546001600160a01b0316610749565b815461010090046001600160a01b03165b600283015460405163a9059cbb60e01b81526001600160a01b03808416600483015260248201929092529192507f0000000000000000000000000000000000000000000000000000000000000000169063a9059cbb906044016020604051808303816000875af11580156107c1573d6000803e3d6000fd5b505050506040513d601f19601f820116820180604052508101906107e5919061188d565b6108315760405162461bcd60e51b815260206004820152601d60248201527f50726f6a65637420746f6b656e207472616e73666572206661696c656400000060448201526064016104ca565b60068201805461ff001916610100179081905562010000900460ff161561088d5760068201805460ff191660021790556040518a907f02a7d4d9472af7118644884b9a0ee443540c0027e938dd0aa35be8ecbe946c0a90600090a25b60405133908b907f0ddddc48b57dd67f8fa2ff05c78034b578c31ef5caa05b03d2ca16feadbbb98f90600090a35050505050506108ca6001600055565b50505050565b6108d86115fd565b600081815260036020526040902081906001600682015460ff1660038111156109035761090361167e565b1461092157604051634811daf560e01b815260040160405180910390fd5b6000838152600360205260409020600581015484919061094490620151806118c5565b42116109635760405163a7e7df4f60e01b815260040160405180910390fd5b6000858152600360205260408120869180825460ff16600181111561098a5761098a61167e565b146109a25760018201546001600160a01b03166109b3565b815461010090046001600160a01b03165b9050336001600160a01b038216146109de5760405163239700bf60e11b815260040160405180910390fd5b60008881526003602052604081209080825460ff166001811115610a0457610a0461167e565b14610a1c5760018201546001600160a01b0316610a2d565b815461010090046001600160a01b03165b600483015460038401549192506001600160a01b03169063a9059cbb908390610a579060026118de565b6040516001600160e01b031960e085901b1681526001600160a01b03909216600483015260248201526044016020604051808303816000875af1158015610aa2573d6000803e3d6000fd5b505050506040513d601f19601f82011682018060405250810190610ac6919061188d565b5060068201805461ffff19166101031790556040518a907f61b9399f2f0f32ca39ce8d7be32caed5ec22fe07a6daba3a467ed479ec60658290600090a260405133908b907f0ddddc48b57dd67f8fa2ff05c78034b578c31ef5caa05b03d2ca16feadbbb98f90600090a35050505050505050506105ef6001600055565b600081815260036020526040812082916001825460ff166001811115610b6b57610b6b61167e565b14610b835760018201546001600160a01b0316610b94565b815461010090046001600160a01b03165b9050336001600160a01b03821614610bbf57604051635ec8235160e01b815260040160405180910390fd5b610bc76115fd565b600084815260036020526040902084906001600682015460ff166003811115610bf257610bf261167e565b14610c1057604051634811daf560e01b815260040160405180910390fd5b6000868152600360205260409020600681015487919062010000900460ff1615610c4d57604051631409655760e11b815260040160405180910390fd5b60008881526003602052604090206005810154899190610c7090620151806118c5565b421115610c905760405163054eca3f60e01b815260040160405180910390fd5b60008a8152600360205260408120906001825460ff166001811115610cb757610cb761167e565b14610ccf5760018201546001600160a01b0316610ce0565b815461010090046001600160a01b03165b6002830154604051636eb1769f60e11b81526001600160a01b03808416600483015230602483015292935090917f0000000000000000000000000000000000000000000000000000000000000000169063dd62ed3e90604401602060405180830381865afa158015610d56573d6000803e3d6000fd5b505050506040513d601f19601f82011682018060405250810190610d7a91906118f5565b1015610dc85760405162461bcd60e51b815260206004820152601a60248201527f54726164696e6720746f6b656e206e6f7420617070726f76656400000000000060448201526064016104ca565b60028201546040516323b872dd60e01b81526001600160a01b03838116600483015230602483015260448201929092527f0000000000000000000000000000000000000000000000000000000000000000909116906323b872dd906064016020604051808303816000875af1158015610e45573d6000803e3d6000fd5b505050506040513d601f19601f82011682018060405250810190610e69919061188d565b610eb55760405162461bcd60e51b815260206004820152601d60248201527f50726f6a65637420746f6b656e207472616e73666572206661696c656400000060448201526064016104ca565b60048201546001600160a01b031663a9059cbb6001845460ff166001811115610ee057610ee061167e565b14610ef85760018401546001600160a01b0316610f09565b835461010090046001600160a01b03165b6003850154610f199060026118de565b6040516001600160e01b031960e085901b1681526001600160a01b03909216600483015260248201526044016020604051808303816000875af1158015610f64573d6000803e3d6000fd5b505050506040513d601f19601f82011682018060405250810190610f88919061188d565b5060068201805462ff000019166201000017905560405133908d907f0ddddc48b57dd67f8fa2ff05c78034b578c31ef5caa05b03d2ca16feadbbb98f90600090a350505050505050506108ca6001600055565b6060600180548060200260200160405190810160405280929190818152602001828054801561103357602002820191906000526020600020905b81546001600160a01b03168152600190910190602001808311611015575b5050505050905090565b6001818154811061104d57600080fd5b6000918252602090912001546001600160a01b0316905081565b61106f6115fd565b60008181526003602052604081208291600682015460ff1660038111156110985761109861167e565b146110b65760405163206931ef60e01b815260040160405180910390fd5b600083815260036020526040902080548491339161010090046001600160a01b031682036110f757604051637bc2e0b360e01b815260040160405180910390fd5b6000868152600360208190526040918290206004808201549282015493516323b872dd60e01b815233918101919091523060248201526044810193909352916001600160a01b03909116906323b872dd906064016020604051808303816000875af115801561116a573d6000803e3d6000fd5b505050506040513d601f19601f8201168201806040525081019061118e919061188d565b50600180820180546001600160a01b0319163317905542600583015560068201805460ff191682800217905550604051339088907ff05103ae6f461efb40489cf708e251737ba1c29313b82a1e9d3a493c8067e1b190600090a35050505050506105ef6001600055565b6040805161014081018252600080825260208201819052918101829052606081018290526080810182905260a0810182905260c0810182905260e08101829052610100810182905261012081019190915260008281526003602052604090819020815161014081019092528054829060ff16600181111561127b5761127b61167e565b600181111561128c5761128c61167e565b815281546001600160a01b0361010090910481166020830152600183015481166040830152600283015460608301526003808401546080840152600484015490911660a0830152600583015460c0830152600683015460e09092019160ff16908111156112fb576112fb61167e565b600381111561130c5761130c61167e565b81526006919091015460ff61010082048116151560208401526201000090910416151560409091015292915050565b60006113456115fd565b8161134f816103e8565b61136c57604051630216177d60e41b815260040160405180910390fd5b8484811580611379575080155b1561139757604051632160733960e01b815260040160405180910390fd5b6040516323b872dd60e01b8152336004820152306024820152604481018790526001600160a01b038616906323b872dd906064016020604051808303816000875af11580156113ea573d6000803e3d6000fd5b505050506040513d601f19601f8201168201806040525081019061140e919061188d565b5060028054600091826114208361190e565b9190505590506040518061014001604052808a60018111156114445761144461167e565b8152336020820152600060408201819052606082018b9052608082018a90526001600160a01b03891660a083015260c0820181905260e0909101908152600060208083018290526040928301829052848252600390522081518154829060ff1916600183818111156114b8576114b861167e565b0217905550602082015181546001600160a01b0391821661010002610100600160a81b03199091161782556040830151600180840180549284166001600160a01b031993841617905560608501516002850155608085015160038086019190915560a08601516004860180549190951693169290921790925560c0840151600584015560e08401516006840180549193909260ff199092169184908111156115625761156261167e565b02179055506101008281015160069092018054610120909401511515620100000262ff0000199315159092029290921662ffff001990931692909217919091179055604051339082907fa7163aa96641b522a9dac0cb576e0e2baf20a0a473f9e159658ba47efdc253be906115de908d908d908d908d90611927565b60405180910390a393505050506115f56001600055565b949350505050565b60026000540361162057604051633ee5aeb560e01b815260040160405180910390fd5b6002600055565b60006020828403121561163957600080fd5b5035919050565b80356001600160a01b038116811461165757600080fd5b919050565b60006020828403121561166e57600080fd5b61167782611640565b9392505050565b634e487b7160e01b600052602160045260246000fd5b600281106116a4576116a461167e565b9052565b600481106116a4576116a461167e565b61014081016116c7828d611694565b6001600160a01b038b811660208401528a81166040840152606083018a905260808301899052871660a083015260c0820186905261170860e08301866116a8565b9215156101008201529015156101209091015298975050505050505050565b6020808252825182820181905260009190848201906040850190845b818110156117685783516001600160a01b031683529284019291840191600101611743565b50909695505050505050565b600061014082019050611788828451611694565b60208301516117a260208401826001600160a01b03169052565b5060408301516117bd60408401826001600160a01b03169052565b50606083015160608301526080830151608083015260a08301516117ec60a08401826001600160a01b03169052565b5060c083015160c083015260e083015161180960e08401826116a8565b5061010083810151151590830152610120928301511515929091019190915290565b6000806000806080858703121561184157600080fd5b84356002811061185057600080fd5b9350602085013592506040850135915061186c60608601611640565b905092959194509250565b634e487b7160e01b600052603260045260246000fd5b60006020828403121561189f57600080fd5b8151801515811461167757600080fd5b634e487b7160e01b600052601160045260246000fd5b808201808211156118d8576118d86118af565b92915050565b80820281158282048414176118d8576118d86118af565b60006020828403121561190757600080fd5b5051919050565b600060018201611920576119206118af565b5060010190565b608081016119358287611694565b602082019490945260408101929092526001600160a01b031660609091015291905056fea2646970667358221220ca46ef328f9515d11da814bdb08c5dc91a25ac8d5c29e3b83ea1581ac788071d64736f6c63430008180033",
        "linkReferences": {}
    },
    "methodIdentifiers": {
        "DECIMALS()": "2e0f2625",
        "acceptedVTokens(uint256)": "c191654c",
        "cancelOrder(uint256)": "514fcac7",
        "claimCollateralAfterExpiry(uint256)": "7cce0472",
        "completeTradeAsBuyer(uint256)": "6b269f82",
        "completeTradeAsSeller(uint256)": "817cc79a",
        "createOrder(uint8,uint256,uint256,address)": "dadc5e59",
        "getAcceptedVTokens()": "c0225c3d",
        "getAcceptedVTokensCount()": "43b8531a",
        "getOrder(uint256)": "d09ef241",
        "getOrdersCount()": "b5b3b051",
        "getPlatformFee()": "6ea8bc10",
        "getProjectToken()": "4837c596",
        "getVTokenAtIndex(uint256)": "3a2cbd6b",
        "isAcceptedVToken(address)": "3cd1a4a0",
        "joinOrder(uint256)": "c494a535",
        "orderCount()": "2453ffa8",
        "orders(uint256)": "a85c38ef",
        "platformFee()": "26232a2e",
        "projectToken()": "4b60ce77"
    },
    "id": 44
}