{
    "abi": [
        {
            "type": "constructor",
            "inputs": [],
            "stateMutability": "nonpayable"
        },
        {
            "type": "function",
            "name": "allowance",
            "inputs": [
                {
                    "name": "owner",
                    "type": "address",
                    "internalType": "address"
                },
                {
                    "name": "spender",
                    "type": "address",
                    "internalType": "address"
                }
            ],
            "outputs": [
                {
                    "name": "",
                    "type": "uint256",
                    "internalType": "uint256"
                }
            ],
            "stateMutability": "view"
        },
        {
            "type": "function",
            "name": "approve",
            "inputs": [
                {
                    "name": "spender",
                    "type": "address",
                    "internalType": "address"
                },
                {
                    "name": "value",
                    "type": "uint256",
                    "internalType": "uint256"
                }
            ],
            "outputs": [
                {
                    "name": "",
                    "type": "bool",
                    "internalType": "bool"
                }
            ],
            "stateMutability": "nonpayable"
        },
        {
            "type": "function",
            "name": "balanceOf",
            "inputs": [
                {
                    "name": "account",
                    "type": "address",
                    "internalType": "address"
                }
            ],
            "outputs": [
                {
                    "name": "",
                    "type": "uint256",
                    "internalType": "uint256"
                }
            ],
            "stateMutability": "view"
        },
        {
            "type": "function",
            "name": "decimals",
            "inputs": [],
            "outputs": [
                {
                    "name": "",
                    "type": "uint8",
                    "internalType": "uint8"
                }
            ],
            "stateMutability": "view"
        },
        {
            "type": "function",
            "name": "mint",
            "inputs": [
                {
                    "name": "account",
                    "type": "address",
                    "internalType": "address"
                },
                {
                    "name": "amount",
                    "type": "uint256",
                    "internalType": "uint256"
                }
            ],
            "outputs": [],
            "stateMutability": "nonpayable"
        },
        {
            "type": "function",
            "name": "name",
            "inputs": [],
            "outputs": [
                {
                    "name": "",
                    "type": "string",
                    "internalType": "string"
                }
            ],
            "stateMutability": "view"
        },
        {
            "type": "function",
            "name": "symbol",
            "inputs": [],
            "outputs": [
                {
                    "name": "",
                    "type": "string",
                    "internalType": "string"
                }
            ],
            "stateMutability": "view"
        },
        {
            "type": "function",
            "name": "totalSupply",
            "inputs": [],
            "outputs": [
                {
                    "name": "",
                    "type": "uint256",
                    "internalType": "uint256"
                }
            ],
            "stateMutability": "view"
        },
        {
            "type": "function",
            "name": "transfer",
            "inputs": [
                {
                    "name": "to",
                    "type": "address",
                    "internalType": "address"
                },
                {
                    "name": "value",
                    "type": "uint256",
                    "internalType": "uint256"
                }
            ],
            "outputs": [
                {
                    "name": "",
                    "type": "bool",
                    "internalType": "bool"
                }
            ],
            "stateMutability": "nonpayable"
        },
        {
            "type": "function",
            "name": "transferFrom",
            "inputs": [
                {
                    "name": "from",
                    "type": "address",
                    "internalType": "address"
                },
                {
                    "name": "to",
                    "type": "address",
                    "internalType": "address"
                },
                {
                    "name": "value",
                    "type": "uint256",
                    "internalType": "uint256"
                }
            ],
            "outputs": [
                {
                    "name": "",
                    "type": "bool",
                    "internalType": "bool"
                }
            ],
            "stateMutability": "nonpayable"
        },
        {
            "type": "event",
            "name": "Approval",
            "inputs": [
                {
                    "name": "owner",
                    "type": "address",
                    "indexed": true,
                    "internalType": "address"
                },
                {
                    "name": "spender",
                    "type": "address",
                    "indexed": true,
                    "internalType": "address"
                },
                {
                    "name": "value",
                    "type": "uint256",
                    "indexed": false,
                    "internalType": "uint256"
                }
            ],
            "anonymous": false
        },
        {
            "type": "event",
            "name": "Transfer",
            "inputs": [
                {
                    "name": "from",
                    "type": "address",
                    "indexed": true,
                    "internalType": "address"
                },
                {
                    "name": "to",
                    "type": "address",
                    "indexed": true,
                    "internalType": "address"
                },
                {
                    "name": "value",
                    "type": "uint256",
                    "indexed": false,
                    "internalType": "uint256"
                }
            ],
            "anonymous": false
        },
        {
            "type": "error",
            "name": "ERC20InsufficientAllowance",
            "inputs": [
                {
                    "name": "spender",
                    "type": "address",
                    "internalType": "address"
                },
                {
                    "name": "allowance",
                    "type": "uint256",
                    "internalType": "uint256"
                },
                {
                    "name": "needed",
                    "type": "uint256",
                    "internalType": "uint256"
                }
            ]
        },
        {
            "type": "error",
            "name": "ERC20InsufficientBalance",
            "inputs": [
                {
                    "name": "sender",
                    "type": "address",
                    "internalType": "address"
                },
                {
                    "name": "balance",
                    "type": "uint256",
                    "internalType": "uint256"
                },
                {
                    "name": "needed",
                    "type": "uint256",
                    "internalType": "uint256"
                }
            ]
        },
        {
            "type": "error",
            "name": "ERC20InvalidApprover",
            "inputs": [
                {
                    "name": "approver",
                    "type": "address",
                    "internalType": "address"
                }
            ]
        },
        {
            "type": "error",
            "name": "ERC20InvalidReceiver",
            "inputs": [
                {
                    "name": "receiver",
                    "type": "address",
                    "internalType": "address"
                }
            ]
        },
        {
            "type": "error",
            "name": "ERC20InvalidSender",
            "inputs": [
                {
                    "name": "sender",
                    "type": "address",
                    "internalType": "address"
                }
            ]
        },
        {
            "type": "error",
            "name": "ERC20InvalidSpender",
            "inputs": [
                {
                    "name": "spender",
                    "type": "address",
                    "internalType": "address"
                }
            ]
        }
    ],
    "bytecode": {
        "object": "0x608060405234801562000010575f80fd5b506040805180820182526004808252631d9113d560e21b60208084018290528451808601909552918452908301529060036200004d838262000290565b5060046200005c828262000290565b5050506200007d336b033b2e3c9fd0803ce80000006200008360201b60201c565b62000382565b6001600160a01b038216620000b25760405163ec442f0560e01b81525f60048201526024015b60405180910390fd5b620000bf5f8383620000c3565b5050565b6001600160a01b038316620000f1578060025f828254620000e591906200035c565b90915550620001639050565b6001600160a01b0383165f9081526020819052604090205481811015620001455760405163391434e360e21b81526001600160a01b03851660048201526024810182905260448101839052606401620000a9565b6001600160a01b0384165f9081526020819052604090209082900390555b6001600160a01b03821662000181576002805482900390556200019f565b6001600160a01b0382165f9081526020819052604090208054820190555b816001600160a01b0316836001600160a01b03167fddf252ad1be2c89b69c2b068fc378daa952ba7f163c4a11628f55a4df523b3ef83604051620001e591815260200190565b60405180910390a3505050565b634e487b7160e01b5f52604160045260245ffd5b600181811c908216806200021b57607f821691505b6020821081036200023a57634e487b7160e01b5f52602260045260245ffd5b50919050565b601f8211156200028b57805f5260205f20601f840160051c81016020851015620002675750805b601f840160051c820191505b8181101562000288575f815560010162000273565b50505b505050565b81516001600160401b03811115620002ac57620002ac620001f2565b620002c481620002bd845462000206565b8462000240565b602080601f831160018114620002fa575f8415620002e25750858301515b5f19600386901b1c1916600185901b17855562000354565b5f85815260208120601f198616915b828110156200032a5788860151825594840194600190910190840162000309565b50858210156200034857878501515f19600388901b60f8161c191681555b505060018460011b0185555b505050505050565b808201808211156200037c57634e487b7160e01b5f52601160045260245ffd5b92915050565b61075b80620003905f395ff3fe608060405234801561000f575f80fd5b506004361061009b575f3560e01c806340c10f191161006357806340c10f191461011457806370a082311461012957806395d89b4114610151578063a9059cbb14610159578063dd62ed3e1461016c575f80fd5b806306fdde031461009f578063095ea7b3146100bd57806318160ddd146100e057806323b872dd146100f2578063313ce56714610105575b5f80fd5b6100a76101a4565b6040516100b491906105b5565b60405180910390f35b6100d06100cb36600461061c565b610234565b60405190151581526020016100b4565b6002545b6040519081526020016100b4565b6100d0610100366004610644565b61024d565b604051601281526020016100b4565b61012761012236600461061c565b610270565b005b6100e461013736600461067d565b6001600160a01b03165f9081526020819052604090205490565b6100a761027e565b6100d061016736600461061c565b61028d565b6100e461017a36600461069d565b6001600160a01b039182165f90815260016020908152604080832093909416825291909152205490565b6060600380546101b3906106ce565b80601f01602080910402602001604051908101604052809291908181526020018280546101df906106ce565b801561022a5780601f106102015761010080835404028352916020019161022a565b820191905f5260205f20905b81548152906001019060200180831161020d57829003601f168201915b5050505050905090565b5f3361024181858561029a565b60019150505b92915050565b5f3361025a8582856102ac565b61026585858561032c565b506001949350505050565b61027a8282610389565b5050565b6060600480546101b3906106ce565b5f3361024181858561032c565b6102a783838360016103bd565b505050565b6001600160a01b038381165f908152600160209081526040808320938616835292905220545f198114610326578181101561031857604051637dc7a0d960e11b81526001600160a01b038416600482015260248101829052604481018390526064015b60405180910390fd5b61032684848484035f6103bd565b50505050565b6001600160a01b03831661035557604051634b637e8f60e11b81525f600482015260240161030f565b6001600160a01b03821661037e5760405163ec442f0560e01b81525f600482015260240161030f565b6102a783838361048f565b6001600160a01b0382166103b25760405163ec442f0560e01b81525f600482015260240161030f565b61027a5f838361048f565b6001600160a01b0384166103e65760405163e602df0560e01b81525f600482015260240161030f565b6001600160a01b03831661040f57604051634a1406b160e11b81525f600482015260240161030f565b6001600160a01b038085165f908152600160209081526040808320938716835292905220829055801561032657826001600160a01b0316846001600160a01b03167f8c5be1e5ebec7d5bd14f71427d1e84f3dd0314c0f7b2291e5b200ac8c7c3b9258460405161048191815260200190565b60405180910390a350505050565b6001600160a01b0383166104b9578060025f8282546104ae9190610706565b909155506105299050565b6001600160a01b0383165f908152602081905260409020548181101561050b5760405163391434e360e21b81526001600160a01b0385166004820152602481018290526044810183905260640161030f565b6001600160a01b0384165f9081526020819052604090209082900390555b6001600160a01b03821661054557600280548290039055610563565b6001600160a01b0382165f9081526020819052604090208054820190555b816001600160a01b0316836001600160a01b03167fddf252ad1be2c89b69c2b068fc378daa952ba7f163c4a11628f55a4df523b3ef836040516105a891815260200190565b60405180910390a3505050565b5f602080835283518060208501525f5b818110156105e1578581018301518582016040015282016105c5565b505f604082860101526040601f19601f8301168501019250505092915050565b80356001600160a01b0381168114610617575f80fd5b919050565b5f806040838503121561062d575f80fd5b61063683610601565b946020939093013593505050565b5f805f60608486031215610656575f80fd5b61065f84610601565b925061066d60208501610601565b9150604084013590509250925092565b5f6020828403121561068d575f80fd5b61069682610601565b9392505050565b5f80604083850312156106ae575f80fd5b6106b783610601565b91506106c560208401610601565b90509250929050565b600181811c908216806106e257607f821691505b60208210810361070057634e487b7160e01b5f52602260045260245ffd5b50919050565b8082018082111561024757634e487b7160e01b5f52601160045260245ffdfea2646970667358221220110ffdfe1ea315d81d75a1c2fe7c848ce2300117d38d2b1ac45f1d0a4239617664736f6c63430008180033",
        "linkReferences": {}
    },
    "methodIdentifiers": {
        "allowance(address,address)": "dd62ed3e",
        "approve(address,uint256)": "095ea7b3",
        "balanceOf(address)": "70a08231",
        "decimals()": "313ce567",
        "mint(address,uint256)": "40c10f19",
        "name()": "06fdde03",
        "symbol()": "95d89b41",
        "totalSupply()": "18160ddd",
        "transfer(address,uint256)": "a9059cbb",
        "transferFrom(address,address,uint256)": "23b872dd"
    },
    "id": 41
}