{
    "abi": [
        {
            "type": "constructor",
            "inputs": [
                {
                    "name": "_projectOwner",
                    "type": "address",
                    "internalType": "address"
                },
                {
                    "name": "_projectToken",
                    "type": "address",
                    "internalType": "address"
                },
                {
                    "name": "_acceptedVAsset",
                    "type": "address",
                    "internalType": "address"
                },
                {
                    "name": "_BifrostEarningContract",
                    "type": "address",
                    "internalType": "address"
                },
                {
                    "name": "_startTime",
                    "type": "uint256",
                    "internalType": "uint256"
                },
                {
                    "name": "_endTime",
                    "type": "uint256",
                    "internalType": "uint256"
                },
                {
                    "name": "_totalProjectTokens",
                    "type": "uint256",
                    "internalType": "uint256"
                },
                {
                    "name": "_maxVTokensPerStaker",
                    "type": "uint256",
                    "internalType": "uint256"
                },
                {
                    "name": "_minVTokensPerStaker",
                    "type": "uint256",
                    "internalType": "uint256"
                },
                {
                    "name": "_targetStakeAmount",
                    "type": "uint256",
                    "internalType": "uint256"
                }
            ],
            "stateMutability": "nonpayable"
        },
        {
            "type": "function",
            "name": "BifrostEarningContract",
            "inputs": [],
            "outputs": [
                {
                    "name": "",
                    "type": "address",
                    "internalType": "contract IBifrostEarningMock"
                }
            ],
            "stateMutability": "view"
        },
        {
            "type": "function",
            "name": "DECIMALS",
            "inputs": [],
            "outputs": [
                {
                    "name": "",
                    "type": "uint256",
                    "internalType": "uint256"
                }
            ],
            "stateMutability": "view"
        },
        {
            "type": "function",
            "name": "activeStakers",
            "inputs": [
                {
                    "name": "",
                    "type": "uint256",
                    "internalType": "uint256"
                }
            ],
            "outputs": [
                {
                    "name": "",
                    "type": "address",
                    "internalType": "address"
                }
            ],
            "stateMutability": "view"
        },
        {
            "type": "function",
            "name": "aprHistory",
            "inputs": [
                {
                    "name": "",
                    "type": "uint256",
                    "internalType": "uint256"
                }
            ],
            "outputs": [
                {
                    "name": "timestamp",
                    "type": "uint256",
                    "internalType": "uint256"
                },
                {
                    "name": "apr",
                    "type": "uint256",
                    "internalType": "uint256"
                },
                {
                    "name": "totalReservedAtSnapshot",
                    "type": "uint256",
                    "internalType": "uint256"
                }
            ],
            "stateMutability": "view"
        },
        {
            "type": "function",
            "name": "calculateCurrentAPR",
            "inputs": [],
            "outputs": [
                {
                    "name": "",
                    "type": "uint256",
                    "internalType": "uint256"
                }
            ],
            "stateMutability": "view"
        },
        {
            "type": "function",
            "name": "calculateLoyaltyMultiplier",
            "inputs": [
                {
                    "name": "stakeDuration",
                    "type": "uint256",
                    "internalType": "uint256"
                }
            ],
            "outputs": [
                {
                    "name": "",
                    "type": "uint256",
                    "internalType": "uint256"
                }
            ],
            "stateMutability": "pure"
        },
        {
            "type": "function",
            "name": "calculateProjectedRewards",
            "inputs": [
                {
                    "name": "amount",
                    "type": "uint256",
                    "internalType": "uint256"
                },
                {
                    "name": "duration",
                    "type": "uint256",
                    "internalType": "uint256"
                },
                {
                    "name": "apr",
                    "type": "uint256",
                    "internalType": "uint256"
                },
                {
                    "name": "loyaltyMultiplier",
                    "type": "uint256",
                    "internalType": "uint256"
                }
            ],
            "outputs": [
                {
                    "name": "",
                    "type": "uint256",
                    "internalType": "uint256"
                }
            ],
            "stateMutability": "pure"
        },
        {
            "type": "function",
            "name": "calculateTimeBasedReward",
            "inputs": [
                {
                    "name": "amount",
                    "type": "uint256",
                    "internalType": "uint256"
                },
                {
                    "name": "startTime",
                    "type": "uint256",
                    "internalType": "uint256"
                },
                {
                    "name": "endTime",
                    "type": "uint256",
                    "internalType": "uint256"
                },
                {
                    "name": "loyaltyMultiplier",
                    "type": "uint256",
                    "internalType": "uint256"
                }
            ],
            "outputs": [
                {
                    "name": "",
                    "type": "uint256",
                    "internalType": "uint256"
                }
            ],
            "stateMutability": "view"
        },
        {
            "type": "function",
            "name": "calculateTimeWeightedAPR",
            "inputs": [
                {
                    "name": "startTime",
                    "type": "uint256",
                    "internalType": "uint256"
                },
                {
                    "name": "endTime",
                    "type": "uint256",
                    "internalType": "uint256"
                }
            ],
            "outputs": [
                {
                    "name": "",
                    "type": "uint256",
                    "internalType": "uint256"
                }
            ],
            "stateMutability": "view"
        },
        {
            "type": "function",
            "name": "claimRewards",
            "inputs": [],
            "outputs": [],
            "stateMutability": "nonpayable"
        },
        {
            "type": "function",
            "name": "getAPRHistoryLength",
            "inputs": [],
            "outputs": [
                {
                    "name": "",
                    "type": "uint256",
                    "internalType": "uint256"
                }
            ],
            "stateMutability": "view"
        },
        {
            "type": "function",
            "name": "getAcceptedVAsset",
            "inputs": [],
            "outputs": [
                {
                    "name": "",
                    "type": "address",
                    "internalType": "address"
                }
            ],
            "stateMutability": "view"
        },
        {
            "type": "function",
            "name": "getClaimableRewards",
            "inputs": [
                {
                    "name": "investor",
                    "type": "address",
                    "internalType": "address"
                }
            ],
            "outputs": [
                {
                    "name": "",
                    "type": "uint256",
                    "internalType": "uint256"
                }
            ],
            "stateMutability": "view"
        },
        {
            "type": "function",
            "name": "getEndTime",
            "inputs": [],
            "outputs": [
                {
                    "name": "",
                    "type": "uint256",
                    "internalType": "uint256"
                }
            ],
            "stateMutability": "view"
        },
        {
            "type": "function",
            "name": "getMaxVTokensPerStaker",
            "inputs": [],
            "outputs": [
                {
                    "name": "",
                    "type": "uint256",
                    "internalType": "uint256"
                }
            ],
            "stateMutability": "view"
        },
        {
            "type": "function",
            "name": "getMinVTokensPerStaker",
            "inputs": [],
            "outputs": [
                {
                    "name": "",
                    "type": "uint256",
                    "internalType": "uint256"
                }
            ],
            "stateMutability": "view"
        },
        {
            "type": "function",
            "name": "getProjectOwner",
            "inputs": [],
            "outputs": [
                {
                    "name": "",
                    "type": "address",
                    "internalType": "address"
                }
            ],
            "stateMutability": "view"
        },
        {
            "type": "function",
            "name": "getProjectOwnerReward",
            "inputs": [],
            "outputs": [
                {
                    "name": "",
                    "type": "uint256",
                    "internalType": "uint256"
                }
            ],
            "stateMutability": "view"
        },
        {
            "type": "function",
            "name": "getProjectToken",
            "inputs": [],
            "outputs": [
                {
                    "name": "",
                    "type": "address",
                    "internalType": "address"
                }
            ],
            "stateMutability": "view"
        },
        {
            "type": "function",
            "name": "getStakedAmount",
            "inputs": [
                {
                    "name": "investor",
                    "type": "address",
                    "internalType": "address"
                }
            ],
            "outputs": [
                {
                    "name": "",
                    "type": "uint256",
                    "internalType": "uint256"
                }
            ],
            "stateMutability": "view"
        },
        {
            "type": "function",
            "name": "getStartTime",
            "inputs": [],
            "outputs": [
                {
                    "name": "",
                    "type": "uint256",
                    "internalType": "uint256"
                }
            ],
            "stateMutability": "view"
        },
        {
            "type": "function",
            "name": "getTargetStakeAmount",
            "inputs": [],
            "outputs": [
                {
                    "name": "",
                    "type": "uint256",
                    "internalType": "uint256"
                }
            ],
            "stateMutability": "view"
        },
        {
            "type": "function",
            "name": "getTotalProjectToken",
            "inputs": [],
            "outputs": [
                {
                    "name": "",
                    "type": "uint256",
                    "internalType": "uint256"
                }
            ],
            "stateMutability": "view"
        },
        {
            "type": "function",
            "name": "getTotalStaked",
            "inputs": [],
            "outputs": [
                {
                    "name": "",
                    "type": "uint256",
                    "internalType": "uint256"
                }
            ],
            "stateMutability": "view"
        },
        {
            "type": "function",
            "name": "getUserCurrentAccumulatedRewards",
            "inputs": [
                {
                    "name": "investor",
                    "type": "address",
                    "internalType": "address"
                }
            ],
            "outputs": [
                {
                    "name": "",
                    "type": "uint256",
                    "internalType": "uint256"
                }
            ],
            "stateMutability": "view"
        },
        {
            "type": "function",
            "name": "owner",
            "inputs": [],
            "outputs": [
                {
                    "name": "",
                    "type": "address",
                    "internalType": "address"
                }
            ],
            "stateMutability": "view"
        },
        {
            "type": "function",
            "name": "projectOwnerClaiming",
            "inputs": [],
            "outputs": [],
            "stateMutability": "nonpayable"
        },
        {
            "type": "function",
            "name": "renounceOwnership",
            "inputs": [],
            "outputs": [],
            "stateMutability": "nonpayable"
        },
        {
            "type": "function",
            "name": "stake",
            "inputs": [
                {
                    "name": "amount",
                    "type": "uint256",
                    "internalType": "uint256"
                }
            ],
            "outputs": [],
            "stateMutability": "nonpayable"
        },
        {
            "type": "function",
            "name": "stakerIndexes",
            "inputs": [
                {
                    "name": "",
                    "type": "address",
                    "internalType": "address"
                }
            ],
            "outputs": [
                {
                    "name": "",
                    "type": "uint256",
                    "internalType": "uint256"
                }
            ],
            "stateMutability": "view"
        },
        {
            "type": "function",
            "name": "stakes",
            "inputs": [
                {
                    "name": "",
                    "type": "address",
                    "internalType": "address"
                }
            ],
            "outputs": [
                {
                    "name": "amount",
                    "type": "uint256",
                    "internalType": "uint256"
                },
                {
                    "name": "timestamp",
                    "type": "uint256",
                    "internalType": "uint256"
                },
                {
                    "name": "lastRewardCalculation",
                    "type": "uint256",
                    "internalType": "uint256"
                },
                {
                    "name": "accumulatedRewards",
                    "type": "uint256",
                    "internalType": "uint256"
                },
                {
                    "name": "reservedRewards",
                    "type": "uint256",
                    "internalType": "uint256"
                },
                {
                    "name": "lastAprIndex",
                    "type": "uint256",
                    "internalType": "uint256"
                },
                {
                    "name": "isActive",
                    "type": "bool",
                    "internalType": "bool"
                }
            ],
            "stateMutability": "view"
        },
        {
            "type": "function",
            "name": "transferOwnership",
            "inputs": [
                {
                    "name": "newOwner",
                    "type": "address",
                    "internalType": "address"
                }
            ],
            "outputs": [],
            "stateMutability": "nonpayable"
        },
        {
            "type": "function",
            "name": "unstake",
            "inputs": [
                {
                    "name": "amount",
                    "type": "uint256",
                    "internalType": "uint256"
                }
            ],
            "outputs": [],
            "stateMutability": "nonpayable"
        },
        {
            "type": "event",
            "name": "APRUpdated",
            "inputs": [
                {
                    "name": "oldAPR",
                    "type": "uint256",
                    "indexed": false,
                    "internalType": "uint256"
                },
                {
                    "name": "newAPR",
                    "type": "uint256",
                    "indexed": false,
                    "internalType": "uint256"
                }
            ],
            "anonymous": false
        },
        {
            "type": "event",
            "name": "OwnershipTransferred",
            "inputs": [
                {
                    "name": "previousOwner",
                    "type": "address",
                    "indexed": true,
                    "internalType": "address"
                },
                {
                    "name": "newOwner",
                    "type": "address",
                    "indexed": true,
                    "internalType": "address"
                }
            ],
            "anonymous": false
        },
        {
            "type": "event",
            "name": "ReservedRewardsRecalculated",
            "inputs": [
                {
                    "name": "oldTotal",
                    "type": "uint256",
                    "indexed": false,
                    "internalType": "uint256"
                },
                {
                    "name": "newTotal",
                    "type": "uint256",
                    "indexed": false,
                    "internalType": "uint256"
                }
            ],
            "anonymous": false
        },
        {
            "type": "event",
            "name": "RewardsClaimed",
            "inputs": [
                {
                    "name": "investor",
                    "type": "address",
                    "indexed": true,
                    "internalType": "address"
                },
                {
                    "name": "amount",
                    "type": "uint256",
                    "indexed": false,
                    "internalType": "uint256"
                }
            ],
            "anonymous": false
        },
        {
            "type": "event",
            "name": "Staked",
            "inputs": [
                {
                    "name": "investor",
                    "type": "address",
                    "indexed": true,
                    "internalType": "address"
                },
                {
                    "name": "amount",
                    "type": "uint256",
                    "indexed": false,
                    "internalType": "uint256"
                }
            ],
            "anonymous": false
        },
        {
            "type": "event",
            "name": "Unstaked",
            "inputs": [
                {
                    "name": "investor",
                    "type": "address",
                    "indexed": true,
                    "internalType": "address"
                },
                {
                    "name": "amount",
                    "type": "uint256",
                    "indexed": false,
                    "internalType": "uint256"
                },
                {
                    "name": "duration",
                    "type": "uint256",
                    "indexed": false,
                    "internalType": "uint256"
                }
            ],
            "anonymous": false
        },
        {
            "type": "error",
            "name": "ERC20TransferFailed",
            "inputs": []
        },
        {
            "type": "error",
            "name": "EndTimeMustBeAfterStartTime",
            "inputs": []
        },
        {
            "type": "error",
            "name": "InsufficientRewardsAvailable",
            "inputs": []
        },
        {
            "type": "error",
            "name": "InvalidAcceptedVAssetAddress",
            "inputs": []
        },
        {
            "type": "error",
            "name": "InvalidBifrostEarningAddress",
            "inputs": []
        },
        {
            "type": "error",
            "name": "InvalidProjectTokenAddress",
            "inputs": []
        },
        {
            "type": "error",
            "name": "InvalidStakingTimeFrame",
            "inputs": []
        },
        {
            "type": "error",
            "name": "InvalidTimeRange",
            "inputs": []
        },
        {
            "type": "error",
            "name": "MaxAndMinTokensPerStakerMustBeGreaterThanZero",
            "inputs": []
        },
        {
            "type": "error",
            "name": "MinimumStakeDurationNotMet",
            "inputs": []
        },
        {
            "type": "error",
            "name": "NoActiveStake",
            "inputs": []
        },
        {
            "type": "error",
            "name": "NotEnoughERC20Allowance",
            "inputs": []
        },
        {
            "type": "error",
            "name": "OwnableInvalidOwner",
            "inputs": [
                {
                    "name": "owner",
                    "type": "address",
                    "internalType": "address"
                }
            ]
        },
        {
            "type": "error",
            "name": "OwnableUnauthorizedAccount",
            "inputs": [
                {
                    "name": "account",
                    "type": "address",
                    "internalType": "address"
                }
            ]
        },
        {
            "type": "error",
            "name": "ReentrancyGuardReentrantCall",
            "inputs": []
        },
        {
            "type": "error",
            "name": "RemainingStakeBelowMinimum",
            "inputs": []
        },
        {
            "type": "error",
            "name": "StartTimeMustBeInFuture",
            "inputs": []
        },
        {
            "type": "error",
            "name": "TargetStakeAmountMustBeGreaterThanZero",
            "inputs": []
        },
        {
            "type": "error",
            "name": "TotalProjectTokensMustBeGreaterThanZero",
            "inputs": []
        },
        {
            "type": "error",
            "name": "TotalStakeCannotExceedMaxStaking",
            "inputs": []
        },
        {
            "type": "error",
            "name": "TotalStakeCannotLowerMinStaking",
            "inputs": []
        }
    ],
    "bytecode": {
        "object": "0x60a060405234801562000010575f80fd5b506040516200260f3803806200260f83398101604081905262000033916200038e565b896001600160a01b0381166200006257604051631e4fbdf760e01b81525f600482015260240160405180910390fd5b6200006d81620001d8565b50600180556200008589898989898989898962000227565b5060408051610160810182526001600160a01b03808d168083528c82166020808501829052928d1684860181905260608086018d9052608086018c905260a086018b905260c086018a905260e08601899052610100860188905261012086018b90525f610140909601869052600280546001600160a01b031990811690951781556003805486169094179093556004805490941690911790925560058b905560068a9055600789905560088890556009879055600a868155600b8a9055600c949094558451918201909452428152600f9390929183019162000168919062000530565b620001769061032062000544565b81525f6020918201819052835460018181018655948252828220845160039092020190815591830151938201939093556040909101516002909101556001600160a01b03909716608052505050600e849055505050600d55506200055e915050565b5f80546001600160a01b038381166001600160a01b0319831681178455604051919092169283917f8be0079c531659141344cd1fd0a4f28419497f9722a3daafe3b4186f6b6457e09190a35050565b5f86864282116200024b57604051639519947b60e01b815260040160405180910390fd5b8181116200026c576040516324ffda2960e11b815260040160405180910390fd5b8b8b8b6001600160a01b038116620002975760405163639de49560e11b815260040160405180910390fd5b6001600160a01b038316620002bf5760405163d231c85560e01b815260040160405180910390fd5b6001600160a01b038216620002e7576040516329677ed160e01b815260040160405180910390fd5b898989825f036200030b5760405163930bd63f60e01b815260040160405180910390fd5b81158062000317575080155b15620003365760405163031cb01560e31b815260040160405180910390fd5b89805f0362000358576040516306e5493960e21b815260040160405180910390fd5b600199505050505050505050509998505050505050505050565b80516001600160a01b038116811462000389575f80fd5b919050565b5f805f805f805f805f806101408b8d031215620003a9575f80fd5b620003b48b62000372565b9950620003c460208c0162000372565b9850620003d460408c0162000372565b9750620003e460608c0162000372565b965060808b0151955060a08b0151945060c08b0151935060e08b015192506101008b015191506101208b015190509295989b9194979a5092959850565b634e487b7160e01b5f52601160045260245ffd5b600181815b808511156200047557815f190482111562000459576200045962000421565b808516156200046757918102915b93841c93908002906200043a565b509250929050565b5f826200048d575060016200052a565b816200049b57505f6200052a565b8160018114620004b45760028114620004bf57620004df565b60019150506200052a565b60ff841115620004d357620004d362000421565b50506001821b6200052a565b5060208310610133831016604e8410600b841016171562000504575081810a6200052a565b62000510838362000435565b805f190482111562000526576200052662000421565b0290505b92915050565b5f6200053d83836200047d565b9392505050565b80820281158282048414176200052a576200052a62000421565b60805161207c620005935f395f81816103d101528181610ac701528181610b630152818161172f01526117c1015261207c5ff3fe608060405234801561000f575f80fd5b50600436106101f2575f3560e01c806360c9327811610114578063c6fd23b1116100a9578063e6d6859511610079578063e6d6859514610466578063ee47420c14610477578063f2fde38b1461047f578063f628159414610492578063f73a8b5c146104c0575f80fd5b8063c6fd23b114610419578063c828371e1461042c578063d0fde3e414610434578063dd4785f514610447575f80fd5b80638da5cb5b116100e45780638da5cb5b146103bc5780639998e3d3146103cc5780639ae52036146103f3578063a694fc3a14610406575f80fd5b806360c932781461037957806365168bf7146103a4578063715018a6146103ac578063833ea6ed146103b4575f80fd5b806331b7f25d1161018a578063439f5ac21161015a578063439f5ac2146103275780634837c5961461032f5780634da6a556146103405780635eb5e2f414610368575f80fd5b806331b7f25d146102e457806336d8722c1461030f578063372500ab14610317578063382acbf41461031f575f80fd5b806329f3f7a0116101c557806329f3f7a0146102ae5780632e0f2625146102b65780632e17de78146102be578063308e401e146102d1575f80fd5b806307b57eab146101f65780630917e7761461020057806316934fc414610217578063178be2201461029b575b5f80fd5b6101fe6104c8565b005b600d545b6040519081526020015b60405180910390f35b610264610225366004611de9565b60126020525f90815260409020805460018201546002830154600384015460048501546005860154600690960154949593949293919290919060ff1687565b604080519788526020880196909652948601939093526060850191909152608084015260a0830152151560c082015260e00161020e565b6102046102a9366004611e0f565b61063d565b600854610204565b610204600281565b6101fe6102cc366004611e3e565b6106be565b6102046102df366004611de9565b610d66565b6102f76102f2366004611e3e565b610dff565b6040516001600160a01b03909116815260200161020e565b600954610204565b6101fe610e27565b600f54610204565b600654610204565b6003546001600160a01b03166102f7565b61020461034e366004611de9565b6001600160a01b03165f9081526012602052604090205490565b6004546001600160a01b03166102f7565b610204610387366004611de9565b6001600160a01b03165f9081526012602052604090206003015490565b610204611058565b6101fe6111c3565b600e54610204565b5f546001600160a01b03166102f7565b6102f77f000000000000000000000000000000000000000000000000000000000000000081565b610204610401366004611e3e565b6111d4565b6101fe610414366004611e3e565b611287565b610204610427366004611e0f565b611876565b600554610204565b610204610442366004611e55565b611933565b610204610455366004611de9565b60116020525f908152604090205481565b6002546001600160a01b03166102f7565b600a54610204565b6101fe61048d366004611de9565b611afc565b6104a56104a0366004611e3e565b611b36565b6040805193845260208401929092529082015260600161020e565b600754610204565b6104d0611b67565b6104d8611b93565b600654421161052e5760405162461bcd60e51b815260206004820152601860248201527f50726f6a656374206973207374696c6c206f6e676f696e67000000000000000060448201526064015b60405180910390fd5b5f600e541161058e5760405162461bcd60e51b815260206004820152602660248201527f4e6f207265776172647320617661696c61626c6520666f722070726f6a6563746044820152651037bbb732b960d11b6064820152608401610525565b600e80545f9182905560035460025460405163a9059cbb60e01b81526001600160a01b0391821660048201526024810184905292939291169063a9059cbb906044016020604051808303815f875af11580156105ec573d5f803e3d5ffd5b505050506040513d601f19601f820116820180604052508101906106109190611e75565b90508061063057604051633c9fd93960e21b815260040160405180910390fd5b505061063b60018055565b565b5f8061064b6002600a611f88565b610656906064611f93565b6106608588611f93565b61066a9190611faa565b90505f6301e1338061067c8784611f93565b6106869190611faa565b90506106946002600a611f88565b61069f906064611f93565b6106a98583611f93565b6106b39190611faa565b979650505050505050565b6106c6611b93565b335f818152601260205260409020600681015460ff166106f957604051637d9a44a160e11b815260040160405180910390fd5b80548311156107595760405162461bcd60e51b815260206004820152602660248201527f43616e6e6f7420756e7374616b65206d6f7265207468616e207374616b656420604482015265185b5bdd5b9d60d21b6064820152608401610525565b5f81600101544261076a9190611fc9565b9050620151808110156107905760405163b1c74adb60e01b815260040160405180910390fd5b61079983611bbd565b83600d5f8282546107aa9190611fc9565b909155505f90506107b9611058565b600f80549192505f916107ce90600190611fc9565b815481106107de576107de611fdc565b905f5260205f2090600302016001015490508082146108e0576004840154600b80545f9061080d908490611ff0565b90915550506004840154600c80545f90610828908490611fc9565b90915550610837905033611c36565b6040805160608101825242815260208101848152600c54928201928352600f80546001810182555f9190915291517f8d1108e10bcb7c27dddfc02ed9d693a074039d026cf4ea4240b40f7d581ac802600390930292830155517f8d1108e10bcb7c27dddfc02ed9d693a074039d026cf4ea4240b40f7d581ac80382015590517f8d1108e10bcb7c27dddfc02ed9d693a074039d026cf4ea4240b40f7d581ac80490910155610917565b6004840154600b80545f906108f6908490611ff0565b90915550506004840154600c80545f90610911908490611fc9565b90915550505b85845f015f8282546109299190611fc9565b9091555050600654421015610ab2578354156109cb576006545f9061094f904290611fc9565b85549091505f906109739083866109686002600a611f88565b6102a9906096611f93565b60048701819055600f5490915061098c90600190611fc9565b6005870155600b80548291905f906109a5908490611fc9565b9091555050600c80548291905f906109be908490611ff0565b90915550610ab292505050565b60068401805460ff191690555f600485018190556001600160a01b03861681526011602052604081205460108054919291610a0890600190611fc9565b81548110610a1857610a18611fdc565b5f91825260209091200154601080546001600160a01b039092169250829184908110610a4657610a46611fdc565b5f91825260208083209190910180546001600160a01b0319166001600160a01b0394851617905591831681526011909152604090208290556010805480610a8f57610a8f612003565b5f8281526020902081015f1990810180546001600160a01b031916905501905550505b6040516364ab867560e01b81523060048201527f00000000000000000000000000000000000000000000000000000000000000006001600160a01b0316906364ab867590602401602060405180830381865afa158015610b14573d5f803e3d5ffd5b505050506040513d601f19601f82011682018060405250810190610b389190612017565b600e5f828254610b489190611ff0565b90915550506040516305c2fbcf60e31b8152600481018790527f00000000000000000000000000000000000000000000000000000000000000006001600160a01b031690632e17de78906024015f604051808303815f87803b158015610bac575f80fd5b505af1158015610bbe573d5f803e3d5ffd5b50506004805460405163095ea7b360e01b81523092810192909252602482018a90526001600160a01b0316925063095ea7b391506044016020604051808303815f875af1158015610c11573d5f803e3d5ffd5b505050506040513d601f19601f82011682018060405250810190610c359190611e75565b506004805460405163a9059cbb60e01b81526001600160a01b0388811693820193909352602481018990525f929091169063a9059cbb906044016020604051808303815f875af1158015610c8b573d5f803e3d5ffd5b505050506040513d601f19601f82011682018060405250810190610caf9190611e75565b905080610ccf57604051633c9fd93960e21b815260040160405180910390fd5b60408051888152602081018690526001600160a01b038816917f7fc4727e062e336010f2c282598ef5f14facb3de68cf8195c2f23e1454b2b74e910160405180910390a2818314610d545760408051838152602081018590527fd2d659d197cf77652feb866d2a49b71684b0e7b0d92bde0b26163f77e2e25a2d910160405180910390a15b505050505050610d6360018055565b50565b6001600160a01b0381165f908152601260205260408120600681015460ff16610d9157505f92915050565b6006545f904211610da25742610da6565b6006545b90505f826001015482610db99190611fc9565b90505f610dc5826111d4565b9050805f03610dd957505f95945050505050565b5f610ded855f015486600201548685611876565b90508085600301546106b39190611ff0565b60108181548110610e0e575f80fd5b5f918252602090912001546001600160a01b0316905081565b610e2f611b93565b335f610e3a82610d66565b90505f8111610e815760405162461bcd60e51b81526020600482015260136024820152724e6f207265776172647320746f20636c61696d60681b6044820152606401610525565b6003546040516370a0823160e01b815230600482015282916001600160a01b0316906370a0823190602401602060405180830381865afa158015610ec7573d5f803e3d5ffd5b505050506040513d601f19601f82011682018060405250810190610eeb9190612017565b1015610f395760405162461bcd60e51b815260206004820152601d60248201527f496e73756666696369656e7420636f6e74726163742062616c616e63650000006044820152606401610525565b6001600160a01b0382165f908152601260205260408120600381018290554260029091015560078054839290610f70908490611fc9565b909155505060035460405163a9059cbb60e01b81526001600160a01b038481166004830152602482018490525f92169063a9059cbb906044016020604051808303815f875af1158015610fc5573d5f803e3d5ffd5b505050506040513d601f19601f82011682018060405250810190610fe99190611e75565b90508061100957604051633c9fd93960e21b815260040160405180910390fd5b826001600160a01b03167ffc30cddea38e2bf4d6ea7d3f9ed3b6ad7f176419f4963bd81318067a4aee73fe8360405161104491815260200190565b60405180910390a250505061063b60018055565b5f600d545f0361107f5761106e6002600a611f88565b61107a90610320611f93565b905090565b600a80545f9161109190600290611f88565b600d5461109f906064611f93565b6110a99190611f93565b6110b39190611faa565b90506110c16002600a611f88565b6110cc906064611f93565b81106110ef576110de6002600a611f88565b6110e9906032611f93565b91505090565b5f6110fc6002600a611f88565b611107906032611f93565b6111136002600a611f88565b61111f90610320611f93565b6111299190611fc9565b90505f6111386002600a611f88565b611143906064611f93565b61114d8484611f93565b6111579190611faa565b90505f816111676002600a611f88565b61117390610320611f93565b61117d9190611fc9565b905061118b6002600a611f88565b611196906032611f93565b81116111b8576111a86002600a611f88565b6111b3906032611f93565b6111ba565b805b94505050505090565b6111cb611b67565b61063b5f611d85565b5f620151808210156111e757505f919050565b5f62093a806111f86002600a611f88565b6112056201518086611fc9565b611210906032611f93565b61121a9190611f93565b6112249190611faa565b90506112326002600a611f88565b61123d906032611f93565b81111561125e576112506002600a611f88565b61125b906032611f93565b90505b8061126b6002600a611f88565b611276906064611f93565b6112809190611ff0565b9392505050565b61128f611b93565b6005544210806112a0575060065442115b156112be57604051635707567760e11b815260040160405180910390fd5b600854335f818152601260205260409020548392906112de908490611ff0565b11156112fd57604051632ca1035160e21b815260040160405180910390fd5b600954335f8181526012602052604090205485929061131d908490611ff0565b101561133c576040516350563e4760e01b815260040160405180910390fd5b5f33905085600d5f8282546113519190611ff0565b909155505f9050611360611058565b600f549091505f90611389576113786002600a611f88565b61138490610320611f93565b6113ba565b600f805461139990600190611fc9565b815481106113a9576113a9611fdc565b905f5260205f209060030201600101545b9050808214611471576113cc33611c36565b6040805160608101825242815260208101848152600c54928201928352600f80546001810182555f9190915291517f8d1108e10bcb7c27dddfc02ed9d693a074039d026cf4ea4240b40f7d581ac802600390930292830155517f8d1108e10bcb7c27dddfc02ed9d693a074039d026cf4ea4240b40f7d581ac80382015590517f8d1108e10bcb7c27dddfc02ed9d693a074039d026cf4ea4240b40f7d581ac804909101555b6006545f90611481904290611fc9565b90505f6114968a83866109686002600a611f88565b600b549091508111156114bc57604051635cdee9e160e11b815260040160405180910390fd5b6001600160a01b0385165f9081526012602052604090206006015460ff1661153e57601080546001600160a01b0387165f818152601160205260408120839055600183018455929092527f1b6847dc741a1b0cd08d278845f9d819d87b734759afb55fe2de5cb82a9ae6720180546001600160a01b0319169091179055611547565b61154785611bbd565b6040805160e0810182526001600160a01b0387165f908152601260205291909120548190611576908d90611ff0565b815260200142815260200142815260200160125f886001600160a01b03166001600160a01b031681526020019081526020015f206003015481526020018281526020016001600f805490506115cb9190611fc9565b8152600160209182018190526001600160a01b0388165f908152601283526040808220855181559385015192840192909255908301516002830155606083015160038301556080830151600483015560a0830151600583015560c0909201516006909101805460ff1916911515919091179055600b8054839290611650908490611fc9565b9091555050600c80548291905f90611669908490611ff0565b90915550506004545f906001600160a01b03166040516323b872dd60e01b81526001600160a01b038881166004830152306024830152604482018e905291909116906323b872dd906064016020604051808303815f875af11580156116d0573d5f803e3d5ffd5b505050506040513d601f19601f820116820180604052508101906116f49190611e75565b90508061171457604051633c9fd93960e21b815260040160405180910390fd5b6004805460405163095ea7b360e01b81526001600160a01b037f0000000000000000000000000000000000000000000000000000000000000000811693820193909352602481018e905291169063095ea7b3906044016020604051808303815f875af1158015611786573d5f803e3d5ffd5b505050506040513d601f19601f820116820180604052508101906117aa9190611e75565b5060405163534a7e1d60e11b8152600481018c90527f00000000000000000000000000000000000000000000000000000000000000006001600160a01b03169063a694fc3a906024015f604051808303815f87803b15801561180a575f80fd5b505af115801561181c573d5f803e3d5ffd5b50505050856001600160a01b03167f9e71bc8eea02a63969f509818f2dafb9254532904319f9dbda79b67bd34a5f3d8c60405161185b91815260200190565b60405180910390a250505050505050505050610d6360018055565b5f8383116118975760405163536a71af60e01b815260040160405180910390fd5b5f6118a28585611fc9565b90505f6118af8686611933565b90505f6118be6002600a611f88565b6118c9906064611f93565b6118d3838a611f93565b6118dd9190611faa565b90505f6301e133806118ef8584611f93565b6118f99190611faa565b90506119076002600a611f88565b611912906064611f93565b61191c8783611f93565b6119269190611faa565b9998505050505050505050565b5f8183106119785760405162461bcd60e51b8152602060048201526012602482015271496e76616c69642074696d652072616e676560701b6044820152606401610525565b5f83815b600f54811080156119ae575085600f828154811061199c5761199c611fdc565b905f5260205f2090600302015f015411155b156119c557806119bd8161202e565b91505061197c565b5f81116119d2575f6119dd565b6119dd600182611fc9565b90505b84821080156119f05750600f5481105b15611aa657600f545f90611a05836001611ff0565b10611a105785611a45565b611a45600f611a20846001611ff0565b81548110611a3057611a30611fdc565b905f5260205f2090600302015f015487611dd4565b90505f611a528483611fc9565b905080600f8481548110611a6857611a68611fdc565b905f5260205f20906003020160010154611a829190611f93565b611a8c9086611ff0565b94508193508280611a9c9061202e565b93505050506119e0565b84821015611adc575f611ab98387611fc9565b905080611ac4611058565b611ace9190611f93565b611ad89085611ff0565b9350505b611ae68686611fc9565b611af09084611faa565b93505050505b92915050565b611b04611b67565b6001600160a01b038116611b2d57604051631e4fbdf760e01b81525f6004820152602401610525565b610d6381611d85565b600f8181548110611b45575f80fd5b5f91825260209091206003909102018054600182015460029092015490925083565b5f546001600160a01b0316331461063b5760405163118cdaa760e01b8152336004820152602401610525565b600260015403611bb657604051633ee5aeb560e01b815260040160405180910390fd5b6002600155565b6001600160a01b0381165f9081526012602052604081206001810154909190611be69042611fc9565b90505f611bf2826111d4565b90508015611c30575f611c0e845f015485600201544285611876565b905080846003015f828254611c239190611ff0565b9091555050426002850155505b50505050565b600c80545f91829055905b601054811015611d43575f60108281548110611c5f57611c5f611fdc565b5f918252602090912001546001600160a01b03908116915084168103611c855750611d3b565b6001600160a01b0381165f908152601260205260409020600681015460ff16611caf575050611d3b565b6004810154600b80545f90611cc5908490611ff0565b90915550506006545f90611cda904290611fc9565b90505f611ce5611058565b83549091505f90611cfe9084846109686002600a611f88565b60048501819055600f54909150611d1790600190611fc9565b6005850155600c80548291905f90611d30908490611ff0565b909155505050505050505b600101611c41565b50600c546040805183815260208101929092527fef854a7a2d485eb111d9f1647cd8d8c8da494e9b6a9b0de8b3d5b6859d1e66d6910160405180910390a15050565b5f80546001600160a01b038381166001600160a01b0319831681178455604051919092169283917f8be0079c531659141344cd1fd0a4f28419497f9722a3daafe3b4186f6b6457e09190a35050565b5f818310611de25781611280565b5090919050565b5f60208284031215611df9575f80fd5b81356001600160a01b0381168114611280575f80fd5b5f805f8060808587031215611e22575f80fd5b5050823594602084013594506040840135936060013592509050565b5f60208284031215611e4e575f80fd5b5035919050565b5f8060408385031215611e66575f80fd5b50508035926020909101359150565b5f60208284031215611e85575f80fd5b81518015158114611280575f80fd5b634e487b7160e01b5f52601160045260245ffd5b600181815b80851115611ee257815f1904821115611ec857611ec8611e94565b80851615611ed557918102915b93841c9390800290611ead565b509250929050565b5f82611ef857506001611af6565b81611f0457505f611af6565b8160018114611f1a5760028114611f2457611f40565b6001915050611af6565b60ff841115611f3557611f35611e94565b50506001821b611af6565b5060208310610133831016604e8410600b8410161715611f63575081810a611af6565b611f6d8383611ea8565b805f1904821115611f8057611f80611e94565b029392505050565b5f6112808383611eea565b8082028115828204841417611af657611af6611e94565b5f82611fc457634e487b7160e01b5f52601260045260245ffd5b500490565b81810381811115611af657611af6611e94565b634e487b7160e01b5f52603260045260245ffd5b80820180821115611af657611af6611e94565b634e487b7160e01b5f52603160045260245ffd5b5f60208284031215612027575f80fd5b5051919050565b5f6001820161203f5761203f611e94565b506001019056fea2646970667358221220f44186eedb0e9a788477af7fd727c7f1694d8362e6d60174987c04fd9ffcab4a64736f6c63430008180033",
        "linkReferences": {}
    },
    "methodIdentifiers": {
        "BifrostEarningContract()": "9998e3d3",
        "DECIMALS()": "2e0f2625",
        "activeStakers(uint256)": "31b7f25d",
        "aprHistory(uint256)": "f6281594",
        "calculateCurrentAPR()": "65168bf7",
        "calculateLoyaltyMultiplier(uint256)": "9ae52036",
        "calculateProjectedRewards(uint256,uint256,uint256,uint256)": "178be220",
        "calculateTimeBasedReward(uint256,uint256,uint256,uint256)": "c6fd23b1",
        "calculateTimeWeightedAPR(uint256,uint256)": "d0fde3e4",
        "claimRewards()": "372500ab",
        "getAPRHistoryLength()": "382acbf4",
        "getAcceptedVAsset()": "5eb5e2f4",
        "getClaimableRewards(address)": "308e401e",
        "getEndTime()": "439f5ac2",
        "getMaxVTokensPerStaker()": "29f3f7a0",
        "getMinVTokensPerStaker()": "36d8722c",
        "getProjectOwner()": "e6d68595",
        "getProjectOwnerReward()": "833ea6ed",
        "getProjectToken()": "4837c596",
        "getStakedAmount(address)": "4da6a556",
        "getStartTime()": "c828371e",
        "getTargetStakeAmount()": "ee47420c",
        "getTotalProjectToken()": "f73a8b5c",
        "getTotalStaked()": "0917e776",
        "getUserCurrentAccumulatedRewards(address)": "60c93278",
        "owner()": "8da5cb5b",
        "projectOwnerClaiming()": "07b57eab",
        "renounceOwnership()": "715018a6",
        "stake(uint256)": "a694fc3a",
        "stakerIndexes(address)": "dd4785f5",
        "stakes(address)": "16934fc4",
        "transferOwnership(address)": "f2fde38b",
        "unstake(uint256)": "2e17de78"
    },
    "id": 43
}