{
    "abi": [
        {
            "type": "constructor",
            "inputs": [
                {
                    "name": "_platformFee",
                    "type": "uint256",
                    "internalType": "uint256"
                }
            ],
            "stateMutability": "nonpayable"
        },
        {
            "type": "function",
            "name": "DECIMALS",
            "inputs": [],
            "outputs": [
                {
                    "name": "",
                    "type": "uint256",
                    "internalType": "uint256"
                }
            ],
            "stateMutability": "view"
        },
        {
            "type": "function",
            "name": "createMarket",
            "inputs": [
                {
                    "name": "tradingToken",
                    "type": "address",
                    "internalType": "address"
                },
                {
                    "name": "acceptedCollaterals",
                    "type": "address[]",
                    "internalType": "address[]"
                }
            ],
            "outputs": [
                {
                    "name": "marketId",
                    "type": "uint256",
                    "internalType": "uint256"
                }
            ],
            "stateMutability": "nonpayable"
        },
        {
            "type": "function",
            "name": "getCurrentMarketId",
            "inputs": [],
            "outputs": [
                {
                    "name": "",
                    "type": "uint256",
                    "internalType": "uint256"
                }
            ],
            "stateMutability": "view"
        },
        {
            "type": "function",
            "name": "getMarket",
            "inputs": [
                {
                    "name": "marketId",
                    "type": "uint256",
                    "internalType": "uint256"
                }
            ],
            "outputs": [
                {
                    "name": "",
                    "type": "address",
                    "internalType": "address"
                }
            ],
            "stateMutability": "view"
        },
        {
            "type": "function",
            "name": "getPlatformFee",
            "inputs": [],
            "outputs": [
                {
                    "name": "",
                    "type": "uint256",
                    "internalType": "uint256"
                }
            ],
            "stateMutability": "view"
        },
        {
            "type": "function",
            "name": "markets",
            "inputs": [
                {
                    "name": "",
                    "type": "uint256",
                    "internalType": "uint256"
                }
            ],
            "outputs": [
                {
                    "name": "",
                    "type": "address",
                    "internalType": "address"
                }
            ],
            "stateMutability": "view"
        },
        {
            "type": "function",
            "name": "owner",
            "inputs": [],
            "outputs": [
                {
                    "name": "",
                    "type": "address",
                    "internalType": "address"
                }
            ],
            "stateMutability": "view"
        },
        {
            "type": "function",
            "name": "platformFee",
            "inputs": [],
            "outputs": [
                {
                    "name": "",
                    "type": "uint256",
                    "internalType": "uint256"
                }
            ],
            "stateMutability": "view"
        },
        {
            "type": "function",
            "name": "renounceOwnership",
            "inputs": [],
            "outputs": [],
            "stateMutability": "nonpayable"
        },
        {
            "type": "function",
            "name": "transferOwnership",
            "inputs": [
                {
                    "name": "newOwner",
                    "type": "address",
                    "internalType": "address"
                }
            ],
            "outputs": [],
            "stateMutability": "nonpayable"
        },
        {
            "type": "function",
            "name": "updatePlatformFee",
            "inputs": [
                {
                    "name": "_platformFee",
                    "type": "uint256",
                    "internalType": "uint256"
                }
            ],
            "outputs": [],
            "stateMutability": "nonpayable"
        },
        {
            "type": "event",
            "name": "MarketCreated",
            "inputs": [
                {
                    "name": "token",
                    "type": "address",
                    "indexed": true,
                    "internalType": "address"
                },
                {
                    "name": "market",
                    "type": "address",
                    "indexed": false,
                    "internalType": "address"
                },
                {
                    "name": "acceptedCollaterals",
                    "type": "address[]",
                    "indexed": false,
                    "internalType": "address[]"
                }
            ],
            "anonymous": false
        },
        {
            "type": "event",
            "name": "OwnershipTransferred",
            "inputs": [
                {
                    "name": "previousOwner",
                    "type": "address",
                    "indexed": true,
                    "internalType": "address"
                },
                {
                    "name": "newOwner",
                    "type": "address",
                    "indexed": true,
                    "internalType": "address"
                }
            ],
            "anonymous": false
        },
        {
            "type": "error",
            "name": "NeedAtLeastOneCollateral",
            "inputs": []
        },
        {
            "type": "error",
            "name": "OwnableInvalidOwner",
            "inputs": [
                {
                    "name": "owner",
                    "type": "address",
                    "internalType": "address"
                }
            ]
        },
        {
            "type": "error",
            "name": "OwnableUnauthorizedAccount",
            "inputs": [
                {
                    "name": "account",
                    "type": "address",
                    "internalType": "address"
                }
            ]
        }
    ],
    "bytecode": {
        "object": "0x608060405234801561000f575f80fd5b506040516122bd3803806122bd83398101604081905261002e916100d1565b338061005357604051631e4fbdf760e01b81525f600482015260240160405180910390fd5b61005c81610082565b506001600290815561006f90600a6101de565b61007990826101f0565b60035550610207565b5f80546001600160a01b038381166001600160a01b0319831681178455604051919092169283917f8be0079c531659141344cd1fd0a4f28419497f9722a3daafe3b4186f6b6457e09190a35050565b5f602082840312156100e1575f80fd5b5051919050565b634e487b7160e01b5f52601160045260245ffd5b600181815b8085111561013657815f190482111561011c5761011c6100e8565b8085161561012957918102915b93841c9390800290610101565b509250929050565b5f8261014c575060016101d8565b8161015857505f6101d8565b816001811461016e576002811461017857610194565b60019150506101d8565b60ff841115610189576101896100e8565b50506001821b6101d8565b5060208310610133831016604e8410600b84101617156101b7575081810a6101d8565b6101c183836100fc565b805f19048211156101d4576101d46100e8565b0290505b92915050565b5f6101e9838361013e565b9392505050565b80820281158282048414176101d8576101d86100e8565b6120a9806102145f395ff3fe608060405234801561000f575f80fd5b50600436106100a6575f3560e01c80637b974a6e1161006e5780637b974a6e146100e85780638da5cb5b146100fb578063aa0b59881461011f578063b1283e7714610132578063eb44fdd31461015a578063f2fde38b14610182575f80fd5b806326232a2e146100aa5780632e0f2625146100c6578063614f2eef146100ce5780636ea8bc10146100d6578063715018a6146100de575b5f80fd5b6100b360035481565b6040519081526020015b60405180910390f35b6100b3600281565b6002546100b3565b6003546100b3565b6100e6610195565b005b6100b36100f6366004610384565b6101a8565b5f546001600160a01b03165b6040516001600160a01b0390911681526020016100bd565b6100e661012d366004610403565b610292565b610107610140366004610403565b60016020525f90815260409020546001600160a01b031681565b610107610168366004610403565b5f908152600160205260409020546001600160a01b031690565b6100e661019036600461041a565b61029f565b61019d6102e1565b6101a65f61030d565b565b5f82828083036101cb5760405163ca744fa760e01b815260040160405180910390fd5b60028054905f6101da8361043a565b9190505592505f8660035487876040516101f39061035c565b61020094939291906104a3565b604051809103905ff080158015610219573d5f803e3d5ffd5b505f858152600160205260409081902080546001600160a01b0319166001600160a01b038481169190911790915590519192508816907f137c1cc8b0a58427e46ff51c9d5e2773838dcdcd7a2f70c83fa667830641dc83906102809084908a908a906104d4565b60405180910390a25050509392505050565b61029a6102e1565b600355565b6102a76102e1565b6001600160a01b0381166102d557604051631e4fbdf760e01b81525f60048201526024015b60405180910390fd5b6102de8161030d565b50565b5f546001600160a01b031633146101a65760405163118cdaa760e01b81523360048201526024016102cc565b5f80546001600160a01b038381166001600160a01b0319831681178455604051919092169283917f8be0079c531659141344cd1fd0a4f28419497f9722a3daafe3b4186f6b6457e09190a35050565b611b728061050283390190565b80356001600160a01b038116811461037f575f80fd5b919050565b5f805f60408486031215610396575f80fd5b61039f84610369565b9250602084013567ffffffffffffffff808211156103bb575f80fd5b818601915086601f8301126103ce575f80fd5b8135818111156103dc575f80fd5b8760208260051b85010111156103f0575f80fd5b6020830194508093505050509250925092565b5f60208284031215610413575f80fd5b5035919050565b5f6020828403121561042a575f80fd5b61043382610369565b9392505050565b5f6001820161045757634e487b7160e01b5f52601160045260245ffd5b5060010190565b8183525f60208085019450825f5b85811015610498576001600160a01b0361048583610369565b168752958201959082019060010161046c565b509495945050505050565b60018060a01b0385168152836020820152606060408201525f6104ca60608301848661045e565b9695505050505050565b6001600160a01b03841681526040602082018190525f906104f8908301848661045e565b9594505050505056fe60c060405234801562000010575f80fd5b5060405162001b7238038062001b72833981016040819052620000339162000116565b60015f8190556001600160a01b03841660805260a083905281516200005e9190602084019062000068565b5050505062000202565b828054828255905f5260205f20908101928215620000be579160200282015b82811115620000be57825182546001600160a01b0319166001600160a01b0390911617825560209092019160019091019062000087565b50620000cc929150620000d0565b5090565b5b80821115620000cc575f8155600101620000d1565b80516001600160a01b0381168114620000fd575f80fd5b919050565b634e487b7160e01b5f52604160045260245ffd5b5f805f6060848603121562000129575f80fd5b6200013484620000e6565b60208581015160408701519295509350906001600160401b03808211156200015a575f80fd5b818701915087601f8301126200016e575f80fd5b81518181111562000183576200018362000102565b8060051b604051601f19603f83011681018181108582111715620001ab57620001ab62000102565b60405291825284820192508381018501918a831115620001c9575f80fd5b938501935b82851015620001f257620001e285620000e6565b84529385019392850192620001ce565b8096505050505050509250925092565b60805160a05161192b620002475f395f818161014c015261024301525f81816101ce015281816101f70152818161076201528181610ce40152610dcd015261192b5ff3fe608060405234801561000f575f80fd5b5060043610610127575f3560e01c80636ea8bc10116100a9578063c0225c3d1161006e578063c0225c3d14610320578063c191654c14610335578063c494a53514610348578063d09ef2411461035b578063dadc5e591461037b575f80fd5b80636ea8bc10146102415780637cce047214610267578063817cc79a1461027a578063a85c38ef1461028d578063b5b3b05114610318575f80fd5b806343b8531a116100ef57806343b8531a146101c45780634837c596146101cc5780634b60ce77146101f2578063514fcac7146102195780636b269f821461022e575f80fd5b80632453ffa81461012b57806326232a2e146101475780632e0f26251461016e5780633a2cbd6b146101765780633cd1a4a0146101a1575b5f80fd5b61013460025481565b6040519081526020015b60405180910390f35b6101347f000000000000000000000000000000000000000000000000000000000000000081565b610134600281565b6101896101843660046115da565b61038e565b6040516001600160a01b03909116815260200161013e565b6101b46101af36600461160c565b6103df565b604051901515815260200161013e565b600154610134565b7f0000000000000000000000000000000000000000000000000000000000000000610189565b6101897f000000000000000000000000000000000000000000000000000000000000000081565b61022c6102273660046115da565b61043b565b005b61022c61023c3660046115da565b6105e0565b7f0000000000000000000000000000000000000000000000000000000000000000610134565b61022c6102753660046115da565b6108b4565b61022c6102883660046115da565b610b1d565b61030261029b3660046115da565b600360208190525f9182526040909120805460018201546002830154938301546004840154600585015460069095015460ff808616976001600160a01b0361010097889004811698968116979196941693928083169291810482169162010000909104168a565b60405161013e9a99989796959493929190611664565b600254610134565b610328610fa6565b60405161013e91906116d3565b6101896103433660046115da565b611006565b61022c6103563660046115da565b61102e565b61036e6103693660046115da565b6111b7565b60405161013e919061171f565b6101346103893660046117d5565b6112f8565b6001545f9082106103b257604051631390f2a160e01b815260040160405180910390fd5b600182815481106103c5576103c561181d565b5f918252602090912001546001600160a01b031692915050565b5f805b60015481101561043357826001600160a01b0316600182815481106104095761040961181d565b5f918252602090912001546001600160a01b03160361042b5750600192915050565b6001016103e2565b505f92915050565b6104436115b2565b5f81815260036020526040812090600682015460ff16600381111561046a5761046a61162c565b146104c65760405162461bcd60e51b815260206004820152602160248201527f4f6e6c79206f70656e206f72646572732063616e2062652063616e63656c6c656044820152601960fa1b60648201526084015b60405180910390fd5b805461010090046001600160a01b031633146105185760405162461bcd60e51b81526020600482015260116024820152702737ba1037b93232b91031b932b0ba37b960791b60448201526064016104bd565b6004818101548254600384015460405163a9059cbb60e01b81526001600160a01b036101009093048316948101949094526024840152169063a9059cbb906044016020604051808303815f875af1158015610575573d5f803e3d5ffd5b505050506040513d601f19601f820116820180604052508101906105999190611831565b5060068101805460ff1916600317905560405182907f61b9399f2f0f32ca39ce8d7be32caed5ec22fe07a6daba3a467ed479ec606582905f90a2506105dd60015f55565b50565b5f818152600360205260408120829180825460ff1660018111156106065761060661162c565b1461061e5760018201546001600160a01b031661062f565b815461010090046001600160a01b03165b9050336001600160a01b0382161461065a5760405163239700bf60e11b815260040160405180910390fd5b6106626115b2565b5f84815260036020526040902084906001600682015460ff16600381111561068c5761068c61162c565b146106aa57604051634811daf560e01b815260040160405180910390fd5b5f8681526003602052604090206006810154879190610100900460ff16156106e5576040516340ae800560e01b815260040160405180910390fd5b5f8881526003602052604081209080825460ff16600181111561070a5761070a61162c565b146107225760018201546001600160a01b0316610733565b815461010090046001600160a01b03165b600283015460405163a9059cbb60e01b81526001600160a01b03808416600483015260248201929092529192507f0000000000000000000000000000000000000000000000000000000000000000169063a9059cbb906044016020604051808303815f875af11580156107a8573d5f803e3d5ffd5b505050506040513d601f19601f820116820180604052508101906107cc9190611831565b6108185760405162461bcd60e51b815260206004820152601d60248201527f50726f6a65637420746f6b656e207472616e73666572206661696c656400000060448201526064016104bd565b60068201805461ff001916610100179081905562010000900460ff16156108735760068201805460ff191660021790556040518a907f02a7d4d9472af7118644884b9a0ee443540c0027e938dd0aa35be8ecbe946c0a905f90a25b60405133908b907f0ddddc48b57dd67f8fa2ff05c78034b578c31ef5caa05b03d2ca16feadbbb98f905f90a35050505050506108ae60015f55565b50505050565b6108bc6115b2565b5f81815260036020526040902081906001600682015460ff1660038111156108e6576108e661162c565b1461090457604051634811daf560e01b815260040160405180910390fd5b5f83815260036020526040902060058101548491906109269062015180611864565b42116109455760405163a7e7df4f60e01b815260040160405180910390fd5b5f858152600360205260408120869180825460ff16600181111561096b5761096b61162c565b146109835760018201546001600160a01b0316610994565b815461010090046001600160a01b03165b9050336001600160a01b038216146109bf5760405163239700bf60e11b815260040160405180910390fd5b5f8881526003602052604081209080825460ff1660018111156109e4576109e461162c565b146109fc5760018201546001600160a01b0316610a0d565b815461010090046001600160a01b03165b600483015460038401549192506001600160a01b03169063a9059cbb908390610a3790600261187d565b6040516001600160e01b031960e085901b1681526001600160a01b03909216600483015260248201526044016020604051808303815f875af1158015610a7f573d5f803e3d5ffd5b505050506040513d601f19601f82011682018060405250810190610aa39190611831565b5060068201805461ffff19166101031790556040518a907f61b9399f2f0f32ca39ce8d7be32caed5ec22fe07a6daba3a467ed479ec606582905f90a260405133908b907f0ddddc48b57dd67f8fa2ff05c78034b578c31ef5caa05b03d2ca16feadbbb98f905f90a35050505050505050506105dd60015f55565b5f81815260036020526040812082916001825460ff166001811115610b4457610b4461162c565b14610b5c5760018201546001600160a01b0316610b6d565b815461010090046001600160a01b03165b9050336001600160a01b03821614610b9857604051635ec8235160e01b815260040160405180910390fd5b610ba06115b2565b5f84815260036020526040902084906001600682015460ff166003811115610bca57610bca61162c565b14610be857604051634811daf560e01b815260040160405180910390fd5b5f868152600360205260409020600681015487919062010000900460ff1615610c2457604051631409655760e11b815260040160405180910390fd5b5f8881526003602052604090206005810154899190610c469062015180611864565b421115610c665760405163054eca3f60e01b815260040160405180910390fd5b5f8a8152600360205260408120906001825460ff166001811115610c8c57610c8c61162c565b14610ca45760018201546001600160a01b0316610cb5565b815461010090046001600160a01b03165b6002830154604051636eb1769f60e11b81526001600160a01b03808416600483015230602483015292935090917f0000000000000000000000000000000000000000000000000000000000000000169063dd62ed3e90604401602060405180830381865afa158015610d29573d5f803e3d5ffd5b505050506040513d601f19601f82011682018060405250810190610d4d9190611894565b1015610d9b5760405162461bcd60e51b815260206004820152601a60248201527f54726164696e6720746f6b656e206e6f7420617070726f76656400000000000060448201526064016104bd565b60028201546040516323b872dd60e01b81526001600160a01b03838116600483015230602483015260448201929092527f0000000000000000000000000000000000000000000000000000000000000000909116906323b872dd906064016020604051808303815f875af1158015610e15573d5f803e3d5ffd5b505050506040513d601f19601f82011682018060405250810190610e399190611831565b610e855760405162461bcd60e51b815260206004820152601d60248201527f50726f6a65637420746f6b656e207472616e73666572206661696c656400000060448201526064016104bd565b60048201546001600160a01b031663a9059cbb6001845460ff166001811115610eb057610eb061162c565b14610ec85760018401546001600160a01b0316610ed9565b835461010090046001600160a01b03165b6003850154610ee990600261187d565b6040516001600160e01b031960e085901b1681526001600160a01b03909216600483015260248201526044016020604051808303815f875af1158015610f31573d5f803e3d5ffd5b505050506040513d601f19601f82011682018060405250810190610f559190611831565b5060068201805462ff000019166201000017905560405133908d907f0ddddc48b57dd67f8fa2ff05c78034b578c31ef5caa05b03d2ca16feadbbb98f905f90a350505050505050506108ae60015f55565b60606001805480602002602001604051908101604052809291908181526020018280548015610ffc57602002820191905f5260205f20905b81546001600160a01b03168152600190910190602001808311610fde575b5050505050905090565b60018181548110611015575f80fd5b5f918252602090912001546001600160a01b0316905081565b6110366115b2565b5f8181526003602052604081208291600682015460ff16600381111561105e5761105e61162c565b1461107c5760405163206931ef60e01b815260040160405180910390fd5b5f83815260036020526040902080548491339161010090046001600160a01b031682036110bc57604051637bc2e0b360e01b815260040160405180910390fd5b5f868152600360208190526040918290206004808201549282015493516323b872dd60e01b815233918101919091523060248201526044810193909352916001600160a01b03909116906323b872dd906064016020604051808303815f875af115801561112b573d5f803e3d5ffd5b505050506040513d601f19601f8201168201806040525081019061114f9190611831565b50600180820180546001600160a01b0319163317905542600583015560068201805460ff191682800217905550604051339088907ff05103ae6f461efb40489cf708e251737ba1c29313b82a1e9d3a493c8067e1b1905f90a35050505050506105dd60015f55565b60408051610140810182525f80825260208201819052918101829052606081018290526080810182905260a0810182905260c0810182905260e0810182905261010081018290526101208101919091525f8281526003602052604090819020815161014081019092528054829060ff1660018111156112385761123861162c565b60018111156112495761124961162c565b815281546001600160a01b0361010090910481166020830152600183015481166040830152600283015460608301526003808401546080840152600484015490911660a0830152600583015460c0830152600683015460e09092019160ff16908111156112b8576112b861162c565b60038111156112c9576112c961162c565b81526006919091015460ff61010082048116151560208401526201000090910416151560409091015292915050565b5f6113016115b2565b8161130b816103df565b61132857604051630216177d60e41b815260040160405180910390fd5b8484811580611335575080155b1561135357604051632160733960e01b815260040160405180910390fd5b6040516323b872dd60e01b8152336004820152306024820152604481018790526001600160a01b038616906323b872dd906064016020604051808303815f875af11580156113a3573d5f803e3d5ffd5b505050506040513d601f19601f820116820180604052508101906113c79190611831565b50600280545f91826113d8836118ab565b9190505590506040518061014001604052808a60018111156113fc576113fc61162c565b81523360208201525f60408201819052606082018b9052608082018a90526001600160a01b03891660a083015260c0820181905260e09091019081525f60208083018290526040928301829052848252600390522081518154829060ff19166001838181111561146e5761146e61162c565b0217905550602082015181546001600160a01b0391821661010002610100600160a81b03199091161782556040830151600180840180549284166001600160a01b031993841617905560608501516002850155608085015160038086019190915560a08601516004860180549190951693169290921790925560c0840151600584015560e08401516006840180549193909260ff199092169184908111156115185761151861162c565b02179055506101008281015160069092018054610120909401511515620100000262ff0000199315159092029290921662ffff001990931692909217919091179055604051339082907fa7163aa96641b522a9dac0cb576e0e2baf20a0a473f9e159658ba47efdc253be90611594908d908d908d908d906118c3565b60405180910390a393505050506115aa60015f55565b949350505050565b60025f54036115d457604051633ee5aeb560e01b815260040160405180910390fd5b60025f55565b5f602082840312156115ea575f80fd5b5035919050565b80356001600160a01b0381168114611607575f80fd5b919050565b5f6020828403121561161c575f80fd5b611625826115f1565b9392505050565b634e487b7160e01b5f52602160045260245ffd5b600281106116505761165061162c565b9052565b600481106116505761165061162c565b6101408101611673828d611640565b6001600160a01b038b811660208401528a81166040840152606083018a905260808301899052871660a083015260c082018690526116b460e0830186611654565b9215156101008201529015156101209091015298975050505050505050565b602080825282518282018190525f9190848201906040850190845b818110156117135783516001600160a01b0316835292840192918401916001016116ee565b50909695505050505050565b5f61014082019050611732828451611640565b602083015161174c60208401826001600160a01b03169052565b50604083015161176760408401826001600160a01b03169052565b50606083015160608301526080830151608083015260a083015161179660a08401826001600160a01b03169052565b5060c083015160c083015260e08301516117b360e0840182611654565b5061010083810151151590830152610120928301511515929091019190915290565b5f805f80608085870312156117e8575f80fd5b8435600281106117f6575f80fd5b93506020850135925060408501359150611812606086016115f1565b905092959194509250565b634e487b7160e01b5f52603260045260245ffd5b5f60208284031215611841575f80fd5b81518015158114611625575f80fd5b634e487b7160e01b5f52601160045260245ffd5b8082018082111561187757611877611850565b92915050565b808202811582820484141761187757611877611850565b5f602082840312156118a4575f80fd5b5051919050565b5f600182016118bc576118bc611850565b5060010190565b608081016118d18287611640565b602082019490945260408101929092526001600160a01b031660609091015291905056fea2646970667358221220eeb0da7ac80b4470d727fcf9d727e40376e1d0427df31f4afe8ccb5d41b821dd64736f6c63430008180033a26469706673582212207731c4f42b1626ac863f36e5c5ba24ec7a266b6ef4dc67228878a72a7c6fbf5e64736f6c63430008180033",
        "linkReferences": {}
    },
    "methodIdentifiers": {
        "DECIMALS()": "2e0f2625",
        "createMarket(address,address[])": "7b974a6e",
        "getCurrentMarketId()": "614f2eef",
        "getMarket(uint256)": "eb44fdd3",
        "getPlatformFee()": "6ea8bc10",
        "markets(uint256)": "b1283e77",
        "owner()": "8da5cb5b",
        "platformFee()": "26232a2e",
        "renounceOwnership()": "715018a6",
        "transferOwnership(address)": "f2fde38b",
        "updatePlatformFee(uint256)": "aa0b5988"
    },
    "id": 46
}